{
	"contracts/VotingContract.sol": {
		"VotingContract": {
			"abi": [
				{
					"inputs": [],
					"stateMutability": "nonpayable",
					"type": "constructor"
				},
				{
					"inputs": [
						{
							"internalType": "string",
							"name": "name",
							"type": "string"
						},
						{
							"internalType": "uint8",
							"name": "age",
							"type": "uint8"
						},
						{
							"internalType": "string",
							"name": "party",
							"type": "string"
						},
						{
							"internalType": "string",
							"name": "manifesto",
							"type": "string"
						}
					],
					"name": "addContestant",
					"outputs": [
						{
							"internalType": "string",
							"name": "",
							"type": "string"
						}
					],
					"stateMutability": "nonpayable",
					"type": "function"
				},
				{
					"inputs": [
						{
							"internalType": "uint256",
							"name": "",
							"type": "uint256"
						}
					],
					"name": "admins",
					"outputs": [
						{
							"internalType": "address",
							"name": "",
							"type": "address"
						}
					],
					"stateMutability": "view",
					"type": "function"
				},
				{
					"inputs": [
						{
							"internalType": "uint256",
							"name": "",
							"type": "uint256"
						}
					],
					"name": "contestants",
					"outputs": [
						{
							"internalType": "string",
							"name": "name",
							"type": "string"
						},
						{
							"internalType": "uint8",
							"name": "age",
							"type": "uint8"
						},
						{
							"internalType": "string",
							"name": "party",
							"type": "string"
						},
						{
							"internalType": "string",
							"name": "manifesto",
							"type": "string"
						}
					],
					"stateMutability": "view",
					"type": "function"
				},
				{
					"inputs": [],
					"name": "endElection",
					"outputs": [],
					"stateMutability": "nonpayable",
					"type": "function"
				},
				{
					"inputs": [],
					"name": "numOfVotes",
					"outputs": [
						{
							"internalType": "uint32",
							"name": "",
							"type": "uint32"
						}
					],
					"stateMutability": "view",
					"type": "function"
				},
				{
					"inputs": [],
					"name": "registerAsAdmin",
					"outputs": [],
					"stateMutability": "nonpayable",
					"type": "function"
				},
				{
					"inputs": [
						{
							"internalType": "string",
							"name": "name",
							"type": "string"
						},
						{
							"internalType": "uint8",
							"name": "age",
							"type": "uint8"
						},
						{
							"internalType": "string",
							"name": "nationality",
							"type": "string"
						}
					],
					"name": "registerVoter",
					"outputs": [
						{
							"internalType": "string",
							"name": "",
							"type": "string"
						}
					],
					"stateMutability": "nonpayable",
					"type": "function"
				},
				{
					"inputs": [],
					"name": "showWinner",
					"outputs": [
						{
							"internalType": "string",
							"name": "",
							"type": "string"
						}
					],
					"stateMutability": "view",
					"type": "function"
				},
				{
					"inputs": [],
					"name": "startElectionNow",
					"outputs": [
						{
							"internalType": "bool",
							"name": "",
							"type": "bool"
						}
					],
					"stateMutability": "nonpayable",
					"type": "function"
				},
				{
					"inputs": [
						{
							"internalType": "uint256",
							"name": "voterIndex",
							"type": "uint256"
						},
						{
							"internalType": "uint256",
							"name": "contestantIndex",
							"type": "uint256"
						}
					],
					"name": "vote",
					"outputs": [],
					"stateMutability": "nonpayable",
					"type": "function"
				},
				{
					"inputs": [
						{
							"internalType": "uint256",
							"name": "",
							"type": "uint256"
						}
					],
					"name": "voters",
					"outputs": [
						{
							"internalType": "string",
							"name": "name",
							"type": "string"
						},
						{
							"internalType": "uint8",
							"name": "age",
							"type": "uint8"
						},
						{
							"internalType": "string",
							"name": "nationality",
							"type": "string"
						},
						{
							"internalType": "bool",
							"name": "voted",
							"type": "bool"
						},
						{
							"internalType": "bool",
							"name": "isEligible",
							"type": "bool"
						}
					],
					"stateMutability": "view",
					"type": "function"
				},
				{
					"inputs": [
						{
							"internalType": "uint256",
							"name": "",
							"type": "uint256"
						}
					],
					"name": "votes",
					"outputs": [
						{
							"internalType": "uint256",
							"name": "",
							"type": "uint256"
						}
					],
					"stateMutability": "view",
					"type": "function"
				},
				{
					"inputs": [],
					"name": "votingActive",
					"outputs": [
						{
							"internalType": "bool",
							"name": "",
							"type": "bool"
						}
					],
					"stateMutability": "view",
					"type": "function"
				},
				{
					"inputs": [
						{
							"internalType": "uint256",
							"name": "_votingEnd",
							"type": "uint256"
						}
					],
					"name": "votingEndInMinutes",
					"outputs": [
						{
							"internalType": "string",
							"name": "",
							"type": "string"
						}
					],
					"stateMutability": "nonpayable",
					"type": "function"
				},
				{
					"inputs": [],
					"name": "votingEndTime",
					"outputs": [
						{
							"internalType": "uint256",
							"name": "",
							"type": "uint256"
						}
					],
					"stateMutability": "view",
					"type": "function"
				},
				{
					"inputs": [
						{
							"internalType": "uint256",
							"name": "_votingStart",
							"type": "uint256"
						}
					],
					"name": "votingStartInMinutes",
					"outputs": [
						{
							"internalType": "string",
							"name": "",
							"type": "string"
						}
					],
					"stateMutability": "nonpayable",
					"type": "function"
				},
				{
					"inputs": [],
					"name": "votingStartTime",
					"outputs": [
						{
							"internalType": "uint256",
							"name": "",
							"type": "uint256"
						}
					],
					"stateMutability": "view",
					"type": "function"
				}
			],
			"devdoc": {
				"kind": "dev",
				"methods": {},
				"version": 1
			},
			"evm": {
				"assembly": "    /* \"contracts/VotingContract.sol\":61:5298  contract VotingContract {... */\n  mstore(0x40, 0x80)\n    /* \"contracts/VotingContract.sol\":802:852  constructor() {... */\n  callvalue\n  dup1\n  iszero\n  tag_1\n  jumpi\n  revert(0x00, 0x00)\ntag_1:\n  pop\n    /* \"contracts/VotingContract.sol\":827:844  registerAsAdmin() */\n  tag_4\n    /* \"contracts/VotingContract.sol\":827:842  registerAsAdmin */\n  shl(0x20, tag_5)\n    /* \"contracts/VotingContract.sol\":827:844  registerAsAdmin() */\n  0x20\n  shr\n  jump\t// in\ntag_4:\n    /* \"contracts/VotingContract.sol\":61:5298  contract VotingContract {... */\n  jump(tag_6)\n    /* \"contracts/VotingContract.sol\":2114:2388  function registerAsAdmin() public {... */\ntag_5:\n    /* \"contracts/VotingContract.sol\":2183:2184  5 */\n  0x05\n    /* \"contracts/VotingContract.sol\":2167:2173  admins */\n  dup1\n    /* \"contracts/VotingContract.sol\":2167:2180  admins.length */\n  dup1\n  sload\n  swap1\n  pop\n    /* \"contracts/VotingContract.sol\":2167:2184  admins.length < 5 */\n  lt\n    /* \"contracts/VotingContract.sol\":2159:2208  require(admins.length < 5, \"Admin limit reached\") */\n  tag_8\n  jumpi\n  mload(0x40)\n  0x08c379a000000000000000000000000000000000000000000000000000000000\n  dup2\n  mstore\n  0x04\n  add\n  tag_9\n  swap1\n  tag_10\n  jump\t// in\ntag_9:\n  mload(0x40)\n  dup1\n  swap2\n  sub\n  swap1\n  revert\ntag_8:\n    /* \"contracts/VotingContract.sol\":2224:2230  uint i */\n  0x00\n    /* \"contracts/VotingContract.sol\":2233:2234  0 */\n  0x00\n    /* \"contracts/VotingContract.sol\":2224:2234  uint i = 0 */\n  swap1\n  pop\n    /* \"contracts/VotingContract.sol\":2219:2347  for (uint i = 0; i < admins.length; i++) {... */\ntag_11:\n    /* \"contracts/VotingContract.sol\":2240:2246  admins */\n  0x05\n    /* \"contracts/VotingContract.sol\":2240:2253  admins.length */\n  dup1\n  sload\n  swap1\n  pop\n    /* \"contracts/VotingContract.sol\":2236:2237  i */\n  dup2\n    /* \"contracts/VotingContract.sol\":2236:2253  i < admins.length */\n  lt\n    /* \"contracts/VotingContract.sol\":2219:2347  for (uint i = 0; i < admins.length; i++) {... */\n  iszero\n  tag_12\n  jumpi\n    /* \"contracts/VotingContract.sol\":2296:2306  msg.sender */\n  caller\n    /* \"contracts/VotingContract.sol\":2283:2306  admins[i] != msg.sender */\n  0xffffffffffffffffffffffffffffffffffffffff\n  and\n    /* \"contracts/VotingContract.sol\":2283:2289  admins */\n  0x05\n    /* \"contracts/VotingContract.sol\":2290:2291  i */\n  dup3\n    /* \"contracts/VotingContract.sol\":2283:2292  admins[i] */\n  dup2\n  sload\n  dup2\n  lt\n  tag_14\n  jumpi\n  tag_15\n  tag_16\n  jump\t// in\ntag_15:\ntag_14:\n  swap1\n  0x00\n  mstore\n  keccak256(0x00, 0x20)\n  add\n  0x00\n  swap1\n  sload\n  swap1\n  0x0100\n  exp\n  swap1\n  div\n  0xffffffffffffffffffffffffffffffffffffffff\n  and\n    /* \"contracts/VotingContract.sol\":2283:2306  admins[i] != msg.sender */\n  0xffffffffffffffffffffffffffffffffffffffff\n  and\n  sub\n    /* \"contracts/VotingContract.sol\":2275:2335  require(admins[i] != msg.sender, \"Admin already registered\") */\n  tag_18\n  jumpi\n  mload(0x40)\n  0x08c379a000000000000000000000000000000000000000000000000000000000\n  dup2\n  mstore\n  0x04\n  add\n  tag_19\n  swap1\n  tag_20\n  jump\t// in\ntag_19:\n  mload(0x40)\n  dup1\n  swap2\n  sub\n  swap1\n  revert\ntag_18:\n    /* \"contracts/VotingContract.sol\":2255:2258  i++ */\n  dup1\n  dup1\n  0x01\n  add\n  swap2\n  pop\n  pop\n    /* \"contracts/VotingContract.sol\":2219:2347  for (uint i = 0; i < admins.length; i++) {... */\n  jump(tag_11)\ntag_12:\n  pop\n    /* \"contracts/VotingContract.sol\":2357:2363  admins */\n  0x05\n    /* \"contracts/VotingContract.sol\":2369:2379  msg.sender */\n  caller\n    /* \"contracts/VotingContract.sol\":2357:2380  admins.push(msg.sender) */\n  swap1\n  dup1\n  0x01\n  dup2\n  sload\n  add\n  dup1\n  dup3\n  sstore\n  dup1\n  swap2\n  pop\n  pop\n  0x01\n  swap1\n  sub\n  swap1\n  0x00\n  mstore\n  keccak256(0x00, 0x20)\n  add\n  0x00\n  swap1\n  swap2\n  swap1\n  swap2\n  swap1\n  swap2\n  0x0100\n  exp\n  dup2\n  sload\n  dup2\n  0xffffffffffffffffffffffffffffffffffffffff\n  mul\n  not\n  and\n  swap1\n  dup4\n  0xffffffffffffffffffffffffffffffffffffffff\n  and\n  mul\n  or\n  swap1\n  sstore\n  pop\n    /* \"contracts/VotingContract.sol\":2114:2388  function registerAsAdmin() public {... */\n  jump\t// out\n    /* \"#utility.yul\":7:176   */\ntag_22:\n    /* \"#utility.yul\":91:102   */\n  0x00\n    /* \"#utility.yul\":125:131   */\n  dup3\n    /* \"#utility.yul\":120:123   */\n  dup3\n    /* \"#utility.yul\":113:132   */\n  mstore\n    /* \"#utility.yul\":165:169   */\n  0x20\n    /* \"#utility.yul\":160:163   */\n  dup3\n    /* \"#utility.yul\":156:170   */\n  add\n    /* \"#utility.yul\":141:170   */\n  swap1\n  pop\n    /* \"#utility.yul\":7:176   */\n  swap3\n  swap2\n  pop\n  pop\n  jump\t// out\n    /* \"#utility.yul\":182:351   */\ntag_23:\n    /* \"#utility.yul\":322:343   */\n  0x41646d696e206c696d6974207265616368656400000000000000000000000000\n    /* \"#utility.yul\":318:319   */\n  0x00\n    /* \"#utility.yul\":310:316   */\n  dup3\n    /* \"#utility.yul\":306:320   */\n  add\n    /* \"#utility.yul\":299:344   */\n  mstore\n    /* \"#utility.yul\":182:351   */\n  pop\n  jump\t// out\n    /* \"#utility.yul\":357:723   */\ntag_24:\n    /* \"#utility.yul\":499:502   */\n  0x00\n    /* \"#utility.yul\":520:587   */\n  tag_31\n    /* \"#utility.yul\":584:586   */\n  0x13\n    /* \"#utility.yul\":579:582   */\n  dup4\n    /* \"#utility.yul\":520:587   */\n  tag_22\n  jump\t// in\ntag_31:\n    /* \"#utility.yul\":513:587   */\n  swap2\n  pop\n    /* \"#utility.yul\":596:689   */\n  tag_32\n    /* \"#utility.yul\":685:688   */\n  dup3\n    /* \"#utility.yul\":596:689   */\n  tag_23\n  jump\t// in\ntag_32:\n    /* \"#utility.yul\":714:716   */\n  0x20\n    /* \"#utility.yul\":709:712   */\n  dup3\n    /* \"#utility.yul\":705:717   */\n  add\n    /* \"#utility.yul\":698:717   */\n  swap1\n  pop\n    /* \"#utility.yul\":357:723   */\n  swap2\n  swap1\n  pop\n  jump\t// out\n    /* \"#utility.yul\":729:1148   */\ntag_10:\n    /* \"#utility.yul\":895:899   */\n  0x00\n    /* \"#utility.yul\":933:935   */\n  0x20\n    /* \"#utility.yul\":922:931   */\n  dup3\n    /* \"#utility.yul\":918:936   */\n  add\n    /* \"#utility.yul\":910:936   */\n  swap1\n  pop\n    /* \"#utility.yul\":982:991   */\n  dup2\n    /* \"#utility.yul\":976:980   */\n  dup2\n    /* \"#utility.yul\":972:992   */\n  sub\n    /* \"#utility.yul\":968:969   */\n  0x00\n    /* \"#utility.yul\":957:966   */\n  dup4\n    /* \"#utility.yul\":953:970   */\n  add\n    /* \"#utility.yul\":946:993   */\n  mstore\n    /* \"#utility.yul\":1010:1141   */\n  tag_34\n    /* \"#utility.yul\":1136:1140   */\n  dup2\n    /* \"#utility.yul\":1010:1141   */\n  tag_24\n  jump\t// in\ntag_34:\n    /* \"#utility.yul\":1002:1141   */\n  swap1\n  pop\n    /* \"#utility.yul\":729:1148   */\n  swap2\n  swap1\n  pop\n  jump\t// out\n    /* \"#utility.yul\":1154:1334   */\ntag_16:\n    /* \"#utility.yul\":1202:1279   */\n  0x4e487b7100000000000000000000000000000000000000000000000000000000\n    /* \"#utility.yul\":1199:1200   */\n  0x00\n    /* \"#utility.yul\":1192:1280   */\n  mstore\n    /* \"#utility.yul\":1299:1303   */\n  0x32\n    /* \"#utility.yul\":1296:1297   */\n  0x04\n    /* \"#utility.yul\":1289:1304   */\n  mstore\n    /* \"#utility.yul\":1323:1327   */\n  0x24\n    /* \"#utility.yul\":1320:1321   */\n  0x00\n    /* \"#utility.yul\":1313:1328   */\n  revert\n    /* \"#utility.yul\":1340:1514   */\ntag_25:\n    /* \"#utility.yul\":1480:1506   */\n  0x41646d696e20616c726561647920726567697374657265640000000000000000\n    /* \"#utility.yul\":1476:1477   */\n  0x00\n    /* \"#utility.yul\":1468:1474   */\n  dup3\n    /* \"#utility.yul\":1464:1478   */\n  add\n    /* \"#utility.yul\":1457:1507   */\n  mstore\n    /* \"#utility.yul\":1340:1514   */\n  pop\n  jump\t// out\n    /* \"#utility.yul\":1520:1886   */\ntag_26:\n    /* \"#utility.yul\":1662:1665   */\n  0x00\n    /* \"#utility.yul\":1683:1750   */\n  tag_38\n    /* \"#utility.yul\":1747:1749   */\n  0x18\n    /* \"#utility.yul\":1742:1745   */\n  dup4\n    /* \"#utility.yul\":1683:1750   */\n  tag_22\n  jump\t// in\ntag_38:\n    /* \"#utility.yul\":1676:1750   */\n  swap2\n  pop\n    /* \"#utility.yul\":1759:1852   */\n  tag_39\n    /* \"#utility.yul\":1848:1851   */\n  dup3\n    /* \"#utility.yul\":1759:1852   */\n  tag_25\n  jump\t// in\ntag_39:\n    /* \"#utility.yul\":1877:1879   */\n  0x20\n    /* \"#utility.yul\":1872:1875   */\n  dup3\n    /* \"#utility.yul\":1868:1880   */\n  add\n    /* \"#utility.yul\":1861:1880   */\n  swap1\n  pop\n    /* \"#utility.yul\":1520:1886   */\n  swap2\n  swap1\n  pop\n  jump\t// out\n    /* \"#utility.yul\":1892:2311   */\ntag_20:\n    /* \"#utility.yul\":2058:2062   */\n  0x00\n    /* \"#utility.yul\":2096:2098   */\n  0x20\n    /* \"#utility.yul\":2085:2094   */\n  dup3\n    /* \"#utility.yul\":2081:2099   */\n  add\n    /* \"#utility.yul\":2073:2099   */\n  swap1\n  pop\n    /* \"#utility.yul\":2145:2154   */\n  dup2\n    /* \"#utility.yul\":2139:2143   */\n  dup2\n    /* \"#utility.yul\":2135:2155   */\n  sub\n    /* \"#utility.yul\":2131:2132   */\n  0x00\n    /* \"#utility.yul\":2120:2129   */\n  dup4\n    /* \"#utility.yul\":2116:2133   */\n  add\n    /* \"#utility.yul\":2109:2156   */\n  mstore\n    /* \"#utility.yul\":2173:2304   */\n  tag_41\n    /* \"#utility.yul\":2299:2303   */\n  dup2\n    /* \"#utility.yul\":2173:2304   */\n  tag_26\n  jump\t// in\ntag_41:\n    /* \"#utility.yul\":2165:2304   */\n  swap1\n  pop\n    /* \"#utility.yul\":1892:2311   */\n  swap2\n  swap1\n  pop\n  jump\t// out\n    /* \"contracts/VotingContract.sol\":61:5298  contract VotingContract {... */\ntag_6:\n  dataSize(sub_0)\n  dup1\n  dataOffset(sub_0)\n  0x00\n  codecopy\n  0x00\n  return\nstop\n\nsub_0: assembly {\n        /* \"contracts/VotingContract.sol\":61:5298  contract VotingContract {... */\n      mstore(0x40, 0x80)\n      callvalue\n      dup1\n      iszero\n      tag_1\n      jumpi\n      revert(0x00, 0x00)\n    tag_1:\n      pop\n      jumpi(tag_2, lt(calldatasize, 0x04))\n      shr(0xe0, calldataload(0x00))\n      dup1\n      0x59f78468\n      gt\n      tag_20\n      jumpi\n      dup1\n      0x8bd23ebc\n      gt\n      tag_21\n      jumpi\n      dup1\n      0x8bd23ebc\n      eq\n      tag_15\n      jumpi\n      dup1\n      0xb384abef\n      eq\n      tag_16\n      jumpi\n      dup1\n      0xb7e03264\n      eq\n      tag_17\n      jumpi\n      dup1\n      0xda58c7d9\n      eq\n      tag_18\n      jumpi\n      dup1\n      0xdfd50f52\n      eq\n      tag_19\n      jumpi\n      jump(tag_2)\n    tag_21:\n      dup1\n      0x59f78468\n      eq\n      tag_11\n      jumpi\n      dup1\n      0x5df81330\n      eq\n      tag_12\n      jumpi\n      dup1\n      0x86d39d07\n      eq\n      tag_13\n      jumpi\n      dup1\n      0x87608aad\n      eq\n      tag_14\n      jumpi\n      jump(tag_2)\n    tag_20:\n      dup1\n      0x27c5b5cc\n      gt\n      tag_22\n      jumpi\n      dup1\n      0x27c5b5cc\n      eq\n      tag_7\n      jumpi\n      dup1\n      0x408e2727\n      eq\n      tag_8\n      jumpi\n      dup1\n      0x498d55b8\n      eq\n      tag_9\n      jumpi\n      dup1\n      0x4b8e3a26\n      eq\n      tag_10\n      jumpi\n      jump(tag_2)\n    tag_22:\n      dup1\n      0x1400649e\n      eq\n      tag_3\n      jumpi\n      dup1\n      0x14bfd6d0\n      eq\n      tag_4\n      jumpi\n      dup1\n      0x1ea736e0\n      eq\n      tag_5\n      jumpi\n      dup1\n      0x2019a608\n      eq\n      tag_6\n      jumpi\n    tag_2:\n      revert(0x00, 0x00)\n        /* \"contracts/VotingContract.sol\":367:391  uint32 public numOfVotes */\n    tag_3:\n      tag_23\n      tag_24\n      jump\t// in\n    tag_23:\n      mload(0x40)\n      tag_25\n      swap2\n      swap1\n      tag_26\n      jump\t// in\n    tag_25:\n      mload(0x40)\n      dup1\n      swap2\n      sub\n      swap1\n      return\n        /* \"contracts/VotingContract.sol\":533:556  address[] public admins */\n    tag_4:\n      tag_27\n      0x04\n      dup1\n      calldatasize\n      sub\n      dup2\n      add\n      swap1\n      tag_28\n      swap2\n      swap1\n      tag_29\n      jump\t// in\n    tag_28:\n      tag_30\n      jump\t// in\n    tag_27:\n      mload(0x40)\n      tag_31\n      swap2\n      swap1\n      tag_32\n      jump\t// in\n    tag_31:\n      mload(0x40)\n      dup1\n      swap2\n      sub\n      swap1\n      return\n        /* \"contracts/VotingContract.sol\":432:457  uint public votingEndTime */\n    tag_5:\n      tag_33\n      tag_34\n      jump\t// in\n    tag_33:\n      mload(0x40)\n      tag_35\n      swap2\n      swap1\n      tag_36\n      jump\t// in\n    tag_35:\n      mload(0x40)\n      dup1\n      swap2\n      sub\n      swap1\n      return\n        /* \"contracts/VotingContract.sol\":398:425  uint public votingStartTime */\n    tag_6:\n      tag_37\n      tag_38\n      jump\t// in\n    tag_37:\n      mload(0x40)\n      tag_39\n      swap2\n      swap1\n      tag_36\n      jump\t// in\n    tag_39:\n      mload(0x40)\n      dup1\n      swap2\n      sub\n      swap1\n      return\n        /* \"contracts/VotingContract.sol\":3236:3615  function registerVoter(string calldata name, uint8 age, string calldata nationality) public onlyAdmin checkElection returns (string memory) {... */\n    tag_7:\n      tag_40\n      0x04\n      dup1\n      calldatasize\n      sub\n      dup2\n      add\n      swap1\n      tag_41\n      swap2\n      swap1\n      tag_42\n      jump\t// in\n    tag_41:\n      tag_43\n      jump\t// in\n    tag_40:\n      mload(0x40)\n      tag_44\n      swap2\n      swap1\n      tag_45\n      jump\t// in\n    tag_44:\n      mload(0x40)\n      dup1\n      swap2\n      sub\n      swap1\n      return\n        /* \"contracts/VotingContract.sol\":464:488  bool public votingActive */\n    tag_8:\n      tag_46\n      tag_47\n      jump\t// in\n    tag_46:\n      mload(0x40)\n      tag_48\n      swap2\n      swap1\n      tag_49\n      jump\t// in\n    tag_48:\n      mload(0x40)\n      dup1\n      swap2\n      sub\n      swap1\n      return\n        /* \"contracts/VotingContract.sol\":2114:2388  function registerAsAdmin() public {... */\n    tag_9:\n      tag_50\n      tag_51\n      jump\t// in\n    tag_50:\n      stop\n        /* \"contracts/VotingContract.sol\":1451:1790  function votingStartInMinutes(uint _votingStart) external checkElection returns (string memory){... */\n    tag_10:\n      tag_52\n      0x04\n      dup1\n      calldatasize\n      sub\n      dup2\n      add\n      swap1\n      tag_53\n      swap2\n      swap1\n      tag_29\n      jump\t// in\n    tag_53:\n      tag_54\n      jump\t// in\n    tag_52:\n      mload(0x40)\n      tag_55\n      swap2\n      swap1\n      tag_45\n      jump\t// in\n    tag_55:\n      mload(0x40)\n      dup1\n      swap2\n      sub\n      swap1\n      return\n        /* \"contracts/VotingContract.sol\":4422:5177  function endElection() public onlyAdmin checkElection{... */\n    tag_11:\n      tag_56\n      tag_57\n      jump\t// in\n    tag_56:\n      stop\n        /* \"contracts/VotingContract.sol\":721:755  mapping(uint => uint) public votes */\n    tag_12:\n      tag_58\n      0x04\n      dup1\n      calldatasize\n      sub\n      dup2\n      add\n      swap1\n      tag_59\n      swap2\n      swap1\n      tag_29\n      jump\t// in\n    tag_59:\n      tag_60\n      jump\t// in\n    tag_58:\n      mload(0x40)\n      tag_61\n      swap2\n      swap1\n      tag_36\n      jump\t// in\n    tag_61:\n      mload(0x40)\n      dup1\n      swap2\n      sub\n      swap1\n      return\n        /* \"contracts/VotingContract.sol\":2396:3228  function addContestant(... */\n    tag_13:\n      tag_62\n      0x04\n      dup1\n      calldatasize\n      sub\n      dup2\n      add\n      swap1\n      tag_63\n      swap2\n      swap1\n      tag_64\n      jump\t// in\n    tag_63:\n      tag_65\n      jump\t// in\n    tag_62:\n      mload(0x40)\n      tag_66\n      swap2\n      swap1\n      tag_45\n      jump\t// in\n    tag_66:\n      mload(0x40)\n      dup1\n      swap2\n      sub\n      swap1\n      return\n        /* \"contracts/VotingContract.sol\":4179:4414  function startElectionNow() public onlyAdmin returns (bool) {... */\n    tag_14:\n      tag_67\n      tag_68\n      jump\t// in\n    tag_67:\n      mload(0x40)\n      tag_69\n      swap2\n      swap1\n      tag_49\n      jump\t// in\n    tag_69:\n      mload(0x40)\n      dup1\n      swap2\n      sub\n      swap1\n      return\n        /* \"contracts/VotingContract.sol\":1798:2098  function votingEndInMinutes(uint _votingEnd) external returns (string memory){... */\n    tag_15:\n      tag_70\n      0x04\n      dup1\n      calldatasize\n      sub\n      dup2\n      add\n      swap1\n      tag_71\n      swap2\n      swap1\n      tag_29\n      jump\t// in\n    tag_71:\n      tag_72\n      jump\t// in\n    tag_70:\n      mload(0x40)\n      tag_73\n      swap2\n      swap1\n      tag_45\n      jump\t// in\n    tag_73:\n      mload(0x40)\n      dup1\n      swap2\n      sub\n      swap1\n      return\n        /* \"contracts/VotingContract.sol\":3623:4171  function vote(uint voterIndex, uint contestantIndex) public checkElection{... */\n    tag_16:\n      tag_74\n      0x04\n      dup1\n      calldatasize\n      sub\n      dup2\n      add\n      swap1\n      tag_75\n      swap2\n      swap1\n      tag_76\n      jump\t// in\n    tag_75:\n      tag_77\n      jump\t// in\n    tag_74:\n      stop\n        /* \"contracts/VotingContract.sol\":5185:5281  function showWinner() public view returns(string memory){... */\n    tag_17:\n      tag_78\n      tag_79\n      jump\t// in\n    tag_78:\n      mload(0x40)\n      tag_80\n      swap2\n      swap1\n      tag_45\n      jump\t// in\n    tag_80:\n      mload(0x40)\n      dup1\n      swap2\n      sub\n      swap1\n      return\n        /* \"contracts/VotingContract.sol\":660:681  Voter[] public voters */\n    tag_18:\n      tag_81\n      0x04\n      dup1\n      calldatasize\n      sub\n      dup2\n      add\n      swap1\n      tag_82\n      swap2\n      swap1\n      tag_29\n      jump\t// in\n    tag_82:\n      tag_83\n      jump\t// in\n    tag_81:\n      mload(0x40)\n      tag_84\n      swap6\n      swap5\n      swap4\n      swap3\n      swap2\n      swap1\n      tag_85\n      jump\t// in\n    tag_84:\n      mload(0x40)\n      dup1\n      swap2\n      sub\n      swap1\n      return\n        /* \"contracts/VotingContract.sol\":603:634  Contestant[] public contestants */\n    tag_19:\n      tag_86\n      0x04\n      dup1\n      calldatasize\n      sub\n      dup2\n      add\n      swap1\n      tag_87\n      swap2\n      swap1\n      tag_29\n      jump\t// in\n    tag_87:\n      tag_88\n      jump\t// in\n    tag_86:\n      mload(0x40)\n      tag_89\n      swap5\n      swap4\n      swap3\n      swap2\n      swap1\n      tag_90\n      jump\t// in\n    tag_89:\n      mload(0x40)\n      dup1\n      swap2\n      sub\n      swap1\n      return\n        /* \"contracts/VotingContract.sol\":367:391  uint32 public numOfVotes */\n    tag_24:\n      0x00\n      0x00\n      swap1\n      sload\n      swap1\n      0x0100\n      exp\n      swap1\n      div\n      0xffffffff\n      and\n      dup2\n      jump\t// out\n        /* \"contracts/VotingContract.sol\":533:556  address[] public admins */\n    tag_30:\n      0x05\n      dup2\n      dup2\n      sload\n      dup2\n      lt\n      tag_91\n      jumpi\n      0x00\n      dup1\n      revert\n    tag_91:\n      swap1\n      0x00\n      mstore\n      keccak256(0x00, 0x20)\n      add\n      0x00\n      swap2\n      pop\n      sload\n      swap1\n      0x0100\n      exp\n      swap1\n      div\n      0xffffffffffffffffffffffffffffffffffffffff\n      and\n      dup2\n      jump\t// out\n        /* \"contracts/VotingContract.sol\":432:457  uint public votingEndTime */\n    tag_34:\n      sload(0x02)\n      dup2\n      jump\t// out\n        /* \"contracts/VotingContract.sol\":398:425  uint public votingStartTime */\n    tag_38:\n      sload(0x01)\n      dup2\n      jump\t// out\n        /* \"contracts/VotingContract.sol\":3236:3615  function registerVoter(string calldata name, uint8 age, string calldata nationality) public onlyAdmin checkElection returns (string memory) {... */\n    tag_43:\n        /* \"contracts/VotingContract.sol\":3361:3374  string memory */\n      0x60\n        /* \"contracts/VotingContract.sol\":909:919  bool found */\n      0x00\n        /* \"contracts/VotingContract.sol\":922:927  false */\n      0x00\n        /* \"contracts/VotingContract.sol\":909:927  bool found = false */\n      swap1\n      pop\n        /* \"contracts/VotingContract.sol\":943:949  uint i */\n      0x00\n        /* \"contracts/VotingContract.sol\":952:953  0 */\n      0x00\n        /* \"contracts/VotingContract.sol\":943:953  uint i = 0 */\n      swap1\n      pop\n        /* \"contracts/VotingContract.sol\":938:1105  for (uint i = 0; i < admins.length; i++) {... */\n    tag_94:\n        /* \"contracts/VotingContract.sol\":959:965  admins */\n      0x05\n        /* \"contracts/VotingContract.sol\":959:972  admins.length */\n      dup1\n      sload\n      swap1\n      pop\n        /* \"contracts/VotingContract.sol\":955:956  i */\n      dup2\n        /* \"contracts/VotingContract.sol\":955:972  i < admins.length */\n      lt\n        /* \"contracts/VotingContract.sol\":938:1105  for (uint i = 0; i < admins.length; i++) {... */\n      iszero\n      tag_95\n      jumpi\n        /* \"contracts/VotingContract.sol\":1012:1018  admins */\n      0x05\n        /* \"contracts/VotingContract.sol\":1019:1020  i */\n      dup2\n        /* \"contracts/VotingContract.sol\":1012:1021  admins[i] */\n      dup2\n      sload\n      dup2\n      lt\n      tag_97\n      jumpi\n      tag_98\n      tag_99\n      jump\t// in\n    tag_98:\n    tag_97:\n      swap1\n      0x00\n      mstore\n      keccak256(0x00, 0x20)\n      add\n      0x00\n      swap1\n      sload\n      swap1\n      0x0100\n      exp\n      swap1\n      div\n      0xffffffffffffffffffffffffffffffffffffffff\n      and\n        /* \"contracts/VotingContract.sol\":998:1021  msg.sender == admins[i] */\n      0xffffffffffffffffffffffffffffffffffffffff\n      and\n        /* \"contracts/VotingContract.sol\":998:1008  msg.sender */\n      caller\n        /* \"contracts/VotingContract.sol\":998:1021  msg.sender == admins[i] */\n      0xffffffffffffffffffffffffffffffffffffffff\n      and\n      sub\n        /* \"contracts/VotingContract.sol\":994:1094  if (msg.sender == admins[i]) {... */\n      tag_101\n      jumpi\n        /* \"contracts/VotingContract.sol\":1050:1054  true */\n      0x01\n        /* \"contracts/VotingContract.sol\":1042:1054  found = true */\n      swap2\n      pop\n        /* \"contracts/VotingContract.sol\":1073:1078  break */\n      jump(tag_95)\n        /* \"contracts/VotingContract.sol\":994:1094  if (msg.sender == admins[i]) {... */\n    tag_101:\n        /* \"contracts/VotingContract.sol\":974:977  i++ */\n      dup1\n      dup1\n      0x01\n      add\n      swap2\n      pop\n      pop\n        /* \"contracts/VotingContract.sol\":938:1105  for (uint i = 0; i < admins.length; i++) {... */\n      jump(tag_94)\n    tag_95:\n      pop\n        /* \"contracts/VotingContract.sol\":1123:1128  found */\n      dup1\n        /* \"contracts/VotingContract.sol\":1115:1152  require(found, \"You're not an admin\") */\n      tag_102\n      jumpi\n      mload(0x40)\n      0x08c379a000000000000000000000000000000000000000000000000000000000\n      dup2\n      mstore\n      0x04\n      add\n      tag_103\n      swap1\n      tag_104\n      jump\t// in\n    tag_103:\n      mload(0x40)\n      dup1\n      swap2\n      sub\n      swap1\n      revert\n    tag_102:\n        /* \"contracts/VotingContract.sol\":1238:1239  0 */\n      0x00\n        /* \"contracts/VotingContract.sol\":1219:1234  votingStartTime */\n      sload(0x01)\n        /* \"contracts/VotingContract.sol\":1219:1239  votingStartTime != 0 */\n      eq\n      iszero\n        /* \"contracts/VotingContract.sol\":1218:1279  (votingStartTime != 0) && (votingStartTime < block.timestamp) */\n      dup1\n      iszero\n      tag_106\n      jumpi\n      pop\n        /* \"contracts/VotingContract.sol\":1263:1278  block.timestamp */\n      timestamp\n        /* \"contracts/VotingContract.sol\":1245:1260  votingStartTime */\n      sload(0x01)\n        /* \"contracts/VotingContract.sol\":1245:1278  votingStartTime < block.timestamp */\n      lt\n        /* \"contracts/VotingContract.sol\":1218:1279  (votingStartTime != 0) && (votingStartTime < block.timestamp) */\n    tag_106:\n        /* \"contracts/VotingContract.sol\":1218:1316  (votingStartTime != 0) && (votingStartTime < block.timestamp) && (votingEndTime > block.timestamp) */\n      dup1\n      iszero\n      tag_107\n      jumpi\n      pop\n        /* \"contracts/VotingContract.sol\":1300:1315  block.timestamp */\n      timestamp\n        /* \"contracts/VotingContract.sol\":1284:1297  votingEndTime */\n      sload(0x02)\n        /* \"contracts/VotingContract.sol\":1284:1315  votingEndTime > block.timestamp */\n      gt\n        /* \"contracts/VotingContract.sol\":1218:1316  (votingStartTime != 0) && (votingStartTime < block.timestamp) && (votingEndTime > block.timestamp) */\n    tag_107:\n        /* \"contracts/VotingContract.sol\":1215:1424  if((votingStartTime != 0) && (votingStartTime < block.timestamp) && (votingEndTime > block.timestamp)){... */\n      iszero\n      tag_108\n      jumpi\n        /* \"contracts/VotingContract.sol\":1347:1351  true */\n      0x01\n        /* \"contracts/VotingContract.sol\":1332:1344  votingActive */\n      0x03\n      0x00\n        /* \"contracts/VotingContract.sol\":1332:1351  votingActive = true */\n      0x0100\n      exp\n      dup2\n      sload\n      dup2\n      0xff\n      mul\n      not\n      and\n      swap1\n      dup4\n      iszero\n      iszero\n      mul\n      or\n      swap1\n      sstore\n      pop\n        /* \"contracts/VotingContract.sol\":1215:1424  if((votingStartTime != 0) && (votingStartTime < block.timestamp) && (votingEndTime > block.timestamp)){... */\n      jump(tag_109)\n    tag_108:\n        /* \"contracts/VotingContract.sol\":1407:1412  false */\n      0x00\n        /* \"contracts/VotingContract.sol\":1392:1404  votingActive */\n      0x03\n      0x00\n        /* \"contracts/VotingContract.sol\":1392:1412  votingActive = false */\n      0x0100\n      exp\n      dup2\n      sload\n      dup2\n      0xff\n      mul\n      not\n      and\n      swap1\n      dup4\n      iszero\n      iszero\n      mul\n      or\n      swap1\n      sstore\n      pop\n        /* \"contracts/VotingContract.sol\":1215:1424  if((votingStartTime != 0) && (votingStartTime < block.timestamp) && (votingEndTime > block.timestamp)){... */\n    tag_109:\n        /* \"contracts/VotingContract.sol\":3402:3404  18 */\n      0x12\n        /* \"contracts/VotingContract.sol\":3395:3398  age */\n      dup6\n        /* \"contracts/VotingContract.sol\":3395:3404  age >= 18 */\n      0xff\n      and\n      lt\n      iszero\n        /* \"contracts/VotingContract.sol\":3387:3434  require(age >= 18, \"Voter must be at least 18\") */\n      tag_111\n      jumpi\n      mload(0x40)\n      0x08c379a000000000000000000000000000000000000000000000000000000000\n      dup2\n      mstore\n      0x04\n      add\n      tag_112\n      swap1\n      tag_113\n      jump\t// in\n    tag_112:\n      mload(0x40)\n      dup1\n      swap2\n      sub\n      swap1\n      revert\n    tag_111:\n        /* \"contracts/VotingContract.sol\":3445:3451  voters */\n      0x07\n        /* \"contracts/VotingContract.sol\":3457:3499  Voter(name, age, nationality, false, true) */\n      mload(0x40)\n      dup1\n      0xa0\n      add\n      0x40\n      mstore\n      dup1\n        /* \"contracts/VotingContract.sol\":3463:3467  name */\n      dup10\n      dup10\n        /* \"contracts/VotingContract.sol\":3457:3499  Voter(name, age, nationality, false, true) */\n      dup1\n      dup1\n      0x1f\n      add\n      0x20\n      dup1\n      swap2\n      div\n      mul\n      0x20\n      add\n      mload(0x40)\n      swap1\n      dup2\n      add\n      0x40\n      mstore\n      dup1\n      swap4\n      swap3\n      swap2\n      swap1\n      dup2\n      dup2\n      mstore\n      0x20\n      add\n      dup4\n      dup4\n      dup1\n      dup3\n      dup5\n      calldatacopy\n      0x00\n      dup2\n      dup5\n      add\n      mstore\n      not(0x1f)\n      0x1f\n      dup3\n      add\n      and\n      swap1\n      pop\n      dup1\n      dup4\n      add\n      swap3\n      pop\n      pop\n      pop\n      pop\n      pop\n      pop\n      pop\n      dup2\n      mstore\n      0x20\n      add\n        /* \"contracts/VotingContract.sol\":3469:3472  age */\n      dup8\n        /* \"contracts/VotingContract.sol\":3457:3499  Voter(name, age, nationality, false, true) */\n      0xff\n      and\n      dup2\n      mstore\n      0x20\n      add\n        /* \"contracts/VotingContract.sol\":3474:3485  nationality */\n      dup7\n      dup7\n        /* \"contracts/VotingContract.sol\":3457:3499  Voter(name, age, nationality, false, true) */\n      dup1\n      dup1\n      0x1f\n      add\n      0x20\n      dup1\n      swap2\n      div\n      mul\n      0x20\n      add\n      mload(0x40)\n      swap1\n      dup2\n      add\n      0x40\n      mstore\n      dup1\n      swap4\n      swap3\n      swap2\n      swap1\n      dup2\n      dup2\n      mstore\n      0x20\n      add\n      dup4\n      dup4\n      dup1\n      dup3\n      dup5\n      calldatacopy\n      0x00\n      dup2\n      dup5\n      add\n      mstore\n      not(0x1f)\n      0x1f\n      dup3\n      add\n      and\n      swap1\n      pop\n      dup1\n      dup4\n      add\n      swap3\n      pop\n      pop\n      pop\n      pop\n      pop\n      pop\n      pop\n      dup2\n      mstore\n      0x20\n      add\n        /* \"contracts/VotingContract.sol\":3487:3492  false */\n      0x00\n        /* \"contracts/VotingContract.sol\":3457:3499  Voter(name, age, nationality, false, true) */\n      iszero\n      iszero\n      dup2\n      mstore\n      0x20\n      add\n        /* \"contracts/VotingContract.sol\":3494:3498  true */\n      0x01\n        /* \"contracts/VotingContract.sol\":3457:3499  Voter(name, age, nationality, false, true) */\n      iszero\n      iszero\n      dup2\n      mstore\n      pop\n        /* \"contracts/VotingContract.sol\":3445:3500  voters.push(Voter(name, age, nationality, false, true)) */\n      swap1\n      dup1\n      0x01\n      dup2\n      sload\n      add\n      dup1\n      dup3\n      sstore\n      dup1\n      swap2\n      pop\n      pop\n      0x01\n      swap1\n      sub\n      swap1\n      0x00\n      mstore\n      keccak256(0x00, 0x20)\n      swap1\n      0x04\n      mul\n      add\n      0x00\n      swap1\n      swap2\n      swap1\n      swap2\n      swap1\n      swap2\n      pop\n      0x00\n      dup3\n      add\n      mload\n      dup2\n      0x00\n      add\n      swap1\n      dup2\n      tag_115\n      swap2\n      swap1\n      tag_116\n      jump\t// in\n    tag_115:\n      pop\n      0x20\n      dup3\n      add\n      mload\n      dup2\n      0x01\n      add\n      exp(0x0100, 0x00)\n      dup2\n      sload\n      dup2\n      0xff\n      mul\n      not\n      and\n      swap1\n      dup4\n      0xff\n      and\n      mul\n      or\n      swap1\n      sstore\n      pop\n      0x40\n      dup3\n      add\n      mload\n      dup2\n      0x02\n      add\n      swap1\n      dup2\n      tag_117\n      swap2\n      swap1\n      tag_116\n      jump\t// in\n    tag_117:\n      pop\n      0x60\n      dup3\n      add\n      mload\n      dup2\n      0x03\n      add\n      exp(0x0100, 0x00)\n      dup2\n      sload\n      dup2\n      0xff\n      mul\n      not\n      and\n      swap1\n      dup4\n      iszero\n      iszero\n      mul\n      or\n      swap1\n      sstore\n      pop\n      0x80\n      dup3\n      add\n      mload\n      dup2\n      0x03\n      add\n      exp(0x0100, 0x01)\n      dup2\n      sload\n      dup2\n      0xff\n      mul\n      not\n      and\n      swap1\n      dup4\n      iszero\n      iszero\n      mul\n      or\n      swap1\n      sstore\n      pop\n      pop\n      pop\n        /* \"contracts/VotingContract.sol\":3582:3583  1 */\n      0x01\n        /* \"contracts/VotingContract.sol\":3566:3572  voters */\n      0x07\n        /* \"contracts/VotingContract.sol\":3566:3579  voters.length */\n      dup1\n      sload\n      swap1\n      pop\n        /* \"contracts/VotingContract.sol\":3566:3583  voters.length - 1 */\n      tag_118\n      swap2\n      swap1\n      tag_119\n      jump\t// in\n    tag_118:\n        /* \"contracts/VotingContract.sol\":3525:3584  abi.encodePacked(\"Success! Your ID is \", voters.length - 1) */\n      add(0x20, mload(0x40))\n      tag_120\n      swap2\n      swap1\n      tag_121\n      jump\t// in\n    tag_120:\n      mload(0x40)\n      0x20\n      dup2\n      dup4\n      sub\n      sub\n      dup2\n      mstore\n      swap1\n      0x40\n      mstore\n        /* \"contracts/VotingContract.sol\":3511:3585  return string(abi.encodePacked(\"Success! Your ID is \", voters.length - 1)) */\n      swap2\n      pop\n        /* \"contracts/VotingContract.sol\":898:1172  {... */\n      pop\n        /* \"contracts/VotingContract.sol\":3236:3615  function registerVoter(string calldata name, uint8 age, string calldata nationality) public onlyAdmin checkElection returns (string memory) {... */\n      swap6\n      swap5\n      pop\n      pop\n      pop\n      pop\n      pop\n      jump\t// out\n        /* \"contracts/VotingContract.sol\":464:488  bool public votingActive */\n    tag_47:\n      0x03\n      0x00\n      swap1\n      sload\n      swap1\n      0x0100\n      exp\n      swap1\n      div\n      0xff\n      and\n      dup2\n      jump\t// out\n        /* \"contracts/VotingContract.sol\":2114:2388  function registerAsAdmin() public {... */\n    tag_51:\n        /* \"contracts/VotingContract.sol\":2183:2184  5 */\n      0x05\n        /* \"contracts/VotingContract.sol\":2167:2173  admins */\n      dup1\n        /* \"contracts/VotingContract.sol\":2167:2180  admins.length */\n      dup1\n      sload\n      swap1\n      pop\n        /* \"contracts/VotingContract.sol\":2167:2184  admins.length < 5 */\n      lt\n        /* \"contracts/VotingContract.sol\":2159:2208  require(admins.length < 5, \"Admin limit reached\") */\n      tag_123\n      jumpi\n      mload(0x40)\n      0x08c379a000000000000000000000000000000000000000000000000000000000\n      dup2\n      mstore\n      0x04\n      add\n      tag_124\n      swap1\n      tag_125\n      jump\t// in\n    tag_124:\n      mload(0x40)\n      dup1\n      swap2\n      sub\n      swap1\n      revert\n    tag_123:\n        /* \"contracts/VotingContract.sol\":2224:2230  uint i */\n      0x00\n        /* \"contracts/VotingContract.sol\":2233:2234  0 */\n      0x00\n        /* \"contracts/VotingContract.sol\":2224:2234  uint i = 0 */\n      swap1\n      pop\n        /* \"contracts/VotingContract.sol\":2219:2347  for (uint i = 0; i < admins.length; i++) {... */\n    tag_126:\n        /* \"contracts/VotingContract.sol\":2240:2246  admins */\n      0x05\n        /* \"contracts/VotingContract.sol\":2240:2253  admins.length */\n      dup1\n      sload\n      swap1\n      pop\n        /* \"contracts/VotingContract.sol\":2236:2237  i */\n      dup2\n        /* \"contracts/VotingContract.sol\":2236:2253  i < admins.length */\n      lt\n        /* \"contracts/VotingContract.sol\":2219:2347  for (uint i = 0; i < admins.length; i++) {... */\n      iszero\n      tag_127\n      jumpi\n        /* \"contracts/VotingContract.sol\":2296:2306  msg.sender */\n      caller\n        /* \"contracts/VotingContract.sol\":2283:2306  admins[i] != msg.sender */\n      0xffffffffffffffffffffffffffffffffffffffff\n      and\n        /* \"contracts/VotingContract.sol\":2283:2289  admins */\n      0x05\n        /* \"contracts/VotingContract.sol\":2290:2291  i */\n      dup3\n        /* \"contracts/VotingContract.sol\":2283:2292  admins[i] */\n      dup2\n      sload\n      dup2\n      lt\n      tag_129\n      jumpi\n      tag_130\n      tag_99\n      jump\t// in\n    tag_130:\n    tag_129:\n      swap1\n      0x00\n      mstore\n      keccak256(0x00, 0x20)\n      add\n      0x00\n      swap1\n      sload\n      swap1\n      0x0100\n      exp\n      swap1\n      div\n      0xffffffffffffffffffffffffffffffffffffffff\n      and\n        /* \"contracts/VotingContract.sol\":2283:2306  admins[i] != msg.sender */\n      0xffffffffffffffffffffffffffffffffffffffff\n      and\n      sub\n        /* \"contracts/VotingContract.sol\":2275:2335  require(admins[i] != msg.sender, \"Admin already registered\") */\n      tag_132\n      jumpi\n      mload(0x40)\n      0x08c379a000000000000000000000000000000000000000000000000000000000\n      dup2\n      mstore\n      0x04\n      add\n      tag_133\n      swap1\n      tag_134\n      jump\t// in\n    tag_133:\n      mload(0x40)\n      dup1\n      swap2\n      sub\n      swap1\n      revert\n    tag_132:\n        /* \"contracts/VotingContract.sol\":2255:2258  i++ */\n      dup1\n      dup1\n      0x01\n      add\n      swap2\n      pop\n      pop\n        /* \"contracts/VotingContract.sol\":2219:2347  for (uint i = 0; i < admins.length; i++) {... */\n      jump(tag_126)\n    tag_127:\n      pop\n        /* \"contracts/VotingContract.sol\":2357:2363  admins */\n      0x05\n        /* \"contracts/VotingContract.sol\":2369:2379  msg.sender */\n      caller\n        /* \"contracts/VotingContract.sol\":2357:2380  admins.push(msg.sender) */\n      swap1\n      dup1\n      0x01\n      dup2\n      sload\n      add\n      dup1\n      dup3\n      sstore\n      dup1\n      swap2\n      pop\n      pop\n      0x01\n      swap1\n      sub\n      swap1\n      0x00\n      mstore\n      keccak256(0x00, 0x20)\n      add\n      0x00\n      swap1\n      swap2\n      swap1\n      swap2\n      swap1\n      swap2\n      0x0100\n      exp\n      dup2\n      sload\n      dup2\n      0xffffffffffffffffffffffffffffffffffffffff\n      mul\n      not\n      and\n      swap1\n      dup4\n      0xffffffffffffffffffffffffffffffffffffffff\n      and\n      mul\n      or\n      swap1\n      sstore\n      pop\n        /* \"contracts/VotingContract.sol\":2114:2388  function registerAsAdmin() public {... */\n      jump\t// out\n        /* \"contracts/VotingContract.sol\":1451:1790  function votingStartInMinutes(uint _votingStart) external checkElection returns (string memory){... */\n    tag_54:\n        /* \"contracts/VotingContract.sol\":1532:1545  string memory */\n      0x60\n        /* \"contracts/VotingContract.sol\":1238:1239  0 */\n      0x00\n        /* \"contracts/VotingContract.sol\":1219:1234  votingStartTime */\n      sload(0x01)\n        /* \"contracts/VotingContract.sol\":1219:1239  votingStartTime != 0 */\n      eq\n      iszero\n        /* \"contracts/VotingContract.sol\":1218:1279  (votingStartTime != 0) && (votingStartTime < block.timestamp) */\n      dup1\n      iszero\n      tag_137\n      jumpi\n      pop\n        /* \"contracts/VotingContract.sol\":1263:1278  block.timestamp */\n      timestamp\n        /* \"contracts/VotingContract.sol\":1245:1260  votingStartTime */\n      sload(0x01)\n        /* \"contracts/VotingContract.sol\":1245:1278  votingStartTime < block.timestamp */\n      lt\n        /* \"contracts/VotingContract.sol\":1218:1279  (votingStartTime != 0) && (votingStartTime < block.timestamp) */\n    tag_137:\n        /* \"contracts/VotingContract.sol\":1218:1316  (votingStartTime != 0) && (votingStartTime < block.timestamp) && (votingEndTime > block.timestamp) */\n      dup1\n      iszero\n      tag_138\n      jumpi\n      pop\n        /* \"contracts/VotingContract.sol\":1300:1315  block.timestamp */\n      timestamp\n        /* \"contracts/VotingContract.sol\":1284:1297  votingEndTime */\n      sload(0x02)\n        /* \"contracts/VotingContract.sol\":1284:1315  votingEndTime > block.timestamp */\n      gt\n        /* \"contracts/VotingContract.sol\":1218:1316  (votingStartTime != 0) && (votingStartTime < block.timestamp) && (votingEndTime > block.timestamp) */\n    tag_138:\n        /* \"contracts/VotingContract.sol\":1215:1424  if((votingStartTime != 0) && (votingStartTime < block.timestamp) && (votingEndTime > block.timestamp)){... */\n      iszero\n      tag_139\n      jumpi\n        /* \"contracts/VotingContract.sol\":1347:1351  true */\n      0x01\n        /* \"contracts/VotingContract.sol\":1332:1344  votingActive */\n      0x03\n      0x00\n        /* \"contracts/VotingContract.sol\":1332:1351  votingActive = true */\n      0x0100\n      exp\n      dup2\n      sload\n      dup2\n      0xff\n      mul\n      not\n      and\n      swap1\n      dup4\n      iszero\n      iszero\n      mul\n      or\n      swap1\n      sstore\n      pop\n        /* \"contracts/VotingContract.sol\":1215:1424  if((votingStartTime != 0) && (votingStartTime < block.timestamp) && (votingEndTime > block.timestamp)){... */\n      jump(tag_140)\n    tag_139:\n        /* \"contracts/VotingContract.sol\":1407:1412  false */\n      0x00\n        /* \"contracts/VotingContract.sol\":1392:1404  votingActive */\n      0x03\n      0x00\n        /* \"contracts/VotingContract.sol\":1392:1412  votingActive = false */\n      0x0100\n      exp\n      dup2\n      sload\n      dup2\n      0xff\n      mul\n      not\n      and\n      swap1\n      dup4\n      iszero\n      iszero\n      mul\n      or\n      swap1\n      sstore\n      pop\n        /* \"contracts/VotingContract.sol\":1215:1424  if((votingStartTime != 0) && (votingStartTime < block.timestamp) && (votingEndTime > block.timestamp)){... */\n    tag_140:\n        /* \"contracts/VotingContract.sol\":1566:1578  votingActive */\n      0x03\n      0x00\n      swap1\n      sload\n      swap1\n      0x0100\n      exp\n      swap1\n      div\n      0xff\n      and\n        /* \"contracts/VotingContract.sol\":1565:1578  !votingActive */\n      iszero\n        /* \"contracts/VotingContract.sol\":1557:1622  require(!votingActive, \"Can't change start time during election\") */\n      tag_142\n      jumpi\n      mload(0x40)\n      0x08c379a000000000000000000000000000000000000000000000000000000000\n      dup2\n      mstore\n      0x04\n      add\n      tag_143\n      swap1\n      tag_144\n      jump\t// in\n    tag_143:\n      mload(0x40)\n      dup1\n      swap2\n      sub\n      swap1\n      revert\n    tag_142:\n        /* \"contracts/VotingContract.sol\":1685:1687  60 */\n      0x3c\n        /* \"contracts/VotingContract.sol\":1670:1682  _votingStart */\n      dup3\n        /* \"contracts/VotingContract.sol\":1670:1687  _votingStart * 60 */\n      tag_145\n      swap2\n      swap1\n      tag_146\n      jump\t// in\n    tag_145:\n        /* \"contracts/VotingContract.sol\":1651:1666  block.timestamp */\n      timestamp\n        /* \"contracts/VotingContract.sol\":1651:1688  block.timestamp + (_votingStart * 60) */\n      tag_147\n      swap2\n      swap1\n      tag_148\n      jump\t// in\n    tag_147:\n        /* \"contracts/VotingContract.sol\":1633:1648  votingStartTime */\n      0x01\n        /* \"contracts/VotingContract.sol\":1633:1688  votingStartTime = block.timestamp + (_votingStart * 60) */\n      dup2\n      swap1\n      sstore\n      pop\n        /* \"contracts/VotingContract.sol\":1755:1767  _votingStart */\n      dup2\n        /* \"contracts/VotingContract.sol\":1713:1781  abi.encodePacked(\"Election starting in \", _votingStart, \" minutes.\") */\n      add(0x20, mload(0x40))\n      tag_149\n      swap2\n      swap1\n      tag_150\n      jump\t// in\n    tag_149:\n      mload(0x40)\n      0x20\n      dup2\n      dup4\n      sub\n      sub\n      dup2\n      mstore\n      swap1\n      0x40\n      mstore\n        /* \"contracts/VotingContract.sol\":1699:1782  return string(abi.encodePacked(\"Election starting in \", _votingStart, \" minutes.\")) */\n      swap1\n      pop\n        /* \"contracts/VotingContract.sol\":1451:1790  function votingStartInMinutes(uint _votingStart) external checkElection returns (string memory){... */\n      swap2\n      swap1\n      pop\n      jump\t// out\n        /* \"contracts/VotingContract.sol\":4422:5177  function endElection() public onlyAdmin checkElection{... */\n    tag_57:\n        /* \"contracts/VotingContract.sol\":909:919  bool found */\n      0x00\n        /* \"contracts/VotingContract.sol\":922:927  false */\n      0x00\n        /* \"contracts/VotingContract.sol\":909:927  bool found = false */\n      swap1\n      pop\n        /* \"contracts/VotingContract.sol\":943:949  uint i */\n      0x00\n        /* \"contracts/VotingContract.sol\":952:953  0 */\n      0x00\n        /* \"contracts/VotingContract.sol\":943:953  uint i = 0 */\n      swap1\n      pop\n        /* \"contracts/VotingContract.sol\":938:1105  for (uint i = 0; i < admins.length; i++) {... */\n    tag_152:\n        /* \"contracts/VotingContract.sol\":959:965  admins */\n      0x05\n        /* \"contracts/VotingContract.sol\":959:972  admins.length */\n      dup1\n      sload\n      swap1\n      pop\n        /* \"contracts/VotingContract.sol\":955:956  i */\n      dup2\n        /* \"contracts/VotingContract.sol\":955:972  i < admins.length */\n      lt\n        /* \"contracts/VotingContract.sol\":938:1105  for (uint i = 0; i < admins.length; i++) {... */\n      iszero\n      tag_153\n      jumpi\n        /* \"contracts/VotingContract.sol\":1012:1018  admins */\n      0x05\n        /* \"contracts/VotingContract.sol\":1019:1020  i */\n      dup2\n        /* \"contracts/VotingContract.sol\":1012:1021  admins[i] */\n      dup2\n      sload\n      dup2\n      lt\n      tag_155\n      jumpi\n      tag_156\n      tag_99\n      jump\t// in\n    tag_156:\n    tag_155:\n      swap1\n      0x00\n      mstore\n      keccak256(0x00, 0x20)\n      add\n      0x00\n      swap1\n      sload\n      swap1\n      0x0100\n      exp\n      swap1\n      div\n      0xffffffffffffffffffffffffffffffffffffffff\n      and\n        /* \"contracts/VotingContract.sol\":998:1021  msg.sender == admins[i] */\n      0xffffffffffffffffffffffffffffffffffffffff\n      and\n        /* \"contracts/VotingContract.sol\":998:1008  msg.sender */\n      caller\n        /* \"contracts/VotingContract.sol\":998:1021  msg.sender == admins[i] */\n      0xffffffffffffffffffffffffffffffffffffffff\n      and\n      sub\n        /* \"contracts/VotingContract.sol\":994:1094  if (msg.sender == admins[i]) {... */\n      tag_158\n      jumpi\n        /* \"contracts/VotingContract.sol\":1050:1054  true */\n      0x01\n        /* \"contracts/VotingContract.sol\":1042:1054  found = true */\n      swap2\n      pop\n        /* \"contracts/VotingContract.sol\":1073:1078  break */\n      jump(tag_153)\n        /* \"contracts/VotingContract.sol\":994:1094  if (msg.sender == admins[i]) {... */\n    tag_158:\n        /* \"contracts/VotingContract.sol\":974:977  i++ */\n      dup1\n      dup1\n      0x01\n      add\n      swap2\n      pop\n      pop\n        /* \"contracts/VotingContract.sol\":938:1105  for (uint i = 0; i < admins.length; i++) {... */\n      jump(tag_152)\n    tag_153:\n      pop\n        /* \"contracts/VotingContract.sol\":1123:1128  found */\n      dup1\n        /* \"contracts/VotingContract.sol\":1115:1152  require(found, \"You're not an admin\") */\n      tag_159\n      jumpi\n      mload(0x40)\n      0x08c379a000000000000000000000000000000000000000000000000000000000\n      dup2\n      mstore\n      0x04\n      add\n      tag_160\n      swap1\n      tag_104\n      jump\t// in\n    tag_160:\n      mload(0x40)\n      dup1\n      swap2\n      sub\n      swap1\n      revert\n    tag_159:\n        /* \"contracts/VotingContract.sol\":1238:1239  0 */\n      0x00\n        /* \"contracts/VotingContract.sol\":1219:1234  votingStartTime */\n      sload(0x01)\n        /* \"contracts/VotingContract.sol\":1219:1239  votingStartTime != 0 */\n      eq\n      iszero\n        /* \"contracts/VotingContract.sol\":1218:1279  (votingStartTime != 0) && (votingStartTime < block.timestamp) */\n      dup1\n      iszero\n      tag_162\n      jumpi\n      pop\n        /* \"contracts/VotingContract.sol\":1263:1278  block.timestamp */\n      timestamp\n        /* \"contracts/VotingContract.sol\":1245:1260  votingStartTime */\n      sload(0x01)\n        /* \"contracts/VotingContract.sol\":1245:1278  votingStartTime < block.timestamp */\n      lt\n        /* \"contracts/VotingContract.sol\":1218:1279  (votingStartTime != 0) && (votingStartTime < block.timestamp) */\n    tag_162:\n        /* \"contracts/VotingContract.sol\":1218:1316  (votingStartTime != 0) && (votingStartTime < block.timestamp) && (votingEndTime > block.timestamp) */\n      dup1\n      iszero\n      tag_163\n      jumpi\n      pop\n        /* \"contracts/VotingContract.sol\":1300:1315  block.timestamp */\n      timestamp\n        /* \"contracts/VotingContract.sol\":1284:1297  votingEndTime */\n      sload(0x02)\n        /* \"contracts/VotingContract.sol\":1284:1315  votingEndTime > block.timestamp */\n      gt\n        /* \"contracts/VotingContract.sol\":1218:1316  (votingStartTime != 0) && (votingStartTime < block.timestamp) && (votingEndTime > block.timestamp) */\n    tag_163:\n        /* \"contracts/VotingContract.sol\":1215:1424  if((votingStartTime != 0) && (votingStartTime < block.timestamp) && (votingEndTime > block.timestamp)){... */\n      iszero\n      tag_164\n      jumpi\n        /* \"contracts/VotingContract.sol\":1347:1351  true */\n      0x01\n        /* \"contracts/VotingContract.sol\":1332:1344  votingActive */\n      0x03\n      0x00\n        /* \"contracts/VotingContract.sol\":1332:1351  votingActive = true */\n      0x0100\n      exp\n      dup2\n      sload\n      dup2\n      0xff\n      mul\n      not\n      and\n      swap1\n      dup4\n      iszero\n      iszero\n      mul\n      or\n      swap1\n      sstore\n      pop\n        /* \"contracts/VotingContract.sol\":1215:1424  if((votingStartTime != 0) && (votingStartTime < block.timestamp) && (votingEndTime > block.timestamp)){... */\n      jump(tag_165)\n    tag_164:\n        /* \"contracts/VotingContract.sol\":1407:1412  false */\n      0x00\n        /* \"contracts/VotingContract.sol\":1392:1404  votingActive */\n      0x03\n      0x00\n        /* \"contracts/VotingContract.sol\":1392:1412  votingActive = false */\n      0x0100\n      exp\n      dup2\n      sload\n      dup2\n      0xff\n      mul\n      not\n      and\n      swap1\n      dup4\n      iszero\n      iszero\n      mul\n      or\n      swap1\n      sstore\n      pop\n        /* \"contracts/VotingContract.sol\":1215:1424  if((votingStartTime != 0) && (votingStartTime < block.timestamp) && (votingEndTime > block.timestamp)){... */\n    tag_165:\n        /* \"contracts/VotingContract.sol\":4494:4506  votingActive */\n      0x03\n      0x00\n      swap1\n      sload\n      swap1\n      0x0100\n      exp\n      swap1\n      div\n      0xff\n      and\n        /* \"contracts/VotingContract.sol\":4486:4522  require(votingActive, \"No Election\") */\n      tag_167\n      jumpi\n      mload(0x40)\n      0x08c379a000000000000000000000000000000000000000000000000000000000\n      dup2\n      mstore\n      0x04\n      add\n      tag_168\n      swap1\n      tag_169\n      jump\t// in\n    tag_168:\n      mload(0x40)\n      dup1\n      swap2\n      sub\n      swap1\n      revert\n    tag_167:\n        /* \"contracts/VotingContract.sol\":4549:4564  block.timestamp */\n      timestamp\n        /* \"contracts/VotingContract.sol\":4533:4546  votingEndTime */\n      0x02\n        /* \"contracts/VotingContract.sol\":4533:4564  votingEndTime = block.timestamp */\n      dup2\n      swap1\n      sstore\n      pop\n        /* \"contracts/VotingContract.sol\":4590:4595  false */\n      0x00\n        /* \"contracts/VotingContract.sol\":4575:4587  votingActive */\n      0x03\n      0x00\n        /* \"contracts/VotingContract.sol\":4575:4595  votingActive = false */\n      0x0100\n      exp\n      dup2\n      sload\n      dup2\n      0xff\n      mul\n      not\n      and\n      swap1\n      dup4\n      iszero\n      iszero\n      mul\n      or\n      swap1\n      sstore\n      pop\n        /* \"contracts/VotingContract.sol\":4606:4627  uint winningVoteCount */\n      0x00\n        /* \"contracts/VotingContract.sol\":4630:4631  0 */\n      0x00\n        /* \"contracts/VotingContract.sol\":4606:4631  uint winningVoteCount = 0 */\n      swap1\n      pop\n        /* \"contracts/VotingContract.sol\":4642:4659  uint winningIndex */\n      0x00\n        /* \"contracts/VotingContract.sol\":4662:4663  0 */\n      0x00\n        /* \"contracts/VotingContract.sol\":4642:4663  uint winningIndex = 0 */\n      swap1\n      pop\n        /* \"contracts/VotingContract.sol\":4674:4682  bool tie */\n      0x00\n        /* \"contracts/VotingContract.sol\":4685:4690  false */\n      0x00\n        /* \"contracts/VotingContract.sol\":4674:4690  bool tie = false */\n      swap1\n      pop\n        /* \"contracts/VotingContract.sol\":4708:4714  uint i */\n      0x00\n        /* \"contracts/VotingContract.sol\":4717:4718  0 */\n      0x00\n        /* \"contracts/VotingContract.sol\":4708:4718  uint i = 0 */\n      swap1\n      pop\n        /* \"contracts/VotingContract.sol\":4703:5036  for (uint i = 0; i < contestants.length; i++) {... */\n    tag_170:\n        /* \"contracts/VotingContract.sol\":4724:4735  contestants */\n      0x06\n        /* \"contracts/VotingContract.sol\":4724:4742  contestants.length */\n      dup1\n      sload\n      swap1\n      pop\n        /* \"contracts/VotingContract.sol\":4720:4721  i */\n      dup2\n        /* \"contracts/VotingContract.sol\":4720:4742  i < contestants.length */\n      lt\n        /* \"contracts/VotingContract.sol\":4703:5036  for (uint i = 0; i < contestants.length; i++) {... */\n      iszero\n      tag_171\n      jumpi\n        /* \"contracts/VotingContract.sol\":4779:4795  winningVoteCount */\n      dup4\n        /* \"contracts/VotingContract.sol\":4768:4773  votes */\n      0x08\n        /* \"contracts/VotingContract.sol\":4768:4776  votes[i] */\n      0x00\n        /* \"contracts/VotingContract.sol\":4774:4775  i */\n      dup4\n        /* \"contracts/VotingContract.sol\":4768:4776  votes[i] */\n      dup2\n      mstore\n      0x20\n      add\n      swap1\n      dup2\n      mstore\n      0x20\n      add\n      0x00\n      keccak256\n      sload\n        /* \"contracts/VotingContract.sol\":4768:4795  votes[i] > winningVoteCount */\n      gt\n        /* \"contracts/VotingContract.sol\":4764:5025  if (votes[i] > winningVoteCount) {... */\n      iszero\n      tag_173\n      jumpi\n        /* \"contracts/VotingContract.sol\":4835:4840  votes */\n      0x08\n        /* \"contracts/VotingContract.sol\":4835:4843  votes[i] */\n      0x00\n        /* \"contracts/VotingContract.sol\":4841:4842  i */\n      dup3\n        /* \"contracts/VotingContract.sol\":4835:4843  votes[i] */\n      dup2\n      mstore\n      0x20\n      add\n      swap1\n      dup2\n      mstore\n      0x20\n      add\n      0x00\n      keccak256\n      sload\n        /* \"contracts/VotingContract.sol\":4816:4843  winningVoteCount = votes[i] */\n      swap4\n      pop\n        /* \"contracts/VotingContract.sol\":4877:4878  i */\n      dup1\n        /* \"contracts/VotingContract.sol\":4862:4878  winningIndex = i */\n      swap3\n      pop\n        /* \"contracts/VotingContract.sol\":4903:4908  false */\n      0x00\n        /* \"contracts/VotingContract.sol\":4897:4908  tie = false */\n      swap2\n      pop\n        /* \"contracts/VotingContract.sol\":4764:5025  if (votes[i] > winningVoteCount) {... */\n      jump(tag_174)\n    tag_173:\n        /* \"contracts/VotingContract.sol\":4946:4962  winningVoteCount */\n      dup4\n        /* \"contracts/VotingContract.sol\":4934:4939  votes */\n      0x08\n        /* \"contracts/VotingContract.sol\":4934:4942  votes[i] */\n      0x00\n        /* \"contracts/VotingContract.sol\":4940:4941  i */\n      dup4\n        /* \"contracts/VotingContract.sol\":4934:4942  votes[i] */\n      dup2\n      mstore\n      0x20\n      add\n      swap1\n      dup2\n      mstore\n      0x20\n      add\n      0x00\n      keccak256\n      sload\n        /* \"contracts/VotingContract.sol\":4934:4962  votes[i] == winningVoteCount */\n      eq\n        /* \"contracts/VotingContract.sol\":4934:4978  votes[i] == winningVoteCount && votes[i] > 0 */\n      dup1\n      iszero\n      tag_175\n      jumpi\n      pop\n        /* \"contracts/VotingContract.sol\":4977:4978  0 */\n      0x00\n        /* \"contracts/VotingContract.sol\":4966:4971  votes */\n      0x08\n        /* \"contracts/VotingContract.sol\":4966:4974  votes[i] */\n      0x00\n        /* \"contracts/VotingContract.sol\":4972:4973  i */\n      dup4\n        /* \"contracts/VotingContract.sol\":4966:4974  votes[i] */\n      dup2\n      mstore\n      0x20\n      add\n      swap1\n      dup2\n      mstore\n      0x20\n      add\n      0x00\n      keccak256\n      sload\n        /* \"contracts/VotingContract.sol\":4966:4978  votes[i] > 0 */\n      gt\n        /* \"contracts/VotingContract.sol\":4934:4978  votes[i] == winningVoteCount && votes[i] > 0 */\n    tag_175:\n        /* \"contracts/VotingContract.sol\":4930:5025  if (votes[i] == winningVoteCount && votes[i] > 0) {... */\n      iszero\n      tag_176\n      jumpi\n        /* \"contracts/VotingContract.sol\":5005:5009  true */\n      0x01\n        /* \"contracts/VotingContract.sol\":4999:5009  tie = true */\n      swap2\n      pop\n        /* \"contracts/VotingContract.sol\":4930:5025  if (votes[i] == winningVoteCount && votes[i] > 0) {... */\n    tag_176:\n        /* \"contracts/VotingContract.sol\":4764:5025  if (votes[i] > winningVoteCount) {... */\n    tag_174:\n        /* \"contracts/VotingContract.sol\":4744:4747  i++ */\n      dup1\n      dup1\n      0x01\n      add\n      swap2\n      pop\n      pop\n        /* \"contracts/VotingContract.sol\":4703:5036  for (uint i = 0; i < contestants.length; i++) {... */\n      jump(tag_170)\n    tag_171:\n      pop\n        /* \"contracts/VotingContract.sol\":5055:5058  tie */\n      dup1\n        /* \"contracts/VotingContract.sol\":5054:5058  !tie */\n      iszero\n        /* \"contracts/VotingContract.sol\":5046:5110  require(!tie, \"Election ended in a tie, manual decision needed\") */\n      tag_177\n      jumpi\n      mload(0x40)\n      0x08c379a000000000000000000000000000000000000000000000000000000000\n      dup2\n      mstore\n      0x04\n      add\n      tag_178\n      swap1\n      tag_179\n      jump\t// in\n    tag_178:\n      mload(0x40)\n      dup1\n      swap2\n      sub\n      swap1\n      revert\n    tag_177:\n        /* \"contracts/VotingContract.sol\":5139:5150  contestants */\n      0x06\n        /* \"contracts/VotingContract.sol\":5151:5163  winningIndex */\n      dup3\n        /* \"contracts/VotingContract.sol\":5139:5164  contestants[winningIndex] */\n      dup2\n      sload\n      dup2\n      lt\n      tag_180\n      jumpi\n      tag_181\n      tag_99\n      jump\t// in\n    tag_181:\n    tag_180:\n      swap1\n      0x00\n      mstore\n      keccak256(0x00, 0x20)\n      swap1\n      0x04\n      mul\n      add\n        /* \"contracts/VotingContract.sol\":5139:5169  contestants[winningIndex].name */\n      0x00\n      add\n        /* \"contracts/VotingContract.sol\":5122:5136  presidentElect */\n      0x04\n        /* \"contracts/VotingContract.sol\":5122:5169  presidentElect = contestants[winningIndex].name */\n      swap1\n      dup2\n      tag_183\n      swap2\n      swap1\n      tag_184\n      jump\t// in\n    tag_183:\n      pop\n        /* \"contracts/VotingContract.sol\":4475:5177  {... */\n      pop\n      pop\n      pop\n        /* \"contracts/VotingContract.sol\":898:1172  {... */\n      pop\n        /* \"contracts/VotingContract.sol\":4422:5177  function endElection() public onlyAdmin checkElection{... */\n      jump\t// out\n        /* \"contracts/VotingContract.sol\":721:755  mapping(uint => uint) public votes */\n    tag_60:\n      mstore(0x20, 0x08)\n      dup1\n      0x00\n      mstore\n      keccak256(0x00, 0x40)\n      0x00\n      swap2\n      pop\n      swap1\n      pop\n      sload\n      dup2\n      jump\t// out\n        /* \"contracts/VotingContract.sol\":2396:3228  function addContestant(... */\n    tag_65:\n        /* \"contracts/VotingContract.sol\":2585:2598  string memory */\n      0x60\n        /* \"contracts/VotingContract.sol\":909:919  bool found */\n      0x00\n        /* \"contracts/VotingContract.sol\":922:927  false */\n      0x00\n        /* \"contracts/VotingContract.sol\":909:927  bool found = false */\n      swap1\n      pop\n        /* \"contracts/VotingContract.sol\":943:949  uint i */\n      0x00\n        /* \"contracts/VotingContract.sol\":952:953  0 */\n      0x00\n        /* \"contracts/VotingContract.sol\":943:953  uint i = 0 */\n      swap1\n      pop\n        /* \"contracts/VotingContract.sol\":938:1105  for (uint i = 0; i < admins.length; i++) {... */\n    tag_186:\n        /* \"contracts/VotingContract.sol\":959:965  admins */\n      0x05\n        /* \"contracts/VotingContract.sol\":959:972  admins.length */\n      dup1\n      sload\n      swap1\n      pop\n        /* \"contracts/VotingContract.sol\":955:956  i */\n      dup2\n        /* \"contracts/VotingContract.sol\":955:972  i < admins.length */\n      lt\n        /* \"contracts/VotingContract.sol\":938:1105  for (uint i = 0; i < admins.length; i++) {... */\n      iszero\n      tag_187\n      jumpi\n        /* \"contracts/VotingContract.sol\":1012:1018  admins */\n      0x05\n        /* \"contracts/VotingContract.sol\":1019:1020  i */\n      dup2\n        /* \"contracts/VotingContract.sol\":1012:1021  admins[i] */\n      dup2\n      sload\n      dup2\n      lt\n      tag_189\n      jumpi\n      tag_190\n      tag_99\n      jump\t// in\n    tag_190:\n    tag_189:\n      swap1\n      0x00\n      mstore\n      keccak256(0x00, 0x20)\n      add\n      0x00\n      swap1\n      sload\n      swap1\n      0x0100\n      exp\n      swap1\n      div\n      0xffffffffffffffffffffffffffffffffffffffff\n      and\n        /* \"contracts/VotingContract.sol\":998:1021  msg.sender == admins[i] */\n      0xffffffffffffffffffffffffffffffffffffffff\n      and\n        /* \"contracts/VotingContract.sol\":998:1008  msg.sender */\n      caller\n        /* \"contracts/VotingContract.sol\":998:1021  msg.sender == admins[i] */\n      0xffffffffffffffffffffffffffffffffffffffff\n      and\n      sub\n        /* \"contracts/VotingContract.sol\":994:1094  if (msg.sender == admins[i]) {... */\n      tag_192\n      jumpi\n        /* \"contracts/VotingContract.sol\":1050:1054  true */\n      0x01\n        /* \"contracts/VotingContract.sol\":1042:1054  found = true */\n      swap2\n      pop\n        /* \"contracts/VotingContract.sol\":1073:1078  break */\n      jump(tag_187)\n        /* \"contracts/VotingContract.sol\":994:1094  if (msg.sender == admins[i]) {... */\n    tag_192:\n        /* \"contracts/VotingContract.sol\":974:977  i++ */\n      dup1\n      dup1\n      0x01\n      add\n      swap2\n      pop\n      pop\n        /* \"contracts/VotingContract.sol\":938:1105  for (uint i = 0; i < admins.length; i++) {... */\n      jump(tag_186)\n    tag_187:\n      pop\n        /* \"contracts/VotingContract.sol\":1123:1128  found */\n      dup1\n        /* \"contracts/VotingContract.sol\":1115:1152  require(found, \"You're not an admin\") */\n      tag_193\n      jumpi\n      mload(0x40)\n      0x08c379a000000000000000000000000000000000000000000000000000000000\n      dup2\n      mstore\n      0x04\n      add\n      tag_194\n      swap1\n      tag_104\n      jump\t// in\n    tag_194:\n      mload(0x40)\n      dup1\n      swap2\n      sub\n      swap1\n      revert\n    tag_193:\n        /* \"contracts/VotingContract.sol\":1238:1239  0 */\n      0x00\n        /* \"contracts/VotingContract.sol\":1219:1234  votingStartTime */\n      sload(0x01)\n        /* \"contracts/VotingContract.sol\":1219:1239  votingStartTime != 0 */\n      eq\n      iszero\n        /* \"contracts/VotingContract.sol\":1218:1279  (votingStartTime != 0) && (votingStartTime < block.timestamp) */\n      dup1\n      iszero\n      tag_196\n      jumpi\n      pop\n        /* \"contracts/VotingContract.sol\":1263:1278  block.timestamp */\n      timestamp\n        /* \"contracts/VotingContract.sol\":1245:1260  votingStartTime */\n      sload(0x01)\n        /* \"contracts/VotingContract.sol\":1245:1278  votingStartTime < block.timestamp */\n      lt\n        /* \"contracts/VotingContract.sol\":1218:1279  (votingStartTime != 0) && (votingStartTime < block.timestamp) */\n    tag_196:\n        /* \"contracts/VotingContract.sol\":1218:1316  (votingStartTime != 0) && (votingStartTime < block.timestamp) && (votingEndTime > block.timestamp) */\n      dup1\n      iszero\n      tag_197\n      jumpi\n      pop\n        /* \"contracts/VotingContract.sol\":1300:1315  block.timestamp */\n      timestamp\n        /* \"contracts/VotingContract.sol\":1284:1297  votingEndTime */\n      sload(0x02)\n        /* \"contracts/VotingContract.sol\":1284:1315  votingEndTime > block.timestamp */\n      gt\n        /* \"contracts/VotingContract.sol\":1218:1316  (votingStartTime != 0) && (votingStartTime < block.timestamp) && (votingEndTime > block.timestamp) */\n    tag_197:\n        /* \"contracts/VotingContract.sol\":1215:1424  if((votingStartTime != 0) && (votingStartTime < block.timestamp) && (votingEndTime > block.timestamp)){... */\n      iszero\n      tag_198\n      jumpi\n        /* \"contracts/VotingContract.sol\":1347:1351  true */\n      0x01\n        /* \"contracts/VotingContract.sol\":1332:1344  votingActive */\n      0x03\n      0x00\n        /* \"contracts/VotingContract.sol\":1332:1351  votingActive = true */\n      0x0100\n      exp\n      dup2\n      sload\n      dup2\n      0xff\n      mul\n      not\n      and\n      swap1\n      dup4\n      iszero\n      iszero\n      mul\n      or\n      swap1\n      sstore\n      pop\n        /* \"contracts/VotingContract.sol\":1215:1424  if((votingStartTime != 0) && (votingStartTime < block.timestamp) && (votingEndTime > block.timestamp)){... */\n      jump(tag_199)\n    tag_198:\n        /* \"contracts/VotingContract.sol\":1407:1412  false */\n      0x00\n        /* \"contracts/VotingContract.sol\":1392:1404  votingActive */\n      0x03\n      0x00\n        /* \"contracts/VotingContract.sol\":1392:1412  votingActive = false */\n      0x0100\n      exp\n      dup2\n      sload\n      dup2\n      0xff\n      mul\n      not\n      and\n      swap1\n      dup4\n      iszero\n      iszero\n      mul\n      or\n      swap1\n      sstore\n      pop\n        /* \"contracts/VotingContract.sol\":1215:1424  if((votingStartTime != 0) && (votingStartTime < block.timestamp) && (votingEndTime > block.timestamp)){... */\n    tag_199:\n        /* \"contracts/VotingContract.sol\":2619:2631  votingActive */\n      0x03\n      0x00\n      swap1\n      sload\n      swap1\n      0x0100\n      exp\n      swap1\n      div\n      0xff\n      and\n        /* \"contracts/VotingContract.sol\":2618:2631  !votingActive */\n      iszero\n        /* \"contracts/VotingContract.sol\":2610:2673  require(!votingActive, \"Can't add contestants during election\") */\n      tag_201\n      jumpi\n      mload(0x40)\n      0x08c379a000000000000000000000000000000000000000000000000000000000\n      dup2\n      mstore\n      0x04\n      add\n      tag_202\n      swap1\n      tag_203\n      jump\t// in\n    tag_202:\n      mload(0x40)\n      dup1\n      swap2\n      sub\n      swap1\n      revert\n    tag_201:\n        /* \"contracts/VotingContract.sol\":2689:2695  uint i */\n      0x00\n        /* \"contracts/VotingContract.sol\":2698:2699  0 */\n      0x00\n        /* \"contracts/VotingContract.sol\":2689:2699  uint i = 0 */\n      swap1\n      pop\n        /* \"contracts/VotingContract.sol\":2684:3124  for (uint i = 0; i < contestants.length; i++) {... */\n    tag_204:\n        /* \"contracts/VotingContract.sol\":2705:2716  contestants */\n      0x06\n        /* \"contracts/VotingContract.sol\":2705:2723  contestants.length */\n      dup1\n      sload\n      swap1\n      pop\n        /* \"contracts/VotingContract.sol\":2701:2702  i */\n      dup2\n        /* \"contracts/VotingContract.sol\":2701:2723  i < contestants.length */\n      lt\n        /* \"contracts/VotingContract.sol\":2684:3124  for (uint i = 0; i < contestants.length; i++) {... */\n      iszero\n      tag_205\n      jumpi\n        /* \"contracts/VotingContract.sol\":2850:2854  name */\n      dup10\n      dup10\n        /* \"contracts/VotingContract.sol\":2833:2855  abi.encodePacked(name) */\n      add(0x20, mload(0x40))\n      tag_207\n      swap3\n      swap2\n      swap1\n      tag_208\n      jump\t// in\n    tag_207:\n      mload(0x40)\n      0x20\n      dup2\n      dup4\n      sub\n      sub\n      dup2\n      mstore\n      swap1\n      0x40\n      mstore\n        /* \"contracts/VotingContract.sol\":2823:2856  keccak256(abi.encodePacked(name)) */\n      dup1\n      mload\n      swap1\n      0x20\n      add\n      keccak256\n        /* \"contracts/VotingContract.sol\":2798:2809  contestants */\n      0x06\n        /* \"contracts/VotingContract.sol\":2810:2811  i */\n      dup3\n        /* \"contracts/VotingContract.sol\":2798:2812  contestants[i] */\n      dup2\n      sload\n      dup2\n      lt\n      tag_209\n      jumpi\n      tag_210\n      tag_99\n      jump\t// in\n    tag_210:\n    tag_209:\n      swap1\n      0x00\n      mstore\n      keccak256(0x00, 0x20)\n      swap1\n      0x04\n      mul\n      add\n        /* \"contracts/VotingContract.sol\":2798:2817  contestants[i].name */\n      0x00\n      add\n        /* \"contracts/VotingContract.sol\":2781:2818  abi.encodePacked(contestants[i].name) */\n      add(0x20, mload(0x40))\n      tag_212\n      swap2\n      swap1\n      tag_213\n      jump\t// in\n    tag_212:\n      mload(0x40)\n      0x20\n      dup2\n      dup4\n      sub\n      sub\n      dup2\n      mstore\n      swap1\n      0x40\n      mstore\n        /* \"contracts/VotingContract.sol\":2771:2819  keccak256(abi.encodePacked(contestants[i].name)) */\n      dup1\n      mload\n      swap1\n      0x20\n      add\n      keccak256\n        /* \"contracts/VotingContract.sol\":2771:2856  keccak256(abi.encodePacked(contestants[i].name)) != keccak256(abi.encodePacked(name)) */\n      sub\n        /* \"contracts/VotingContract.sol\":2745:2924  require(... */\n      tag_214\n      jumpi\n      mload(0x40)\n      0x08c379a000000000000000000000000000000000000000000000000000000000\n      dup2\n      mstore\n      0x04\n      add\n      tag_215\n      swap1\n      tag_216\n      jump\t// in\n    tag_215:\n      mload(0x40)\n      dup1\n      swap2\n      sub\n      swap1\n      revert\n    tag_214:\n        /* \"contracts/VotingContract.sol\":3045:3050  party */\n      dup7\n      dup7\n        /* \"contracts/VotingContract.sol\":3028:3051  abi.encodePacked(party) */\n      add(0x20, mload(0x40))\n      tag_217\n      swap3\n      swap2\n      swap1\n      tag_208\n      jump\t// in\n    tag_217:\n      mload(0x40)\n      0x20\n      dup2\n      dup4\n      sub\n      sub\n      dup2\n      mstore\n      swap1\n      0x40\n      mstore\n        /* \"contracts/VotingContract.sol\":3018:3052  keccak256(abi.encodePacked(party)) */\n      dup1\n      mload\n      swap1\n      0x20\n      add\n      keccak256\n        /* \"contracts/VotingContract.sol\":2992:3003  contestants */\n      0x06\n        /* \"contracts/VotingContract.sol\":3004:3005  i */\n      dup3\n        /* \"contracts/VotingContract.sol\":2992:3006  contestants[i] */\n      dup2\n      sload\n      dup2\n      lt\n      tag_218\n      jumpi\n      tag_219\n      tag_99\n      jump\t// in\n    tag_219:\n    tag_218:\n      swap1\n      0x00\n      mstore\n      keccak256(0x00, 0x20)\n      swap1\n      0x04\n      mul\n      add\n        /* \"contracts/VotingContract.sol\":2992:3012  contestants[i].party */\n      0x02\n      add\n        /* \"contracts/VotingContract.sol\":2975:3013  abi.encodePacked(contestants[i].party) */\n      add(0x20, mload(0x40))\n      tag_221\n      swap2\n      swap1\n      tag_213\n      jump\t// in\n    tag_221:\n      mload(0x40)\n      0x20\n      dup2\n      dup4\n      sub\n      sub\n      dup2\n      mstore\n      swap1\n      0x40\n      mstore\n        /* \"contracts/VotingContract.sol\":2965:3014  keccak256(abi.encodePacked(contestants[i].party)) */\n      dup1\n      mload\n      swap1\n      0x20\n      add\n      keccak256\n        /* \"contracts/VotingContract.sol\":2965:3052  keccak256(abi.encodePacked(contestants[i].party)) != keccak256(abi.encodePacked(party)) */\n      sub\n        /* \"contracts/VotingContract.sol\":2939:3112  require(... */\n      tag_222\n      jumpi\n      mload(0x40)\n      0x08c379a000000000000000000000000000000000000000000000000000000000\n      dup2\n      mstore\n      0x04\n      add\n      tag_223\n      swap1\n      tag_224\n      jump\t// in\n    tag_223:\n      mload(0x40)\n      dup1\n      swap2\n      sub\n      swap1\n      revert\n    tag_222:\n        /* \"contracts/VotingContract.sol\":2725:2728  i++ */\n      dup1\n      dup1\n      0x01\n      add\n      swap2\n      pop\n      pop\n        /* \"contracts/VotingContract.sol\":2684:3124  for (uint i = 0; i < contestants.length; i++) {... */\n      jump(tag_204)\n    tag_205:\n      pop\n        /* \"contracts/VotingContract.sol\":3136:3147  contestants */\n      0x06\n        /* \"contracts/VotingContract.sol\":3153:3192  Contestant(name, age, party, manifesto) */\n      mload(0x40)\n      dup1\n      0x80\n      add\n      0x40\n      mstore\n      dup1\n        /* \"contracts/VotingContract.sol\":3164:3168  name */\n      dup12\n      dup12\n        /* \"contracts/VotingContract.sol\":3153:3192  Contestant(name, age, party, manifesto) */\n      dup1\n      dup1\n      0x1f\n      add\n      0x20\n      dup1\n      swap2\n      div\n      mul\n      0x20\n      add\n      mload(0x40)\n      swap1\n      dup2\n      add\n      0x40\n      mstore\n      dup1\n      swap4\n      swap3\n      swap2\n      swap1\n      dup2\n      dup2\n      mstore\n      0x20\n      add\n      dup4\n      dup4\n      dup1\n      dup3\n      dup5\n      calldatacopy\n      0x00\n      dup2\n      dup5\n      add\n      mstore\n      not(0x1f)\n      0x1f\n      dup3\n      add\n      and\n      swap1\n      pop\n      dup1\n      dup4\n      add\n      swap3\n      pop\n      pop\n      pop\n      pop\n      pop\n      pop\n      pop\n      dup2\n      mstore\n      0x20\n      add\n        /* \"contracts/VotingContract.sol\":3170:3173  age */\n      dup10\n        /* \"contracts/VotingContract.sol\":3153:3192  Contestant(name, age, party, manifesto) */\n      0xff\n      and\n      dup2\n      mstore\n      0x20\n      add\n        /* \"contracts/VotingContract.sol\":3175:3180  party */\n      dup9\n      dup9\n        /* \"contracts/VotingContract.sol\":3153:3192  Contestant(name, age, party, manifesto) */\n      dup1\n      dup1\n      0x1f\n      add\n      0x20\n      dup1\n      swap2\n      div\n      mul\n      0x20\n      add\n      mload(0x40)\n      swap1\n      dup2\n      add\n      0x40\n      mstore\n      dup1\n      swap4\n      swap3\n      swap2\n      swap1\n      dup2\n      dup2\n      mstore\n      0x20\n      add\n      dup4\n      dup4\n      dup1\n      dup3\n      dup5\n      calldatacopy\n      0x00\n      dup2\n      dup5\n      add\n      mstore\n      not(0x1f)\n      0x1f\n      dup3\n      add\n      and\n      swap1\n      pop\n      dup1\n      dup4\n      add\n      swap3\n      pop\n      pop\n      pop\n      pop\n      pop\n      pop\n      pop\n      dup2\n      mstore\n      0x20\n      add\n        /* \"contracts/VotingContract.sol\":3182:3191  manifesto */\n      dup7\n      dup7\n        /* \"contracts/VotingContract.sol\":3153:3192  Contestant(name, age, party, manifesto) */\n      dup1\n      dup1\n      0x1f\n      add\n      0x20\n      dup1\n      swap2\n      div\n      mul\n      0x20\n      add\n      mload(0x40)\n      swap1\n      dup2\n      add\n      0x40\n      mstore\n      dup1\n      swap4\n      swap3\n      swap2\n      swap1\n      dup2\n      dup2\n      mstore\n      0x20\n      add\n      dup4\n      dup4\n      dup1\n      dup3\n      dup5\n      calldatacopy\n      0x00\n      dup2\n      dup5\n      add\n      mstore\n      not(0x1f)\n      0x1f\n      dup3\n      add\n      and\n      swap1\n      pop\n      dup1\n      dup4\n      add\n      swap3\n      pop\n      pop\n      pop\n      pop\n      pop\n      pop\n      pop\n      dup2\n      mstore\n      pop\n        /* \"contracts/VotingContract.sol\":3136:3193  contestants.push(Contestant(name, age, party, manifesto)) */\n      swap1\n      dup1\n      0x01\n      dup2\n      sload\n      add\n      dup1\n      dup3\n      sstore\n      dup1\n      swap2\n      pop\n      pop\n      0x01\n      swap1\n      sub\n      swap1\n      0x00\n      mstore\n      keccak256(0x00, 0x20)\n      swap1\n      0x04\n      mul\n      add\n      0x00\n      swap1\n      swap2\n      swap1\n      swap2\n      swap1\n      swap2\n      pop\n      0x00\n      dup3\n      add\n      mload\n      dup2\n      0x00\n      add\n      swap1\n      dup2\n      tag_226\n      swap2\n      swap1\n      tag_116\n      jump\t// in\n    tag_226:\n      pop\n      0x20\n      dup3\n      add\n      mload\n      dup2\n      0x01\n      add\n      exp(0x0100, 0x00)\n      dup2\n      sload\n      dup2\n      0xff\n      mul\n      not\n      and\n      swap1\n      dup4\n      0xff\n      and\n      mul\n      or\n      swap1\n      sstore\n      pop\n      0x40\n      dup3\n      add\n      mload\n      dup2\n      0x02\n      add\n      swap1\n      dup2\n      tag_227\n      swap2\n      swap1\n      tag_116\n      jump\t// in\n    tag_227:\n      pop\n      0x60\n      dup3\n      add\n      mload\n      dup2\n      0x03\n      add\n      swap1\n      dup2\n      tag_228\n      swap2\n      swap1\n      tag_116\n      jump\t// in\n    tag_228:\n      pop\n      pop\n      pop\n        /* \"contracts/VotingContract.sol\":3204:3220  return \"success\" */\n      mload(0x40)\n      dup1\n      0x40\n      add\n      0x40\n      mstore\n      dup1\n      0x07\n      dup2\n      mstore\n      0x20\n      add\n      0x7375636365737300000000000000000000000000000000000000000000000000\n      dup2\n      mstore\n      pop\n      swap2\n      pop\n        /* \"contracts/VotingContract.sol\":898:1172  {... */\n      pop\n        /* \"contracts/VotingContract.sol\":2396:3228  function addContestant(... */\n      swap8\n      swap7\n      pop\n      pop\n      pop\n      pop\n      pop\n      pop\n      pop\n      jump\t// out\n        /* \"contracts/VotingContract.sol\":4179:4414  function startElectionNow() public onlyAdmin returns (bool) {... */\n    tag_68:\n        /* \"contracts/VotingContract.sol\":4233:4237  bool */\n      0x00\n        /* \"contracts/VotingContract.sol\":909:919  bool found */\n      0x00\n        /* \"contracts/VotingContract.sol\":922:927  false */\n      0x00\n        /* \"contracts/VotingContract.sol\":909:927  bool found = false */\n      swap1\n      pop\n        /* \"contracts/VotingContract.sol\":943:949  uint i */\n      0x00\n        /* \"contracts/VotingContract.sol\":952:953  0 */\n      0x00\n        /* \"contracts/VotingContract.sol\":943:953  uint i = 0 */\n      swap1\n      pop\n        /* \"contracts/VotingContract.sol\":938:1105  for (uint i = 0; i < admins.length; i++) {... */\n    tag_230:\n        /* \"contracts/VotingContract.sol\":959:965  admins */\n      0x05\n        /* \"contracts/VotingContract.sol\":959:972  admins.length */\n      dup1\n      sload\n      swap1\n      pop\n        /* \"contracts/VotingContract.sol\":955:956  i */\n      dup2\n        /* \"contracts/VotingContract.sol\":955:972  i < admins.length */\n      lt\n        /* \"contracts/VotingContract.sol\":938:1105  for (uint i = 0; i < admins.length; i++) {... */\n      iszero\n      tag_231\n      jumpi\n        /* \"contracts/VotingContract.sol\":1012:1018  admins */\n      0x05\n        /* \"contracts/VotingContract.sol\":1019:1020  i */\n      dup2\n        /* \"contracts/VotingContract.sol\":1012:1021  admins[i] */\n      dup2\n      sload\n      dup2\n      lt\n      tag_233\n      jumpi\n      tag_234\n      tag_99\n      jump\t// in\n    tag_234:\n    tag_233:\n      swap1\n      0x00\n      mstore\n      keccak256(0x00, 0x20)\n      add\n      0x00\n      swap1\n      sload\n      swap1\n      0x0100\n      exp\n      swap1\n      div\n      0xffffffffffffffffffffffffffffffffffffffff\n      and\n        /* \"contracts/VotingContract.sol\":998:1021  msg.sender == admins[i] */\n      0xffffffffffffffffffffffffffffffffffffffff\n      and\n        /* \"contracts/VotingContract.sol\":998:1008  msg.sender */\n      caller\n        /* \"contracts/VotingContract.sol\":998:1021  msg.sender == admins[i] */\n      0xffffffffffffffffffffffffffffffffffffffff\n      and\n      sub\n        /* \"contracts/VotingContract.sol\":994:1094  if (msg.sender == admins[i]) {... */\n      tag_236\n      jumpi\n        /* \"contracts/VotingContract.sol\":1050:1054  true */\n      0x01\n        /* \"contracts/VotingContract.sol\":1042:1054  found = true */\n      swap2\n      pop\n        /* \"contracts/VotingContract.sol\":1073:1078  break */\n      jump(tag_231)\n        /* \"contracts/VotingContract.sol\":994:1094  if (msg.sender == admins[i]) {... */\n    tag_236:\n        /* \"contracts/VotingContract.sol\":974:977  i++ */\n      dup1\n      dup1\n      0x01\n      add\n      swap2\n      pop\n      pop\n        /* \"contracts/VotingContract.sol\":938:1105  for (uint i = 0; i < admins.length; i++) {... */\n      jump(tag_230)\n    tag_231:\n      pop\n        /* \"contracts/VotingContract.sol\":1123:1128  found */\n      dup1\n        /* \"contracts/VotingContract.sol\":1115:1152  require(found, \"You're not an admin\") */\n      tag_237\n      jumpi\n      mload(0x40)\n      0x08c379a000000000000000000000000000000000000000000000000000000000\n      dup2\n      mstore\n      0x04\n      add\n      tag_238\n      swap1\n      tag_104\n      jump\t// in\n    tag_238:\n      mload(0x40)\n      dup1\n      swap2\n      sub\n      swap1\n      revert\n    tag_237:\n        /* \"contracts/VotingContract.sol\":4259:4271  votingActive */\n      0x03\n      0x00\n      swap1\n      sload\n      swap1\n      0x0100\n      exp\n      swap1\n      div\n      0xff\n      and\n        /* \"contracts/VotingContract.sol\":4258:4271  !votingActive */\n      iszero\n        /* \"contracts/VotingContract.sol\":4250:4300  require(!votingActive, \"Election already started\") */\n      tag_240\n      jumpi\n      mload(0x40)\n      0x08c379a000000000000000000000000000000000000000000000000000000000\n      dup2\n      mstore\n      0x04\n      add\n      tag_241\n      swap1\n      tag_242\n      jump\t// in\n    tag_241:\n      mload(0x40)\n      dup1\n      swap2\n      sub\n      swap1\n      revert\n    tag_240:\n        /* \"contracts/VotingContract.sol\":4329:4344  block.timestamp */\n      timestamp\n        /* \"contracts/VotingContract.sol\":4311:4326  votingStartTime */\n      0x01\n        /* \"contracts/VotingContract.sol\":4311:4344  votingStartTime = block.timestamp */\n      dup2\n      swap1\n      sstore\n      pop\n        /* \"contracts/VotingContract.sol\":4370:4374  true */\n      0x01\n        /* \"contracts/VotingContract.sol\":4355:4367  votingActive */\n      0x03\n      0x00\n        /* \"contracts/VotingContract.sol\":4355:4374  votingActive = true */\n      0x0100\n      exp\n      dup2\n      sload\n      dup2\n      0xff\n      mul\n      not\n      and\n      swap1\n      dup4\n      iszero\n      iszero\n      mul\n      or\n      swap1\n      sstore\n      pop\n        /* \"contracts/VotingContract.sol\":4392:4404  votingActive */\n      0x03\n      0x00\n      swap1\n      sload\n      swap1\n      0x0100\n      exp\n      swap1\n      div\n      0xff\n      and\n        /* \"contracts/VotingContract.sol\":4385:4404  return votingActive */\n      swap2\n      pop\n        /* \"contracts/VotingContract.sol\":898:1172  {... */\n      pop\n        /* \"contracts/VotingContract.sol\":4179:4414  function startElectionNow() public onlyAdmin returns (bool) {... */\n      swap1\n      jump\t// out\n        /* \"contracts/VotingContract.sol\":1798:2098  function votingEndInMinutes(uint _votingEnd) external returns (string memory){... */\n    tag_72:\n        /* \"contracts/VotingContract.sol\":1861:1874  string memory */\n      0x60\n        /* \"contracts/VotingContract.sol\":1913:1914  0 */\n      0x00\n        /* \"contracts/VotingContract.sol\":1894:1909  votingStartTime */\n      sload(0x01)\n        /* \"contracts/VotingContract.sol\":1894:1914  votingStartTime != 0 */\n      sub\n        /* \"contracts/VotingContract.sol\":1886:1939  require(votingStartTime != 0, \"Set start time first\") */\n      tag_244\n      jumpi\n      mload(0x40)\n      0x08c379a000000000000000000000000000000000000000000000000000000000\n      dup2\n      mstore\n      0x04\n      add\n      tag_245\n      swap1\n      tag_246\n      jump\t// in\n    tag_245:\n      mload(0x40)\n      dup1\n      swap2\n      sub\n      swap1\n      revert\n    tag_244:\n        /* \"contracts/VotingContract.sol\":1998:2000  60 */\n      0x3c\n        /* \"contracts/VotingContract.sol\":1985:1995  _votingEnd */\n      dup3\n        /* \"contracts/VotingContract.sol\":1985:2000  _votingEnd * 60 */\n      tag_247\n      swap2\n      swap1\n      tag_146\n      jump\t// in\n    tag_247:\n        /* \"contracts/VotingContract.sol\":1966:1981  votingStartTime */\n      sload(0x01)\n        /* \"contracts/VotingContract.sol\":1966:2001  votingStartTime + (_votingEnd * 60) */\n      tag_248\n      swap2\n      swap1\n      tag_148\n      jump\t// in\n    tag_248:\n        /* \"contracts/VotingContract.sol\":1950:1963  votingEndTime */\n      0x02\n        /* \"contracts/VotingContract.sol\":1950:2001  votingEndTime = votingStartTime + (_votingEnd * 60) */\n      dup2\n      swap1\n      sstore\n      pop\n        /* \"contracts/VotingContract.sol\":2066:2076  _votingEnd */\n      dup2\n        /* \"contracts/VotingContract.sol\":2026:2089  abi.encodePacked(\"Election will last \", _votingEnd, \"minutes.\") */\n      add(0x20, mload(0x40))\n      tag_249\n      swap2\n      swap1\n      tag_250\n      jump\t// in\n    tag_249:\n      mload(0x40)\n      0x20\n      dup2\n      dup4\n      sub\n      sub\n      dup2\n      mstore\n      swap1\n      0x40\n      mstore\n        /* \"contracts/VotingContract.sol\":2012:2090  return string(abi.encodePacked(\"Election will last \", _votingEnd, \"minutes.\")) */\n      swap1\n      pop\n        /* \"contracts/VotingContract.sol\":1798:2098  function votingEndInMinutes(uint _votingEnd) external returns (string memory){... */\n      swap2\n      swap1\n      pop\n      jump\t// out\n        /* \"contracts/VotingContract.sol\":3623:4171  function vote(uint voterIndex, uint contestantIndex) public checkElection{... */\n    tag_77:\n        /* \"contracts/VotingContract.sol\":1238:1239  0 */\n      0x00\n        /* \"contracts/VotingContract.sol\":1219:1234  votingStartTime */\n      sload(0x01)\n        /* \"contracts/VotingContract.sol\":1219:1239  votingStartTime != 0 */\n      eq\n      iszero\n        /* \"contracts/VotingContract.sol\":1218:1279  (votingStartTime != 0) && (votingStartTime < block.timestamp) */\n      dup1\n      iszero\n      tag_252\n      jumpi\n      pop\n        /* \"contracts/VotingContract.sol\":1263:1278  block.timestamp */\n      timestamp\n        /* \"contracts/VotingContract.sol\":1245:1260  votingStartTime */\n      sload(0x01)\n        /* \"contracts/VotingContract.sol\":1245:1278  votingStartTime < block.timestamp */\n      lt\n        /* \"contracts/VotingContract.sol\":1218:1279  (votingStartTime != 0) && (votingStartTime < block.timestamp) */\n    tag_252:\n        /* \"contracts/VotingContract.sol\":1218:1316  (votingStartTime != 0) && (votingStartTime < block.timestamp) && (votingEndTime > block.timestamp) */\n      dup1\n      iszero\n      tag_253\n      jumpi\n      pop\n        /* \"contracts/VotingContract.sol\":1300:1315  block.timestamp */\n      timestamp\n        /* \"contracts/VotingContract.sol\":1284:1297  votingEndTime */\n      sload(0x02)\n        /* \"contracts/VotingContract.sol\":1284:1315  votingEndTime > block.timestamp */\n      gt\n        /* \"contracts/VotingContract.sol\":1218:1316  (votingStartTime != 0) && (votingStartTime < block.timestamp) && (votingEndTime > block.timestamp) */\n    tag_253:\n        /* \"contracts/VotingContract.sol\":1215:1424  if((votingStartTime != 0) && (votingStartTime < block.timestamp) && (votingEndTime > block.timestamp)){... */\n      iszero\n      tag_254\n      jumpi\n        /* \"contracts/VotingContract.sol\":1347:1351  true */\n      0x01\n        /* \"contracts/VotingContract.sol\":1332:1344  votingActive */\n      0x03\n      0x00\n        /* \"contracts/VotingContract.sol\":1332:1351  votingActive = true */\n      0x0100\n      exp\n      dup2\n      sload\n      dup2\n      0xff\n      mul\n      not\n      and\n      swap1\n      dup4\n      iszero\n      iszero\n      mul\n      or\n      swap1\n      sstore\n      pop\n        /* \"contracts/VotingContract.sol\":1215:1424  if((votingStartTime != 0) && (votingStartTime < block.timestamp) && (votingEndTime > block.timestamp)){... */\n      jump(tag_255)\n    tag_254:\n        /* \"contracts/VotingContract.sol\":1407:1412  false */\n      0x00\n        /* \"contracts/VotingContract.sol\":1392:1404  votingActive */\n      0x03\n      0x00\n        /* \"contracts/VotingContract.sol\":1392:1412  votingActive = false */\n      0x0100\n      exp\n      dup2\n      sload\n      dup2\n      0xff\n      mul\n      not\n      and\n      swap1\n      dup4\n      iszero\n      iszero\n      mul\n      or\n      swap1\n      sstore\n      pop\n        /* \"contracts/VotingContract.sol\":1215:1424  if((votingStartTime != 0) && (votingStartTime < block.timestamp) && (votingEndTime > block.timestamp)){... */\n    tag_255:\n        /* \"contracts/VotingContract.sol\":3725:3737  votingActive */\n      0x03\n      0x00\n      swap1\n      sload\n      swap1\n      0x0100\n      exp\n      swap1\n      div\n      0xff\n      and\n        /* \"contracts/VotingContract.sol\":3717:3762  require(votingActive , \"No election ongoing\") */\n      tag_257\n      jumpi\n      mload(0x40)\n      0x08c379a000000000000000000000000000000000000000000000000000000000\n      dup2\n      mstore\n      0x04\n      add\n      tag_258\n      swap1\n      tag_259\n      jump\t// in\n    tag_258:\n      mload(0x40)\n      dup1\n      swap2\n      sub\n      swap1\n      revert\n    tag_257:\n        /* \"contracts/VotingContract.sol\":3794:3800  voters */\n      0x07\n        /* \"contracts/VotingContract.sol\":3794:3807  voters.length */\n      dup1\n      sload\n      swap1\n      pop\n        /* \"contracts/VotingContract.sol\":3781:3791  voterIndex */\n      dup3\n        /* \"contracts/VotingContract.sol\":3781:3807  voterIndex < voters.length */\n      lt\n        /* \"contracts/VotingContract.sol\":3773:3831  require(voterIndex < voters.length, \"Invalid voter index\") */\n      tag_260\n      jumpi\n      mload(0x40)\n      0x08c379a000000000000000000000000000000000000000000000000000000000\n      dup2\n      mstore\n      0x04\n      add\n      tag_261\n      swap1\n      tag_262\n      jump\t// in\n    tag_261:\n      mload(0x40)\n      dup1\n      swap2\n      sub\n      swap1\n      revert\n    tag_260:\n        /* \"contracts/VotingContract.sol\":3850:3856  voters */\n      0x07\n        /* \"contracts/VotingContract.sol\":3857:3867  voterIndex */\n      dup3\n        /* \"contracts/VotingContract.sol\":3850:3868  voters[voterIndex] */\n      dup2\n      sload\n      dup2\n      lt\n      tag_263\n      jumpi\n      tag_264\n      tag_99\n      jump\t// in\n    tag_264:\n    tag_263:\n      swap1\n      0x00\n      mstore\n      keccak256(0x00, 0x20)\n      swap1\n      0x04\n      mul\n      add\n        /* \"contracts/VotingContract.sol\":3850:3879  voters[voterIndex].isEligible */\n      0x03\n      add\n      0x01\n      swap1\n      sload\n      swap1\n      0x0100\n      exp\n      swap1\n      div\n      0xff\n      and\n        /* \"contracts/VotingContract.sol\":3842:3905  require(voters[voterIndex].isEligible, \"Voter is not eligible\") */\n      tag_266\n      jumpi\n      mload(0x40)\n      0x08c379a000000000000000000000000000000000000000000000000000000000\n      dup2\n      mstore\n      0x04\n      add\n      tag_267\n      swap1\n      tag_268\n      jump\t// in\n    tag_267:\n      mload(0x40)\n      dup1\n      swap2\n      sub\n      swap1\n      revert\n    tag_266:\n        /* \"contracts/VotingContract.sol\":3925:3931  voters */\n      0x07\n        /* \"contracts/VotingContract.sol\":3932:3942  voterIndex */\n      dup3\n        /* \"contracts/VotingContract.sol\":3925:3943  voters[voterIndex] */\n      dup2\n      sload\n      dup2\n      lt\n      tag_269\n      jumpi\n      tag_270\n      tag_99\n      jump\t// in\n    tag_270:\n    tag_269:\n      swap1\n      0x00\n      mstore\n      keccak256(0x00, 0x20)\n      swap1\n      0x04\n      mul\n      add\n        /* \"contracts/VotingContract.sol\":3925:3949  voters[voterIndex].voted */\n      0x03\n      add\n      0x00\n      swap1\n      sload\n      swap1\n      0x0100\n      exp\n      swap1\n      div\n      0xff\n      and\n        /* \"contracts/VotingContract.sol\":3924:3949  !voters[voterIndex].voted */\n      iszero\n        /* \"contracts/VotingContract.sol\":3916:3977  require(!voters[voterIndex].voted, \"Voter has already voted\") */\n      tag_272\n      jumpi\n      mload(0x40)\n      0x08c379a000000000000000000000000000000000000000000000000000000000\n      dup2\n      mstore\n      0x04\n      add\n      tag_273\n      swap1\n      tag_274\n      jump\t// in\n    tag_273:\n      mload(0x40)\n      dup1\n      swap2\n      sub\n      swap1\n      revert\n    tag_272:\n        /* \"contracts/VotingContract.sol\":4014:4025  contestants */\n      0x06\n        /* \"contracts/VotingContract.sol\":4014:4032  contestants.length */\n      dup1\n      sload\n      swap1\n      pop\n        /* \"contracts/VotingContract.sol\":3996:4011  contestantIndex */\n      dup2\n        /* \"contracts/VotingContract.sol\":3996:4032  contestantIndex < contestants.length */\n      lt\n        /* \"contracts/VotingContract.sol\":3988:4061  require(contestantIndex < contestants.length, \"Invalid contestant index\") */\n      tag_275\n      jumpi\n      mload(0x40)\n      0x08c379a000000000000000000000000000000000000000000000000000000000\n      dup2\n      mstore\n      0x04\n      add\n      tag_276\n      swap1\n      tag_277\n      jump\t// in\n    tag_276:\n      mload(0x40)\n      dup1\n      swap2\n      sub\n      swap1\n      revert\n    tag_275:\n        /* \"contracts/VotingContract.sol\":4101:4105  true */\n      0x01\n        /* \"contracts/VotingContract.sol\":4074:4080  voters */\n      0x07\n        /* \"contracts/VotingContract.sol\":4081:4091  voterIndex */\n      dup4\n        /* \"contracts/VotingContract.sol\":4074:4092  voters[voterIndex] */\n      dup2\n      sload\n      dup2\n      lt\n      tag_278\n      jumpi\n      tag_279\n      tag_99\n      jump\t// in\n    tag_279:\n    tag_278:\n      swap1\n      0x00\n      mstore\n      keccak256(0x00, 0x20)\n      swap1\n      0x04\n      mul\n      add\n        /* \"contracts/VotingContract.sol\":4074:4098  voters[voterIndex].voted */\n      0x03\n      add\n      0x00\n        /* \"contracts/VotingContract.sol\":4074:4105  voters[voterIndex].voted = true */\n      0x0100\n      exp\n      dup2\n      sload\n      dup2\n      0xff\n      mul\n      not\n      and\n      swap1\n      dup4\n      iszero\n      iszero\n      mul\n      or\n      swap1\n      sstore\n      pop\n        /* \"contracts/VotingContract.sol\":4116:4121  votes */\n      0x08\n        /* \"contracts/VotingContract.sol\":4116:4138  votes[contestantIndex] */\n      0x00\n        /* \"contracts/VotingContract.sol\":4122:4137  contestantIndex */\n      dup3\n        /* \"contracts/VotingContract.sol\":4116:4138  votes[contestantIndex] */\n      dup2\n      mstore\n      0x20\n      add\n      swap1\n      dup2\n      mstore\n      0x20\n      add\n      0x00\n      keccak256\n      0x00\n        /* \"contracts/VotingContract.sol\":4116:4140  votes[contestantIndex]++ */\n      dup2\n      sload\n      dup1\n      swap3\n      swap2\n      swap1\n      tag_281\n      swap1\n      tag_282\n      jump\t// in\n    tag_281:\n      swap2\n      swap1\n      pop\n      sstore\n      pop\n        /* \"contracts/VotingContract.sol\":4151:4161  numOfVotes */\n      0x00\n      0x00\n        /* \"contracts/VotingContract.sol\":4151:4163  numOfVotes++ */\n      dup2\n      dup2\n      swap1\n      sload\n      swap1\n      0x0100\n      exp\n      swap1\n      div\n      0xffffffff\n      and\n      dup1\n      swap3\n      swap2\n      swap1\n      tag_283\n      swap1\n      tag_284\n      jump\t// in\n    tag_283:\n      swap2\n      swap1\n      0x0100\n      exp\n      dup2\n      sload\n      dup2\n      0xffffffff\n      mul\n      not\n      and\n      swap1\n      dup4\n      0xffffffff\n      and\n      mul\n      or\n      swap1\n      sstore\n      pop\n      pop\n        /* \"contracts/VotingContract.sol\":3623:4171  function vote(uint voterIndex, uint contestantIndex) public checkElection{... */\n      pop\n      pop\n      jump\t// out\n        /* \"contracts/VotingContract.sol\":5185:5281  function showWinner() public view returns(string memory){... */\n    tag_79:\n        /* \"contracts/VotingContract.sol\":5227:5240  string memory */\n      0x60\n        /* \"contracts/VotingContract.sol\":5259:5273  presidentElect */\n      0x04\n        /* \"contracts/VotingContract.sol\":5252:5273  return presidentElect */\n      dup1\n      sload\n      tag_286\n      swap1\n      tag_287\n      jump\t// in\n    tag_286:\n      dup1\n      0x1f\n      add\n      0x20\n      dup1\n      swap2\n      div\n      mul\n      0x20\n      add\n      mload(0x40)\n      swap1\n      dup2\n      add\n      0x40\n      mstore\n      dup1\n      swap3\n      swap2\n      swap1\n      dup2\n      dup2\n      mstore\n      0x20\n      add\n      dup3\n      dup1\n      sload\n      tag_288\n      swap1\n      tag_287\n      jump\t// in\n    tag_288:\n      dup1\n      iszero\n      tag_289\n      jumpi\n      dup1\n      0x1f\n      lt\n      tag_290\n      jumpi\n      0x0100\n      dup1\n      dup4\n      sload\n      div\n      mul\n      dup4\n      mstore\n      swap2\n      0x20\n      add\n      swap2\n      jump(tag_289)\n    tag_290:\n      dup3\n      add\n      swap2\n      swap1\n      0x00\n      mstore\n      keccak256(0x00, 0x20)\n      swap1\n    tag_291:\n      dup2\n      sload\n      dup2\n      mstore\n      swap1\n      0x01\n      add\n      swap1\n      0x20\n      add\n      dup1\n      dup4\n      gt\n      tag_291\n      jumpi\n      dup3\n      swap1\n      sub\n      0x1f\n      and\n      dup3\n      add\n      swap2\n    tag_289:\n      pop\n      pop\n      pop\n      pop\n      pop\n      swap1\n      pop\n        /* \"contracts/VotingContract.sol\":5185:5281  function showWinner() public view returns(string memory){... */\n      swap1\n      jump\t// out\n        /* \"contracts/VotingContract.sol\":660:681  Voter[] public voters */\n    tag_83:\n      0x07\n      dup2\n      dup2\n      sload\n      dup2\n      lt\n      tag_292\n      jumpi\n      0x00\n      dup1\n      revert\n    tag_292:\n      swap1\n      0x00\n      mstore\n      keccak256(0x00, 0x20)\n      swap1\n      0x04\n      mul\n      add\n      0x00\n      swap2\n      pop\n      swap1\n      pop\n      dup1\n      0x00\n      add\n      dup1\n      sload\n      tag_294\n      swap1\n      tag_287\n      jump\t// in\n    tag_294:\n      dup1\n      0x1f\n      add\n      0x20\n      dup1\n      swap2\n      div\n      mul\n      0x20\n      add\n      mload(0x40)\n      swap1\n      dup2\n      add\n      0x40\n      mstore\n      dup1\n      swap3\n      swap2\n      swap1\n      dup2\n      dup2\n      mstore\n      0x20\n      add\n      dup3\n      dup1\n      sload\n      tag_295\n      swap1\n      tag_287\n      jump\t// in\n    tag_295:\n      dup1\n      iszero\n      tag_296\n      jumpi\n      dup1\n      0x1f\n      lt\n      tag_297\n      jumpi\n      0x0100\n      dup1\n      dup4\n      sload\n      div\n      mul\n      dup4\n      mstore\n      swap2\n      0x20\n      add\n      swap2\n      jump(tag_296)\n    tag_297:\n      dup3\n      add\n      swap2\n      swap1\n      0x00\n      mstore\n      keccak256(0x00, 0x20)\n      swap1\n    tag_298:\n      dup2\n      sload\n      dup2\n      mstore\n      swap1\n      0x01\n      add\n      swap1\n      0x20\n      add\n      dup1\n      dup4\n      gt\n      tag_298\n      jumpi\n      dup3\n      swap1\n      sub\n      0x1f\n      and\n      dup3\n      add\n      swap2\n    tag_296:\n      pop\n      pop\n      pop\n      pop\n      pop\n      swap1\n      dup1\n      0x01\n      add\n      0x00\n      swap1\n      sload\n      swap1\n      0x0100\n      exp\n      swap1\n      div\n      0xff\n      and\n      swap1\n      dup1\n      0x02\n      add\n      dup1\n      sload\n      tag_299\n      swap1\n      tag_287\n      jump\t// in\n    tag_299:\n      dup1\n      0x1f\n      add\n      0x20\n      dup1\n      swap2\n      div\n      mul\n      0x20\n      add\n      mload(0x40)\n      swap1\n      dup2\n      add\n      0x40\n      mstore\n      dup1\n      swap3\n      swap2\n      swap1\n      dup2\n      dup2\n      mstore\n      0x20\n      add\n      dup3\n      dup1\n      sload\n      tag_300\n      swap1\n      tag_287\n      jump\t// in\n    tag_300:\n      dup1\n      iszero\n      tag_301\n      jumpi\n      dup1\n      0x1f\n      lt\n      tag_302\n      jumpi\n      0x0100\n      dup1\n      dup4\n      sload\n      div\n      mul\n      dup4\n      mstore\n      swap2\n      0x20\n      add\n      swap2\n      jump(tag_301)\n    tag_302:\n      dup3\n      add\n      swap2\n      swap1\n      0x00\n      mstore\n      keccak256(0x00, 0x20)\n      swap1\n    tag_303:\n      dup2\n      sload\n      dup2\n      mstore\n      swap1\n      0x01\n      add\n      swap1\n      0x20\n      add\n      dup1\n      dup4\n      gt\n      tag_303\n      jumpi\n      dup3\n      swap1\n      sub\n      0x1f\n      and\n      dup3\n      add\n      swap2\n    tag_301:\n      pop\n      pop\n      pop\n      pop\n      pop\n      swap1\n      dup1\n      0x03\n      add\n      0x00\n      swap1\n      sload\n      swap1\n      0x0100\n      exp\n      swap1\n      div\n      0xff\n      and\n      swap1\n      dup1\n      0x03\n      add\n      0x01\n      swap1\n      sload\n      swap1\n      0x0100\n      exp\n      swap1\n      div\n      0xff\n      and\n      swap1\n      pop\n      dup6\n      jump\t// out\n        /* \"contracts/VotingContract.sol\":603:634  Contestant[] public contestants */\n    tag_88:\n      0x06\n      dup2\n      dup2\n      sload\n      dup2\n      lt\n      tag_304\n      jumpi\n      0x00\n      dup1\n      revert\n    tag_304:\n      swap1\n      0x00\n      mstore\n      keccak256(0x00, 0x20)\n      swap1\n      0x04\n      mul\n      add\n      0x00\n      swap2\n      pop\n      swap1\n      pop\n      dup1\n      0x00\n      add\n      dup1\n      sload\n      tag_306\n      swap1\n      tag_287\n      jump\t// in\n    tag_306:\n      dup1\n      0x1f\n      add\n      0x20\n      dup1\n      swap2\n      div\n      mul\n      0x20\n      add\n      mload(0x40)\n      swap1\n      dup2\n      add\n      0x40\n      mstore\n      dup1\n      swap3\n      swap2\n      swap1\n      dup2\n      dup2\n      mstore\n      0x20\n      add\n      dup3\n      dup1\n      sload\n      tag_307\n      swap1\n      tag_287\n      jump\t// in\n    tag_307:\n      dup1\n      iszero\n      tag_308\n      jumpi\n      dup1\n      0x1f\n      lt\n      tag_309\n      jumpi\n      0x0100\n      dup1\n      dup4\n      sload\n      div\n      mul\n      dup4\n      mstore\n      swap2\n      0x20\n      add\n      swap2\n      jump(tag_308)\n    tag_309:\n      dup3\n      add\n      swap2\n      swap1\n      0x00\n      mstore\n      keccak256(0x00, 0x20)\n      swap1\n    tag_310:\n      dup2\n      sload\n      dup2\n      mstore\n      swap1\n      0x01\n      add\n      swap1\n      0x20\n      add\n      dup1\n      dup4\n      gt\n      tag_310\n      jumpi\n      dup3\n      swap1\n      sub\n      0x1f\n      and\n      dup3\n      add\n      swap2\n    tag_308:\n      pop\n      pop\n      pop\n      pop\n      pop\n      swap1\n      dup1\n      0x01\n      add\n      0x00\n      swap1\n      sload\n      swap1\n      0x0100\n      exp\n      swap1\n      div\n      0xff\n      and\n      swap1\n      dup1\n      0x02\n      add\n      dup1\n      sload\n      tag_311\n      swap1\n      tag_287\n      jump\t// in\n    tag_311:\n      dup1\n      0x1f\n      add\n      0x20\n      dup1\n      swap2\n      div\n      mul\n      0x20\n      add\n      mload(0x40)\n      swap1\n      dup2\n      add\n      0x40\n      mstore\n      dup1\n      swap3\n      swap2\n      swap1\n      dup2\n      dup2\n      mstore\n      0x20\n      add\n      dup3\n      dup1\n      sload\n      tag_312\n      swap1\n      tag_287\n      jump\t// in\n    tag_312:\n      dup1\n      iszero\n      tag_313\n      jumpi\n      dup1\n      0x1f\n      lt\n      tag_314\n      jumpi\n      0x0100\n      dup1\n      dup4\n      sload\n      div\n      mul\n      dup4\n      mstore\n      swap2\n      0x20\n      add\n      swap2\n      jump(tag_313)\n    tag_314:\n      dup3\n      add\n      swap2\n      swap1\n      0x00\n      mstore\n      keccak256(0x00, 0x20)\n      swap1\n    tag_315:\n      dup2\n      sload\n      dup2\n      mstore\n      swap1\n      0x01\n      add\n      swap1\n      0x20\n      add\n      dup1\n      dup4\n      gt\n      tag_315\n      jumpi\n      dup3\n      swap1\n      sub\n      0x1f\n      and\n      dup3\n      add\n      swap2\n    tag_313:\n      pop\n      pop\n      pop\n      pop\n      pop\n      swap1\n      dup1\n      0x03\n      add\n      dup1\n      sload\n      tag_316\n      swap1\n      tag_287\n      jump\t// in\n    tag_316:\n      dup1\n      0x1f\n      add\n      0x20\n      dup1\n      swap2\n      div\n      mul\n      0x20\n      add\n      mload(0x40)\n      swap1\n      dup2\n      add\n      0x40\n      mstore\n      dup1\n      swap3\n      swap2\n      swap1\n      dup2\n      dup2\n      mstore\n      0x20\n      add\n      dup3\n      dup1\n      sload\n      tag_317\n      swap1\n      tag_287\n      jump\t// in\n    tag_317:\n      dup1\n      iszero\n      tag_318\n      jumpi\n      dup1\n      0x1f\n      lt\n      tag_319\n      jumpi\n      0x0100\n      dup1\n      dup4\n      sload\n      div\n      mul\n      dup4\n      mstore\n      swap2\n      0x20\n      add\n      swap2\n      jump(tag_318)\n    tag_319:\n      dup3\n      add\n      swap2\n      swap1\n      0x00\n      mstore\n      keccak256(0x00, 0x20)\n      swap1\n    tag_320:\n      dup2\n      sload\n      dup2\n      mstore\n      swap1\n      0x01\n      add\n      swap1\n      0x20\n      add\n      dup1\n      dup4\n      gt\n      tag_320\n      jumpi\n      dup3\n      swap1\n      sub\n      0x1f\n      and\n      dup3\n      add\n      swap2\n    tag_318:\n      pop\n      pop\n      pop\n      pop\n      pop\n      swap1\n      pop\n      dup5\n      jump\t// out\n        /* \"#utility.yul\":7:100   */\n    tag_321:\n        /* \"#utility.yul\":43:50   */\n      0x00\n        /* \"#utility.yul\":83:93   */\n      0xffffffff\n        /* \"#utility.yul\":76:81   */\n      dup3\n        /* \"#utility.yul\":72:94   */\n      and\n        /* \"#utility.yul\":61:94   */\n      swap1\n      pop\n        /* \"#utility.yul\":7:100   */\n      swap2\n      swap1\n      pop\n      jump\t// out\n        /* \"#utility.yul\":106:221   */\n    tag_322:\n        /* \"#utility.yul\":191:214   */\n      tag_421\n        /* \"#utility.yul\":208:213   */\n      dup2\n        /* \"#utility.yul\":191:214   */\n      tag_321\n      jump\t// in\n    tag_421:\n        /* \"#utility.yul\":186:189   */\n      dup3\n        /* \"#utility.yul\":179:215   */\n      mstore\n        /* \"#utility.yul\":106:221   */\n      pop\n      pop\n      jump\t// out\n        /* \"#utility.yul\":227:445   */\n    tag_26:\n        /* \"#utility.yul\":318:322   */\n      0x00\n        /* \"#utility.yul\":356:358   */\n      0x20\n        /* \"#utility.yul\":345:354   */\n      dup3\n        /* \"#utility.yul\":341:359   */\n      add\n        /* \"#utility.yul\":333:359   */\n      swap1\n      pop\n        /* \"#utility.yul\":369:438   */\n      tag_423\n        /* \"#utility.yul\":435:436   */\n      0x00\n        /* \"#utility.yul\":424:433   */\n      dup4\n        /* \"#utility.yul\":420:437   */\n      add\n        /* \"#utility.yul\":411:417   */\n      dup5\n        /* \"#utility.yul\":369:438   */\n      tag_322\n      jump\t// in\n    tag_423:\n        /* \"#utility.yul\":227:445   */\n      swap3\n      swap2\n      pop\n      pop\n      jump\t// out\n        /* \"#utility.yul\":532:649   */\n    tag_324:\n        /* \"#utility.yul\":641:642   */\n      0x00\n        /* \"#utility.yul\":638:639   */\n      0x00\n        /* \"#utility.yul\":631:643   */\n      revert\n        /* \"#utility.yul\":655:772   */\n    tag_325:\n        /* \"#utility.yul\":764:765   */\n      0x00\n        /* \"#utility.yul\":761:762   */\n      0x00\n        /* \"#utility.yul\":754:766   */\n      revert\n        /* \"#utility.yul\":778:855   */\n    tag_326:\n        /* \"#utility.yul\":815:822   */\n      0x00\n        /* \"#utility.yul\":844:849   */\n      dup2\n        /* \"#utility.yul\":833:849   */\n      swap1\n      pop\n        /* \"#utility.yul\":778:855   */\n      swap2\n      swap1\n      pop\n      jump\t// out\n        /* \"#utility.yul\":861:983   */\n    tag_327:\n        /* \"#utility.yul\":934:958   */\n      tag_429\n        /* \"#utility.yul\":952:957   */\n      dup2\n        /* \"#utility.yul\":934:958   */\n      tag_326\n      jump\t// in\n    tag_429:\n        /* \"#utility.yul\":927:932   */\n      dup2\n        /* \"#utility.yul\":924:959   */\n      eq\n        /* \"#utility.yul\":914:977   */\n      tag_430\n      jumpi\n        /* \"#utility.yul\":973:974   */\n      0x00\n        /* \"#utility.yul\":970:971   */\n      0x00\n        /* \"#utility.yul\":963:975   */\n      revert\n        /* \"#utility.yul\":914:977   */\n    tag_430:\n        /* \"#utility.yul\":861:983   */\n      pop\n      jump\t// out\n        /* \"#utility.yul\":989:1128   */\n    tag_328:\n        /* \"#utility.yul\":1035:1040   */\n      0x00\n        /* \"#utility.yul\":1073:1079   */\n      dup2\n        /* \"#utility.yul\":1060:1080   */\n      calldataload\n        /* \"#utility.yul\":1051:1080   */\n      swap1\n      pop\n        /* \"#utility.yul\":1089:1122   */\n      tag_432\n        /* \"#utility.yul\":1116:1121   */\n      dup2\n        /* \"#utility.yul\":1089:1122   */\n      tag_327\n      jump\t// in\n    tag_432:\n        /* \"#utility.yul\":989:1128   */\n      swap3\n      swap2\n      pop\n      pop\n      jump\t// out\n        /* \"#utility.yul\":1134:1463   */\n    tag_29:\n        /* \"#utility.yul\":1193:1199   */\n      0x00\n        /* \"#utility.yul\":1242:1244   */\n      0x20\n        /* \"#utility.yul\":1230:1239   */\n      dup3\n        /* \"#utility.yul\":1221:1228   */\n      dup5\n        /* \"#utility.yul\":1217:1240   */\n      sub\n        /* \"#utility.yul\":1213:1245   */\n      slt\n        /* \"#utility.yul\":1210:1329   */\n      iszero\n      tag_434\n      jumpi\n        /* \"#utility.yul\":1248:1327   */\n      tag_435\n      tag_324\n      jump\t// in\n    tag_435:\n        /* \"#utility.yul\":1210:1329   */\n    tag_434:\n        /* \"#utility.yul\":1368:1369   */\n      0x00\n        /* \"#utility.yul\":1393:1446   */\n      tag_436\n        /* \"#utility.yul\":1438:1445   */\n      dup5\n        /* \"#utility.yul\":1429:1435   */\n      dup3\n        /* \"#utility.yul\":1418:1427   */\n      dup6\n        /* \"#utility.yul\":1414:1436   */\n      add\n        /* \"#utility.yul\":1393:1446   */\n      tag_328\n      jump\t// in\n    tag_436:\n        /* \"#utility.yul\":1383:1446   */\n      swap2\n      pop\n        /* \"#utility.yul\":1339:1456   */\n      pop\n        /* \"#utility.yul\":1134:1463   */\n      swap3\n      swap2\n      pop\n      pop\n      jump\t// out\n        /* \"#utility.yul\":1469:1595   */\n    tag_329:\n        /* \"#utility.yul\":1506:1513   */\n      0x00\n        /* \"#utility.yul\":1546:1588   */\n      0xffffffffffffffffffffffffffffffffffffffff\n        /* \"#utility.yul\":1539:1544   */\n      dup3\n        /* \"#utility.yul\":1535:1589   */\n      and\n        /* \"#utility.yul\":1524:1589   */\n      swap1\n      pop\n        /* \"#utility.yul\":1469:1595   */\n      swap2\n      swap1\n      pop\n      jump\t// out\n        /* \"#utility.yul\":1601:1697   */\n    tag_330:\n        /* \"#utility.yul\":1638:1645   */\n      0x00\n        /* \"#utility.yul\":1667:1691   */\n      tag_439\n        /* \"#utility.yul\":1685:1690   */\n      dup3\n        /* \"#utility.yul\":1667:1691   */\n      tag_329\n      jump\t// in\n    tag_439:\n        /* \"#utility.yul\":1656:1691   */\n      swap1\n      pop\n        /* \"#utility.yul\":1601:1697   */\n      swap2\n      swap1\n      pop\n      jump\t// out\n        /* \"#utility.yul\":1703:1821   */\n    tag_331:\n        /* \"#utility.yul\":1790:1814   */\n      tag_441\n        /* \"#utility.yul\":1808:1813   */\n      dup2\n        /* \"#utility.yul\":1790:1814   */\n      tag_330\n      jump\t// in\n    tag_441:\n        /* \"#utility.yul\":1785:1788   */\n      dup3\n        /* \"#utility.yul\":1778:1815   */\n      mstore\n        /* \"#utility.yul\":1703:1821   */\n      pop\n      pop\n      jump\t// out\n        /* \"#utility.yul\":1827:2049   */\n    tag_32:\n        /* \"#utility.yul\":1920:1924   */\n      0x00\n        /* \"#utility.yul\":1958:1960   */\n      0x20\n        /* \"#utility.yul\":1947:1956   */\n      dup3\n        /* \"#utility.yul\":1943:1961   */\n      add\n        /* \"#utility.yul\":1935:1961   */\n      swap1\n      pop\n        /* \"#utility.yul\":1971:2042   */\n      tag_443\n        /* \"#utility.yul\":2039:2040   */\n      0x00\n        /* \"#utility.yul\":2028:2037   */\n      dup4\n        /* \"#utility.yul\":2024:2041   */\n      add\n        /* \"#utility.yul\":2015:2021   */\n      dup5\n        /* \"#utility.yul\":1971:2042   */\n      tag_331\n      jump\t// in\n    tag_443:\n        /* \"#utility.yul\":1827:2049   */\n      swap3\n      swap2\n      pop\n      pop\n      jump\t// out\n        /* \"#utility.yul\":2055:2173   */\n    tag_332:\n        /* \"#utility.yul\":2142:2166   */\n      tag_445\n        /* \"#utility.yul\":2160:2165   */\n      dup2\n        /* \"#utility.yul\":2142:2166   */\n      tag_326\n      jump\t// in\n    tag_445:\n        /* \"#utility.yul\":2137:2140   */\n      dup3\n        /* \"#utility.yul\":2130:2167   */\n      mstore\n        /* \"#utility.yul\":2055:2173   */\n      pop\n      pop\n      jump\t// out\n        /* \"#utility.yul\":2179:2401   */\n    tag_36:\n        /* \"#utility.yul\":2272:2276   */\n      0x00\n        /* \"#utility.yul\":2310:2312   */\n      0x20\n        /* \"#utility.yul\":2299:2308   */\n      dup3\n        /* \"#utility.yul\":2295:2313   */\n      add\n        /* \"#utility.yul\":2287:2313   */\n      swap1\n      pop\n        /* \"#utility.yul\":2323:2394   */\n      tag_447\n        /* \"#utility.yul\":2391:2392   */\n      0x00\n        /* \"#utility.yul\":2380:2389   */\n      dup4\n        /* \"#utility.yul\":2376:2393   */\n      add\n        /* \"#utility.yul\":2367:2373   */\n      dup5\n        /* \"#utility.yul\":2323:2394   */\n      tag_332\n      jump\t// in\n    tag_447:\n        /* \"#utility.yul\":2179:2401   */\n      swap3\n      swap2\n      pop\n      pop\n      jump\t// out\n        /* \"#utility.yul\":2407:2524   */\n    tag_333:\n        /* \"#utility.yul\":2516:2517   */\n      0x00\n        /* \"#utility.yul\":2513:2514   */\n      0x00\n        /* \"#utility.yul\":2506:2518   */\n      revert\n        /* \"#utility.yul\":2530:2647   */\n    tag_334:\n        /* \"#utility.yul\":2639:2640   */\n      0x00\n        /* \"#utility.yul\":2636:2637   */\n      0x00\n        /* \"#utility.yul\":2629:2641   */\n      revert\n        /* \"#utility.yul\":2653:2770   */\n    tag_335:\n        /* \"#utility.yul\":2762:2763   */\n      0x00\n        /* \"#utility.yul\":2759:2760   */\n      0x00\n        /* \"#utility.yul\":2752:2764   */\n      revert\n        /* \"#utility.yul\":2790:3343   */\n    tag_336:\n        /* \"#utility.yul\":2848:2856   */\n      0x00\n        /* \"#utility.yul\":2858:2864   */\n      0x00\n        /* \"#utility.yul\":2908:2911   */\n      dup4\n        /* \"#utility.yul\":2901:2905   */\n      0x1f\n        /* \"#utility.yul\":2893:2899   */\n      dup5\n        /* \"#utility.yul\":2889:2906   */\n      add\n        /* \"#utility.yul\":2885:2912   */\n      slt\n        /* \"#utility.yul\":2875:2997   */\n      tag_452\n      jumpi\n        /* \"#utility.yul\":2916:2995   */\n      tag_453\n      tag_333\n      jump\t// in\n    tag_453:\n        /* \"#utility.yul\":2875:2997   */\n    tag_452:\n        /* \"#utility.yul\":3029:3035   */\n      dup3\n        /* \"#utility.yul\":3016:3036   */\n      calldataload\n        /* \"#utility.yul\":3006:3036   */\n      swap1\n      pop\n        /* \"#utility.yul\":3059:3077   */\n      0xffffffffffffffff\n        /* \"#utility.yul\":3051:3057   */\n      dup2\n        /* \"#utility.yul\":3048:3078   */\n      gt\n        /* \"#utility.yul\":3045:3162   */\n      iszero\n      tag_454\n      jumpi\n        /* \"#utility.yul\":3081:3160   */\n      tag_455\n      tag_334\n      jump\t// in\n    tag_455:\n        /* \"#utility.yul\":3045:3162   */\n    tag_454:\n        /* \"#utility.yul\":3195:3199   */\n      0x20\n        /* \"#utility.yul\":3187:3193   */\n      dup4\n        /* \"#utility.yul\":3183:3200   */\n      add\n        /* \"#utility.yul\":3171:3200   */\n      swap2\n      pop\n        /* \"#utility.yul\":3249:3252   */\n      dup4\n        /* \"#utility.yul\":3241:3245   */\n      0x01\n        /* \"#utility.yul\":3233:3239   */\n      dup3\n        /* \"#utility.yul\":3229:3246   */\n      mul\n        /* \"#utility.yul\":3219:3227   */\n      dup4\n        /* \"#utility.yul\":3215:3247   */\n      add\n        /* \"#utility.yul\":3212:3253   */\n      gt\n        /* \"#utility.yul\":3209:3337   */\n      iszero\n      tag_456\n      jumpi\n        /* \"#utility.yul\":3256:3335   */\n      tag_457\n      tag_335\n      jump\t// in\n    tag_457:\n        /* \"#utility.yul\":3209:3337   */\n    tag_456:\n        /* \"#utility.yul\":2790:3343   */\n      swap3\n      pop\n      swap3\n      swap1\n      pop\n      jump\t// out\n        /* \"#utility.yul\":3349:3435   */\n    tag_337:\n        /* \"#utility.yul\":3384:3391   */\n      0x00\n        /* \"#utility.yul\":3424:3428   */\n      0xff\n        /* \"#utility.yul\":3417:3422   */\n      dup3\n        /* \"#utility.yul\":3413:3429   */\n      and\n        /* \"#utility.yul\":3402:3429   */\n      swap1\n      pop\n        /* \"#utility.yul\":3349:3435   */\n      swap2\n      swap1\n      pop\n      jump\t// out\n        /* \"#utility.yul\":3441:3559   */\n    tag_338:\n        /* \"#utility.yul\":3512:3534   */\n      tag_460\n        /* \"#utility.yul\":3528:3533   */\n      dup2\n        /* \"#utility.yul\":3512:3534   */\n      tag_337\n      jump\t// in\n    tag_460:\n        /* \"#utility.yul\":3505:3510   */\n      dup2\n        /* \"#utility.yul\":3502:3535   */\n      eq\n        /* \"#utility.yul\":3492:3553   */\n      tag_461\n      jumpi\n        /* \"#utility.yul\":3549:3550   */\n      0x00\n        /* \"#utility.yul\":3546:3547   */\n      0x00\n        /* \"#utility.yul\":3539:3551   */\n      revert\n        /* \"#utility.yul\":3492:3553   */\n    tag_461:\n        /* \"#utility.yul\":3441:3559   */\n      pop\n      jump\t// out\n        /* \"#utility.yul\":3565:3700   */\n    tag_339:\n        /* \"#utility.yul\":3609:3614   */\n      0x00\n        /* \"#utility.yul\":3647:3653   */\n      dup2\n        /* \"#utility.yul\":3634:3654   */\n      calldataload\n        /* \"#utility.yul\":3625:3654   */\n      swap1\n      pop\n        /* \"#utility.yul\":3663:3694   */\n      tag_463\n        /* \"#utility.yul\":3688:3693   */\n      dup2\n        /* \"#utility.yul\":3663:3694   */\n      tag_338\n      jump\t// in\n    tag_463:\n        /* \"#utility.yul\":3565:3700   */\n      swap3\n      swap2\n      pop\n      pop\n      jump\t// out\n        /* \"#utility.yul\":3706:4721   */\n    tag_42:\n        /* \"#utility.yul\":3805:3811   */\n      0x00\n        /* \"#utility.yul\":3813:3819   */\n      0x00\n        /* \"#utility.yul\":3821:3827   */\n      0x00\n        /* \"#utility.yul\":3829:3835   */\n      0x00\n        /* \"#utility.yul\":3837:3843   */\n      0x00\n        /* \"#utility.yul\":3886:3888   */\n      0x60\n        /* \"#utility.yul\":3874:3883   */\n      dup7\n        /* \"#utility.yul\":3865:3872   */\n      dup9\n        /* \"#utility.yul\":3861:3884   */\n      sub\n        /* \"#utility.yul\":3857:3889   */\n      slt\n        /* \"#utility.yul\":3854:3973   */\n      iszero\n      tag_465\n      jumpi\n        /* \"#utility.yul\":3892:3971   */\n      tag_466\n      tag_324\n      jump\t// in\n    tag_466:\n        /* \"#utility.yul\":3854:3973   */\n    tag_465:\n        /* \"#utility.yul\":4040:4041   */\n      0x00\n        /* \"#utility.yul\":4029:4038   */\n      dup7\n        /* \"#utility.yul\":4025:4042   */\n      add\n        /* \"#utility.yul\":4012:4043   */\n      calldataload\n        /* \"#utility.yul\":4070:4088   */\n      0xffffffffffffffff\n        /* \"#utility.yul\":4062:4068   */\n      dup2\n        /* \"#utility.yul\":4059:4089   */\n      gt\n        /* \"#utility.yul\":4056:4173   */\n      iszero\n      tag_467\n      jumpi\n        /* \"#utility.yul\":4092:4171   */\n      tag_468\n      tag_325\n      jump\t// in\n    tag_468:\n        /* \"#utility.yul\":4056:4173   */\n    tag_467:\n        /* \"#utility.yul\":4205:4270   */\n      tag_469\n        /* \"#utility.yul\":4262:4269   */\n      dup9\n        /* \"#utility.yul\":4253:4259   */\n      dup3\n        /* \"#utility.yul\":4242:4251   */\n      dup10\n        /* \"#utility.yul\":4238:4260   */\n      add\n        /* \"#utility.yul\":4205:4270   */\n      tag_336\n      jump\t// in\n    tag_469:\n        /* \"#utility.yul\":4187:4270   */\n      swap6\n      pop\n      swap6\n      pop\n        /* \"#utility.yul\":3983:4280   */\n      pop\n        /* \"#utility.yul\":4319:4321   */\n      0x20\n        /* \"#utility.yul\":4345:4396   */\n      tag_470\n        /* \"#utility.yul\":4388:4395   */\n      dup9\n        /* \"#utility.yul\":4379:4385   */\n      dup3\n        /* \"#utility.yul\":4368:4377   */\n      dup10\n        /* \"#utility.yul\":4364:4386   */\n      add\n        /* \"#utility.yul\":4345:4396   */\n      tag_339\n      jump\t// in\n    tag_470:\n        /* \"#utility.yul\":4335:4396   */\n      swap4\n      pop\n        /* \"#utility.yul\":4290:4406   */\n      pop\n        /* \"#utility.yul\":4473:4475   */\n      0x40\n        /* \"#utility.yul\":4462:4471   */\n      dup7\n        /* \"#utility.yul\":4458:4476   */\n      add\n        /* \"#utility.yul\":4445:4477   */\n      calldataload\n        /* \"#utility.yul\":4504:4522   */\n      0xffffffffffffffff\n        /* \"#utility.yul\":4496:4502   */\n      dup2\n        /* \"#utility.yul\":4493:4523   */\n      gt\n        /* \"#utility.yul\":4490:4607   */\n      iszero\n      tag_471\n      jumpi\n        /* \"#utility.yul\":4526:4605   */\n      tag_472\n      tag_325\n      jump\t// in\n    tag_472:\n        /* \"#utility.yul\":4490:4607   */\n    tag_471:\n        /* \"#utility.yul\":4639:4704   */\n      tag_473\n        /* \"#utility.yul\":4696:4703   */\n      dup9\n        /* \"#utility.yul\":4687:4693   */\n      dup3\n        /* \"#utility.yul\":4676:4685   */\n      dup10\n        /* \"#utility.yul\":4672:4694   */\n      add\n        /* \"#utility.yul\":4639:4704   */\n      tag_336\n      jump\t// in\n    tag_473:\n        /* \"#utility.yul\":4621:4704   */\n      swap3\n      pop\n      swap3\n      pop\n        /* \"#utility.yul\":4416:4714   */\n      pop\n        /* \"#utility.yul\":3706:4721   */\n      swap3\n      swap6\n      pop\n      swap3\n      swap6\n      swap1\n      swap4\n      pop\n      jump\t// out\n        /* \"#utility.yul\":4727:4826   */\n    tag_340:\n        /* \"#utility.yul\":4779:4785   */\n      0x00\n        /* \"#utility.yul\":4813:4818   */\n      dup2\n        /* \"#utility.yul\":4807:4819   */\n      mload\n        /* \"#utility.yul\":4797:4819   */\n      swap1\n      pop\n        /* \"#utility.yul\":4727:4826   */\n      swap2\n      swap1\n      pop\n      jump\t// out\n        /* \"#utility.yul\":4832:5001   */\n    tag_341:\n        /* \"#utility.yul\":4916:4927   */\n      0x00\n        /* \"#utility.yul\":4950:4956   */\n      dup3\n        /* \"#utility.yul\":4945:4948   */\n      dup3\n        /* \"#utility.yul\":4938:4957   */\n      mstore\n        /* \"#utility.yul\":4990:4994   */\n      0x20\n        /* \"#utility.yul\":4985:4988   */\n      dup3\n        /* \"#utility.yul\":4981:4995   */\n      add\n        /* \"#utility.yul\":4966:4995   */\n      swap1\n      pop\n        /* \"#utility.yul\":4832:5001   */\n      swap3\n      swap2\n      pop\n      pop\n      jump\t// out\n        /* \"#utility.yul\":5007:5146   */\n    tag_342:\n        /* \"#utility.yul\":5096:5102   */\n      dup3\n        /* \"#utility.yul\":5091:5094   */\n      dup2\n        /* \"#utility.yul\":5086:5089   */\n      dup4\n        /* \"#utility.yul\":5080:5103   */\n      mcopy\n        /* \"#utility.yul\":5137:5138   */\n      0x00\n        /* \"#utility.yul\":5128:5134   */\n      dup4\n        /* \"#utility.yul\":5123:5126   */\n      dup4\n        /* \"#utility.yul\":5119:5135   */\n      add\n        /* \"#utility.yul\":5112:5139   */\n      mstore\n        /* \"#utility.yul\":5007:5146   */\n      pop\n      pop\n      pop\n      jump\t// out\n        /* \"#utility.yul\":5152:5254   */\n    tag_343:\n        /* \"#utility.yul\":5193:5199   */\n      0x00\n        /* \"#utility.yul\":5244:5246   */\n      0x1f\n        /* \"#utility.yul\":5240:5247   */\n      not\n        /* \"#utility.yul\":5235:5237   */\n      0x1f\n        /* \"#utility.yul\":5228:5233   */\n      dup4\n        /* \"#utility.yul\":5224:5238   */\n      add\n        /* \"#utility.yul\":5220:5248   */\n      and\n        /* \"#utility.yul\":5210:5248   */\n      swap1\n      pop\n        /* \"#utility.yul\":5152:5254   */\n      swap2\n      swap1\n      pop\n      jump\t// out\n        /* \"#utility.yul\":5260:5637   */\n    tag_344:\n        /* \"#utility.yul\":5348:5351   */\n      0x00\n        /* \"#utility.yul\":5376:5415   */\n      tag_479\n        /* \"#utility.yul\":5409:5414   */\n      dup3\n        /* \"#utility.yul\":5376:5415   */\n      tag_340\n      jump\t// in\n    tag_479:\n        /* \"#utility.yul\":5431:5502   */\n      tag_480\n        /* \"#utility.yul\":5495:5501   */\n      dup2\n        /* \"#utility.yul\":5490:5493   */\n      dup6\n        /* \"#utility.yul\":5431:5502   */\n      tag_341\n      jump\t// in\n    tag_480:\n        /* \"#utility.yul\":5424:5502   */\n      swap4\n      pop\n        /* \"#utility.yul\":5511:5576   */\n      tag_481\n        /* \"#utility.yul\":5569:5575   */\n      dup2\n        /* \"#utility.yul\":5564:5567   */\n      dup6\n        /* \"#utility.yul\":5557:5561   */\n      0x20\n        /* \"#utility.yul\":5550:5555   */\n      dup7\n        /* \"#utility.yul\":5546:5562   */\n      add\n        /* \"#utility.yul\":5511:5576   */\n      tag_342\n      jump\t// in\n    tag_481:\n        /* \"#utility.yul\":5601:5630   */\n      tag_482\n        /* \"#utility.yul\":5623:5629   */\n      dup2\n        /* \"#utility.yul\":5601:5630   */\n      tag_343\n      jump\t// in\n    tag_482:\n        /* \"#utility.yul\":5596:5599   */\n      dup5\n        /* \"#utility.yul\":5592:5631   */\n      add\n        /* \"#utility.yul\":5585:5631   */\n      swap2\n      pop\n        /* \"#utility.yul\":5352:5637   */\n      pop\n        /* \"#utility.yul\":5260:5637   */\n      swap3\n      swap2\n      pop\n      pop\n      jump\t// out\n        /* \"#utility.yul\":5643:5956   */\n    tag_45:\n        /* \"#utility.yul\":5756:5760   */\n      0x00\n        /* \"#utility.yul\":5794:5796   */\n      0x20\n        /* \"#utility.yul\":5783:5792   */\n      dup3\n        /* \"#utility.yul\":5779:5797   */\n      add\n        /* \"#utility.yul\":5771:5797   */\n      swap1\n      pop\n        /* \"#utility.yul\":5843:5852   */\n      dup2\n        /* \"#utility.yul\":5837:5841   */\n      dup2\n        /* \"#utility.yul\":5833:5853   */\n      sub\n        /* \"#utility.yul\":5829:5830   */\n      0x00\n        /* \"#utility.yul\":5818:5827   */\n      dup4\n        /* \"#utility.yul\":5814:5831   */\n      add\n        /* \"#utility.yul\":5807:5854   */\n      mstore\n        /* \"#utility.yul\":5871:5949   */\n      tag_484\n        /* \"#utility.yul\":5944:5948   */\n      dup2\n        /* \"#utility.yul\":5935:5941   */\n      dup5\n        /* \"#utility.yul\":5871:5949   */\n      tag_344\n      jump\t// in\n    tag_484:\n        /* \"#utility.yul\":5863:5949   */\n      swap1\n      pop\n        /* \"#utility.yul\":5643:5956   */\n      swap3\n      swap2\n      pop\n      pop\n      jump\t// out\n        /* \"#utility.yul\":5962:6052   */\n    tag_345:\n        /* \"#utility.yul\":5996:6003   */\n      0x00\n        /* \"#utility.yul\":6039:6044   */\n      dup2\n        /* \"#utility.yul\":6032:6045   */\n      iszero\n        /* \"#utility.yul\":6025:6046   */\n      iszero\n        /* \"#utility.yul\":6014:6046   */\n      swap1\n      pop\n        /* \"#utility.yul\":5962:6052   */\n      swap2\n      swap1\n      pop\n      jump\t// out\n        /* \"#utility.yul\":6058:6167   */\n    tag_346:\n        /* \"#utility.yul\":6139:6160   */\n      tag_487\n        /* \"#utility.yul\":6154:6159   */\n      dup2\n        /* \"#utility.yul\":6139:6160   */\n      tag_345\n      jump\t// in\n    tag_487:\n        /* \"#utility.yul\":6134:6137   */\n      dup3\n        /* \"#utility.yul\":6127:6161   */\n      mstore\n        /* \"#utility.yul\":6058:6167   */\n      pop\n      pop\n      jump\t// out\n        /* \"#utility.yul\":6173:6383   */\n    tag_49:\n        /* \"#utility.yul\":6260:6264   */\n      0x00\n        /* \"#utility.yul\":6298:6300   */\n      0x20\n        /* \"#utility.yul\":6287:6296   */\n      dup3\n        /* \"#utility.yul\":6283:6301   */\n      add\n        /* \"#utility.yul\":6275:6301   */\n      swap1\n      pop\n        /* \"#utility.yul\":6311:6376   */\n      tag_489\n        /* \"#utility.yul\":6373:6374   */\n      0x00\n        /* \"#utility.yul\":6362:6371   */\n      dup4\n        /* \"#utility.yul\":6358:6375   */\n      add\n        /* \"#utility.yul\":6349:6355   */\n      dup5\n        /* \"#utility.yul\":6311:6376   */\n      tag_346\n      jump\t// in\n    tag_489:\n        /* \"#utility.yul\":6173:6383   */\n      swap3\n      swap2\n      pop\n      pop\n      jump\t// out\n        /* \"#utility.yul\":6389:7750   */\n    tag_64:\n        /* \"#utility.yul\":6509:6515   */\n      0x00\n        /* \"#utility.yul\":6517:6523   */\n      0x00\n        /* \"#utility.yul\":6525:6531   */\n      0x00\n        /* \"#utility.yul\":6533:6539   */\n      0x00\n        /* \"#utility.yul\":6541:6547   */\n      0x00\n        /* \"#utility.yul\":6549:6555   */\n      0x00\n        /* \"#utility.yul\":6557:6563   */\n      0x00\n        /* \"#utility.yul\":6606:6609   */\n      0x80\n        /* \"#utility.yul\":6594:6603   */\n      dup9\n        /* \"#utility.yul\":6585:6592   */\n      dup11\n        /* \"#utility.yul\":6581:6604   */\n      sub\n        /* \"#utility.yul\":6577:6610   */\n      slt\n        /* \"#utility.yul\":6574:6694   */\n      iszero\n      tag_491\n      jumpi\n        /* \"#utility.yul\":6613:6692   */\n      tag_492\n      tag_324\n      jump\t// in\n    tag_492:\n        /* \"#utility.yul\":6574:6694   */\n    tag_491:\n        /* \"#utility.yul\":6761:6762   */\n      0x00\n        /* \"#utility.yul\":6750:6759   */\n      dup9\n        /* \"#utility.yul\":6746:6763   */\n      add\n        /* \"#utility.yul\":6733:6764   */\n      calldataload\n        /* \"#utility.yul\":6791:6809   */\n      0xffffffffffffffff\n        /* \"#utility.yul\":6783:6789   */\n      dup2\n        /* \"#utility.yul\":6780:6810   */\n      gt\n        /* \"#utility.yul\":6777:6894   */\n      iszero\n      tag_493\n      jumpi\n        /* \"#utility.yul\":6813:6892   */\n      tag_494\n      tag_325\n      jump\t// in\n    tag_494:\n        /* \"#utility.yul\":6777:6894   */\n    tag_493:\n        /* \"#utility.yul\":6926:6991   */\n      tag_495\n        /* \"#utility.yul\":6983:6990   */\n      dup11\n        /* \"#utility.yul\":6974:6980   */\n      dup3\n        /* \"#utility.yul\":6963:6972   */\n      dup12\n        /* \"#utility.yul\":6959:6981   */\n      add\n        /* \"#utility.yul\":6926:6991   */\n      tag_336\n      jump\t// in\n    tag_495:\n        /* \"#utility.yul\":6908:6991   */\n      swap8\n      pop\n      swap8\n      pop\n        /* \"#utility.yul\":6704:7001   */\n      pop\n        /* \"#utility.yul\":7040:7042   */\n      0x20\n        /* \"#utility.yul\":7066:7117   */\n      tag_496\n        /* \"#utility.yul\":7109:7116   */\n      dup11\n        /* \"#utility.yul\":7100:7106   */\n      dup3\n        /* \"#utility.yul\":7089:7098   */\n      dup12\n        /* \"#utility.yul\":7085:7107   */\n      add\n        /* \"#utility.yul\":7066:7117   */\n      tag_339\n      jump\t// in\n    tag_496:\n        /* \"#utility.yul\":7056:7117   */\n      swap6\n      pop\n        /* \"#utility.yul\":7011:7127   */\n      pop\n        /* \"#utility.yul\":7194:7196   */\n      0x40\n        /* \"#utility.yul\":7183:7192   */\n      dup9\n        /* \"#utility.yul\":7179:7197   */\n      add\n        /* \"#utility.yul\":7166:7198   */\n      calldataload\n        /* \"#utility.yul\":7225:7243   */\n      0xffffffffffffffff\n        /* \"#utility.yul\":7217:7223   */\n      dup2\n        /* \"#utility.yul\":7214:7244   */\n      gt\n        /* \"#utility.yul\":7211:7328   */\n      iszero\n      tag_497\n      jumpi\n        /* \"#utility.yul\":7247:7326   */\n      tag_498\n      tag_325\n      jump\t// in\n    tag_498:\n        /* \"#utility.yul\":7211:7328   */\n    tag_497:\n        /* \"#utility.yul\":7360:7425   */\n      tag_499\n        /* \"#utility.yul\":7417:7424   */\n      dup11\n        /* \"#utility.yul\":7408:7414   */\n      dup3\n        /* \"#utility.yul\":7397:7406   */\n      dup12\n        /* \"#utility.yul\":7393:7415   */\n      add\n        /* \"#utility.yul\":7360:7425   */\n      tag_336\n      jump\t// in\n    tag_499:\n        /* \"#utility.yul\":7342:7425   */\n      swap5\n      pop\n      swap5\n      pop\n        /* \"#utility.yul\":7137:7435   */\n      pop\n        /* \"#utility.yul\":7502:7504   */\n      0x60\n        /* \"#utility.yul\":7491:7500   */\n      dup9\n        /* \"#utility.yul\":7487:7505   */\n      add\n        /* \"#utility.yul\":7474:7506   */\n      calldataload\n        /* \"#utility.yul\":7533:7551   */\n      0xffffffffffffffff\n        /* \"#utility.yul\":7525:7531   */\n      dup2\n        /* \"#utility.yul\":7522:7552   */\n      gt\n        /* \"#utility.yul\":7519:7636   */\n      iszero\n      tag_500\n      jumpi\n        /* \"#utility.yul\":7555:7634   */\n      tag_501\n      tag_325\n      jump\t// in\n    tag_501:\n        /* \"#utility.yul\":7519:7636   */\n    tag_500:\n        /* \"#utility.yul\":7668:7733   */\n      tag_502\n        /* \"#utility.yul\":7725:7732   */\n      dup11\n        /* \"#utility.yul\":7716:7722   */\n      dup3\n        /* \"#utility.yul\":7705:7714   */\n      dup12\n        /* \"#utility.yul\":7701:7723   */\n      add\n        /* \"#utility.yul\":7668:7733   */\n      tag_336\n      jump\t// in\n    tag_502:\n        /* \"#utility.yul\":7650:7733   */\n      swap3\n      pop\n      swap3\n      pop\n        /* \"#utility.yul\":7445:7743   */\n      pop\n        /* \"#utility.yul\":6389:7750   */\n      swap3\n      swap6\n      swap9\n      swap2\n      swap5\n      swap8\n      pop\n      swap3\n      swap6\n      pop\n      jump\t// out\n        /* \"#utility.yul\":7756:8230   */\n    tag_76:\n        /* \"#utility.yul\":7824:7830   */\n      0x00\n        /* \"#utility.yul\":7832:7838   */\n      0x00\n        /* \"#utility.yul\":7881:7883   */\n      0x40\n        /* \"#utility.yul\":7869:7878   */\n      dup4\n        /* \"#utility.yul\":7860:7867   */\n      dup6\n        /* \"#utility.yul\":7856:7879   */\n      sub\n        /* \"#utility.yul\":7852:7884   */\n      slt\n        /* \"#utility.yul\":7849:7968   */\n      iszero\n      tag_504\n      jumpi\n        /* \"#utility.yul\":7887:7966   */\n      tag_505\n      tag_324\n      jump\t// in\n    tag_505:\n        /* \"#utility.yul\":7849:7968   */\n    tag_504:\n        /* \"#utility.yul\":8007:8008   */\n      0x00\n        /* \"#utility.yul\":8032:8085   */\n      tag_506\n        /* \"#utility.yul\":8077:8084   */\n      dup6\n        /* \"#utility.yul\":8068:8074   */\n      dup3\n        /* \"#utility.yul\":8057:8066   */\n      dup7\n        /* \"#utility.yul\":8053:8075   */\n      add\n        /* \"#utility.yul\":8032:8085   */\n      tag_328\n      jump\t// in\n    tag_506:\n        /* \"#utility.yul\":8022:8085   */\n      swap3\n      pop\n        /* \"#utility.yul\":7978:8095   */\n      pop\n        /* \"#utility.yul\":8134:8136   */\n      0x20\n        /* \"#utility.yul\":8160:8213   */\n      tag_507\n        /* \"#utility.yul\":8205:8212   */\n      dup6\n        /* \"#utility.yul\":8196:8202   */\n      dup3\n        /* \"#utility.yul\":8185:8194   */\n      dup7\n        /* \"#utility.yul\":8181:8203   */\n      add\n        /* \"#utility.yul\":8160:8213   */\n      tag_328\n      jump\t// in\n    tag_507:\n        /* \"#utility.yul\":8150:8213   */\n      swap2\n      pop\n        /* \"#utility.yul\":8105:8223   */\n      pop\n        /* \"#utility.yul\":7756:8230   */\n      swap3\n      pop\n      swap3\n      swap1\n      pop\n      jump\t// out\n        /* \"#utility.yul\":8236:8348   */\n    tag_347:\n        /* \"#utility.yul\":8319:8341   */\n      tag_509\n        /* \"#utility.yul\":8335:8340   */\n      dup2\n        /* \"#utility.yul\":8319:8341   */\n      tag_337\n      jump\t// in\n    tag_509:\n        /* \"#utility.yul\":8314:8317   */\n      dup3\n        /* \"#utility.yul\":8307:8342   */\n      mstore\n        /* \"#utility.yul\":8236:8348   */\n      pop\n      pop\n      jump\t// out\n        /* \"#utility.yul\":8354:9168   */\n    tag_85:\n        /* \"#utility.yul\":8583:8587   */\n      0x00\n        /* \"#utility.yul\":8621:8624   */\n      0xa0\n        /* \"#utility.yul\":8610:8619   */\n      dup3\n        /* \"#utility.yul\":8606:8625   */\n      add\n        /* \"#utility.yul\":8598:8625   */\n      swap1\n      pop\n        /* \"#utility.yul\":8671:8680   */\n      dup2\n        /* \"#utility.yul\":8665:8669   */\n      dup2\n        /* \"#utility.yul\":8661:8681   */\n      sub\n        /* \"#utility.yul\":8657:8658   */\n      0x00\n        /* \"#utility.yul\":8646:8655   */\n      dup4\n        /* \"#utility.yul\":8642:8659   */\n      add\n        /* \"#utility.yul\":8635:8682   */\n      mstore\n        /* \"#utility.yul\":8699:8777   */\n      tag_511\n        /* \"#utility.yul\":8772:8776   */\n      dup2\n        /* \"#utility.yul\":8763:8769   */\n      dup9\n        /* \"#utility.yul\":8699:8777   */\n      tag_344\n      jump\t// in\n    tag_511:\n        /* \"#utility.yul\":8691:8777   */\n      swap1\n      pop\n        /* \"#utility.yul\":8787:8855   */\n      tag_512\n        /* \"#utility.yul\":8851:8853   */\n      0x20\n        /* \"#utility.yul\":8840:8849   */\n      dup4\n        /* \"#utility.yul\":8836:8854   */\n      add\n        /* \"#utility.yul\":8827:8833   */\n      dup8\n        /* \"#utility.yul\":8787:8855   */\n      tag_347\n      jump\t// in\n    tag_512:\n        /* \"#utility.yul\":8902:8911   */\n      dup2\n        /* \"#utility.yul\":8896:8900   */\n      dup2\n        /* \"#utility.yul\":8892:8912   */\n      sub\n        /* \"#utility.yul\":8887:8889   */\n      0x40\n        /* \"#utility.yul\":8876:8885   */\n      dup4\n        /* \"#utility.yul\":8872:8890   */\n      add\n        /* \"#utility.yul\":8865:8913   */\n      mstore\n        /* \"#utility.yul\":8930:9008   */\n      tag_513\n        /* \"#utility.yul\":9003:9007   */\n      dup2\n        /* \"#utility.yul\":8994:9000   */\n      dup7\n        /* \"#utility.yul\":8930:9008   */\n      tag_344\n      jump\t// in\n    tag_513:\n        /* \"#utility.yul\":8922:9008   */\n      swap1\n      pop\n        /* \"#utility.yul\":9018:9084   */\n      tag_514\n        /* \"#utility.yul\":9080:9082   */\n      0x60\n        /* \"#utility.yul\":9069:9078   */\n      dup4\n        /* \"#utility.yul\":9065:9083   */\n      add\n        /* \"#utility.yul\":9056:9062   */\n      dup6\n        /* \"#utility.yul\":9018:9084   */\n      tag_346\n      jump\t// in\n    tag_514:\n        /* \"#utility.yul\":9094:9161   */\n      tag_515\n        /* \"#utility.yul\":9156:9159   */\n      0x80\n        /* \"#utility.yul\":9145:9154   */\n      dup4\n        /* \"#utility.yul\":9141:9160   */\n      add\n        /* \"#utility.yul\":9132:9138   */\n      dup5\n        /* \"#utility.yul\":9094:9161   */\n      tag_346\n      jump\t// in\n    tag_515:\n        /* \"#utility.yul\":8354:9168   */\n      swap7\n      swap6\n      pop\n      pop\n      pop\n      pop\n      pop\n      pop\n      jump\t// out\n        /* \"#utility.yul\":9174:9992   */\n    tag_90:\n        /* \"#utility.yul\":9407:9411   */\n      0x00\n        /* \"#utility.yul\":9445:9448   */\n      0x80\n        /* \"#utility.yul\":9434:9443   */\n      dup3\n        /* \"#utility.yul\":9430:9449   */\n      add\n        /* \"#utility.yul\":9422:9449   */\n      swap1\n      pop\n        /* \"#utility.yul\":9495:9504   */\n      dup2\n        /* \"#utility.yul\":9489:9493   */\n      dup2\n        /* \"#utility.yul\":9485:9505   */\n      sub\n        /* \"#utility.yul\":9481:9482   */\n      0x00\n        /* \"#utility.yul\":9470:9479   */\n      dup4\n        /* \"#utility.yul\":9466:9483   */\n      add\n        /* \"#utility.yul\":9459:9506   */\n      mstore\n        /* \"#utility.yul\":9523:9601   */\n      tag_517\n        /* \"#utility.yul\":9596:9600   */\n      dup2\n        /* \"#utility.yul\":9587:9593   */\n      dup8\n        /* \"#utility.yul\":9523:9601   */\n      tag_344\n      jump\t// in\n    tag_517:\n        /* \"#utility.yul\":9515:9601   */\n      swap1\n      pop\n        /* \"#utility.yul\":9611:9679   */\n      tag_518\n        /* \"#utility.yul\":9675:9677   */\n      0x20\n        /* \"#utility.yul\":9664:9673   */\n      dup4\n        /* \"#utility.yul\":9660:9678   */\n      add\n        /* \"#utility.yul\":9651:9657   */\n      dup7\n        /* \"#utility.yul\":9611:9679   */\n      tag_347\n      jump\t// in\n    tag_518:\n        /* \"#utility.yul\":9726:9735   */\n      dup2\n        /* \"#utility.yul\":9720:9724   */\n      dup2\n        /* \"#utility.yul\":9716:9736   */\n      sub\n        /* \"#utility.yul\":9711:9713   */\n      0x40\n        /* \"#utility.yul\":9700:9709   */\n      dup4\n        /* \"#utility.yul\":9696:9714   */\n      add\n        /* \"#utility.yul\":9689:9737   */\n      mstore\n        /* \"#utility.yul\":9754:9832   */\n      tag_519\n        /* \"#utility.yul\":9827:9831   */\n      dup2\n        /* \"#utility.yul\":9818:9824   */\n      dup6\n        /* \"#utility.yul\":9754:9832   */\n      tag_344\n      jump\t// in\n    tag_519:\n        /* \"#utility.yul\":9746:9832   */\n      swap1\n      pop\n        /* \"#utility.yul\":9879:9888   */\n      dup2\n        /* \"#utility.yul\":9873:9877   */\n      dup2\n        /* \"#utility.yul\":9869:9889   */\n      sub\n        /* \"#utility.yul\":9864:9866   */\n      0x60\n        /* \"#utility.yul\":9853:9862   */\n      dup4\n        /* \"#utility.yul\":9849:9867   */\n      add\n        /* \"#utility.yul\":9842:9890   */\n      mstore\n        /* \"#utility.yul\":9907:9985   */\n      tag_520\n        /* \"#utility.yul\":9980:9984   */\n      dup2\n        /* \"#utility.yul\":9971:9977   */\n      dup5\n        /* \"#utility.yul\":9907:9985   */\n      tag_344\n      jump\t// in\n    tag_520:\n        /* \"#utility.yul\":9899:9985   */\n      swap1\n      pop\n        /* \"#utility.yul\":9174:9992   */\n      swap6\n      swap5\n      pop\n      pop\n      pop\n      pop\n      pop\n      jump\t// out\n        /* \"#utility.yul\":9998:10178   */\n    tag_99:\n        /* \"#utility.yul\":10046:10123   */\n      0x4e487b7100000000000000000000000000000000000000000000000000000000\n        /* \"#utility.yul\":10043:10044   */\n      0x00\n        /* \"#utility.yul\":10036:10124   */\n      mstore\n        /* \"#utility.yul\":10143:10147   */\n      0x32\n        /* \"#utility.yul\":10140:10141   */\n      0x04\n        /* \"#utility.yul\":10133:10148   */\n      mstore\n        /* \"#utility.yul\":10167:10171   */\n      0x24\n        /* \"#utility.yul\":10164:10165   */\n      0x00\n        /* \"#utility.yul\":10157:10172   */\n      revert\n        /* \"#utility.yul\":10184:10353   */\n    tag_348:\n        /* \"#utility.yul\":10324:10345   */\n      0x596f75277265206e6f7420616e2061646d696e00000000000000000000000000\n        /* \"#utility.yul\":10320:10321   */\n      0x00\n        /* \"#utility.yul\":10312:10318   */\n      dup3\n        /* \"#utility.yul\":10308:10322   */\n      add\n        /* \"#utility.yul\":10301:10346   */\n      mstore\n        /* \"#utility.yul\":10184:10353   */\n      pop\n      jump\t// out\n        /* \"#utility.yul\":10359:10725   */\n    tag_349:\n        /* \"#utility.yul\":10501:10504   */\n      0x00\n        /* \"#utility.yul\":10522:10589   */\n      tag_524\n        /* \"#utility.yul\":10586:10588   */\n      0x13\n        /* \"#utility.yul\":10581:10584   */\n      dup4\n        /* \"#utility.yul\":10522:10589   */\n      tag_341\n      jump\t// in\n    tag_524:\n        /* \"#utility.yul\":10515:10589   */\n      swap2\n      pop\n        /* \"#utility.yul\":10598:10691   */\n      tag_525\n        /* \"#utility.yul\":10687:10690   */\n      dup3\n        /* \"#utility.yul\":10598:10691   */\n      tag_348\n      jump\t// in\n    tag_525:\n        /* \"#utility.yul\":10716:10718   */\n      0x20\n        /* \"#utility.yul\":10711:10714   */\n      dup3\n        /* \"#utility.yul\":10707:10719   */\n      add\n        /* \"#utility.yul\":10700:10719   */\n      swap1\n      pop\n        /* \"#utility.yul\":10359:10725   */\n      swap2\n      swap1\n      pop\n      jump\t// out\n        /* \"#utility.yul\":10731:11150   */\n    tag_104:\n        /* \"#utility.yul\":10897:10901   */\n      0x00\n        /* \"#utility.yul\":10935:10937   */\n      0x20\n        /* \"#utility.yul\":10924:10933   */\n      dup3\n        /* \"#utility.yul\":10920:10938   */\n      add\n        /* \"#utility.yul\":10912:10938   */\n      swap1\n      pop\n        /* \"#utility.yul\":10984:10993   */\n      dup2\n        /* \"#utility.yul\":10978:10982   */\n      dup2\n        /* \"#utility.yul\":10974:10994   */\n      sub\n        /* \"#utility.yul\":10970:10971   */\n      0x00\n        /* \"#utility.yul\":10959:10968   */\n      dup4\n        /* \"#utility.yul\":10955:10972   */\n      add\n        /* \"#utility.yul\":10948:10995   */\n      mstore\n        /* \"#utility.yul\":11012:11143   */\n      tag_527\n        /* \"#utility.yul\":11138:11142   */\n      dup2\n        /* \"#utility.yul\":11012:11143   */\n      tag_349\n      jump\t// in\n    tag_527:\n        /* \"#utility.yul\":11004:11143   */\n      swap1\n      pop\n        /* \"#utility.yul\":10731:11150   */\n      swap2\n      swap1\n      pop\n      jump\t// out\n        /* \"#utility.yul\":11156:11331   */\n    tag_350:\n        /* \"#utility.yul\":11296:11323   */\n      0x566f746572206d757374206265206174206c6561737420313800000000000000\n        /* \"#utility.yul\":11292:11293   */\n      0x00\n        /* \"#utility.yul\":11284:11290   */\n      dup3\n        /* \"#utility.yul\":11280:11294   */\n      add\n        /* \"#utility.yul\":11273:11324   */\n      mstore\n        /* \"#utility.yul\":11156:11331   */\n      pop\n      jump\t// out\n        /* \"#utility.yul\":11337:11703   */\n    tag_351:\n        /* \"#utility.yul\":11479:11482   */\n      0x00\n        /* \"#utility.yul\":11500:11567   */\n      tag_530\n        /* \"#utility.yul\":11564:11566   */\n      0x19\n        /* \"#utility.yul\":11559:11562   */\n      dup4\n        /* \"#utility.yul\":11500:11567   */\n      tag_341\n      jump\t// in\n    tag_530:\n        /* \"#utility.yul\":11493:11567   */\n      swap2\n      pop\n        /* \"#utility.yul\":11576:11669   */\n      tag_531\n        /* \"#utility.yul\":11665:11668   */\n      dup3\n        /* \"#utility.yul\":11576:11669   */\n      tag_350\n      jump\t// in\n    tag_531:\n        /* \"#utility.yul\":11694:11696   */\n      0x20\n        /* \"#utility.yul\":11689:11692   */\n      dup3\n        /* \"#utility.yul\":11685:11697   */\n      add\n        /* \"#utility.yul\":11678:11697   */\n      swap1\n      pop\n        /* \"#utility.yul\":11337:11703   */\n      swap2\n      swap1\n      pop\n      jump\t// out\n        /* \"#utility.yul\":11709:12128   */\n    tag_113:\n        /* \"#utility.yul\":11875:11879   */\n      0x00\n        /* \"#utility.yul\":11913:11915   */\n      0x20\n        /* \"#utility.yul\":11902:11911   */\n      dup3\n        /* \"#utility.yul\":11898:11916   */\n      add\n        /* \"#utility.yul\":11890:11916   */\n      swap1\n      pop\n        /* \"#utility.yul\":11962:11971   */\n      dup2\n        /* \"#utility.yul\":11956:11960   */\n      dup2\n        /* \"#utility.yul\":11952:11972   */\n      sub\n        /* \"#utility.yul\":11948:11949   */\n      0x00\n        /* \"#utility.yul\":11937:11946   */\n      dup4\n        /* \"#utility.yul\":11933:11950   */\n      add\n        /* \"#utility.yul\":11926:11973   */\n      mstore\n        /* \"#utility.yul\":11990:12121   */\n      tag_533\n        /* \"#utility.yul\":12116:12120   */\n      dup2\n        /* \"#utility.yul\":11990:12121   */\n      tag_351\n      jump\t// in\n    tag_533:\n        /* \"#utility.yul\":11982:12121   */\n      swap1\n      pop\n        /* \"#utility.yul\":11709:12128   */\n      swap2\n      swap1\n      pop\n      jump\t// out\n        /* \"#utility.yul\":12134:12314   */\n    tag_352:\n        /* \"#utility.yul\":12182:12259   */\n      0x4e487b7100000000000000000000000000000000000000000000000000000000\n        /* \"#utility.yul\":12179:12180   */\n      0x00\n        /* \"#utility.yul\":12172:12260   */\n      mstore\n        /* \"#utility.yul\":12279:12283   */\n      0x41\n        /* \"#utility.yul\":12276:12277   */\n      0x04\n        /* \"#utility.yul\":12269:12284   */\n      mstore\n        /* \"#utility.yul\":12303:12307   */\n      0x24\n        /* \"#utility.yul\":12300:12301   */\n      0x00\n        /* \"#utility.yul\":12293:12308   */\n      revert\n        /* \"#utility.yul\":12320:12500   */\n    tag_353:\n        /* \"#utility.yul\":12368:12445   */\n      0x4e487b7100000000000000000000000000000000000000000000000000000000\n        /* \"#utility.yul\":12365:12366   */\n      0x00\n        /* \"#utility.yul\":12358:12446   */\n      mstore\n        /* \"#utility.yul\":12465:12469   */\n      0x22\n        /* \"#utility.yul\":12462:12463   */\n      0x04\n        /* \"#utility.yul\":12455:12470   */\n      mstore\n        /* \"#utility.yul\":12489:12493   */\n      0x24\n        /* \"#utility.yul\":12486:12487   */\n      0x00\n        /* \"#utility.yul\":12479:12494   */\n      revert\n        /* \"#utility.yul\":12506:12826   */\n    tag_287:\n        /* \"#utility.yul\":12550:12556   */\n      0x00\n        /* \"#utility.yul\":12587:12588   */\n      0x02\n        /* \"#utility.yul\":12581:12585   */\n      dup3\n        /* \"#utility.yul\":12577:12589   */\n      div\n        /* \"#utility.yul\":12567:12589   */\n      swap1\n      pop\n        /* \"#utility.yul\":12634:12635   */\n      0x01\n        /* \"#utility.yul\":12628:12632   */\n      dup3\n        /* \"#utility.yul\":12624:12636   */\n      and\n        /* \"#utility.yul\":12655:12673   */\n      dup1\n        /* \"#utility.yul\":12645:12726   */\n      tag_537\n      jumpi\n        /* \"#utility.yul\":12711:12715   */\n      0x7f\n        /* \"#utility.yul\":12703:12709   */\n      dup3\n        /* \"#utility.yul\":12699:12716   */\n      and\n        /* \"#utility.yul\":12689:12716   */\n      swap2\n      pop\n        /* \"#utility.yul\":12645:12726   */\n    tag_537:\n        /* \"#utility.yul\":12773:12775   */\n      0x20\n        /* \"#utility.yul\":12765:12771   */\n      dup3\n        /* \"#utility.yul\":12762:12776   */\n      lt\n        /* \"#utility.yul\":12742:12760   */\n      dup2\n        /* \"#utility.yul\":12739:12777   */\n      sub\n        /* \"#utility.yul\":12736:12820   */\n      tag_538\n      jumpi\n        /* \"#utility.yul\":12792:12810   */\n      tag_539\n      tag_353\n      jump\t// in\n    tag_539:\n        /* \"#utility.yul\":12736:12820   */\n    tag_538:\n        /* \"#utility.yul\":12557:12826   */\n      pop\n        /* \"#utility.yul\":12506:12826   */\n      swap2\n      swap1\n      pop\n      jump\t// out\n        /* \"#utility.yul\":12832:12973   */\n    tag_354:\n        /* \"#utility.yul\":12881:12885   */\n      0x00\n        /* \"#utility.yul\":12904:12907   */\n      dup2\n        /* \"#utility.yul\":12896:12907   */\n      swap1\n      pop\n        /* \"#utility.yul\":12927:12930   */\n      dup2\n        /* \"#utility.yul\":12924:12925   */\n      0x00\n        /* \"#utility.yul\":12917:12931   */\n      mstore\n        /* \"#utility.yul\":12961:12965   */\n      0x20\n        /* \"#utility.yul\":12958:12959   */\n      0x00\n        /* \"#utility.yul\":12948:12966   */\n      keccak256\n        /* \"#utility.yul\":12940:12966   */\n      swap1\n      pop\n        /* \"#utility.yul\":12832:12973   */\n      swap2\n      swap1\n      pop\n      jump\t// out\n        /* \"#utility.yul\":12979:13072   */\n    tag_355:\n        /* \"#utility.yul\":13016:13022   */\n      0x00\n        /* \"#utility.yul\":13063:13065   */\n      0x20\n        /* \"#utility.yul\":13058:13060   */\n      0x1f\n        /* \"#utility.yul\":13051:13056   */\n      dup4\n        /* \"#utility.yul\":13047:13061   */\n      add\n        /* \"#utility.yul\":13043:13066   */\n      div\n        /* \"#utility.yul\":13033:13066   */\n      swap1\n      pop\n        /* \"#utility.yul\":12979:13072   */\n      swap2\n      swap1\n      pop\n      jump\t// out\n        /* \"#utility.yul\":13078:13185   */\n    tag_356:\n        /* \"#utility.yul\":13122:13130   */\n      0x00\n        /* \"#utility.yul\":13172:13177   */\n      dup3\n        /* \"#utility.yul\":13166:13170   */\n      dup3\n        /* \"#utility.yul\":13162:13178   */\n      shl\n        /* \"#utility.yul\":13141:13178   */\n      swap1\n      pop\n        /* \"#utility.yul\":13078:13185   */\n      swap3\n      swap2\n      pop\n      pop\n      jump\t// out\n        /* \"#utility.yul\":13191:13584   */\n    tag_357:\n        /* \"#utility.yul\":13260:13266   */\n      0x00\n        /* \"#utility.yul\":13310:13311   */\n      0x08\n        /* \"#utility.yul\":13298:13308   */\n      dup4\n        /* \"#utility.yul\":13294:13312   */\n      mul\n        /* \"#utility.yul\":13333:13430   */\n      tag_544\n        /* \"#utility.yul\":13363:13429   */\n      0xffffffffffffffffffffffffffffffffffffffffffffffffffffffffffffffff\n        /* \"#utility.yul\":13352:13361   */\n      dup3\n        /* \"#utility.yul\":13333:13430   */\n      tag_356\n      jump\t// in\n    tag_544:\n        /* \"#utility.yul\":13451:13490   */\n      tag_545\n        /* \"#utility.yul\":13481:13489   */\n      dup7\n        /* \"#utility.yul\":13470:13479   */\n      dup4\n        /* \"#utility.yul\":13451:13490   */\n      tag_356\n      jump\t// in\n    tag_545:\n        /* \"#utility.yul\":13439:13490   */\n      swap6\n      pop\n        /* \"#utility.yul\":13523:13527   */\n      dup1\n        /* \"#utility.yul\":13519:13528   */\n      not\n        /* \"#utility.yul\":13512:13517   */\n      dup5\n        /* \"#utility.yul\":13508:13529   */\n      and\n        /* \"#utility.yul\":13499:13529   */\n      swap4\n      pop\n        /* \"#utility.yul\":13572:13576   */\n      dup1\n        /* \"#utility.yul\":13562:13570   */\n      dup7\n        /* \"#utility.yul\":13558:13577   */\n      and\n        /* \"#utility.yul\":13551:13556   */\n      dup5\n        /* \"#utility.yul\":13548:13578   */\n      or\n        /* \"#utility.yul\":13538:13578   */\n      swap3\n      pop\n        /* \"#utility.yul\":13267:13584   */\n      pop\n      pop\n        /* \"#utility.yul\":13191:13584   */\n      swap4\n      swap3\n      pop\n      pop\n      pop\n      jump\t// out\n        /* \"#utility.yul\":13590:13650   */\n    tag_358:\n        /* \"#utility.yul\":13618:13621   */\n      0x00\n        /* \"#utility.yul\":13639:13644   */\n      dup2\n        /* \"#utility.yul\":13632:13644   */\n      swap1\n      pop\n        /* \"#utility.yul\":13590:13650   */\n      swap2\n      swap1\n      pop\n      jump\t// out\n        /* \"#utility.yul\":13656:13798   */\n    tag_359:\n        /* \"#utility.yul\":13706:13715   */\n      0x00\n        /* \"#utility.yul\":13739:13792   */\n      tag_548\n        /* \"#utility.yul\":13757:13791   */\n      tag_549\n        /* \"#utility.yul\":13766:13790   */\n      tag_550\n        /* \"#utility.yul\":13784:13789   */\n      dup5\n        /* \"#utility.yul\":13766:13790   */\n      tag_326\n      jump\t// in\n    tag_550:\n        /* \"#utility.yul\":13757:13791   */\n      tag_358\n      jump\t// in\n    tag_549:\n        /* \"#utility.yul\":13739:13792   */\n      tag_326\n      jump\t// in\n    tag_548:\n        /* \"#utility.yul\":13726:13792   */\n      swap1\n      pop\n        /* \"#utility.yul\":13656:13798   */\n      swap2\n      swap1\n      pop\n      jump\t// out\n        /* \"#utility.yul\":13804:13879   */\n    tag_360:\n        /* \"#utility.yul\":13847:13850   */\n      0x00\n        /* \"#utility.yul\":13868:13873   */\n      dup2\n        /* \"#utility.yul\":13861:13873   */\n      swap1\n      pop\n        /* \"#utility.yul\":13804:13879   */\n      swap2\n      swap1\n      pop\n      jump\t// out\n        /* \"#utility.yul\":13885:14154   */\n    tag_361:\n        /* \"#utility.yul\":13995:14034   */\n      tag_553\n        /* \"#utility.yul\":14026:14033   */\n      dup4\n        /* \"#utility.yul\":13995:14034   */\n      tag_359\n      jump\t// in\n    tag_553:\n        /* \"#utility.yul\":14056:14147   */\n      tag_554\n        /* \"#utility.yul\":14105:14146   */\n      tag_555\n        /* \"#utility.yul\":14129:14145   */\n      dup3\n        /* \"#utility.yul\":14105:14146   */\n      tag_360\n      jump\t// in\n    tag_555:\n        /* \"#utility.yul\":14097:14103   */\n      dup5\n        /* \"#utility.yul\":14090:14094   */\n      dup5\n        /* \"#utility.yul\":14084:14095   */\n      sload\n        /* \"#utility.yul\":14056:14147   */\n      tag_357\n      jump\t// in\n    tag_554:\n        /* \"#utility.yul\":14050:14054   */\n      dup3\n        /* \"#utility.yul\":14043:14148   */\n      sstore\n        /* \"#utility.yul\":13961:14154   */\n      pop\n        /* \"#utility.yul\":13885:14154   */\n      pop\n      pop\n      pop\n      jump\t// out\n        /* \"#utility.yul\":14160:14233   */\n    tag_362:\n        /* \"#utility.yul\":14205:14208   */\n      0x00\n        /* \"#utility.yul\":14226:14227   */\n      0x00\n        /* \"#utility.yul\":14219:14227   */\n      swap1\n      pop\n        /* \"#utility.yul\":14160:14233   */\n      swap1\n      jump\t// out\n        /* \"#utility.yul\":14239:14428   */\n    tag_363:\n        /* \"#utility.yul\":14316:14348   */\n      tag_558\n      tag_362\n      jump\t// in\n    tag_558:\n        /* \"#utility.yul\":14357:14422   */\n      tag_559\n        /* \"#utility.yul\":14415:14421   */\n      dup2\n        /* \"#utility.yul\":14407:14413   */\n      dup5\n        /* \"#utility.yul\":14401:14405   */\n      dup5\n        /* \"#utility.yul\":14357:14422   */\n      tag_361\n      jump\t// in\n    tag_559:\n        /* \"#utility.yul\":14292:14428   */\n      pop\n        /* \"#utility.yul\":14239:14428   */\n      pop\n      pop\n      jump\t// out\n        /* \"#utility.yul\":14434:14620   */\n    tag_364:\n        /* \"#utility.yul\":14494:14614   */\n    tag_561:\n        /* \"#utility.yul\":14511:14514   */\n      dup2\n        /* \"#utility.yul\":14504:14509   */\n      dup2\n        /* \"#utility.yul\":14501:14515   */\n      lt\n        /* \"#utility.yul\":14494:14614   */\n      iszero\n      tag_563\n      jumpi\n        /* \"#utility.yul\":14565:14604   */\n      tag_564\n        /* \"#utility.yul\":14602:14603   */\n      0x00\n        /* \"#utility.yul\":14595:14600   */\n      dup3\n        /* \"#utility.yul\":14565:14604   */\n      tag_363\n      jump\t// in\n    tag_564:\n        /* \"#utility.yul\":14538:14539   */\n      0x01\n        /* \"#utility.yul\":14531:14536   */\n      dup2\n        /* \"#utility.yul\":14527:14540   */\n      add\n        /* \"#utility.yul\":14518:14540   */\n      swap1\n      pop\n        /* \"#utility.yul\":14494:14614   */\n      jump(tag_561)\n    tag_563:\n        /* \"#utility.yul\":14434:14620   */\n      pop\n      pop\n      jump\t// out\n        /* \"#utility.yul\":14626:15169   */\n    tag_365:\n        /* \"#utility.yul\":14727:14729   */\n      0x1f\n        /* \"#utility.yul\":14722:14725   */\n      dup3\n        /* \"#utility.yul\":14719:14730   */\n      gt\n        /* \"#utility.yul\":14716:15162   */\n      iszero\n      tag_566\n      jumpi\n        /* \"#utility.yul\":14761:14799   */\n      tag_567\n        /* \"#utility.yul\":14793:14798   */\n      dup2\n        /* \"#utility.yul\":14761:14799   */\n      tag_354\n      jump\t// in\n    tag_567:\n        /* \"#utility.yul\":14845:14874   */\n      tag_568\n        /* \"#utility.yul\":14863:14873   */\n      dup5\n        /* \"#utility.yul\":14845:14874   */\n      tag_355\n      jump\t// in\n    tag_568:\n        /* \"#utility.yul\":14835:14843   */\n      dup2\n        /* \"#utility.yul\":14831:14875   */\n      add\n        /* \"#utility.yul\":15028:15030   */\n      0x20\n        /* \"#utility.yul\":15016:15026   */\n      dup6\n        /* \"#utility.yul\":15013:15031   */\n      lt\n        /* \"#utility.yul\":15010:15059   */\n      iszero\n      tag_569\n      jumpi\n        /* \"#utility.yul\":15049:15057   */\n      dup2\n        /* \"#utility.yul\":15034:15057   */\n      swap1\n      pop\n        /* \"#utility.yul\":15010:15059   */\n    tag_569:\n        /* \"#utility.yul\":15072:15152   */\n      tag_570\n        /* \"#utility.yul\":15128:15150   */\n      tag_571\n        /* \"#utility.yul\":15146:15149   */\n      dup6\n        /* \"#utility.yul\":15128:15150   */\n      tag_355\n      jump\t// in\n    tag_571:\n        /* \"#utility.yul\":15118:15126   */\n      dup4\n        /* \"#utility.yul\":15114:15151   */\n      add\n        /* \"#utility.yul\":15101:15112   */\n      dup3\n        /* \"#utility.yul\":15072:15152   */\n      tag_364\n      jump\t// in\n    tag_570:\n        /* \"#utility.yul\":14731:15162   */\n      pop\n      pop\n        /* \"#utility.yul\":14716:15162   */\n    tag_566:\n        /* \"#utility.yul\":14626:15169   */\n      pop\n      pop\n      pop\n      jump\t// out\n        /* \"#utility.yul\":15175:15292   */\n    tag_366:\n        /* \"#utility.yul\":15229:15237   */\n      0x00\n        /* \"#utility.yul\":15279:15284   */\n      dup3\n        /* \"#utility.yul\":15273:15277   */\n      dup3\n        /* \"#utility.yul\":15269:15285   */\n      shr\n        /* \"#utility.yul\":15248:15285   */\n      swap1\n      pop\n        /* \"#utility.yul\":15175:15292   */\n      swap3\n      swap2\n      pop\n      pop\n      jump\t// out\n        /* \"#utility.yul\":15298:15467   */\n    tag_367:\n        /* \"#utility.yul\":15342:15348   */\n      0x00\n        /* \"#utility.yul\":15375:15426   */\n      tag_574\n        /* \"#utility.yul\":15423:15424   */\n      0x00\n        /* \"#utility.yul\":15419:15425   */\n      not\n        /* \"#utility.yul\":15411:15416   */\n      dup5\n        /* \"#utility.yul\":15408:15409   */\n      0x08\n        /* \"#utility.yul\":15404:15417   */\n      mul\n        /* \"#utility.yul\":15375:15426   */\n      tag_366\n      jump\t// in\n    tag_574:\n        /* \"#utility.yul\":15371:15427   */\n      not\n        /* \"#utility.yul\":15456:15460   */\n      dup1\n        /* \"#utility.yul\":15450:15454   */\n      dup4\n        /* \"#utility.yul\":15446:15461   */\n      and\n        /* \"#utility.yul\":15436:15461   */\n      swap2\n      pop\n        /* \"#utility.yul\":15349:15467   */\n      pop\n        /* \"#utility.yul\":15298:15467   */\n      swap3\n      swap2\n      pop\n      pop\n      jump\t// out\n        /* \"#utility.yul\":15472:15767   */\n    tag_368:\n        /* \"#utility.yul\":15548:15552   */\n      0x00\n        /* \"#utility.yul\":15694:15723   */\n      tag_576\n        /* \"#utility.yul\":15719:15722   */\n      dup4\n        /* \"#utility.yul\":15713:15717   */\n      dup4\n        /* \"#utility.yul\":15694:15723   */\n      tag_367\n      jump\t// in\n    tag_576:\n        /* \"#utility.yul\":15686:15723   */\n      swap2\n      pop\n        /* \"#utility.yul\":15756:15759   */\n      dup3\n        /* \"#utility.yul\":15753:15754   */\n      0x02\n        /* \"#utility.yul\":15749:15760   */\n      mul\n        /* \"#utility.yul\":15743:15747   */\n      dup3\n        /* \"#utility.yul\":15740:15761   */\n      or\n        /* \"#utility.yul\":15732:15761   */\n      swap1\n      pop\n        /* \"#utility.yul\":15472:15767   */\n      swap3\n      swap2\n      pop\n      pop\n      jump\t// out\n        /* \"#utility.yul\":15772:17167   */\n    tag_116:\n        /* \"#utility.yul\":15889:15926   */\n      tag_578\n        /* \"#utility.yul\":15922:15925   */\n      dup3\n        /* \"#utility.yul\":15889:15926   */\n      tag_340\n      jump\t// in\n    tag_578:\n        /* \"#utility.yul\":15991:16009   */\n      0xffffffffffffffff\n        /* \"#utility.yul\":15983:15989   */\n      dup2\n        /* \"#utility.yul\":15980:16010   */\n      gt\n        /* \"#utility.yul\":15977:16033   */\n      iszero\n      tag_579\n      jumpi\n        /* \"#utility.yul\":16013:16031   */\n      tag_580\n      tag_352\n      jump\t// in\n    tag_580:\n        /* \"#utility.yul\":15977:16033   */\n    tag_579:\n        /* \"#utility.yul\":16057:16095   */\n      tag_581\n        /* \"#utility.yul\":16089:16093   */\n      dup3\n        /* \"#utility.yul\":16083:16094   */\n      sload\n        /* \"#utility.yul\":16057:16095   */\n      tag_287\n      jump\t// in\n    tag_581:\n        /* \"#utility.yul\":16142:16209   */\n      tag_582\n        /* \"#utility.yul\":16202:16208   */\n      dup3\n        /* \"#utility.yul\":16194:16200   */\n      dup3\n        /* \"#utility.yul\":16188:16192   */\n      dup6\n        /* \"#utility.yul\":16142:16209   */\n      tag_365\n      jump\t// in\n    tag_582:\n        /* \"#utility.yul\":16236:16237   */\n      0x00\n        /* \"#utility.yul\":16260:16264   */\n      0x20\n        /* \"#utility.yul\":16247:16264   */\n      swap1\n      pop\n        /* \"#utility.yul\":16292:16294   */\n      0x1f\n        /* \"#utility.yul\":16284:16290   */\n      dup4\n        /* \"#utility.yul\":16281:16295   */\n      gt\n        /* \"#utility.yul\":16309:16310   */\n      0x01\n        /* \"#utility.yul\":16304:16922   */\n      dup2\n      eq\n      tag_584\n      jumpi\n        /* \"#utility.yul\":16966:16967   */\n      0x00\n        /* \"#utility.yul\":16983:16989   */\n      dup5\n        /* \"#utility.yul\":16980:17057   */\n      iszero\n      tag_585\n      jumpi\n        /* \"#utility.yul\":17032:17041   */\n      dup3\n        /* \"#utility.yul\":17027:17030   */\n      dup8\n        /* \"#utility.yul\":17023:17042   */\n      add\n        /* \"#utility.yul\":17017:17043   */\n      mload\n        /* \"#utility.yul\":17008:17043   */\n      swap1\n      pop\n        /* \"#utility.yul\":16980:17057   */\n    tag_585:\n        /* \"#utility.yul\":17083:17150   */\n      tag_586\n        /* \"#utility.yul\":17143:17149   */\n      dup6\n        /* \"#utility.yul\":17136:17141   */\n      dup3\n        /* \"#utility.yul\":17083:17150   */\n      tag_368\n      jump\t// in\n    tag_586:\n        /* \"#utility.yul\":17077:17081   */\n      dup7\n        /* \"#utility.yul\":17070:17151   */\n      sstore\n        /* \"#utility.yul\":16939:17161   */\n      pop\n        /* \"#utility.yul\":16274:17161   */\n      jump(tag_583)\n        /* \"#utility.yul\":16304:16922   */\n    tag_584:\n        /* \"#utility.yul\":16356:16360   */\n      0x1f\n        /* \"#utility.yul\":16352:16361   */\n      not\n        /* \"#utility.yul\":16344:16350   */\n      dup5\n        /* \"#utility.yul\":16340:16362   */\n      and\n        /* \"#utility.yul\":16390:16427   */\n      tag_587\n        /* \"#utility.yul\":16422:16426   */\n      dup7\n        /* \"#utility.yul\":16390:16427   */\n      tag_354\n      jump\t// in\n    tag_587:\n        /* \"#utility.yul\":16449:16450   */\n      0x00\n        /* \"#utility.yul\":16463:16671   */\n    tag_588:\n        /* \"#utility.yul\":16477:16484   */\n      dup3\n        /* \"#utility.yul\":16474:16475   */\n      dup2\n        /* \"#utility.yul\":16471:16485   */\n      lt\n        /* \"#utility.yul\":16463:16671   */\n      iszero\n      tag_590\n      jumpi\n        /* \"#utility.yul\":16556:16565   */\n      dup5\n        /* \"#utility.yul\":16551:16554   */\n      dup10\n        /* \"#utility.yul\":16547:16566   */\n      add\n        /* \"#utility.yul\":16541:16567   */\n      mload\n        /* \"#utility.yul\":16533:16539   */\n      dup3\n        /* \"#utility.yul\":16526:16568   */\n      sstore\n        /* \"#utility.yul\":16607:16608   */\n      0x01\n        /* \"#utility.yul\":16599:16605   */\n      dup3\n        /* \"#utility.yul\":16595:16609   */\n      add\n        /* \"#utility.yul\":16585:16609   */\n      swap2\n      pop\n        /* \"#utility.yul\":16654:16656   */\n      0x20\n        /* \"#utility.yul\":16643:16652   */\n      dup6\n        /* \"#utility.yul\":16639:16657   */\n      add\n        /* \"#utility.yul\":16626:16657   */\n      swap5\n      pop\n        /* \"#utility.yul\":16500:16504   */\n      0x20\n        /* \"#utility.yul\":16497:16498   */\n      dup2\n        /* \"#utility.yul\":16493:16505   */\n      add\n        /* \"#utility.yul\":16488:16505   */\n      swap1\n      pop\n        /* \"#utility.yul\":16463:16671   */\n      jump(tag_588)\n    tag_590:\n        /* \"#utility.yul\":16699:16705   */\n      dup7\n        /* \"#utility.yul\":16690:16697   */\n      dup4\n        /* \"#utility.yul\":16687:16706   */\n      lt\n        /* \"#utility.yul\":16684:16863   */\n      iszero\n      tag_591\n      jumpi\n        /* \"#utility.yul\":16757:16766   */\n      dup5\n        /* \"#utility.yul\":16752:16755   */\n      dup10\n        /* \"#utility.yul\":16748:16767   */\n      add\n        /* \"#utility.yul\":16742:16768   */\n      mload\n        /* \"#utility.yul\":16800:16848   */\n      tag_592\n        /* \"#utility.yul\":16842:16846   */\n      0x1f\n        /* \"#utility.yul\":16834:16840   */\n      dup10\n        /* \"#utility.yul\":16830:16847   */\n      and\n        /* \"#utility.yul\":16819:16828   */\n      dup3\n        /* \"#utility.yul\":16800:16848   */\n      tag_367\n      jump\t// in\n    tag_592:\n        /* \"#utility.yul\":16792:16798   */\n      dup4\n        /* \"#utility.yul\":16785:16849   */\n      sstore\n        /* \"#utility.yul\":16707:16863   */\n      pop\n        /* \"#utility.yul\":16684:16863   */\n    tag_591:\n        /* \"#utility.yul\":16909:16910   */\n      0x01\n        /* \"#utility.yul\":16905:16906   */\n      0x02\n        /* \"#utility.yul\":16897:16903   */\n      dup9\n        /* \"#utility.yul\":16893:16907   */\n      mul\n        /* \"#utility.yul\":16889:16911   */\n      add\n        /* \"#utility.yul\":16883:16887   */\n      dup9\n        /* \"#utility.yul\":16876:16912   */\n      sstore\n        /* \"#utility.yul\":16311:16922   */\n      pop\n      pop\n      pop\n        /* \"#utility.yul\":16274:17161   */\n    tag_583:\n      pop\n        /* \"#utility.yul\":15864:17167   */\n      pop\n      pop\n      pop\n        /* \"#utility.yul\":15772:17167   */\n      pop\n      pop\n      jump\t// out\n        /* \"#utility.yul\":17173:17353   */\n    tag_369:\n        /* \"#utility.yul\":17221:17298   */\n      0x4e487b7100000000000000000000000000000000000000000000000000000000\n        /* \"#utility.yul\":17218:17219   */\n      0x00\n        /* \"#utility.yul\":17211:17299   */\n      mstore\n        /* \"#utility.yul\":17318:17322   */\n      0x11\n        /* \"#utility.yul\":17315:17316   */\n      0x04\n        /* \"#utility.yul\":17308:17323   */\n      mstore\n        /* \"#utility.yul\":17342:17346   */\n      0x24\n        /* \"#utility.yul\":17339:17340   */\n      0x00\n        /* \"#utility.yul\":17332:17347   */\n      revert\n        /* \"#utility.yul\":17359:17553   */\n    tag_119:\n        /* \"#utility.yul\":17399:17403   */\n      0x00\n        /* \"#utility.yul\":17419:17439   */\n      tag_595\n        /* \"#utility.yul\":17437:17438   */\n      dup3\n        /* \"#utility.yul\":17419:17439   */\n      tag_326\n      jump\t// in\n    tag_595:\n        /* \"#utility.yul\":17414:17439   */\n      swap2\n      pop\n        /* \"#utility.yul\":17453:17473   */\n      tag_596\n        /* \"#utility.yul\":17471:17472   */\n      dup4\n        /* \"#utility.yul\":17453:17473   */\n      tag_326\n      jump\t// in\n    tag_596:\n        /* \"#utility.yul\":17448:17473   */\n      swap3\n      pop\n        /* \"#utility.yul\":17497:17498   */\n      dup3\n        /* \"#utility.yul\":17494:17495   */\n      dup3\n        /* \"#utility.yul\":17490:17499   */\n      sub\n        /* \"#utility.yul\":17482:17499   */\n      swap1\n      pop\n        /* \"#utility.yul\":17521:17522   */\n      dup2\n        /* \"#utility.yul\":17515:17519   */\n      dup2\n        /* \"#utility.yul\":17512:17523   */\n      gt\n        /* \"#utility.yul\":17509:17546   */\n      iszero\n      tag_597\n      jumpi\n        /* \"#utility.yul\":17526:17544   */\n      tag_598\n      tag_369\n      jump\t// in\n    tag_598:\n        /* \"#utility.yul\":17509:17546   */\n    tag_597:\n        /* \"#utility.yul\":17359:17553   */\n      swap3\n      swap2\n      pop\n      pop\n      jump\t// out\n        /* \"#utility.yul\":17559:17707   */\n    tag_370:\n        /* \"#utility.yul\":17661:17672   */\n      0x00\n        /* \"#utility.yul\":17698:17701   */\n      dup2\n        /* \"#utility.yul\":17683:17701   */\n      swap1\n      pop\n        /* \"#utility.yul\":17559:17707   */\n      swap3\n      swap2\n      pop\n      pop\n      jump\t// out\n        /* \"#utility.yul\":17713:17883   */\n    tag_371:\n        /* \"#utility.yul\":17853:17875   */\n      0x537563636573732120596f757220494420697320000000000000000000000000\n        /* \"#utility.yul\":17849:17850   */\n      0x00\n        /* \"#utility.yul\":17841:17847   */\n      dup3\n        /* \"#utility.yul\":17837:17851   */\n      add\n        /* \"#utility.yul\":17830:17876   */\n      mstore\n        /* \"#utility.yul\":17713:17883   */\n      pop\n      jump\t// out\n        /* \"#utility.yul\":17889:18291   */\n    tag_372:\n        /* \"#utility.yul\":18049:18052   */\n      0x00\n        /* \"#utility.yul\":18070:18155   */\n      tag_602\n        /* \"#utility.yul\":18152:18154   */\n      0x14\n        /* \"#utility.yul\":18147:18150   */\n      dup4\n        /* \"#utility.yul\":18070:18155   */\n      tag_370\n      jump\t// in\n    tag_602:\n        /* \"#utility.yul\":18063:18155   */\n      swap2\n      pop\n        /* \"#utility.yul\":18164:18257   */\n      tag_603\n        /* \"#utility.yul\":18253:18256   */\n      dup3\n        /* \"#utility.yul\":18164:18257   */\n      tag_371\n      jump\t// in\n    tag_603:\n        /* \"#utility.yul\":18282:18284   */\n      0x14\n        /* \"#utility.yul\":18277:18280   */\n      dup3\n        /* \"#utility.yul\":18273:18285   */\n      add\n        /* \"#utility.yul\":18266:18285   */\n      swap1\n      pop\n        /* \"#utility.yul\":17889:18291   */\n      swap2\n      swap1\n      pop\n      jump\t// out\n        /* \"#utility.yul\":18297:18376   */\n    tag_373:\n        /* \"#utility.yul\":18336:18343   */\n      0x00\n        /* \"#utility.yul\":18365:18370   */\n      dup2\n        /* \"#utility.yul\":18354:18370   */\n      swap1\n      pop\n        /* \"#utility.yul\":18297:18376   */\n      swap2\n      swap1\n      pop\n      jump\t// out\n        /* \"#utility.yul\":18382:18539   */\n    tag_374:\n        /* \"#utility.yul\":18487:18532   */\n      tag_606\n        /* \"#utility.yul\":18507:18531   */\n      tag_607\n        /* \"#utility.yul\":18525:18530   */\n      dup3\n        /* \"#utility.yul\":18507:18531   */\n      tag_326\n      jump\t// in\n    tag_607:\n        /* \"#utility.yul\":18487:18532   */\n      tag_373\n      jump\t// in\n    tag_606:\n        /* \"#utility.yul\":18482:18485   */\n      dup3\n        /* \"#utility.yul\":18475:18533   */\n      mstore\n        /* \"#utility.yul\":18382:18539   */\n      pop\n      pop\n      jump\t// out\n        /* \"#utility.yul\":18545:19067   */\n    tag_121:\n        /* \"#utility.yul\":18758:18761   */\n      0x00\n        /* \"#utility.yul\":18780:18928   */\n      tag_609\n        /* \"#utility.yul\":18924:18927   */\n      dup3\n        /* \"#utility.yul\":18780:18928   */\n      tag_372\n      jump\t// in\n    tag_609:\n        /* \"#utility.yul\":18773:18928   */\n      swap2\n      pop\n        /* \"#utility.yul\":18938:19013   */\n      tag_610\n        /* \"#utility.yul\":19009:19012   */\n      dup3\n        /* \"#utility.yul\":19000:19006   */\n      dup5\n        /* \"#utility.yul\":18938:19013   */\n      tag_374\n      jump\t// in\n    tag_610:\n        /* \"#utility.yul\":19038:19040   */\n      0x20\n        /* \"#utility.yul\":19033:19036   */\n      dup3\n        /* \"#utility.yul\":19029:19041   */\n      add\n        /* \"#utility.yul\":19022:19041   */\n      swap2\n      pop\n        /* \"#utility.yul\":19058:19061   */\n      dup2\n        /* \"#utility.yul\":19051:19061   */\n      swap1\n      pop\n        /* \"#utility.yul\":18545:19067   */\n      swap3\n      swap2\n      pop\n      pop\n      jump\t// out\n        /* \"#utility.yul\":19073:19242   */\n    tag_375:\n        /* \"#utility.yul\":19213:19234   */\n      0x41646d696e206c696d6974207265616368656400000000000000000000000000\n        /* \"#utility.yul\":19209:19210   */\n      0x00\n        /* \"#utility.yul\":19201:19207   */\n      dup3\n        /* \"#utility.yul\":19197:19211   */\n      add\n        /* \"#utility.yul\":19190:19235   */\n      mstore\n        /* \"#utility.yul\":19073:19242   */\n      pop\n      jump\t// out\n        /* \"#utility.yul\":19248:19614   */\n    tag_376:\n        /* \"#utility.yul\":19390:19393   */\n      0x00\n        /* \"#utility.yul\":19411:19478   */\n      tag_613\n        /* \"#utility.yul\":19475:19477   */\n      0x13\n        /* \"#utility.yul\":19470:19473   */\n      dup4\n        /* \"#utility.yul\":19411:19478   */\n      tag_341\n      jump\t// in\n    tag_613:\n        /* \"#utility.yul\":19404:19478   */\n      swap2\n      pop\n        /* \"#utility.yul\":19487:19580   */\n      tag_614\n        /* \"#utility.yul\":19576:19579   */\n      dup3\n        /* \"#utility.yul\":19487:19580   */\n      tag_375\n      jump\t// in\n    tag_614:\n        /* \"#utility.yul\":19605:19607   */\n      0x20\n        /* \"#utility.yul\":19600:19603   */\n      dup3\n        /* \"#utility.yul\":19596:19608   */\n      add\n        /* \"#utility.yul\":19589:19608   */\n      swap1\n      pop\n        /* \"#utility.yul\":19248:19614   */\n      swap2\n      swap1\n      pop\n      jump\t// out\n        /* \"#utility.yul\":19620:20039   */\n    tag_125:\n        /* \"#utility.yul\":19786:19790   */\n      0x00\n        /* \"#utility.yul\":19824:19826   */\n      0x20\n        /* \"#utility.yul\":19813:19822   */\n      dup3\n        /* \"#utility.yul\":19809:19827   */\n      add\n        /* \"#utility.yul\":19801:19827   */\n      swap1\n      pop\n        /* \"#utility.yul\":19873:19882   */\n      dup2\n        /* \"#utility.yul\":19867:19871   */\n      dup2\n        /* \"#utility.yul\":19863:19883   */\n      sub\n        /* \"#utility.yul\":19859:19860   */\n      0x00\n        /* \"#utility.yul\":19848:19857   */\n      dup4\n        /* \"#utility.yul\":19844:19861   */\n      add\n        /* \"#utility.yul\":19837:19884   */\n      mstore\n        /* \"#utility.yul\":19901:20032   */\n      tag_616\n        /* \"#utility.yul\":20027:20031   */\n      dup2\n        /* \"#utility.yul\":19901:20032   */\n      tag_376\n      jump\t// in\n    tag_616:\n        /* \"#utility.yul\":19893:20032   */\n      swap1\n      pop\n        /* \"#utility.yul\":19620:20039   */\n      swap2\n      swap1\n      pop\n      jump\t// out\n        /* \"#utility.yul\":20045:20219   */\n    tag_377:\n        /* \"#utility.yul\":20185:20211   */\n      0x41646d696e20616c726561647920726567697374657265640000000000000000\n        /* \"#utility.yul\":20181:20182   */\n      0x00\n        /* \"#utility.yul\":20173:20179   */\n      dup3\n        /* \"#utility.yul\":20169:20183   */\n      add\n        /* \"#utility.yul\":20162:20212   */\n      mstore\n        /* \"#utility.yul\":20045:20219   */\n      pop\n      jump\t// out\n        /* \"#utility.yul\":20225:20591   */\n    tag_378:\n        /* \"#utility.yul\":20367:20370   */\n      0x00\n        /* \"#utility.yul\":20388:20455   */\n      tag_619\n        /* \"#utility.yul\":20452:20454   */\n      0x18\n        /* \"#utility.yul\":20447:20450   */\n      dup4\n        /* \"#utility.yul\":20388:20455   */\n      tag_341\n      jump\t// in\n    tag_619:\n        /* \"#utility.yul\":20381:20455   */\n      swap2\n      pop\n        /* \"#utility.yul\":20464:20557   */\n      tag_620\n        /* \"#utility.yul\":20553:20556   */\n      dup3\n        /* \"#utility.yul\":20464:20557   */\n      tag_377\n      jump\t// in\n    tag_620:\n        /* \"#utility.yul\":20582:20584   */\n      0x20\n        /* \"#utility.yul\":20577:20580   */\n      dup3\n        /* \"#utility.yul\":20573:20585   */\n      add\n        /* \"#utility.yul\":20566:20585   */\n      swap1\n      pop\n        /* \"#utility.yul\":20225:20591   */\n      swap2\n      swap1\n      pop\n      jump\t// out\n        /* \"#utility.yul\":20597:21016   */\n    tag_134:\n        /* \"#utility.yul\":20763:20767   */\n      0x00\n        /* \"#utility.yul\":20801:20803   */\n      0x20\n        /* \"#utility.yul\":20790:20799   */\n      dup3\n        /* \"#utility.yul\":20786:20804   */\n      add\n        /* \"#utility.yul\":20778:20804   */\n      swap1\n      pop\n        /* \"#utility.yul\":20850:20859   */\n      dup2\n        /* \"#utility.yul\":20844:20848   */\n      dup2\n        /* \"#utility.yul\":20840:20860   */\n      sub\n        /* \"#utility.yul\":20836:20837   */\n      0x00\n        /* \"#utility.yul\":20825:20834   */\n      dup4\n        /* \"#utility.yul\":20821:20838   */\n      add\n        /* \"#utility.yul\":20814:20861   */\n      mstore\n        /* \"#utility.yul\":20878:21009   */\n      tag_622\n        /* \"#utility.yul\":21004:21008   */\n      dup2\n        /* \"#utility.yul\":20878:21009   */\n      tag_378\n      jump\t// in\n    tag_622:\n        /* \"#utility.yul\":20870:21009   */\n      swap1\n      pop\n        /* \"#utility.yul\":20597:21016   */\n      swap2\n      swap1\n      pop\n      jump\t// out\n        /* \"#utility.yul\":21022:21248   */\n    tag_379:\n        /* \"#utility.yul\":21162:21196   */\n      0x43616e2774206368616e67652073746172742074696d6520647572696e672065\n        /* \"#utility.yul\":21158:21159   */\n      0x00\n        /* \"#utility.yul\":21150:21156   */\n      dup3\n        /* \"#utility.yul\":21146:21160   */\n      add\n        /* \"#utility.yul\":21139:21197   */\n      mstore\n        /* \"#utility.yul\":21231:21240   */\n      0x6c656374696f6e00000000000000000000000000000000000000000000000000\n        /* \"#utility.yul\":21226:21228   */\n      0x20\n        /* \"#utility.yul\":21218:21224   */\n      dup3\n        /* \"#utility.yul\":21214:21229   */\n      add\n        /* \"#utility.yul\":21207:21241   */\n      mstore\n        /* \"#utility.yul\":21022:21248   */\n      pop\n      jump\t// out\n        /* \"#utility.yul\":21254:21620   */\n    tag_380:\n        /* \"#utility.yul\":21396:21399   */\n      0x00\n        /* \"#utility.yul\":21417:21484   */\n      tag_625\n        /* \"#utility.yul\":21481:21483   */\n      0x27\n        /* \"#utility.yul\":21476:21479   */\n      dup4\n        /* \"#utility.yul\":21417:21484   */\n      tag_341\n      jump\t// in\n    tag_625:\n        /* \"#utility.yul\":21410:21484   */\n      swap2\n      pop\n        /* \"#utility.yul\":21493:21586   */\n      tag_626\n        /* \"#utility.yul\":21582:21585   */\n      dup3\n        /* \"#utility.yul\":21493:21586   */\n      tag_379\n      jump\t// in\n    tag_626:\n        /* \"#utility.yul\":21611:21613   */\n      0x40\n        /* \"#utility.yul\":21606:21609   */\n      dup3\n        /* \"#utility.yul\":21602:21614   */\n      add\n        /* \"#utility.yul\":21595:21614   */\n      swap1\n      pop\n        /* \"#utility.yul\":21254:21620   */\n      swap2\n      swap1\n      pop\n      jump\t// out\n        /* \"#utility.yul\":21626:22045   */\n    tag_144:\n        /* \"#utility.yul\":21792:21796   */\n      0x00\n        /* \"#utility.yul\":21830:21832   */\n      0x20\n        /* \"#utility.yul\":21819:21828   */\n      dup3\n        /* \"#utility.yul\":21815:21833   */\n      add\n        /* \"#utility.yul\":21807:21833   */\n      swap1\n      pop\n        /* \"#utility.yul\":21879:21888   */\n      dup2\n        /* \"#utility.yul\":21873:21877   */\n      dup2\n        /* \"#utility.yul\":21869:21889   */\n      sub\n        /* \"#utility.yul\":21865:21866   */\n      0x00\n        /* \"#utility.yul\":21854:21863   */\n      dup4\n        /* \"#utility.yul\":21850:21867   */\n      add\n        /* \"#utility.yul\":21843:21890   */\n      mstore\n        /* \"#utility.yul\":21907:22038   */\n      tag_628\n        /* \"#utility.yul\":22033:22037   */\n      dup2\n        /* \"#utility.yul\":21907:22038   */\n      tag_380\n      jump\t// in\n    tag_628:\n        /* \"#utility.yul\":21899:22038   */\n      swap1\n      pop\n        /* \"#utility.yul\":21626:22045   */\n      swap2\n      swap1\n      pop\n      jump\t// out\n        /* \"#utility.yul\":22051:22461   */\n    tag_146:\n        /* \"#utility.yul\":22091:22098   */\n      0x00\n        /* \"#utility.yul\":22114:22134   */\n      tag_630\n        /* \"#utility.yul\":22132:22133   */\n      dup3\n        /* \"#utility.yul\":22114:22134   */\n      tag_326\n      jump\t// in\n    tag_630:\n        /* \"#utility.yul\":22109:22134   */\n      swap2\n      pop\n        /* \"#utility.yul\":22148:22168   */\n      tag_631\n        /* \"#utility.yul\":22166:22167   */\n      dup4\n        /* \"#utility.yul\":22148:22168   */\n      tag_326\n      jump\t// in\n    tag_631:\n        /* \"#utility.yul\":22143:22168   */\n      swap3\n      pop\n        /* \"#utility.yul\":22203:22204   */\n      dup3\n        /* \"#utility.yul\":22200:22201   */\n      dup3\n        /* \"#utility.yul\":22196:22205   */\n      mul\n        /* \"#utility.yul\":22225:22255   */\n      tag_632\n        /* \"#utility.yul\":22243:22254   */\n      dup2\n        /* \"#utility.yul\":22225:22255   */\n      tag_326\n      jump\t// in\n    tag_632:\n        /* \"#utility.yul\":22214:22255   */\n      swap2\n      pop\n        /* \"#utility.yul\":22404:22405   */\n      dup3\n        /* \"#utility.yul\":22395:22402   */\n      dup3\n        /* \"#utility.yul\":22391:22406   */\n      div\n        /* \"#utility.yul\":22388:22389   */\n      dup5\n        /* \"#utility.yul\":22385:22407   */\n      eq\n        /* \"#utility.yul\":22365:22366   */\n      dup4\n        /* \"#utility.yul\":22358:22367   */\n      iszero\n        /* \"#utility.yul\":22338:22421   */\n      or\n        /* \"#utility.yul\":22315:22454   */\n      tag_633\n      jumpi\n        /* \"#utility.yul\":22434:22452   */\n      tag_634\n      tag_369\n      jump\t// in\n    tag_634:\n        /* \"#utility.yul\":22315:22454   */\n    tag_633:\n        /* \"#utility.yul\":22099:22461   */\n      pop\n        /* \"#utility.yul\":22051:22461   */\n      swap3\n      swap2\n      pop\n      pop\n      jump\t// out\n        /* \"#utility.yul\":22467:22658   */\n    tag_148:\n        /* \"#utility.yul\":22507:22510   */\n      0x00\n        /* \"#utility.yul\":22526:22546   */\n      tag_636\n        /* \"#utility.yul\":22544:22545   */\n      dup3\n        /* \"#utility.yul\":22526:22546   */\n      tag_326\n      jump\t// in\n    tag_636:\n        /* \"#utility.yul\":22521:22546   */\n      swap2\n      pop\n        /* \"#utility.yul\":22560:22580   */\n      tag_637\n        /* \"#utility.yul\":22578:22579   */\n      dup4\n        /* \"#utility.yul\":22560:22580   */\n      tag_326\n      jump\t// in\n    tag_637:\n        /* \"#utility.yul\":22555:22580   */\n      swap3\n      pop\n        /* \"#utility.yul\":22603:22604   */\n      dup3\n        /* \"#utility.yul\":22600:22601   */\n      dup3\n        /* \"#utility.yul\":22596:22605   */\n      add\n        /* \"#utility.yul\":22589:22605   */\n      swap1\n      pop\n        /* \"#utility.yul\":22624:22627   */\n      dup1\n        /* \"#utility.yul\":22621:22622   */\n      dup3\n        /* \"#utility.yul\":22618:22628   */\n      gt\n        /* \"#utility.yul\":22615:22651   */\n      iszero\n      tag_638\n      jumpi\n        /* \"#utility.yul\":22631:22649   */\n      tag_639\n      tag_369\n      jump\t// in\n    tag_639:\n        /* \"#utility.yul\":22615:22651   */\n    tag_638:\n        /* \"#utility.yul\":22467:22658   */\n      swap3\n      swap2\n      pop\n      pop\n      jump\t// out\n        /* \"#utility.yul\":22664:22835   */\n    tag_381:\n        /* \"#utility.yul\":22804:22827   */\n      0x456c656374696f6e207374617274696e6720696e200000000000000000000000\n        /* \"#utility.yul\":22800:22801   */\n      0x00\n        /* \"#utility.yul\":22792:22798   */\n      dup3\n        /* \"#utility.yul\":22788:22802   */\n      add\n        /* \"#utility.yul\":22781:22828   */\n      mstore\n        /* \"#utility.yul\":22664:22835   */\n      pop\n      jump\t// out\n        /* \"#utility.yul\":22841:23243   */\n    tag_382:\n        /* \"#utility.yul\":23001:23004   */\n      0x00\n        /* \"#utility.yul\":23022:23107   */\n      tag_642\n        /* \"#utility.yul\":23104:23106   */\n      0x15\n        /* \"#utility.yul\":23099:23102   */\n      dup4\n        /* \"#utility.yul\":23022:23107   */\n      tag_370\n      jump\t// in\n    tag_642:\n        /* \"#utility.yul\":23015:23107   */\n      swap2\n      pop\n        /* \"#utility.yul\":23116:23209   */\n      tag_643\n        /* \"#utility.yul\":23205:23208   */\n      dup3\n        /* \"#utility.yul\":23116:23209   */\n      tag_381\n      jump\t// in\n    tag_643:\n        /* \"#utility.yul\":23234:23236   */\n      0x15\n        /* \"#utility.yul\":23229:23232   */\n      dup3\n        /* \"#utility.yul\":23225:23237   */\n      add\n        /* \"#utility.yul\":23218:23237   */\n      swap1\n      pop\n        /* \"#utility.yul\":22841:23243   */\n      swap2\n      swap1\n      pop\n      jump\t// out\n        /* \"#utility.yul\":23249:23408   */\n    tag_383:\n        /* \"#utility.yul\":23389:23400   */\n      0x206d696e757465732e0000000000000000000000000000000000000000000000\n        /* \"#utility.yul\":23385:23386   */\n      0x00\n        /* \"#utility.yul\":23377:23383   */\n      dup3\n        /* \"#utility.yul\":23373:23387   */\n      add\n        /* \"#utility.yul\":23366:23401   */\n      mstore\n        /* \"#utility.yul\":23249:23408   */\n      pop\n      jump\t// out\n        /* \"#utility.yul\":23414:23814   */\n    tag_384:\n        /* \"#utility.yul\":23574:23577   */\n      0x00\n        /* \"#utility.yul\":23595:23679   */\n      tag_646\n        /* \"#utility.yul\":23677:23678   */\n      0x09\n        /* \"#utility.yul\":23672:23675   */\n      dup4\n        /* \"#utility.yul\":23595:23679   */\n      tag_370\n      jump\t// in\n    tag_646:\n        /* \"#utility.yul\":23588:23679   */\n      swap2\n      pop\n        /* \"#utility.yul\":23688:23781   */\n      tag_647\n        /* \"#utility.yul\":23777:23780   */\n      dup3\n        /* \"#utility.yul\":23688:23781   */\n      tag_383\n      jump\t// in\n    tag_647:\n        /* \"#utility.yul\":23806:23807   */\n      0x09\n        /* \"#utility.yul\":23801:23804   */\n      dup3\n        /* \"#utility.yul\":23797:23808   */\n      add\n        /* \"#utility.yul\":23790:23808   */\n      swap1\n      pop\n        /* \"#utility.yul\":23414:23814   */\n      swap2\n      swap1\n      pop\n      jump\t// out\n        /* \"#utility.yul\":23820:24608   */\n    tag_150:\n        /* \"#utility.yul\":24134:24137   */\n      0x00\n        /* \"#utility.yul\":24156:24304   */\n      tag_649\n        /* \"#utility.yul\":24300:24303   */\n      dup3\n        /* \"#utility.yul\":24156:24304   */\n      tag_382\n      jump\t// in\n    tag_649:\n        /* \"#utility.yul\":24149:24304   */\n      swap2\n      pop\n        /* \"#utility.yul\":24314:24389   */\n      tag_650\n        /* \"#utility.yul\":24385:24388   */\n      dup3\n        /* \"#utility.yul\":24376:24382   */\n      dup5\n        /* \"#utility.yul\":24314:24389   */\n      tag_374\n      jump\t// in\n    tag_650:\n        /* \"#utility.yul\":24414:24416   */\n      0x20\n        /* \"#utility.yul\":24409:24412   */\n      dup3\n        /* \"#utility.yul\":24405:24417   */\n      add\n        /* \"#utility.yul\":24398:24417   */\n      swap2\n      pop\n        /* \"#utility.yul\":24434:24582   */\n      tag_651\n        /* \"#utility.yul\":24578:24581   */\n      dup3\n        /* \"#utility.yul\":24434:24582   */\n      tag_384\n      jump\t// in\n    tag_651:\n        /* \"#utility.yul\":24427:24582   */\n      swap2\n      pop\n        /* \"#utility.yul\":24599:24602   */\n      dup2\n        /* \"#utility.yul\":24592:24602   */\n      swap1\n      pop\n        /* \"#utility.yul\":23820:24608   */\n      swap3\n      swap2\n      pop\n      pop\n      jump\t// out\n        /* \"#utility.yul\":24614:24775   */\n    tag_385:\n        /* \"#utility.yul\":24754:24767   */\n      0x4e6f20456c656374696f6e000000000000000000000000000000000000000000\n        /* \"#utility.yul\":24750:24751   */\n      0x00\n        /* \"#utility.yul\":24742:24748   */\n      dup3\n        /* \"#utility.yul\":24738:24752   */\n      add\n        /* \"#utility.yul\":24731:24768   */\n      mstore\n        /* \"#utility.yul\":24614:24775   */\n      pop\n      jump\t// out\n        /* \"#utility.yul\":24781:25147   */\n    tag_386:\n        /* \"#utility.yul\":24923:24926   */\n      0x00\n        /* \"#utility.yul\":24944:25011   */\n      tag_654\n        /* \"#utility.yul\":25008:25010   */\n      0x0b\n        /* \"#utility.yul\":25003:25006   */\n      dup4\n        /* \"#utility.yul\":24944:25011   */\n      tag_341\n      jump\t// in\n    tag_654:\n        /* \"#utility.yul\":24937:25011   */\n      swap2\n      pop\n        /* \"#utility.yul\":25020:25113   */\n      tag_655\n        /* \"#utility.yul\":25109:25112   */\n      dup3\n        /* \"#utility.yul\":25020:25113   */\n      tag_385\n      jump\t// in\n    tag_655:\n        /* \"#utility.yul\":25138:25140   */\n      0x20\n        /* \"#utility.yul\":25133:25136   */\n      dup3\n        /* \"#utility.yul\":25129:25141   */\n      add\n        /* \"#utility.yul\":25122:25141   */\n      swap1\n      pop\n        /* \"#utility.yul\":24781:25147   */\n      swap2\n      swap1\n      pop\n      jump\t// out\n        /* \"#utility.yul\":25153:25572   */\n    tag_169:\n        /* \"#utility.yul\":25319:25323   */\n      0x00\n        /* \"#utility.yul\":25357:25359   */\n      0x20\n        /* \"#utility.yul\":25346:25355   */\n      dup3\n        /* \"#utility.yul\":25342:25360   */\n      add\n        /* \"#utility.yul\":25334:25360   */\n      swap1\n      pop\n        /* \"#utility.yul\":25406:25415   */\n      dup2\n        /* \"#utility.yul\":25400:25404   */\n      dup2\n        /* \"#utility.yul\":25396:25416   */\n      sub\n        /* \"#utility.yul\":25392:25393   */\n      0x00\n        /* \"#utility.yul\":25381:25390   */\n      dup4\n        /* \"#utility.yul\":25377:25394   */\n      add\n        /* \"#utility.yul\":25370:25417   */\n      mstore\n        /* \"#utility.yul\":25434:25565   */\n      tag_657\n        /* \"#utility.yul\":25560:25564   */\n      dup2\n        /* \"#utility.yul\":25434:25565   */\n      tag_386\n      jump\t// in\n    tag_657:\n        /* \"#utility.yul\":25426:25565   */\n      swap1\n      pop\n        /* \"#utility.yul\":25153:25572   */\n      swap2\n      swap1\n      pop\n      jump\t// out\n        /* \"#utility.yul\":25578:25812   */\n    tag_387:\n        /* \"#utility.yul\":25718:25752   */\n      0x456c656374696f6e20656e64656420696e2061207469652c206d616e75616c20\n        /* \"#utility.yul\":25714:25715   */\n      0x00\n        /* \"#utility.yul\":25706:25712   */\n      dup3\n        /* \"#utility.yul\":25702:25716   */\n      add\n        /* \"#utility.yul\":25695:25753   */\n      mstore\n        /* \"#utility.yul\":25787:25804   */\n      0x6465636973696f6e206e65656465640000000000000000000000000000000000\n        /* \"#utility.yul\":25782:25784   */\n      0x20\n        /* \"#utility.yul\":25774:25780   */\n      dup3\n        /* \"#utility.yul\":25770:25785   */\n      add\n        /* \"#utility.yul\":25763:25805   */\n      mstore\n        /* \"#utility.yul\":25578:25812   */\n      pop\n      jump\t// out\n        /* \"#utility.yul\":25818:26184   */\n    tag_388:\n        /* \"#utility.yul\":25960:25963   */\n      0x00\n        /* \"#utility.yul\":25981:26048   */\n      tag_660\n        /* \"#utility.yul\":26045:26047   */\n      0x2f\n        /* \"#utility.yul\":26040:26043   */\n      dup4\n        /* \"#utility.yul\":25981:26048   */\n      tag_341\n      jump\t// in\n    tag_660:\n        /* \"#utility.yul\":25974:26048   */\n      swap2\n      pop\n        /* \"#utility.yul\":26057:26150   */\n      tag_661\n        /* \"#utility.yul\":26146:26149   */\n      dup3\n        /* \"#utility.yul\":26057:26150   */\n      tag_387\n      jump\t// in\n    tag_661:\n        /* \"#utility.yul\":26175:26177   */\n      0x40\n        /* \"#utility.yul\":26170:26173   */\n      dup3\n        /* \"#utility.yul\":26166:26178   */\n      add\n        /* \"#utility.yul\":26159:26178   */\n      swap1\n      pop\n        /* \"#utility.yul\":25818:26184   */\n      swap2\n      swap1\n      pop\n      jump\t// out\n        /* \"#utility.yul\":26190:26609   */\n    tag_179:\n        /* \"#utility.yul\":26356:26360   */\n      0x00\n        /* \"#utility.yul\":26394:26396   */\n      0x20\n        /* \"#utility.yul\":26383:26392   */\n      dup3\n        /* \"#utility.yul\":26379:26397   */\n      add\n        /* \"#utility.yul\":26371:26397   */\n      swap1\n      pop\n        /* \"#utility.yul\":26443:26452   */\n      dup2\n        /* \"#utility.yul\":26437:26441   */\n      dup2\n        /* \"#utility.yul\":26433:26453   */\n      sub\n        /* \"#utility.yul\":26429:26430   */\n      0x00\n        /* \"#utility.yul\":26418:26427   */\n      dup4\n        /* \"#utility.yul\":26414:26431   */\n      add\n        /* \"#utility.yul\":26407:26454   */\n      mstore\n        /* \"#utility.yul\":26471:26602   */\n      tag_663\n        /* \"#utility.yul\":26597:26601   */\n      dup2\n        /* \"#utility.yul\":26471:26602   */\n      tag_388\n      jump\t// in\n    tag_663:\n        /* \"#utility.yul\":26463:26602   */\n      swap1\n      pop\n        /* \"#utility.yul\":26190:26609   */\n      swap2\n      swap1\n      pop\n      jump\t// out\n        /* \"#utility.yul\":26615:26768   */\n    tag_389:\n        /* \"#utility.yul\":26668:26674   */\n      0x00\n        /* \"#utility.yul\":26702:26707   */\n      dup2\n        /* \"#utility.yul\":26696:26708   */\n      sload\n        /* \"#utility.yul\":26686:26708   */\n      swap1\n      pop\n        /* \"#utility.yul\":26728:26761   */\n      tag_665\n        /* \"#utility.yul\":26754:26760   */\n      dup2\n        /* \"#utility.yul\":26728:26761   */\n      tag_287\n      jump\t// in\n    tag_665:\n        /* \"#utility.yul\":26718:26761   */\n      swap1\n      pop\n        /* \"#utility.yul\":26615:26768   */\n      swap2\n      swap1\n      pop\n      jump\t// out\n        /* \"#utility.yul\":26774:26919   */\n    tag_390:\n        /* \"#utility.yul\":26827:26831   */\n      0x00\n        /* \"#utility.yul\":26850:26853   */\n      dup2\n        /* \"#utility.yul\":26842:26853   */\n      swap1\n      pop\n        /* \"#utility.yul\":26873:26876   */\n      dup2\n        /* \"#utility.yul\":26870:26871   */\n      0x00\n        /* \"#utility.yul\":26863:26877   */\n      mstore\n        /* \"#utility.yul\":26907:26911   */\n      0x20\n        /* \"#utility.yul\":26904:26905   */\n      0x00\n        /* \"#utility.yul\":26894:26912   */\n      keccak256\n        /* \"#utility.yul\":26886:26912   */\n      swap1\n      pop\n        /* \"#utility.yul\":26774:26919   */\n      swap2\n      swap1\n      pop\n      jump\t// out\n        /* \"#utility.yul\":26925:28388   */\n    tag_184:\n        /* \"#utility.yul\":27040:27043   */\n      dup2\n        /* \"#utility.yul\":27034:27038   */\n      dup2\n        /* \"#utility.yul\":27031:27044   */\n      sub\n        /* \"#utility.yul\":27028:27054   */\n      tag_668\n      jumpi\n        /* \"#utility.yul\":27047:27052   */\n      pop\n      pop\n      jump(tag_667)\n        /* \"#utility.yul\":27028:27054   */\n    tag_668:\n        /* \"#utility.yul\":27078:27116   */\n      tag_669\n        /* \"#utility.yul\":27112:27115   */\n      dup3\n        /* \"#utility.yul\":27078:27116   */\n      tag_389\n      jump\t// in\n    tag_669:\n        /* \"#utility.yul\":27181:27199   */\n      0xffffffffffffffff\n        /* \"#utility.yul\":27173:27179   */\n      dup2\n        /* \"#utility.yul\":27170:27200   */\n      gt\n        /* \"#utility.yul\":27167:27223   */\n      iszero\n      tag_670\n      jumpi\n        /* \"#utility.yul\":27203:27221   */\n      tag_671\n      tag_352\n      jump\t// in\n    tag_671:\n        /* \"#utility.yul\":27167:27223   */\n    tag_670:\n        /* \"#utility.yul\":27247:27285   */\n      tag_672\n        /* \"#utility.yul\":27279:27283   */\n      dup3\n        /* \"#utility.yul\":27273:27284   */\n      sload\n        /* \"#utility.yul\":27247:27285   */\n      tag_287\n      jump\t// in\n    tag_672:\n        /* \"#utility.yul\":27332:27399   */\n      tag_673\n        /* \"#utility.yul\":27392:27398   */\n      dup3\n        /* \"#utility.yul\":27384:27390   */\n      dup3\n        /* \"#utility.yul\":27378:27382   */\n      dup6\n        /* \"#utility.yul\":27332:27399   */\n      tag_365\n      jump\t// in\n    tag_673:\n        /* \"#utility.yul\":27426:27427   */\n      0x00\n        /* \"#utility.yul\":27455:27457   */\n      0x1f\n        /* \"#utility.yul\":27447:27453   */\n      dup4\n        /* \"#utility.yul\":27444:27458   */\n      gt\n        /* \"#utility.yul\":27472:27473   */\n      0x01\n        /* \"#utility.yul\":27467:28143   */\n      dup2\n      eq\n      tag_675\n      jumpi\n        /* \"#utility.yul\":28187:28188   */\n      0x00\n        /* \"#utility.yul\":28204:28210   */\n      dup5\n        /* \"#utility.yul\":28201:28278   */\n      iszero\n      tag_676\n      jumpi\n        /* \"#utility.yul\":28253:28262   */\n      dup3\n        /* \"#utility.yul\":28248:28251   */\n      dup8\n        /* \"#utility.yul\":28244:28263   */\n      add\n        /* \"#utility.yul\":28238:28264   */\n      sload\n        /* \"#utility.yul\":28229:28264   */\n      swap1\n      pop\n        /* \"#utility.yul\":28201:28278   */\n    tag_676:\n        /* \"#utility.yul\":28304:28371   */\n      tag_677\n        /* \"#utility.yul\":28364:28370   */\n      dup6\n        /* \"#utility.yul\":28357:28362   */\n      dup3\n        /* \"#utility.yul\":28304:28371   */\n      tag_368\n      jump\t// in\n    tag_677:\n        /* \"#utility.yul\":28298:28302   */\n      dup7\n        /* \"#utility.yul\":28291:28372   */\n      sstore\n        /* \"#utility.yul\":28160:28382   */\n      pop\n        /* \"#utility.yul\":27437:28382   */\n      jump(tag_674)\n        /* \"#utility.yul\":27467:28143   */\n    tag_675:\n        /* \"#utility.yul\":27519:27523   */\n      0x1f\n        /* \"#utility.yul\":27515:27524   */\n      not\n        /* \"#utility.yul\":27507:27513   */\n      dup5\n        /* \"#utility.yul\":27503:27525   */\n      and\n        /* \"#utility.yul\":27545:27585   */\n      tag_678\n        /* \"#utility.yul\":27581:27584   */\n      dup8\n        /* \"#utility.yul\":27545:27585   */\n      tag_390\n      jump\t// in\n    tag_678:\n        /* \"#utility.yul\":27538:27585   */\n      swap7\n      pop\n        /* \"#utility.yul\":27612:27649   */\n      tag_679\n        /* \"#utility.yul\":27644:27648   */\n      dup7\n        /* \"#utility.yul\":27612:27649   */\n      tag_354\n      jump\t// in\n    tag_679:\n        /* \"#utility.yul\":27671:27672   */\n      0x00\n        /* \"#utility.yul\":27685:27892   */\n    tag_680:\n        /* \"#utility.yul\":27699:27706   */\n      dup3\n        /* \"#utility.yul\":27696:27697   */\n      dup2\n        /* \"#utility.yul\":27693:27707   */\n      lt\n        /* \"#utility.yul\":27685:27892   */\n      iszero\n      tag_682\n      jumpi\n        /* \"#utility.yul\":27778:27787   */\n      dup5\n        /* \"#utility.yul\":27773:27776   */\n      dup10\n        /* \"#utility.yul\":27769:27788   */\n      add\n        /* \"#utility.yul\":27763:27789   */\n      sload\n        /* \"#utility.yul\":27755:27761   */\n      dup3\n        /* \"#utility.yul\":27748:27790   */\n      sstore\n        /* \"#utility.yul\":27829:27830   */\n      0x01\n        /* \"#utility.yul\":27821:27827   */\n      dup3\n        /* \"#utility.yul\":27817:27831   */\n      add\n        /* \"#utility.yul\":27807:27831   */\n      swap2\n      pop\n        /* \"#utility.yul\":27876:27877   */\n      0x01\n        /* \"#utility.yul\":27865:27874   */\n      dup6\n        /* \"#utility.yul\":27861:27878   */\n      add\n        /* \"#utility.yul\":27848:27878   */\n      swap5\n      pop\n        /* \"#utility.yul\":27722:27726   */\n      0x20\n        /* \"#utility.yul\":27719:27720   */\n      dup2\n        /* \"#utility.yul\":27715:27727   */\n      add\n        /* \"#utility.yul\":27710:27727   */\n      swap1\n      pop\n        /* \"#utility.yul\":27685:27892   */\n      jump(tag_680)\n    tag_682:\n        /* \"#utility.yul\":27920:27926   */\n      dup7\n        /* \"#utility.yul\":27911:27918   */\n      dup4\n        /* \"#utility.yul\":27908:27927   */\n      lt\n        /* \"#utility.yul\":27905:28084   */\n      iszero\n      tag_683\n      jumpi\n        /* \"#utility.yul\":27978:27987   */\n      dup5\n        /* \"#utility.yul\":27973:27976   */\n      dup10\n        /* \"#utility.yul\":27969:27988   */\n      add\n        /* \"#utility.yul\":27963:27989   */\n      sload\n        /* \"#utility.yul\":28021:28069   */\n      tag_684\n        /* \"#utility.yul\":28063:28067   */\n      0x1f\n        /* \"#utility.yul\":28055:28061   */\n      dup10\n        /* \"#utility.yul\":28051:28068   */\n      and\n        /* \"#utility.yul\":28040:28049   */\n      dup3\n        /* \"#utility.yul\":28021:28069   */\n      tag_367\n      jump\t// in\n    tag_684:\n        /* \"#utility.yul\":28013:28019   */\n      dup4\n        /* \"#utility.yul\":28006:28070   */\n      sstore\n        /* \"#utility.yul\":27928:28084   */\n      pop\n        /* \"#utility.yul\":27905:28084   */\n    tag_683:\n        /* \"#utility.yul\":28130:28131   */\n      0x01\n        /* \"#utility.yul\":28126:28127   */\n      0x02\n        /* \"#utility.yul\":28118:28124   */\n      dup9\n        /* \"#utility.yul\":28114:28128   */\n      mul\n        /* \"#utility.yul\":28110:28132   */\n      add\n        /* \"#utility.yul\":28104:28108   */\n      dup9\n        /* \"#utility.yul\":28097:28133   */\n      sstore\n        /* \"#utility.yul\":27474:28143   */\n      pop\n      pop\n      pop\n        /* \"#utility.yul\":27437:28382   */\n    tag_674:\n      pop\n        /* \"#utility.yul\":27018:28388   */\n      pop\n      pop\n      pop\n        /* \"#utility.yul\":26925:28388   */\n      pop\n      pop\n    tag_667:\n      jump\t// out\n        /* \"#utility.yul\":28394:28618   */\n    tag_391:\n        /* \"#utility.yul\":28534:28568   */\n      0x43616e27742061646420636f6e74657374616e747320647572696e6720656c65\n        /* \"#utility.yul\":28530:28531   */\n      0x00\n        /* \"#utility.yul\":28522:28528   */\n      dup3\n        /* \"#utility.yul\":28518:28532   */\n      add\n        /* \"#utility.yul\":28511:28569   */\n      mstore\n        /* \"#utility.yul\":28603:28610   */\n      0x6374696f6e000000000000000000000000000000000000000000000000000000\n        /* \"#utility.yul\":28598:28600   */\n      0x20\n        /* \"#utility.yul\":28590:28596   */\n      dup3\n        /* \"#utility.yul\":28586:28601   */\n      add\n        /* \"#utility.yul\":28579:28611   */\n      mstore\n        /* \"#utility.yul\":28394:28618   */\n      pop\n      jump\t// out\n        /* \"#utility.yul\":28624:28990   */\n    tag_392:\n        /* \"#utility.yul\":28766:28769   */\n      0x00\n        /* \"#utility.yul\":28787:28854   */\n      tag_687\n        /* \"#utility.yul\":28851:28853   */\n      0x25\n        /* \"#utility.yul\":28846:28849   */\n      dup4\n        /* \"#utility.yul\":28787:28854   */\n      tag_341\n      jump\t// in\n    tag_687:\n        /* \"#utility.yul\":28780:28854   */\n      swap2\n      pop\n        /* \"#utility.yul\":28863:28956   */\n      tag_688\n        /* \"#utility.yul\":28952:28955   */\n      dup3\n        /* \"#utility.yul\":28863:28956   */\n      tag_391\n      jump\t// in\n    tag_688:\n        /* \"#utility.yul\":28981:28983   */\n      0x40\n        /* \"#utility.yul\":28976:28979   */\n      dup3\n        /* \"#utility.yul\":28972:28984   */\n      add\n        /* \"#utility.yul\":28965:28984   */\n      swap1\n      pop\n        /* \"#utility.yul\":28624:28990   */\n      swap2\n      swap1\n      pop\n      jump\t// out\n        /* \"#utility.yul\":28996:29415   */\n    tag_203:\n        /* \"#utility.yul\":29162:29166   */\n      0x00\n        /* \"#utility.yul\":29200:29202   */\n      0x20\n        /* \"#utility.yul\":29189:29198   */\n      dup3\n        /* \"#utility.yul\":29185:29203   */\n      add\n        /* \"#utility.yul\":29177:29203   */\n      swap1\n      pop\n        /* \"#utility.yul\":29249:29258   */\n      dup2\n        /* \"#utility.yul\":29243:29247   */\n      dup2\n        /* \"#utility.yul\":29239:29259   */\n      sub\n        /* \"#utility.yul\":29235:29236   */\n      0x00\n        /* \"#utility.yul\":29224:29233   */\n      dup4\n        /* \"#utility.yul\":29220:29237   */\n      add\n        /* \"#utility.yul\":29213:29260   */\n      mstore\n        /* \"#utility.yul\":29277:29408   */\n      tag_690\n        /* \"#utility.yul\":29403:29407   */\n      dup2\n        /* \"#utility.yul\":29277:29408   */\n      tag_392\n      jump\t// in\n    tag_690:\n        /* \"#utility.yul\":29269:29408   */\n      swap1\n      pop\n        /* \"#utility.yul\":28996:29415   */\n      swap2\n      swap1\n      pop\n      jump\t// out\n        /* \"#utility.yul\":29421:29569   */\n    tag_393:\n        /* \"#utility.yul\":29519:29525   */\n      dup3\n        /* \"#utility.yul\":29514:29517   */\n      dup2\n        /* \"#utility.yul\":29509:29512   */\n      dup4\n        /* \"#utility.yul\":29496:29526   */\n      calldatacopy\n        /* \"#utility.yul\":29560:29561   */\n      0x00\n        /* \"#utility.yul\":29551:29557   */\n      dup4\n        /* \"#utility.yul\":29546:29549   */\n      dup4\n        /* \"#utility.yul\":29542:29558   */\n      add\n        /* \"#utility.yul\":29535:29562   */\n      mstore\n        /* \"#utility.yul\":29421:29569   */\n      pop\n      pop\n      pop\n      jump\t// out\n        /* \"#utility.yul\":29599:29929   */\n    tag_394:\n        /* \"#utility.yul\":29715:29718   */\n      0x00\n        /* \"#utility.yul\":29736:29825   */\n      tag_693\n        /* \"#utility.yul\":29818:29824   */\n      dup4\n        /* \"#utility.yul\":29813:29816   */\n      dup6\n        /* \"#utility.yul\":29736:29825   */\n      tag_370\n      jump\t// in\n    tag_693:\n        /* \"#utility.yul\":29729:29825   */\n      swap4\n      pop\n        /* \"#utility.yul\":29835:29891   */\n      tag_694\n        /* \"#utility.yul\":29884:29890   */\n      dup4\n        /* \"#utility.yul\":29879:29882   */\n      dup6\n        /* \"#utility.yul\":29872:29877   */\n      dup5\n        /* \"#utility.yul\":29835:29891   */\n      tag_393\n      jump\t// in\n    tag_694:\n        /* \"#utility.yul\":29916:29922   */\n      dup3\n        /* \"#utility.yul\":29911:29914   */\n      dup5\n        /* \"#utility.yul\":29907:29923   */\n      add\n        /* \"#utility.yul\":29900:29923   */\n      swap1\n      pop\n        /* \"#utility.yul\":29599:29929   */\n      swap4\n      swap3\n      pop\n      pop\n      pop\n      jump\t// out\n        /* \"#utility.yul\":29935:30230   */\n    tag_208:\n        /* \"#utility.yul\":30077:30080   */\n      0x00\n        /* \"#utility.yul\":30099:30204   */\n      tag_696\n        /* \"#utility.yul\":30200:30203   */\n      dup3\n        /* \"#utility.yul\":30191:30197   */\n      dup5\n        /* \"#utility.yul\":30183:30189   */\n      dup7\n        /* \"#utility.yul\":30099:30204   */\n      tag_394\n      jump\t// in\n    tag_696:\n        /* \"#utility.yul\":30092:30204   */\n      swap2\n      pop\n        /* \"#utility.yul\":30221:30224   */\n      dup2\n        /* \"#utility.yul\":30214:30224   */\n      swap1\n      pop\n        /* \"#utility.yul\":29935:30230   */\n      swap4\n      swap3\n      pop\n      pop\n      pop\n      jump\t// out\n        /* \"#utility.yul\":30260:31134   */\n    tag_395:\n        /* \"#utility.yul\":30363:30366   */\n      0x00\n        /* \"#utility.yul\":30400:30405   */\n      dup2\n        /* \"#utility.yul\":30394:30406   */\n      sload\n        /* \"#utility.yul\":30429:30465   */\n      tag_698\n        /* \"#utility.yul\":30455:30464   */\n      dup2\n        /* \"#utility.yul\":30429:30465   */\n      tag_287\n      jump\t// in\n    tag_698:\n        /* \"#utility.yul\":30481:30570   */\n      tag_699\n        /* \"#utility.yul\":30563:30569   */\n      dup2\n        /* \"#utility.yul\":30558:30561   */\n      dup7\n        /* \"#utility.yul\":30481:30570   */\n      tag_370\n      jump\t// in\n    tag_699:\n        /* \"#utility.yul\":30474:30570   */\n      swap5\n      pop\n        /* \"#utility.yul\":30601:30602   */\n      0x01\n        /* \"#utility.yul\":30590:30599   */\n      dup3\n        /* \"#utility.yul\":30586:30603   */\n      and\n        /* \"#utility.yul\":30617:30618   */\n      0x00\n        /* \"#utility.yul\":30612:30778   */\n      dup2\n      eq\n      tag_701\n      jumpi\n        /* \"#utility.yul\":30792:30793   */\n      0x01\n        /* \"#utility.yul\":30787:31128   */\n      dup2\n      eq\n      tag_702\n      jumpi\n        /* \"#utility.yul\":30579:31128   */\n      jump(tag_700)\n        /* \"#utility.yul\":30612:30778   */\n    tag_701:\n        /* \"#utility.yul\":30696:30700   */\n      0xff\n        /* \"#utility.yul\":30692:30701   */\n      not\n        /* \"#utility.yul\":30681:30690   */\n      dup4\n        /* \"#utility.yul\":30677:30702   */\n      and\n        /* \"#utility.yul\":30672:30675   */\n      dup7\n        /* \"#utility.yul\":30665:30703   */\n      mstore\n        /* \"#utility.yul\":30758:30764   */\n      dup2\n        /* \"#utility.yul\":30751:30765   */\n      iszero\n        /* \"#utility.yul\":30744:30766   */\n      iszero\n        /* \"#utility.yul\":30736:30742   */\n      dup3\n        /* \"#utility.yul\":30732:30767   */\n      mul\n        /* \"#utility.yul\":30727:30730   */\n      dup7\n        /* \"#utility.yul\":30723:30768   */\n      add\n        /* \"#utility.yul\":30716:30768   */\n      swap4\n      pop\n        /* \"#utility.yul\":30612:30778   */\n      jump(tag_700)\n        /* \"#utility.yul\":30787:31128   */\n    tag_702:\n        /* \"#utility.yul\":30854:30892   */\n      tag_703\n        /* \"#utility.yul\":30886:30891   */\n      dup6\n        /* \"#utility.yul\":30854:30892   */\n      tag_354\n      jump\t// in\n    tag_703:\n        /* \"#utility.yul\":30914:30915   */\n      0x00\n        /* \"#utility.yul\":30928:31082   */\n    tag_704:\n        /* \"#utility.yul\":30942:30948   */\n      dup4\n        /* \"#utility.yul\":30939:30940   */\n      dup2\n        /* \"#utility.yul\":30936:30949   */\n      lt\n        /* \"#utility.yul\":30928:31082   */\n      iszero\n      tag_706\n      jumpi\n        /* \"#utility.yul\":31016:31023   */\n      dup2\n        /* \"#utility.yul\":31010:31024   */\n      sload\n        /* \"#utility.yul\":31006:31007   */\n      dup2\n        /* \"#utility.yul\":31001:31004   */\n      dup10\n        /* \"#utility.yul\":30997:31008   */\n      add\n        /* \"#utility.yul\":30990:31025   */\n      mstore\n        /* \"#utility.yul\":31066:31067   */\n      0x01\n        /* \"#utility.yul\":31057:31064   */\n      dup3\n        /* \"#utility.yul\":31053:31068   */\n      add\n        /* \"#utility.yul\":31042:31068   */\n      swap2\n      pop\n        /* \"#utility.yul\":30964:30968   */\n      0x20\n        /* \"#utility.yul\":30961:30962   */\n      dup2\n        /* \"#utility.yul\":30957:30969   */\n      add\n        /* \"#utility.yul\":30952:30969   */\n      swap1\n      pop\n        /* \"#utility.yul\":30928:31082   */\n      jump(tag_704)\n    tag_706:\n        /* \"#utility.yul\":31111:31117   */\n      dup4\n        /* \"#utility.yul\":31106:31109   */\n      dup9\n        /* \"#utility.yul\":31102:31118   */\n      add\n        /* \"#utility.yul\":31095:31118   */\n      swap6\n      pop\n        /* \"#utility.yul\":30794:31128   */\n      pop\n      pop\n        /* \"#utility.yul\":30579:31128   */\n    tag_700:\n      pop\n        /* \"#utility.yul\":30367:31134   */\n      pop\n      pop\n        /* \"#utility.yul\":30260:31134   */\n      swap3\n      swap2\n      pop\n      pop\n      jump\t// out\n        /* \"#utility.yul\":31140:31409   */\n    tag_213:\n        /* \"#utility.yul\":31269:31272   */\n      0x00\n        /* \"#utility.yul\":31291:31383   */\n      tag_708\n        /* \"#utility.yul\":31379:31382   */\n      dup3\n        /* \"#utility.yul\":31370:31376   */\n      dup5\n        /* \"#utility.yul\":31291:31383   */\n      tag_395\n      jump\t// in\n    tag_708:\n        /* \"#utility.yul\":31284:31383   */\n      swap2\n      pop\n        /* \"#utility.yul\":31400:31403   */\n      dup2\n        /* \"#utility.yul\":31393:31403   */\n      swap1\n      pop\n        /* \"#utility.yul\":31140:31409   */\n      swap3\n      swap2\n      pop\n      pop\n      jump\t// out\n        /* \"#utility.yul\":31415:31597   */\n    tag_396:\n        /* \"#utility.yul\":31555:31589   */\n      0x436f6e74657374616e7420776974682073616d65206e616d6520657869737473\n        /* \"#utility.yul\":31551:31552   */\n      0x00\n        /* \"#utility.yul\":31543:31549   */\n      dup3\n        /* \"#utility.yul\":31539:31553   */\n      add\n        /* \"#utility.yul\":31532:31590   */\n      mstore\n        /* \"#utility.yul\":31415:31597   */\n      pop\n      jump\t// out\n        /* \"#utility.yul\":31603:31969   */\n    tag_397:\n        /* \"#utility.yul\":31745:31748   */\n      0x00\n        /* \"#utility.yul\":31766:31833   */\n      tag_711\n        /* \"#utility.yul\":31830:31832   */\n      0x20\n        /* \"#utility.yul\":31825:31828   */\n      dup4\n        /* \"#utility.yul\":31766:31833   */\n      tag_341\n      jump\t// in\n    tag_711:\n        /* \"#utility.yul\":31759:31833   */\n      swap2\n      pop\n        /* \"#utility.yul\":31842:31935   */\n      tag_712\n        /* \"#utility.yul\":31931:31934   */\n      dup3\n        /* \"#utility.yul\":31842:31935   */\n      tag_396\n      jump\t// in\n    tag_712:\n        /* \"#utility.yul\":31960:31962   */\n      0x20\n        /* \"#utility.yul\":31955:31958   */\n      dup3\n        /* \"#utility.yul\":31951:31963   */\n      add\n        /* \"#utility.yul\":31944:31963   */\n      swap1\n      pop\n        /* \"#utility.yul\":31603:31969   */\n      swap2\n      swap1\n      pop\n      jump\t// out\n        /* \"#utility.yul\":31975:32394   */\n    tag_216:\n        /* \"#utility.yul\":32141:32145   */\n      0x00\n        /* \"#utility.yul\":32179:32181   */\n      0x20\n        /* \"#utility.yul\":32168:32177   */\n      dup3\n        /* \"#utility.yul\":32164:32182   */\n      add\n        /* \"#utility.yul\":32156:32182   */\n      swap1\n      pop\n        /* \"#utility.yul\":32228:32237   */\n      dup2\n        /* \"#utility.yul\":32222:32226   */\n      dup2\n        /* \"#utility.yul\":32218:32238   */\n      sub\n        /* \"#utility.yul\":32214:32215   */\n      0x00\n        /* \"#utility.yul\":32203:32212   */\n      dup4\n        /* \"#utility.yul\":32199:32216   */\n      add\n        /* \"#utility.yul\":32192:32239   */\n      mstore\n        /* \"#utility.yul\":32256:32387   */\n      tag_714\n        /* \"#utility.yul\":32382:32386   */\n      dup2\n        /* \"#utility.yul\":32256:32387   */\n      tag_397\n      jump\t// in\n    tag_714:\n        /* \"#utility.yul\":32248:32387   */\n      swap1\n      pop\n        /* \"#utility.yul\":31975:32394   */\n      swap2\n      swap1\n      pop\n      jump\t// out\n        /* \"#utility.yul\":32400:32574   */\n    tag_398:\n        /* \"#utility.yul\":32540:32566   */\n      0x4f6e6520636f6e74657374616e74207065722070617274790000000000000000\n        /* \"#utility.yul\":32536:32537   */\n      0x00\n        /* \"#utility.yul\":32528:32534   */\n      dup3\n        /* \"#utility.yul\":32524:32538   */\n      add\n        /* \"#utility.yul\":32517:32567   */\n      mstore\n        /* \"#utility.yul\":32400:32574   */\n      pop\n      jump\t// out\n        /* \"#utility.yul\":32580:32946   */\n    tag_399:\n        /* \"#utility.yul\":32722:32725   */\n      0x00\n        /* \"#utility.yul\":32743:32810   */\n      tag_717\n        /* \"#utility.yul\":32807:32809   */\n      0x18\n        /* \"#utility.yul\":32802:32805   */\n      dup4\n        /* \"#utility.yul\":32743:32810   */\n      tag_341\n      jump\t// in\n    tag_717:\n        /* \"#utility.yul\":32736:32810   */\n      swap2\n      pop\n        /* \"#utility.yul\":32819:32912   */\n      tag_718\n        /* \"#utility.yul\":32908:32911   */\n      dup3\n        /* \"#utility.yul\":32819:32912   */\n      tag_398\n      jump\t// in\n    tag_718:\n        /* \"#utility.yul\":32937:32939   */\n      0x20\n        /* \"#utility.yul\":32932:32935   */\n      dup3\n        /* \"#utility.yul\":32928:32940   */\n      add\n        /* \"#utility.yul\":32921:32940   */\n      swap1\n      pop\n        /* \"#utility.yul\":32580:32946   */\n      swap2\n      swap1\n      pop\n      jump\t// out\n        /* \"#utility.yul\":32952:33371   */\n    tag_224:\n        /* \"#utility.yul\":33118:33122   */\n      0x00\n        /* \"#utility.yul\":33156:33158   */\n      0x20\n        /* \"#utility.yul\":33145:33154   */\n      dup3\n        /* \"#utility.yul\":33141:33159   */\n      add\n        /* \"#utility.yul\":33133:33159   */\n      swap1\n      pop\n        /* \"#utility.yul\":33205:33214   */\n      dup2\n        /* \"#utility.yul\":33199:33203   */\n      dup2\n        /* \"#utility.yul\":33195:33215   */\n      sub\n        /* \"#utility.yul\":33191:33192   */\n      0x00\n        /* \"#utility.yul\":33180:33189   */\n      dup4\n        /* \"#utility.yul\":33176:33193   */\n      add\n        /* \"#utility.yul\":33169:33216   */\n      mstore\n        /* \"#utility.yul\":33233:33364   */\n      tag_720\n        /* \"#utility.yul\":33359:33363   */\n      dup2\n        /* \"#utility.yul\":33233:33364   */\n      tag_399\n      jump\t// in\n    tag_720:\n        /* \"#utility.yul\":33225:33364   */\n      swap1\n      pop\n        /* \"#utility.yul\":32952:33371   */\n      swap2\n      swap1\n      pop\n      jump\t// out\n        /* \"#utility.yul\":33377:33551   */\n    tag_400:\n        /* \"#utility.yul\":33517:33543   */\n      0x456c656374696f6e20616c726561647920737461727465640000000000000000\n        /* \"#utility.yul\":33513:33514   */\n      0x00\n        /* \"#utility.yul\":33505:33511   */\n      dup3\n        /* \"#utility.yul\":33501:33515   */\n      add\n        /* \"#utility.yul\":33494:33544   */\n      mstore\n        /* \"#utility.yul\":33377:33551   */\n      pop\n      jump\t// out\n        /* \"#utility.yul\":33557:33923   */\n    tag_401:\n        /* \"#utility.yul\":33699:33702   */\n      0x00\n        /* \"#utility.yul\":33720:33787   */\n      tag_723\n        /* \"#utility.yul\":33784:33786   */\n      0x18\n        /* \"#utility.yul\":33779:33782   */\n      dup4\n        /* \"#utility.yul\":33720:33787   */\n      tag_341\n      jump\t// in\n    tag_723:\n        /* \"#utility.yul\":33713:33787   */\n      swap2\n      pop\n        /* \"#utility.yul\":33796:33889   */\n      tag_724\n        /* \"#utility.yul\":33885:33888   */\n      dup3\n        /* \"#utility.yul\":33796:33889   */\n      tag_400\n      jump\t// in\n    tag_724:\n        /* \"#utility.yul\":33914:33916   */\n      0x20\n        /* \"#utility.yul\":33909:33912   */\n      dup3\n        /* \"#utility.yul\":33905:33917   */\n      add\n        /* \"#utility.yul\":33898:33917   */\n      swap1\n      pop\n        /* \"#utility.yul\":33557:33923   */\n      swap2\n      swap1\n      pop\n      jump\t// out\n        /* \"#utility.yul\":33929:34348   */\n    tag_242:\n        /* \"#utility.yul\":34095:34099   */\n      0x00\n        /* \"#utility.yul\":34133:34135   */\n      0x20\n        /* \"#utility.yul\":34122:34131   */\n      dup3\n        /* \"#utility.yul\":34118:34136   */\n      add\n        /* \"#utility.yul\":34110:34136   */\n      swap1\n      pop\n        /* \"#utility.yul\":34182:34191   */\n      dup2\n        /* \"#utility.yul\":34176:34180   */\n      dup2\n        /* \"#utility.yul\":34172:34192   */\n      sub\n        /* \"#utility.yul\":34168:34169   */\n      0x00\n        /* \"#utility.yul\":34157:34166   */\n      dup4\n        /* \"#utility.yul\":34153:34170   */\n      add\n        /* \"#utility.yul\":34146:34193   */\n      mstore\n        /* \"#utility.yul\":34210:34341   */\n      tag_726\n        /* \"#utility.yul\":34336:34340   */\n      dup2\n        /* \"#utility.yul\":34210:34341   */\n      tag_401\n      jump\t// in\n    tag_726:\n        /* \"#utility.yul\":34202:34341   */\n      swap1\n      pop\n        /* \"#utility.yul\":33929:34348   */\n      swap2\n      swap1\n      pop\n      jump\t// out\n        /* \"#utility.yul\":34354:34524   */\n    tag_402:\n        /* \"#utility.yul\":34494:34516   */\n      0x5365742073746172742074696d65206669727374000000000000000000000000\n        /* \"#utility.yul\":34490:34491   */\n      0x00\n        /* \"#utility.yul\":34482:34488   */\n      dup3\n        /* \"#utility.yul\":34478:34492   */\n      add\n        /* \"#utility.yul\":34471:34517   */\n      mstore\n        /* \"#utility.yul\":34354:34524   */\n      pop\n      jump\t// out\n        /* \"#utility.yul\":34530:34896   */\n    tag_403:\n        /* \"#utility.yul\":34672:34675   */\n      0x00\n        /* \"#utility.yul\":34693:34760   */\n      tag_729\n        /* \"#utility.yul\":34757:34759   */\n      0x14\n        /* \"#utility.yul\":34752:34755   */\n      dup4\n        /* \"#utility.yul\":34693:34760   */\n      tag_341\n      jump\t// in\n    tag_729:\n        /* \"#utility.yul\":34686:34760   */\n      swap2\n      pop\n        /* \"#utility.yul\":34769:34862   */\n      tag_730\n        /* \"#utility.yul\":34858:34861   */\n      dup3\n        /* \"#utility.yul\":34769:34862   */\n      tag_402\n      jump\t// in\n    tag_730:\n        /* \"#utility.yul\":34887:34889   */\n      0x20\n        /* \"#utility.yul\":34882:34885   */\n      dup3\n        /* \"#utility.yul\":34878:34890   */\n      add\n        /* \"#utility.yul\":34871:34890   */\n      swap1\n      pop\n        /* \"#utility.yul\":34530:34896   */\n      swap2\n      swap1\n      pop\n      jump\t// out\n        /* \"#utility.yul\":34902:35321   */\n    tag_246:\n        /* \"#utility.yul\":35068:35072   */\n      0x00\n        /* \"#utility.yul\":35106:35108   */\n      0x20\n        /* \"#utility.yul\":35095:35104   */\n      dup3\n        /* \"#utility.yul\":35091:35109   */\n      add\n        /* \"#utility.yul\":35083:35109   */\n      swap1\n      pop\n        /* \"#utility.yul\":35155:35164   */\n      dup2\n        /* \"#utility.yul\":35149:35153   */\n      dup2\n        /* \"#utility.yul\":35145:35165   */\n      sub\n        /* \"#utility.yul\":35141:35142   */\n      0x00\n        /* \"#utility.yul\":35130:35139   */\n      dup4\n        /* \"#utility.yul\":35126:35143   */\n      add\n        /* \"#utility.yul\":35119:35166   */\n      mstore\n        /* \"#utility.yul\":35183:35314   */\n      tag_732\n        /* \"#utility.yul\":35309:35313   */\n      dup2\n        /* \"#utility.yul\":35183:35314   */\n      tag_403\n      jump\t// in\n    tag_732:\n        /* \"#utility.yul\":35175:35314   */\n      swap1\n      pop\n        /* \"#utility.yul\":34902:35321   */\n      swap2\n      swap1\n      pop\n      jump\t// out\n        /* \"#utility.yul\":35327:35496   */\n    tag_404:\n        /* \"#utility.yul\":35467:35488   */\n      0x456c656374696f6e2077696c6c206c6173742000000000000000000000000000\n        /* \"#utility.yul\":35463:35464   */\n      0x00\n        /* \"#utility.yul\":35455:35461   */\n      dup3\n        /* \"#utility.yul\":35451:35465   */\n      add\n        /* \"#utility.yul\":35444:35489   */\n      mstore\n        /* \"#utility.yul\":35327:35496   */\n      pop\n      jump\t// out\n        /* \"#utility.yul\":35502:35904   */\n    tag_405:\n        /* \"#utility.yul\":35662:35665   */\n      0x00\n        /* \"#utility.yul\":35683:35768   */\n      tag_735\n        /* \"#utility.yul\":35765:35767   */\n      0x13\n        /* \"#utility.yul\":35760:35763   */\n      dup4\n        /* \"#utility.yul\":35683:35768   */\n      tag_370\n      jump\t// in\n    tag_735:\n        /* \"#utility.yul\":35676:35768   */\n      swap2\n      pop\n        /* \"#utility.yul\":35777:35870   */\n      tag_736\n        /* \"#utility.yul\":35866:35869   */\n      dup3\n        /* \"#utility.yul\":35777:35870   */\n      tag_404\n      jump\t// in\n    tag_736:\n        /* \"#utility.yul\":35895:35897   */\n      0x13\n        /* \"#utility.yul\":35890:35893   */\n      dup3\n        /* \"#utility.yul\":35886:35898   */\n      add\n        /* \"#utility.yul\":35879:35898   */\n      swap1\n      pop\n        /* \"#utility.yul\":35502:35904   */\n      swap2\n      swap1\n      pop\n      jump\t// out\n        /* \"#utility.yul\":35910:36068   */\n    tag_406:\n        /* \"#utility.yul\":36050:36060   */\n      0x6d696e757465732e000000000000000000000000000000000000000000000000\n        /* \"#utility.yul\":36046:36047   */\n      0x00\n        /* \"#utility.yul\":36038:36044   */\n      dup3\n        /* \"#utility.yul\":36034:36048   */\n      add\n        /* \"#utility.yul\":36027:36061   */\n      mstore\n        /* \"#utility.yul\":35910:36068   */\n      pop\n      jump\t// out\n        /* \"#utility.yul\":36074:36474   */\n    tag_407:\n        /* \"#utility.yul\":36234:36237   */\n      0x00\n        /* \"#utility.yul\":36255:36339   */\n      tag_739\n        /* \"#utility.yul\":36337:36338   */\n      0x08\n        /* \"#utility.yul\":36332:36335   */\n      dup4\n        /* \"#utility.yul\":36255:36339   */\n      tag_370\n      jump\t// in\n    tag_739:\n        /* \"#utility.yul\":36248:36339   */\n      swap2\n      pop\n        /* \"#utility.yul\":36348:36441   */\n      tag_740\n        /* \"#utility.yul\":36437:36440   */\n      dup3\n        /* \"#utility.yul\":36348:36441   */\n      tag_406\n      jump\t// in\n    tag_740:\n        /* \"#utility.yul\":36466:36467   */\n      0x08\n        /* \"#utility.yul\":36461:36464   */\n      dup3\n        /* \"#utility.yul\":36457:36468   */\n      add\n        /* \"#utility.yul\":36450:36468   */\n      swap1\n      pop\n        /* \"#utility.yul\":36074:36474   */\n      swap2\n      swap1\n      pop\n      jump\t// out\n        /* \"#utility.yul\":36480:37268   */\n    tag_250:\n        /* \"#utility.yul\":36794:36797   */\n      0x00\n        /* \"#utility.yul\":36816:36964   */\n      tag_742\n        /* \"#utility.yul\":36960:36963   */\n      dup3\n        /* \"#utility.yul\":36816:36964   */\n      tag_405\n      jump\t// in\n    tag_742:\n        /* \"#utility.yul\":36809:36964   */\n      swap2\n      pop\n        /* \"#utility.yul\":36974:37049   */\n      tag_743\n        /* \"#utility.yul\":37045:37048   */\n      dup3\n        /* \"#utility.yul\":37036:37042   */\n      dup5\n        /* \"#utility.yul\":36974:37049   */\n      tag_374\n      jump\t// in\n    tag_743:\n        /* \"#utility.yul\":37074:37076   */\n      0x20\n        /* \"#utility.yul\":37069:37072   */\n      dup3\n        /* \"#utility.yul\":37065:37077   */\n      add\n        /* \"#utility.yul\":37058:37077   */\n      swap2\n      pop\n        /* \"#utility.yul\":37094:37242   */\n      tag_744\n        /* \"#utility.yul\":37238:37241   */\n      dup3\n        /* \"#utility.yul\":37094:37242   */\n      tag_407\n      jump\t// in\n    tag_744:\n        /* \"#utility.yul\":37087:37242   */\n      swap2\n      pop\n        /* \"#utility.yul\":37259:37262   */\n      dup2\n        /* \"#utility.yul\":37252:37262   */\n      swap1\n      pop\n        /* \"#utility.yul\":36480:37268   */\n      swap3\n      swap2\n      pop\n      pop\n      jump\t// out\n        /* \"#utility.yul\":37274:37443   */\n    tag_408:\n        /* \"#utility.yul\":37414:37435   */\n      0x4e6f20656c656374696f6e206f6e676f696e6700000000000000000000000000\n        /* \"#utility.yul\":37410:37411   */\n      0x00\n        /* \"#utility.yul\":37402:37408   */\n      dup3\n        /* \"#utility.yul\":37398:37412   */\n      add\n        /* \"#utility.yul\":37391:37436   */\n      mstore\n        /* \"#utility.yul\":37274:37443   */\n      pop\n      jump\t// out\n        /* \"#utility.yul\":37449:37815   */\n    tag_409:\n        /* \"#utility.yul\":37591:37594   */\n      0x00\n        /* \"#utility.yul\":37612:37679   */\n      tag_747\n        /* \"#utility.yul\":37676:37678   */\n      0x13\n        /* \"#utility.yul\":37671:37674   */\n      dup4\n        /* \"#utility.yul\":37612:37679   */\n      tag_341\n      jump\t// in\n    tag_747:\n        /* \"#utility.yul\":37605:37679   */\n      swap2\n      pop\n        /* \"#utility.yul\":37688:37781   */\n      tag_748\n        /* \"#utility.yul\":37777:37780   */\n      dup3\n        /* \"#utility.yul\":37688:37781   */\n      tag_408\n      jump\t// in\n    tag_748:\n        /* \"#utility.yul\":37806:37808   */\n      0x20\n        /* \"#utility.yul\":37801:37804   */\n      dup3\n        /* \"#utility.yul\":37797:37809   */\n      add\n        /* \"#utility.yul\":37790:37809   */\n      swap1\n      pop\n        /* \"#utility.yul\":37449:37815   */\n      swap2\n      swap1\n      pop\n      jump\t// out\n        /* \"#utility.yul\":37821:38240   */\n    tag_259:\n        /* \"#utility.yul\":37987:37991   */\n      0x00\n        /* \"#utility.yul\":38025:38027   */\n      0x20\n        /* \"#utility.yul\":38014:38023   */\n      dup3\n        /* \"#utility.yul\":38010:38028   */\n      add\n        /* \"#utility.yul\":38002:38028   */\n      swap1\n      pop\n        /* \"#utility.yul\":38074:38083   */\n      dup2\n        /* \"#utility.yul\":38068:38072   */\n      dup2\n        /* \"#utility.yul\":38064:38084   */\n      sub\n        /* \"#utility.yul\":38060:38061   */\n      0x00\n        /* \"#utility.yul\":38049:38058   */\n      dup4\n        /* \"#utility.yul\":38045:38062   */\n      add\n        /* \"#utility.yul\":38038:38085   */\n      mstore\n        /* \"#utility.yul\":38102:38233   */\n      tag_750\n        /* \"#utility.yul\":38228:38232   */\n      dup2\n        /* \"#utility.yul\":38102:38233   */\n      tag_409\n      jump\t// in\n    tag_750:\n        /* \"#utility.yul\":38094:38233   */\n      swap1\n      pop\n        /* \"#utility.yul\":37821:38240   */\n      swap2\n      swap1\n      pop\n      jump\t// out\n        /* \"#utility.yul\":38246:38415   */\n    tag_410:\n        /* \"#utility.yul\":38386:38407   */\n      0x496e76616c696420766f74657220696e64657800000000000000000000000000\n        /* \"#utility.yul\":38382:38383   */\n      0x00\n        /* \"#utility.yul\":38374:38380   */\n      dup3\n        /* \"#utility.yul\":38370:38384   */\n      add\n        /* \"#utility.yul\":38363:38408   */\n      mstore\n        /* \"#utility.yul\":38246:38415   */\n      pop\n      jump\t// out\n        /* \"#utility.yul\":38421:38787   */\n    tag_411:\n        /* \"#utility.yul\":38563:38566   */\n      0x00\n        /* \"#utility.yul\":38584:38651   */\n      tag_753\n        /* \"#utility.yul\":38648:38650   */\n      0x13\n        /* \"#utility.yul\":38643:38646   */\n      dup4\n        /* \"#utility.yul\":38584:38651   */\n      tag_341\n      jump\t// in\n    tag_753:\n        /* \"#utility.yul\":38577:38651   */\n      swap2\n      pop\n        /* \"#utility.yul\":38660:38753   */\n      tag_754\n        /* \"#utility.yul\":38749:38752   */\n      dup3\n        /* \"#utility.yul\":38660:38753   */\n      tag_410\n      jump\t// in\n    tag_754:\n        /* \"#utility.yul\":38778:38780   */\n      0x20\n        /* \"#utility.yul\":38773:38776   */\n      dup3\n        /* \"#utility.yul\":38769:38781   */\n      add\n        /* \"#utility.yul\":38762:38781   */\n      swap1\n      pop\n        /* \"#utility.yul\":38421:38787   */\n      swap2\n      swap1\n      pop\n      jump\t// out\n        /* \"#utility.yul\":38793:39212   */\n    tag_262:\n        /* \"#utility.yul\":38959:38963   */\n      0x00\n        /* \"#utility.yul\":38997:38999   */\n      0x20\n        /* \"#utility.yul\":38986:38995   */\n      dup3\n        /* \"#utility.yul\":38982:39000   */\n      add\n        /* \"#utility.yul\":38974:39000   */\n      swap1\n      pop\n        /* \"#utility.yul\":39046:39055   */\n      dup2\n        /* \"#utility.yul\":39040:39044   */\n      dup2\n        /* \"#utility.yul\":39036:39056   */\n      sub\n        /* \"#utility.yul\":39032:39033   */\n      0x00\n        /* \"#utility.yul\":39021:39030   */\n      dup4\n        /* \"#utility.yul\":39017:39034   */\n      add\n        /* \"#utility.yul\":39010:39057   */\n      mstore\n        /* \"#utility.yul\":39074:39205   */\n      tag_756\n        /* \"#utility.yul\":39200:39204   */\n      dup2\n        /* \"#utility.yul\":39074:39205   */\n      tag_411\n      jump\t// in\n    tag_756:\n        /* \"#utility.yul\":39066:39205   */\n      swap1\n      pop\n        /* \"#utility.yul\":38793:39212   */\n      swap2\n      swap1\n      pop\n      jump\t// out\n        /* \"#utility.yul\":39218:39389   */\n    tag_412:\n        /* \"#utility.yul\":39358:39381   */\n      0x566f746572206973206e6f7420656c696769626c650000000000000000000000\n        /* \"#utility.yul\":39354:39355   */\n      0x00\n        /* \"#utility.yul\":39346:39352   */\n      dup3\n        /* \"#utility.yul\":39342:39356   */\n      add\n        /* \"#utility.yul\":39335:39382   */\n      mstore\n        /* \"#utility.yul\":39218:39389   */\n      pop\n      jump\t// out\n        /* \"#utility.yul\":39395:39761   */\n    tag_413:\n        /* \"#utility.yul\":39537:39540   */\n      0x00\n        /* \"#utility.yul\":39558:39625   */\n      tag_759\n        /* \"#utility.yul\":39622:39624   */\n      0x15\n        /* \"#utility.yul\":39617:39620   */\n      dup4\n        /* \"#utility.yul\":39558:39625   */\n      tag_341\n      jump\t// in\n    tag_759:\n        /* \"#utility.yul\":39551:39625   */\n      swap2\n      pop\n        /* \"#utility.yul\":39634:39727   */\n      tag_760\n        /* \"#utility.yul\":39723:39726   */\n      dup3\n        /* \"#utility.yul\":39634:39727   */\n      tag_412\n      jump\t// in\n    tag_760:\n        /* \"#utility.yul\":39752:39754   */\n      0x20\n        /* \"#utility.yul\":39747:39750   */\n      dup3\n        /* \"#utility.yul\":39743:39755   */\n      add\n        /* \"#utility.yul\":39736:39755   */\n      swap1\n      pop\n        /* \"#utility.yul\":39395:39761   */\n      swap2\n      swap1\n      pop\n      jump\t// out\n        /* \"#utility.yul\":39767:40186   */\n    tag_268:\n        /* \"#utility.yul\":39933:39937   */\n      0x00\n        /* \"#utility.yul\":39971:39973   */\n      0x20\n        /* \"#utility.yul\":39960:39969   */\n      dup3\n        /* \"#utility.yul\":39956:39974   */\n      add\n        /* \"#utility.yul\":39948:39974   */\n      swap1\n      pop\n        /* \"#utility.yul\":40020:40029   */\n      dup2\n        /* \"#utility.yul\":40014:40018   */\n      dup2\n        /* \"#utility.yul\":40010:40030   */\n      sub\n        /* \"#utility.yul\":40006:40007   */\n      0x00\n        /* \"#utility.yul\":39995:40004   */\n      dup4\n        /* \"#utility.yul\":39991:40008   */\n      add\n        /* \"#utility.yul\":39984:40031   */\n      mstore\n        /* \"#utility.yul\":40048:40179   */\n      tag_762\n        /* \"#utility.yul\":40174:40178   */\n      dup2\n        /* \"#utility.yul\":40048:40179   */\n      tag_413\n      jump\t// in\n    tag_762:\n        /* \"#utility.yul\":40040:40179   */\n      swap1\n      pop\n        /* \"#utility.yul\":39767:40186   */\n      swap2\n      swap1\n      pop\n      jump\t// out\n        /* \"#utility.yul\":40192:40365   */\n    tag_414:\n        /* \"#utility.yul\":40332:40357   */\n      0x566f7465722068617320616c726561647920766f746564000000000000000000\n        /* \"#utility.yul\":40328:40329   */\n      0x00\n        /* \"#utility.yul\":40320:40326   */\n      dup3\n        /* \"#utility.yul\":40316:40330   */\n      add\n        /* \"#utility.yul\":40309:40358   */\n      mstore\n        /* \"#utility.yul\":40192:40365   */\n      pop\n      jump\t// out\n        /* \"#utility.yul\":40371:40737   */\n    tag_415:\n        /* \"#utility.yul\":40513:40516   */\n      0x00\n        /* \"#utility.yul\":40534:40601   */\n      tag_765\n        /* \"#utility.yul\":40598:40600   */\n      0x17\n        /* \"#utility.yul\":40593:40596   */\n      dup4\n        /* \"#utility.yul\":40534:40601   */\n      tag_341\n      jump\t// in\n    tag_765:\n        /* \"#utility.yul\":40527:40601   */\n      swap2\n      pop\n        /* \"#utility.yul\":40610:40703   */\n      tag_766\n        /* \"#utility.yul\":40699:40702   */\n      dup3\n        /* \"#utility.yul\":40610:40703   */\n      tag_414\n      jump\t// in\n    tag_766:\n        /* \"#utility.yul\":40728:40730   */\n      0x20\n        /* \"#utility.yul\":40723:40726   */\n      dup3\n        /* \"#utility.yul\":40719:40731   */\n      add\n        /* \"#utility.yul\":40712:40731   */\n      swap1\n      pop\n        /* \"#utility.yul\":40371:40737   */\n      swap2\n      swap1\n      pop\n      jump\t// out\n        /* \"#utility.yul\":40743:41162   */\n    tag_274:\n        /* \"#utility.yul\":40909:40913   */\n      0x00\n        /* \"#utility.yul\":40947:40949   */\n      0x20\n        /* \"#utility.yul\":40936:40945   */\n      dup3\n        /* \"#utility.yul\":40932:40950   */\n      add\n        /* \"#utility.yul\":40924:40950   */\n      swap1\n      pop\n        /* \"#utility.yul\":40996:41005   */\n      dup2\n        /* \"#utility.yul\":40990:40994   */\n      dup2\n        /* \"#utility.yul\":40986:41006   */\n      sub\n        /* \"#utility.yul\":40982:40983   */\n      0x00\n        /* \"#utility.yul\":40971:40980   */\n      dup4\n        /* \"#utility.yul\":40967:40984   */\n      add\n        /* \"#utility.yul\":40960:41007   */\n      mstore\n        /* \"#utility.yul\":41024:41155   */\n      tag_768\n        /* \"#utility.yul\":41150:41154   */\n      dup2\n        /* \"#utility.yul\":41024:41155   */\n      tag_415\n      jump\t// in\n    tag_768:\n        /* \"#utility.yul\":41016:41155   */\n      swap1\n      pop\n        /* \"#utility.yul\":40743:41162   */\n      swap2\n      swap1\n      pop\n      jump\t// out\n        /* \"#utility.yul\":41168:41342   */\n    tag_416:\n        /* \"#utility.yul\":41308:41334   */\n      0x496e76616c696420636f6e74657374616e7420696e6465780000000000000000\n        /* \"#utility.yul\":41304:41305   */\n      0x00\n        /* \"#utility.yul\":41296:41302   */\n      dup3\n        /* \"#utility.yul\":41292:41306   */\n      add\n        /* \"#utility.yul\":41285:41335   */\n      mstore\n        /* \"#utility.yul\":41168:41342   */\n      pop\n      jump\t// out\n        /* \"#utility.yul\":41348:41714   */\n    tag_417:\n        /* \"#utility.yul\":41490:41493   */\n      0x00\n        /* \"#utility.yul\":41511:41578   */\n      tag_771\n        /* \"#utility.yul\":41575:41577   */\n      0x18\n        /* \"#utility.yul\":41570:41573   */\n      dup4\n        /* \"#utility.yul\":41511:41578   */\n      tag_341\n      jump\t// in\n    tag_771:\n        /* \"#utility.yul\":41504:41578   */\n      swap2\n      pop\n        /* \"#utility.yul\":41587:41680   */\n      tag_772\n        /* \"#utility.yul\":41676:41679   */\n      dup3\n        /* \"#utility.yul\":41587:41680   */\n      tag_416\n      jump\t// in\n    tag_772:\n        /* \"#utility.yul\":41705:41707   */\n      0x20\n        /* \"#utility.yul\":41700:41703   */\n      dup3\n        /* \"#utility.yul\":41696:41708   */\n      add\n        /* \"#utility.yul\":41689:41708   */\n      swap1\n      pop\n        /* \"#utility.yul\":41348:41714   */\n      swap2\n      swap1\n      pop\n      jump\t// out\n        /* \"#utility.yul\":41720:42139   */\n    tag_277:\n        /* \"#utility.yul\":41886:41890   */\n      0x00\n        /* \"#utility.yul\":41924:41926   */\n      0x20\n        /* \"#utility.yul\":41913:41922   */\n      dup3\n        /* \"#utility.yul\":41909:41927   */\n      add\n        /* \"#utility.yul\":41901:41927   */\n      swap1\n      pop\n        /* \"#utility.yul\":41973:41982   */\n      dup2\n        /* \"#utility.yul\":41967:41971   */\n      dup2\n        /* \"#utility.yul\":41963:41983   */\n      sub\n        /* \"#utility.yul\":41959:41960   */\n      0x00\n        /* \"#utility.yul\":41948:41957   */\n      dup4\n        /* \"#utility.yul\":41944:41961   */\n      add\n        /* \"#utility.yul\":41937:41984   */\n      mstore\n        /* \"#utility.yul\":42001:42132   */\n      tag_774\n        /* \"#utility.yul\":42127:42131   */\n      dup2\n        /* \"#utility.yul\":42001:42132   */\n      tag_417\n      jump\t// in\n    tag_774:\n        /* \"#utility.yul\":41993:42132   */\n      swap1\n      pop\n        /* \"#utility.yul\":41720:42139   */\n      swap2\n      swap1\n      pop\n      jump\t// out\n        /* \"#utility.yul\":42145:42378   */\n    tag_282:\n        /* \"#utility.yul\":42184:42187   */\n      0x00\n        /* \"#utility.yul\":42207:42231   */\n      tag_776\n        /* \"#utility.yul\":42225:42230   */\n      dup3\n        /* \"#utility.yul\":42207:42231   */\n      tag_326\n      jump\t// in\n    tag_776:\n        /* \"#utility.yul\":42198:42231   */\n      swap2\n      pop\n        /* \"#utility.yul\":42253:42319   */\n      0xffffffffffffffffffffffffffffffffffffffffffffffffffffffffffffffff\n        /* \"#utility.yul\":42246:42251   */\n      dup3\n        /* \"#utility.yul\":42243:42320   */\n      sub\n        /* \"#utility.yul\":42240:42343   */\n      tag_777\n      jumpi\n        /* \"#utility.yul\":42323:42341   */\n      tag_778\n      tag_369\n      jump\t// in\n    tag_778:\n        /* \"#utility.yul\":42240:42343   */\n    tag_777:\n        /* \"#utility.yul\":42370:42371   */\n      0x01\n        /* \"#utility.yul\":42363:42368   */\n      dup3\n        /* \"#utility.yul\":42359:42372   */\n      add\n        /* \"#utility.yul\":42352:42372   */\n      swap1\n      pop\n        /* \"#utility.yul\":42145:42378   */\n      swap2\n      swap1\n      pop\n      jump\t// out\n        /* \"#utility.yul\":42384:42559   */\n    tag_284:\n        /* \"#utility.yul\":42422:42425   */\n      0x00\n        /* \"#utility.yul\":42445:42468   */\n      tag_780\n        /* \"#utility.yul\":42462:42467   */\n      dup3\n        /* \"#utility.yul\":42445:42468   */\n      tag_321\n      jump\t// in\n    tag_780:\n        /* \"#utility.yul\":42436:42468   */\n      swap2\n      pop\n        /* \"#utility.yul\":42490:42500   */\n      0xffffffff\n        /* \"#utility.yul\":42483:42488   */\n      dup3\n        /* \"#utility.yul\":42480:42501   */\n      sub\n        /* \"#utility.yul\":42477:42524   */\n      tag_781\n      jumpi\n        /* \"#utility.yul\":42504:42522   */\n      tag_782\n      tag_369\n      jump\t// in\n    tag_782:\n        /* \"#utility.yul\":42477:42524   */\n    tag_781:\n        /* \"#utility.yul\":42551:42552   */\n      0x01\n        /* \"#utility.yul\":42544:42549   */\n      dup3\n        /* \"#utility.yul\":42540:42553   */\n      add\n        /* \"#utility.yul\":42533:42553   */\n      swap1\n      pop\n        /* \"#utility.yul\":42384:42559   */\n      swap2\n      swap1\n      pop\n      jump\t// out\n\n    auxdata: 0xa2646970667358221220d743ea73b2d5d29bbf3820633be0077c7a88c02759cc0b27185f7f51b511d05d64736f6c634300081c0033\n}\n",
				"bytecode": {
					"linkReferences": {},
					"object": "608060405234801561000f575f5ffd5b5061001e61002360201b60201c565b6102a2565b600580805490501061006a576040517f08c379a0000000000000000000000000000000000000000000000000000000008152600401610061906101ef565b60405180910390fd5b5f5f90505b600580549050811015610132573373ffffffffffffffffffffffffffffffffffffffff16600582815481106100a7576100a661020d565b5b905f5260205f20015f9054906101000a900473ffffffffffffffffffffffffffffffffffffffff1673ffffffffffffffffffffffffffffffffffffffff1603610125576040517f08c379a000000000000000000000000000000000000000000000000000000000815260040161011c90610284565b60405180910390fd5b808060010191505061006f565b50600533908060018154018082558091505060019003905f5260205f20015f9091909190916101000a81548173ffffffffffffffffffffffffffffffffffffffff021916908373ffffffffffffffffffffffffffffffffffffffff160217905550565b5f82825260208201905092915050565b7f41646d696e206c696d69742072656163686564000000000000000000000000005f82015250565b5f6101d9601383610195565b91506101e4826101a5565b602082019050919050565b5f6020820190508181035f830152610206816101cd565b9050919050565b7f4e487b71000000000000000000000000000000000000000000000000000000005f52603260045260245ffd5b7f41646d696e20616c7265616479207265676973746572656400000000000000005f82015250565b5f61026e601883610195565b91506102798261023a565b602082019050919050565b5f6020820190508181035f83015261029b81610262565b9050919050565b612e6d806102af5f395ff3fe608060405234801561000f575f5ffd5b5060043610610109575f3560e01c806359f78468116100a05780638bd23ebc1161006f5780638bd23ebc146102a7578063b384abef146102d7578063b7e03264146102f3578063da58c7d914610311578063dfd50f521461034557610109565b806359f784681461021f5780635df813301461022957806386d39d071461025957806387608aad1461028957610109565b806327c5b5cc116100dc57806327c5b5cc14610197578063408e2727146101c7578063498d55b8146101e55780634b8e3a26146101ef57610109565b80631400649e1461010d57806314bfd6d01461012b5780631ea736e01461015b5780632019a60814610179575b5f5ffd5b610115610378565b60405161012291906119b2565b60405180910390f35b61014560048036038101906101409190611a06565b61038c565b6040516101529190611a70565b60405180910390f35b6101636103c7565b6040516101709190611a98565b60405180910390f35b6101816103cd565b60405161018e9190611a98565b60405180910390f35b6101b160048036038101906101ac9190611b48565b6103d3565b6040516101be9190611c49565b60405180910390f35b6101cf6106fa565b6040516101dc9190611c83565b60405180910390f35b6101ed61070c565b005b61020960048036038101906102049190611a06565b61087e565b6040516102169190611c49565b60405180910390f35b610227610972565b005b610243600480360381019061023e9190611a06565b610c30565b6040516102509190611a98565b60405180910390f35b610273600480360381019061026e9190611c9c565b610c45565b6040516102809190611c49565b60405180910390f35b61029161110d565b60405161029e9190611c83565b60405180910390f35b6102c160048036038101906102bc9190611a06565b61126e565b6040516102ce9190611c49565b60405180910390f35b6102f160048036038101906102ec9190611d60565b6112fb565b005b6102fb6115b9565b6040516103089190611c49565b60405180910390f35b61032b60048036038101906103269190611a06565b611649565b60405161033c959493929190611dad565b60405180910390f35b61035f600480360381019061035a9190611a06565b6117bb565b60405161036f9493929190611e0c565b60405180910390f35b5f5f9054906101000a900463ffffffff1681565b6005818154811061039b575f80fd5b905f5260205f20015f915054906101000a900473ffffffffffffffffffffffffffffffffffffffff1681565b60025481565b60015481565b60605f5f90505f5f90505b60058054905081101561046f57600581815481106103ff576103fe611e64565b5b905f5260205f20015f9054906101000a900473ffffffffffffffffffffffffffffffffffffffff1673ffffffffffffffffffffffffffffffffffffffff163373ffffffffffffffffffffffffffffffffffffffff1603610462576001915061046f565b80806001019150506103de565b50806104b0576040517f08c379a00000000000000000000000000000000000000000000000000000000081526004016104a790611edb565b60405180910390fd5b5f600154141580156104c3575042600154105b80156104d0575042600254115b156104f457600160035f6101000a81548160ff02191690831515021790555061050e565b5f60035f6101000a81548160ff0219169083151502179055505b60128560ff161015610555576040517f08c379a000000000000000000000000000000000000000000000000000000000815260040161054c90611f43565b60405180910390fd5b60076040518060a0016040528089898080601f0160208091040260200160405190810160405280939291908181526020018383808284375f81840152601f19601f8201169050808301925050505050505081526020018760ff16815260200186868080601f0160208091040260200160405190810160405280939291908181526020018383808284375f81840152601f19601f8201169050808301925050505050505081526020015f1515815260200160011515815250908060018154018082558091505060019003905f5260205f2090600402015f909190919091505f820151815f019081610645919061218b565b506020820151816001015f6101000a81548160ff021916908360ff160217905550604082015181600201908161067b919061218b565b506060820151816003015f6101000a81548160ff02191690831515021790555060808201518160030160016101000a81548160ff021916908315150217905550505060016007805490506106cf9190612287565b6040516020016106df919061232e565b60405160208183030381529060405291505095945050505050565b60035f9054906101000a900460ff1681565b6005808054905010610753576040517f08c379a000000000000000000000000000000000000000000000000000000000815260040161074a9061239d565b60405180910390fd5b5f5f90505b60058054905081101561081b573373ffffffffffffffffffffffffffffffffffffffff16600582815481106107905761078f611e64565b5b905f5260205f20015f9054906101000a900473ffffffffffffffffffffffffffffffffffffffff1673ffffffffffffffffffffffffffffffffffffffff160361080e576040517f08c379a000000000000000000000000000000000000000000000000000000000815260040161080590612405565b60405180910390fd5b8080600101915050610758565b50600533908060018154018082558091505060019003905f5260205f20015f9091909190916101000a81548173ffffffffffffffffffffffffffffffffffffffff021916908373ffffffffffffffffffffffffffffffffffffffff160217905550565b60605f60015414158015610893575042600154105b80156108a0575042600254115b156108c457600160035f6101000a81548160ff0219169083151502179055506108de565b5f60035f6101000a81548160ff0219169083151502179055505b60035f9054906101000a900460ff161561092d576040517f08c379a000000000000000000000000000000000000000000000000000000000815260040161092490612493565b60405180910390fd5b603c8261093a91906124b1565b4261094591906124f2565b6001819055508160405160200161095c91906125b9565b6040516020818303038152906040529050919050565b5f5f90505f5f90505b600580549050811015610a0c576005818154811061099c5761099b611e64565b5b905f5260205f20015f9054906101000a900473ffffffffffffffffffffffffffffffffffffffff1673ffffffffffffffffffffffffffffffffffffffff163373ffffffffffffffffffffffffffffffffffffffff16036109ff5760019150610a0c565b808060010191505061097b565b5080610a4d576040517f08c379a0000000000000000000000000000000000000000000000000000000008152600401610a4490611edb565b60405180910390fd5b5f60015414158015610a60575042600154105b8015610a6d575042600254115b15610a9157600160035f6101000a81548160ff021916908315150217905550610aab565b5f60035f6101000a81548160ff0219169083151502179055505b60035f9054906101000a900460ff16610af9576040517f08c379a0000000000000000000000000000000000000000000000000000000008152600401610af090612633565b60405180910390fd5b426002819055505f60035f6101000a81548160ff0219169083151502179055505f5f90505f5f90505f5f90505f5f90505b600680549050811015610bb7578360085f8381526020019081526020015f20541115610b6f5760085f8281526020019081526020015f205493508092505f9150610baa565b8360085f8381526020019081526020015f2054148015610b9f57505f60085f8381526020019081526020015f2054115b15610ba957600191505b5b8080600101915050610b2a565b508015610bf9576040517f08c379a0000000000000000000000000000000000000000000000000000000008152600401610bf0906126c1565b60405180910390fd5b60068281548110610c0d57610c0c611e64565b5b905f5260205f2090600402015f0160049081610c299190612706565b5050505050565b6008602052805f5260405f205f915090505481565b60605f5f90505f5f90505b600580549050811015610ce15760058181548110610c7157610c70611e64565b5b905f5260205f20015f9054906101000a900473ffffffffffffffffffffffffffffffffffffffff1673ffffffffffffffffffffffffffffffffffffffff163373ffffffffffffffffffffffffffffffffffffffff1603610cd45760019150610ce1565b8080600101915050610c50565b5080610d22576040517f08c379a0000000000000000000000000000000000000000000000000000000008152600401610d1990611edb565b60405180910390fd5b5f60015414158015610d35575042600154105b8015610d42575042600254115b15610d6657600160035f6101000a81548160ff021916908315150217905550610d80565b5f60035f6101000a81548160ff0219169083151502179055505b60035f9054906101000a900460ff1615610dcf576040517f08c379a0000000000000000000000000000000000000000000000000000000008152600401610dc69061285b565b60405180910390fd5b5f5f90505b600680549050811015610f51578989604051602001610df49291906128ab565b6040516020818303038152906040528051906020012060068281548110610e1e57610e1d611e64565b5b905f5260205f2090600402015f01604051602001610e3c9190612943565b6040516020818303038152906040528051906020012003610e92576040517f08c379a0000000000000000000000000000000000000000000000000000000008152600401610e89906129a3565b60405180910390fd5b8686604051602001610ea59291906128ab565b6040516020818303038152906040528051906020012060068281548110610ecf57610ece611e64565b5b905f5260205f209060040201600201604051602001610eee9190612943565b6040516020818303038152906040528051906020012003610f44576040517f08c379a0000000000000000000000000000000000000000000000000000000008152600401610f3b90612a0b565b60405180910390fd5b8080600101915050610dd4565b50600660405180608001604052808b8b8080601f0160208091040260200160405190810160405280939291908181526020018383808284375f81840152601f19601f8201169050808301925050505050505081526020018960ff16815260200188888080601f0160208091040260200160405190810160405280939291908181526020018383808284375f81840152601f19601f82011690508083019250505050505050815260200186868080601f0160208091040260200160405190810160405280939291908181526020018383808284375f81840152601f19601f82011690508083019250505050505050815250908060018154018082558091505060019003905f5260205f2090600402015f909190919091505f820151815f01908161107a919061218b565b506020820151816001015f6101000a81548160ff021916908360ff16021790555060408201518160020190816110b0919061218b565b5060608201518160030190816110c6919061218b565b5050506040518060400160405280600781526020017f7375636365737300000000000000000000000000000000000000000000000000815250915050979650505050505050565b5f5f5f90505f5f90505b6005805490508110156111a8576005818154811061113857611137611e64565b5b905f5260205f20015f9054906101000a900473ffffffffffffffffffffffffffffffffffffffff1673ffffffffffffffffffffffffffffffffffffffff163373ffffffffffffffffffffffffffffffffffffffff160361119b57600191506111a8565b8080600101915050611117565b50806111e9576040517f08c379a00000000000000000000000000000000000000000000000000000000081526004016111e090611edb565b60405180910390fd5b60035f9054906101000a900460ff1615611238576040517f08c379a000000000000000000000000000000000000000000000000000000000815260040161122f90612a73565b60405180910390fd5b42600181905550600160035f6101000a81548160ff02191690831515021790555060035f9054906101000a900460ff1691505090565b60605f600154036112b4576040517f08c379a00000000000000000000000000000000000000000000000000000000081526004016112ab90612adb565b60405180910390fd5b603c826112c191906124b1565b6001546112ce91906124f2565b600281905550816040516020016112e59190612b8d565b6040516020818303038152906040529050919050565b5f6001541415801561130e575042600154105b801561131b575042600254115b1561133f57600160035f6101000a81548160ff021916908315150217905550611359565b5f60035f6101000a81548160ff0219169083151502179055505b60035f9054906101000a900460ff166113a7576040517f08c379a000000000000000000000000000000000000000000000000000000000815260040161139e90612c07565b60405180910390fd5b60078054905082106113ee576040517f08c379a00000000000000000000000000000000000000000000000000000000081526004016113e590612c6f565b60405180910390fd5b6007828154811061140257611401611e64565b5b905f5260205f20906004020160030160019054906101000a900460ff1661145e576040517f08c379a000000000000000000000000000000000000000000000000000000000815260040161145590612cd7565b60405180910390fd5b6007828154811061147257611471611e64565b5b905f5260205f2090600402016003015f9054906101000a900460ff16156114ce576040517f08c379a00000000000000000000000000000000000000000000000000000000081526004016114c590612d3f565b60405180910390fd5b6006805490508110611515576040517f08c379a000000000000000000000000000000000000000000000000000000000815260040161150c90612da7565b60405180910390fd5b60016007838154811061152b5761152a611e64565b5b905f5260205f2090600402016003015f6101000a81548160ff02191690831515021790555060085f8281526020019081526020015f205f81548092919061157190612dc5565b91905055505f5f81819054906101000a900463ffffffff168092919061159690612e0c565b91906101000a81548163ffffffff021916908363ffffffff160217905550505050565b6060600480546115c890611fbb565b80601f01602080910402602001604051908101604052809291908181526020018280546115f490611fbb565b801561163f5780601f106116165761010080835404028352916020019161163f565b820191905f5260205f20905b81548152906001019060200180831161162257829003601f168201915b5050505050905090565b60078181548110611658575f80fd5b905f5260205f2090600402015f91509050805f01805461167790611fbb565b80601f01602080910402602001604051908101604052809291908181526020018280546116a390611fbb565b80156116ee5780601f106116c5576101008083540402835291602001916116ee565b820191905f5260205f20905b8154815290600101906020018083116116d157829003601f168201915b505050505090806001015f9054906101000a900460ff169080600201805461171590611fbb565b80601f016020809104026020016040519081016040528092919081815260200182805461174190611fbb565b801561178c5780601f106117635761010080835404028352916020019161178c565b820191905f5260205f20905b81548152906001019060200180831161176f57829003601f168201915b505050505090806003015f9054906101000a900460ff16908060030160019054906101000a900460ff16905085565b600681815481106117ca575f80fd5b905f5260205f2090600402015f91509050805f0180546117e990611fbb565b80601f016020809104026020016040519081016040528092919081815260200182805461181590611fbb565b80156118605780601f1061183757610100808354040283529160200191611860565b820191905f5260205f20905b81548152906001019060200180831161184357829003601f168201915b505050505090806001015f9054906101000a900460ff169080600201805461188790611fbb565b80601f01602080910402602001604051908101604052809291908181526020018280546118b390611fbb565b80156118fe5780601f106118d5576101008083540402835291602001916118fe565b820191905f5260205f20905b8154815290600101906020018083116118e157829003601f168201915b50505050509080600301805461191390611fbb565b80601f016020809104026020016040519081016040528092919081815260200182805461193f90611fbb565b801561198a5780601f106119615761010080835404028352916020019161198a565b820191905f5260205f20905b81548152906001019060200180831161196d57829003601f168201915b5050505050905084565b5f63ffffffff82169050919050565b6119ac81611994565b82525050565b5f6020820190506119c55f8301846119a3565b92915050565b5f5ffd5b5f5ffd5b5f819050919050565b6119e5816119d3565b81146119ef575f5ffd5b50565b5f81359050611a00816119dc565b92915050565b5f60208284031215611a1b57611a1a6119cb565b5b5f611a28848285016119f2565b91505092915050565b5f73ffffffffffffffffffffffffffffffffffffffff82169050919050565b5f611a5a82611a31565b9050919050565b611a6a81611a50565b82525050565b5f602082019050611a835f830184611a61565b92915050565b611a92816119d3565b82525050565b5f602082019050611aab5f830184611a89565b92915050565b5f5ffd5b5f5ffd5b5f5ffd5b5f5f83601f840112611ad257611ad1611ab1565b5b8235905067ffffffffffffffff811115611aef57611aee611ab5565b5b602083019150836001820283011115611b0b57611b0a611ab9565b5b9250929050565b5f60ff82169050919050565b611b2781611b12565b8114611b31575f5ffd5b50565b5f81359050611b4281611b1e565b92915050565b5f5f5f5f5f60608688031215611b6157611b606119cb565b5b5f86013567ffffffffffffffff811115611b7e57611b7d6119cf565b5b611b8a88828901611abd565b95509550506020611b9d88828901611b34565b935050604086013567ffffffffffffffff811115611bbe57611bbd6119cf565b5b611bca88828901611abd565b92509250509295509295909350565b5f81519050919050565b5f82825260208201905092915050565b8281835e5f83830152505050565b5f601f19601f8301169050919050565b5f611c1b82611bd9565b611c258185611be3565b9350611c35818560208601611bf3565b611c3e81611c01565b840191505092915050565b5f6020820190508181035f830152611c618184611c11565b905092915050565b5f8115159050919050565b611c7d81611c69565b82525050565b5f602082019050611c965f830184611c74565b92915050565b5f5f5f5f5f5f5f6080888a031215611cb757611cb66119cb565b5b5f88013567ffffffffffffffff811115611cd457611cd36119cf565b5b611ce08a828b01611abd565b97509750506020611cf38a828b01611b34565b955050604088013567ffffffffffffffff811115611d1457611d136119cf565b5b611d208a828b01611abd565b9450945050606088013567ffffffffffffffff811115611d4357611d426119cf565b5b611d4f8a828b01611abd565b925092505092959891949750929550565b5f5f60408385031215611d7657611d756119cb565b5b5f611d83858286016119f2565b9250506020611d94858286016119f2565b9150509250929050565b611da781611b12565b82525050565b5f60a0820190508181035f830152611dc58188611c11565b9050611dd46020830187611d9e565b8181036040830152611de68186611c11565b9050611df56060830185611c74565b611e026080830184611c74565b9695505050505050565b5f6080820190508181035f830152611e248187611c11565b9050611e336020830186611d9e565b8181036040830152611e458185611c11565b90508181036060830152611e598184611c11565b905095945050505050565b7f4e487b71000000000000000000000000000000000000000000000000000000005f52603260045260245ffd5b7f596f75277265206e6f7420616e2061646d696e000000000000000000000000005f82015250565b5f611ec5601383611be3565b9150611ed082611e91565b602082019050919050565b5f6020820190508181035f830152611ef281611eb9565b9050919050565b7f566f746572206d757374206265206174206c65617374203138000000000000005f82015250565b5f611f2d601983611be3565b9150611f3882611ef9565b602082019050919050565b5f6020820190508181035f830152611f5a81611f21565b9050919050565b7f4e487b71000000000000000000000000000000000000000000000000000000005f52604160045260245ffd5b7f4e487b71000000000000000000000000000000000000000000000000000000005f52602260045260245ffd5b5f6002820490506001821680611fd257607f821691505b602082108103611fe557611fe4611f8e565b5b50919050565b5f819050815f5260205f209050919050565b5f6020601f8301049050919050565b5f82821b905092915050565b5f600883026120477fffffffffffffffffffffffffffffffffffffffffffffffffffffffffffffffff8261200c565b612051868361200c565b95508019841693508086168417925050509392505050565b5f819050919050565b5f61208c612087612082846119d3565b612069565b6119d3565b9050919050565b5f819050919050565b6120a583612072565b6120b96120b182612093565b848454612018565b825550505050565b5f5f905090565b6120d06120c1565b6120db81848461209c565b505050565b5b818110156120fe576120f35f826120c8565b6001810190506120e1565b5050565b601f8211156121435761211481611feb565b61211d84611ffd565b8101602085101561212c578190505b61214061213885611ffd565b8301826120e0565b50505b505050565b5f82821c905092915050565b5f6121635f1984600802612148565b1980831691505092915050565b5f61217b8383612154565b9150826002028217905092915050565b61219482611bd9565b67ffffffffffffffff8111156121ad576121ac611f61565b5b6121b78254611fbb565b6121c2828285612102565b5f60209050601f8311600181146121f3575f84156121e1578287015190505b6121eb8582612170565b865550612252565b601f19841661220186611feb565b5f5b8281101561222857848901518255600182019150602085019450602081019050612203565b868310156122455784890151612241601f891682612154565b8355505b6001600288020188555050505b505050505050565b7f4e487b71000000000000000000000000000000000000000000000000000000005f52601160045260245ffd5b5f612291826119d3565b915061229c836119d3565b92508282039050818111156122b4576122b361225a565b5b92915050565b5f81905092915050565b7f537563636573732120596f7572204944206973200000000000000000000000005f82015250565b5f6122f86014836122ba565b9150612303826122c4565b601482019050919050565b5f819050919050565b612328612323826119d3565b61230e565b82525050565b5f612338826122ec565b91506123448284612317565b60208201915081905092915050565b7f41646d696e206c696d69742072656163686564000000000000000000000000005f82015250565b5f612387601383611be3565b915061239282612353565b602082019050919050565b5f6020820190508181035f8301526123b48161237b565b9050919050565b7f41646d696e20616c7265616479207265676973746572656400000000000000005f82015250565b5f6123ef601883611be3565b91506123fa826123bb565b602082019050919050565b5f6020820190508181035f83015261241c816123e3565b9050919050565b7f43616e2774206368616e67652073746172742074696d6520647572696e6720655f8201527f6c656374696f6e00000000000000000000000000000000000000000000000000602082015250565b5f61247d602783611be3565b915061248882612423565b604082019050919050565b5f6020820190508181035f8301526124aa81612471565b9050919050565b5f6124bb826119d3565b91506124c6836119d3565b92508282026124d4816119d3565b915082820484148315176124eb576124ea61225a565b5b5092915050565b5f6124fc826119d3565b9150612507836119d3565b925082820190508082111561251f5761251e61225a565b5b92915050565b7f456c656374696f6e207374617274696e6720696e2000000000000000000000005f82015250565b5f6125596015836122ba565b915061256482612525565b601582019050919050565b7f206d696e757465732e00000000000000000000000000000000000000000000005f82015250565b5f6125a36009836122ba565b91506125ae8261256f565b600982019050919050565b5f6125c38261254d565b91506125cf8284612317565b6020820191506125de82612597565b915081905092915050565b7f4e6f20456c656374696f6e0000000000000000000000000000000000000000005f82015250565b5f61261d600b83611be3565b9150612628826125e9565b602082019050919050565b5f6020820190508181035f83015261264a81612611565b9050919050565b7f456c656374696f6e20656e64656420696e2061207469652c206d616e75616c205f8201527f6465636973696f6e206e65656465640000000000000000000000000000000000602082015250565b5f6126ab602f83611be3565b91506126b682612651565b604082019050919050565b5f6020820190508181035f8301526126d88161269f565b9050919050565b5f815490506126ed81611fbb565b9050919050565b5f819050815f5260205f209050919050565b8181036127145750506127e9565b61271d826126df565b67ffffffffffffffff81111561273657612735611f61565b5b6127408254611fbb565b61274b828285612102565b5f601f831160018114612778575f8415612766578287015490505b6127708582612170565b8655506127e2565b601f198416612786876126f4565b965061279186611feb565b5f5b828110156127b857848901548255600182019150600185019450602081019050612793565b868310156127d557848901546127d1601f891682612154565b8355505b6001600288020188555050505b5050505050505b565b7f43616e27742061646420636f6e74657374616e747320647572696e6720656c655f8201527f6374696f6e000000000000000000000000000000000000000000000000000000602082015250565b5f612845602583611be3565b9150612850826127eb565b604082019050919050565b5f6020820190508181035f83015261287281612839565b9050919050565b828183375f83830152505050565b5f61289283856122ba565b935061289f838584612879565b82840190509392505050565b5f6128b7828486612887565b91508190509392505050565b5f81546128cf81611fbb565b6128d981866122ba565b9450600182165f81146128f357600181146129085761293a565b60ff198316865281151582028601935061293a565b61291185611feb565b5f5b8381101561293257815481890152600182019150602081019050612913565b838801955050505b50505092915050565b5f61294e82846128c3565b915081905092915050565b7f436f6e74657374616e7420776974682073616d65206e616d65206578697374735f82015250565b5f61298d602083611be3565b915061299882612959565b602082019050919050565b5f6020820190508181035f8301526129ba81612981565b9050919050565b7f4f6e6520636f6e74657374616e742070657220706172747900000000000000005f82015250565b5f6129f5601883611be3565b9150612a00826129c1565b602082019050919050565b5f6020820190508181035f830152612a22816129e9565b9050919050565b7f456c656374696f6e20616c7265616479207374617274656400000000000000005f82015250565b5f612a5d601883611be3565b9150612a6882612a29565b602082019050919050565b5f6020820190508181035f830152612a8a81612a51565b9050919050565b7f5365742073746172742074696d652066697273740000000000000000000000005f82015250565b5f612ac5601483611be3565b9150612ad082612a91565b602082019050919050565b5f6020820190508181035f830152612af281612ab9565b9050919050565b7f456c656374696f6e2077696c6c206c61737420000000000000000000000000005f82015250565b5f612b2d6013836122ba565b9150612b3882612af9565b601382019050919050565b7f6d696e757465732e0000000000000000000000000000000000000000000000005f82015250565b5f612b776008836122ba565b9150612b8282612b43565b600882019050919050565b5f612b9782612b21565b9150612ba38284612317565b602082019150612bb282612b6b565b915081905092915050565b7f4e6f20656c656374696f6e206f6e676f696e67000000000000000000000000005f82015250565b5f612bf1601383611be3565b9150612bfc82612bbd565b602082019050919050565b5f6020820190508181035f830152612c1e81612be5565b9050919050565b7f496e76616c696420766f74657220696e646578000000000000000000000000005f82015250565b5f612c59601383611be3565b9150612c6482612c25565b602082019050919050565b5f6020820190508181035f830152612c8681612c4d565b9050919050565b7f566f746572206973206e6f7420656c696769626c6500000000000000000000005f82015250565b5f612cc1601583611be3565b9150612ccc82612c8d565b602082019050919050565b5f6020820190508181035f830152612cee81612cb5565b9050919050565b7f566f7465722068617320616c726561647920766f7465640000000000000000005f82015250565b5f612d29601783611be3565b9150612d3482612cf5565b602082019050919050565b5f6020820190508181035f830152612d5681612d1d565b9050919050565b7f496e76616c696420636f6e74657374616e7420696e64657800000000000000005f82015250565b5f612d91601883611be3565b9150612d9c82612d5d565b602082019050919050565b5f6020820190508181035f830152612dbe81612d85565b9050919050565b5f612dcf826119d3565b91507fffffffffffffffffffffffffffffffffffffffffffffffffffffffffffffffff8203612e0157612e0061225a565b5b600182019050919050565b5f612e1682611994565b915063ffffffff8203612e2c57612e2b61225a565b5b60018201905091905056fea2646970667358221220d743ea73b2d5d29bbf3820633be0077c7a88c02759cc0b27185f7f51b511d05d64736f6c634300081c0033",
					"opcodes": "PUSH1 0x80 PUSH1 0x40 MSTORE CALLVALUE DUP1 ISZERO PUSH2 0xF JUMPI PUSH0 PUSH0 REVERT JUMPDEST POP PUSH2 0x1E PUSH2 0x23 PUSH1 0x20 SHL PUSH1 0x20 SHR JUMP JUMPDEST PUSH2 0x2A2 JUMP JUMPDEST PUSH1 0x5 DUP1 DUP1 SLOAD SWAP1 POP LT PUSH2 0x6A JUMPI PUSH1 0x40 MLOAD PUSH32 0x8C379A000000000000000000000000000000000000000000000000000000000 DUP2 MSTORE PUSH1 0x4 ADD PUSH2 0x61 SWAP1 PUSH2 0x1EF JUMP JUMPDEST PUSH1 0x40 MLOAD DUP1 SWAP2 SUB SWAP1 REVERT JUMPDEST PUSH0 PUSH0 SWAP1 POP JUMPDEST PUSH1 0x5 DUP1 SLOAD SWAP1 POP DUP2 LT ISZERO PUSH2 0x132 JUMPI CALLER PUSH20 0xFFFFFFFFFFFFFFFFFFFFFFFFFFFFFFFFFFFFFFFF AND PUSH1 0x5 DUP3 DUP2 SLOAD DUP2 LT PUSH2 0xA7 JUMPI PUSH2 0xA6 PUSH2 0x20D JUMP JUMPDEST JUMPDEST SWAP1 PUSH0 MSTORE PUSH1 0x20 PUSH0 KECCAK256 ADD PUSH0 SWAP1 SLOAD SWAP1 PUSH2 0x100 EXP SWAP1 DIV PUSH20 0xFFFFFFFFFFFFFFFFFFFFFFFFFFFFFFFFFFFFFFFF AND PUSH20 0xFFFFFFFFFFFFFFFFFFFFFFFFFFFFFFFFFFFFFFFF AND SUB PUSH2 0x125 JUMPI PUSH1 0x40 MLOAD PUSH32 0x8C379A000000000000000000000000000000000000000000000000000000000 DUP2 MSTORE PUSH1 0x4 ADD PUSH2 0x11C SWAP1 PUSH2 0x284 JUMP JUMPDEST PUSH1 0x40 MLOAD DUP1 SWAP2 SUB SWAP1 REVERT JUMPDEST DUP1 DUP1 PUSH1 0x1 ADD SWAP2 POP POP PUSH2 0x6F JUMP JUMPDEST POP PUSH1 0x5 CALLER SWAP1 DUP1 PUSH1 0x1 DUP2 SLOAD ADD DUP1 DUP3 SSTORE DUP1 SWAP2 POP POP PUSH1 0x1 SWAP1 SUB SWAP1 PUSH0 MSTORE PUSH1 0x20 PUSH0 KECCAK256 ADD PUSH0 SWAP1 SWAP2 SWAP1 SWAP2 SWAP1 SWAP2 PUSH2 0x100 EXP DUP2 SLOAD DUP2 PUSH20 0xFFFFFFFFFFFFFFFFFFFFFFFFFFFFFFFFFFFFFFFF MUL NOT AND SWAP1 DUP4 PUSH20 0xFFFFFFFFFFFFFFFFFFFFFFFFFFFFFFFFFFFFFFFF AND MUL OR SWAP1 SSTORE POP JUMP JUMPDEST PUSH0 DUP3 DUP3 MSTORE PUSH1 0x20 DUP3 ADD SWAP1 POP SWAP3 SWAP2 POP POP JUMP JUMPDEST PUSH32 0x41646D696E206C696D6974207265616368656400000000000000000000000000 PUSH0 DUP3 ADD MSTORE POP JUMP JUMPDEST PUSH0 PUSH2 0x1D9 PUSH1 0x13 DUP4 PUSH2 0x195 JUMP JUMPDEST SWAP2 POP PUSH2 0x1E4 DUP3 PUSH2 0x1A5 JUMP JUMPDEST PUSH1 0x20 DUP3 ADD SWAP1 POP SWAP2 SWAP1 POP JUMP JUMPDEST PUSH0 PUSH1 0x20 DUP3 ADD SWAP1 POP DUP2 DUP2 SUB PUSH0 DUP4 ADD MSTORE PUSH2 0x206 DUP2 PUSH2 0x1CD JUMP JUMPDEST SWAP1 POP SWAP2 SWAP1 POP JUMP JUMPDEST PUSH32 0x4E487B7100000000000000000000000000000000000000000000000000000000 PUSH0 MSTORE PUSH1 0x32 PUSH1 0x4 MSTORE PUSH1 0x24 PUSH0 REVERT JUMPDEST PUSH32 0x41646D696E20616C726561647920726567697374657265640000000000000000 PUSH0 DUP3 ADD MSTORE POP JUMP JUMPDEST PUSH0 PUSH2 0x26E PUSH1 0x18 DUP4 PUSH2 0x195 JUMP JUMPDEST SWAP2 POP PUSH2 0x279 DUP3 PUSH2 0x23A JUMP JUMPDEST PUSH1 0x20 DUP3 ADD SWAP1 POP SWAP2 SWAP1 POP JUMP JUMPDEST PUSH0 PUSH1 0x20 DUP3 ADD SWAP1 POP DUP2 DUP2 SUB PUSH0 DUP4 ADD MSTORE PUSH2 0x29B DUP2 PUSH2 0x262 JUMP JUMPDEST SWAP1 POP SWAP2 SWAP1 POP JUMP JUMPDEST PUSH2 0x2E6D DUP1 PUSH2 0x2AF PUSH0 CODECOPY PUSH0 RETURN INVALID PUSH1 0x80 PUSH1 0x40 MSTORE CALLVALUE DUP1 ISZERO PUSH2 0xF JUMPI PUSH0 PUSH0 REVERT JUMPDEST POP PUSH1 0x4 CALLDATASIZE LT PUSH2 0x109 JUMPI PUSH0 CALLDATALOAD PUSH1 0xE0 SHR DUP1 PUSH4 0x59F78468 GT PUSH2 0xA0 JUMPI DUP1 PUSH4 0x8BD23EBC GT PUSH2 0x6F JUMPI DUP1 PUSH4 0x8BD23EBC EQ PUSH2 0x2A7 JUMPI DUP1 PUSH4 0xB384ABEF EQ PUSH2 0x2D7 JUMPI DUP1 PUSH4 0xB7E03264 EQ PUSH2 0x2F3 JUMPI DUP1 PUSH4 0xDA58C7D9 EQ PUSH2 0x311 JUMPI DUP1 PUSH4 0xDFD50F52 EQ PUSH2 0x345 JUMPI PUSH2 0x109 JUMP JUMPDEST DUP1 PUSH4 0x59F78468 EQ PUSH2 0x21F JUMPI DUP1 PUSH4 0x5DF81330 EQ PUSH2 0x229 JUMPI DUP1 PUSH4 0x86D39D07 EQ PUSH2 0x259 JUMPI DUP1 PUSH4 0x87608AAD EQ PUSH2 0x289 JUMPI PUSH2 0x109 JUMP JUMPDEST DUP1 PUSH4 0x27C5B5CC GT PUSH2 0xDC JUMPI DUP1 PUSH4 0x27C5B5CC EQ PUSH2 0x197 JUMPI DUP1 PUSH4 0x408E2727 EQ PUSH2 0x1C7 JUMPI DUP1 PUSH4 0x498D55B8 EQ PUSH2 0x1E5 JUMPI DUP1 PUSH4 0x4B8E3A26 EQ PUSH2 0x1EF JUMPI PUSH2 0x109 JUMP JUMPDEST DUP1 PUSH4 0x1400649E EQ PUSH2 0x10D JUMPI DUP1 PUSH4 0x14BFD6D0 EQ PUSH2 0x12B JUMPI DUP1 PUSH4 0x1EA736E0 EQ PUSH2 0x15B JUMPI DUP1 PUSH4 0x2019A608 EQ PUSH2 0x179 JUMPI JUMPDEST PUSH0 PUSH0 REVERT JUMPDEST PUSH2 0x115 PUSH2 0x378 JUMP JUMPDEST PUSH1 0x40 MLOAD PUSH2 0x122 SWAP2 SWAP1 PUSH2 0x19B2 JUMP JUMPDEST PUSH1 0x40 MLOAD DUP1 SWAP2 SUB SWAP1 RETURN JUMPDEST PUSH2 0x145 PUSH1 0x4 DUP1 CALLDATASIZE SUB DUP2 ADD SWAP1 PUSH2 0x140 SWAP2 SWAP1 PUSH2 0x1A06 JUMP JUMPDEST PUSH2 0x38C JUMP JUMPDEST PUSH1 0x40 MLOAD PUSH2 0x152 SWAP2 SWAP1 PUSH2 0x1A70 JUMP JUMPDEST PUSH1 0x40 MLOAD DUP1 SWAP2 SUB SWAP1 RETURN JUMPDEST PUSH2 0x163 PUSH2 0x3C7 JUMP JUMPDEST PUSH1 0x40 MLOAD PUSH2 0x170 SWAP2 SWAP1 PUSH2 0x1A98 JUMP JUMPDEST PUSH1 0x40 MLOAD DUP1 SWAP2 SUB SWAP1 RETURN JUMPDEST PUSH2 0x181 PUSH2 0x3CD JUMP JUMPDEST PUSH1 0x40 MLOAD PUSH2 0x18E SWAP2 SWAP1 PUSH2 0x1A98 JUMP JUMPDEST PUSH1 0x40 MLOAD DUP1 SWAP2 SUB SWAP1 RETURN JUMPDEST PUSH2 0x1B1 PUSH1 0x4 DUP1 CALLDATASIZE SUB DUP2 ADD SWAP1 PUSH2 0x1AC SWAP2 SWAP1 PUSH2 0x1B48 JUMP JUMPDEST PUSH2 0x3D3 JUMP JUMPDEST PUSH1 0x40 MLOAD PUSH2 0x1BE SWAP2 SWAP1 PUSH2 0x1C49 JUMP JUMPDEST PUSH1 0x40 MLOAD DUP1 SWAP2 SUB SWAP1 RETURN JUMPDEST PUSH2 0x1CF PUSH2 0x6FA JUMP JUMPDEST PUSH1 0x40 MLOAD PUSH2 0x1DC SWAP2 SWAP1 PUSH2 0x1C83 JUMP JUMPDEST PUSH1 0x40 MLOAD DUP1 SWAP2 SUB SWAP1 RETURN JUMPDEST PUSH2 0x1ED PUSH2 0x70C JUMP JUMPDEST STOP JUMPDEST PUSH2 0x209 PUSH1 0x4 DUP1 CALLDATASIZE SUB DUP2 ADD SWAP1 PUSH2 0x204 SWAP2 SWAP1 PUSH2 0x1A06 JUMP JUMPDEST PUSH2 0x87E JUMP JUMPDEST PUSH1 0x40 MLOAD PUSH2 0x216 SWAP2 SWAP1 PUSH2 0x1C49 JUMP JUMPDEST PUSH1 0x40 MLOAD DUP1 SWAP2 SUB SWAP1 RETURN JUMPDEST PUSH2 0x227 PUSH2 0x972 JUMP JUMPDEST STOP JUMPDEST PUSH2 0x243 PUSH1 0x4 DUP1 CALLDATASIZE SUB DUP2 ADD SWAP1 PUSH2 0x23E SWAP2 SWAP1 PUSH2 0x1A06 JUMP JUMPDEST PUSH2 0xC30 JUMP JUMPDEST PUSH1 0x40 MLOAD PUSH2 0x250 SWAP2 SWAP1 PUSH2 0x1A98 JUMP JUMPDEST PUSH1 0x40 MLOAD DUP1 SWAP2 SUB SWAP1 RETURN JUMPDEST PUSH2 0x273 PUSH1 0x4 DUP1 CALLDATASIZE SUB DUP2 ADD SWAP1 PUSH2 0x26E SWAP2 SWAP1 PUSH2 0x1C9C JUMP JUMPDEST PUSH2 0xC45 JUMP JUMPDEST PUSH1 0x40 MLOAD PUSH2 0x280 SWAP2 SWAP1 PUSH2 0x1C49 JUMP JUMPDEST PUSH1 0x40 MLOAD DUP1 SWAP2 SUB SWAP1 RETURN JUMPDEST PUSH2 0x291 PUSH2 0x110D JUMP JUMPDEST PUSH1 0x40 MLOAD PUSH2 0x29E SWAP2 SWAP1 PUSH2 0x1C83 JUMP JUMPDEST PUSH1 0x40 MLOAD DUP1 SWAP2 SUB SWAP1 RETURN JUMPDEST PUSH2 0x2C1 PUSH1 0x4 DUP1 CALLDATASIZE SUB DUP2 ADD SWAP1 PUSH2 0x2BC SWAP2 SWAP1 PUSH2 0x1A06 JUMP JUMPDEST PUSH2 0x126E JUMP JUMPDEST PUSH1 0x40 MLOAD PUSH2 0x2CE SWAP2 SWAP1 PUSH2 0x1C49 JUMP JUMPDEST PUSH1 0x40 MLOAD DUP1 SWAP2 SUB SWAP1 RETURN JUMPDEST PUSH2 0x2F1 PUSH1 0x4 DUP1 CALLDATASIZE SUB DUP2 ADD SWAP1 PUSH2 0x2EC SWAP2 SWAP1 PUSH2 0x1D60 JUMP JUMPDEST PUSH2 0x12FB JUMP JUMPDEST STOP JUMPDEST PUSH2 0x2FB PUSH2 0x15B9 JUMP JUMPDEST PUSH1 0x40 MLOAD PUSH2 0x308 SWAP2 SWAP1 PUSH2 0x1C49 JUMP JUMPDEST PUSH1 0x40 MLOAD DUP1 SWAP2 SUB SWAP1 RETURN JUMPDEST PUSH2 0x32B PUSH1 0x4 DUP1 CALLDATASIZE SUB DUP2 ADD SWAP1 PUSH2 0x326 SWAP2 SWAP1 PUSH2 0x1A06 JUMP JUMPDEST PUSH2 0x1649 JUMP JUMPDEST PUSH1 0x40 MLOAD PUSH2 0x33C SWAP6 SWAP5 SWAP4 SWAP3 SWAP2 SWAP1 PUSH2 0x1DAD JUMP JUMPDEST PUSH1 0x40 MLOAD DUP1 SWAP2 SUB SWAP1 RETURN JUMPDEST PUSH2 0x35F PUSH1 0x4 DUP1 CALLDATASIZE SUB DUP2 ADD SWAP1 PUSH2 0x35A SWAP2 SWAP1 PUSH2 0x1A06 JUMP JUMPDEST PUSH2 0x17BB JUMP JUMPDEST PUSH1 0x40 MLOAD PUSH2 0x36F SWAP5 SWAP4 SWAP3 SWAP2 SWAP1 PUSH2 0x1E0C JUMP JUMPDEST PUSH1 0x40 MLOAD DUP1 SWAP2 SUB SWAP1 RETURN JUMPDEST PUSH0 PUSH0 SWAP1 SLOAD SWAP1 PUSH2 0x100 EXP SWAP1 DIV PUSH4 0xFFFFFFFF AND DUP2 JUMP JUMPDEST PUSH1 0x5 DUP2 DUP2 SLOAD DUP2 LT PUSH2 0x39B JUMPI PUSH0 DUP1 REVERT JUMPDEST SWAP1 PUSH0 MSTORE PUSH1 0x20 PUSH0 KECCAK256 ADD PUSH0 SWAP2 POP SLOAD SWAP1 PUSH2 0x100 EXP SWAP1 DIV PUSH20 0xFFFFFFFFFFFFFFFFFFFFFFFFFFFFFFFFFFFFFFFF AND DUP2 JUMP JUMPDEST PUSH1 0x2 SLOAD DUP2 JUMP JUMPDEST PUSH1 0x1 SLOAD DUP2 JUMP JUMPDEST PUSH1 0x60 PUSH0 PUSH0 SWAP1 POP PUSH0 PUSH0 SWAP1 POP JUMPDEST PUSH1 0x5 DUP1 SLOAD SWAP1 POP DUP2 LT ISZERO PUSH2 0x46F JUMPI PUSH1 0x5 DUP2 DUP2 SLOAD DUP2 LT PUSH2 0x3FF JUMPI PUSH2 0x3FE PUSH2 0x1E64 JUMP JUMPDEST JUMPDEST SWAP1 PUSH0 MSTORE PUSH1 0x20 PUSH0 KECCAK256 ADD PUSH0 SWAP1 SLOAD SWAP1 PUSH2 0x100 EXP SWAP1 DIV PUSH20 0xFFFFFFFFFFFFFFFFFFFFFFFFFFFFFFFFFFFFFFFF AND PUSH20 0xFFFFFFFFFFFFFFFFFFFFFFFFFFFFFFFFFFFFFFFF AND CALLER PUSH20 0xFFFFFFFFFFFFFFFFFFFFFFFFFFFFFFFFFFFFFFFF AND SUB PUSH2 0x462 JUMPI PUSH1 0x1 SWAP2 POP PUSH2 0x46F JUMP JUMPDEST DUP1 DUP1 PUSH1 0x1 ADD SWAP2 POP POP PUSH2 0x3DE JUMP JUMPDEST POP DUP1 PUSH2 0x4B0 JUMPI PUSH1 0x40 MLOAD PUSH32 0x8C379A000000000000000000000000000000000000000000000000000000000 DUP2 MSTORE PUSH1 0x4 ADD PUSH2 0x4A7 SWAP1 PUSH2 0x1EDB JUMP JUMPDEST PUSH1 0x40 MLOAD DUP1 SWAP2 SUB SWAP1 REVERT JUMPDEST PUSH0 PUSH1 0x1 SLOAD EQ ISZERO DUP1 ISZERO PUSH2 0x4C3 JUMPI POP TIMESTAMP PUSH1 0x1 SLOAD LT JUMPDEST DUP1 ISZERO PUSH2 0x4D0 JUMPI POP TIMESTAMP PUSH1 0x2 SLOAD GT JUMPDEST ISZERO PUSH2 0x4F4 JUMPI PUSH1 0x1 PUSH1 0x3 PUSH0 PUSH2 0x100 EXP DUP2 SLOAD DUP2 PUSH1 0xFF MUL NOT AND SWAP1 DUP4 ISZERO ISZERO MUL OR SWAP1 SSTORE POP PUSH2 0x50E JUMP JUMPDEST PUSH0 PUSH1 0x3 PUSH0 PUSH2 0x100 EXP DUP2 SLOAD DUP2 PUSH1 0xFF MUL NOT AND SWAP1 DUP4 ISZERO ISZERO MUL OR SWAP1 SSTORE POP JUMPDEST PUSH1 0x12 DUP6 PUSH1 0xFF AND LT ISZERO PUSH2 0x555 JUMPI PUSH1 0x40 MLOAD PUSH32 0x8C379A000000000000000000000000000000000000000000000000000000000 DUP2 MSTORE PUSH1 0x4 ADD PUSH2 0x54C SWAP1 PUSH2 0x1F43 JUMP JUMPDEST PUSH1 0x40 MLOAD DUP1 SWAP2 SUB SWAP1 REVERT JUMPDEST PUSH1 0x7 PUSH1 0x40 MLOAD DUP1 PUSH1 0xA0 ADD PUSH1 0x40 MSTORE DUP1 DUP10 DUP10 DUP1 DUP1 PUSH1 0x1F ADD PUSH1 0x20 DUP1 SWAP2 DIV MUL PUSH1 0x20 ADD PUSH1 0x40 MLOAD SWAP1 DUP2 ADD PUSH1 0x40 MSTORE DUP1 SWAP4 SWAP3 SWAP2 SWAP1 DUP2 DUP2 MSTORE PUSH1 0x20 ADD DUP4 DUP4 DUP1 DUP3 DUP5 CALLDATACOPY PUSH0 DUP2 DUP5 ADD MSTORE PUSH1 0x1F NOT PUSH1 0x1F DUP3 ADD AND SWAP1 POP DUP1 DUP4 ADD SWAP3 POP POP POP POP POP POP POP DUP2 MSTORE PUSH1 0x20 ADD DUP8 PUSH1 0xFF AND DUP2 MSTORE PUSH1 0x20 ADD DUP7 DUP7 DUP1 DUP1 PUSH1 0x1F ADD PUSH1 0x20 DUP1 SWAP2 DIV MUL PUSH1 0x20 ADD PUSH1 0x40 MLOAD SWAP1 DUP2 ADD PUSH1 0x40 MSTORE DUP1 SWAP4 SWAP3 SWAP2 SWAP1 DUP2 DUP2 MSTORE PUSH1 0x20 ADD DUP4 DUP4 DUP1 DUP3 DUP5 CALLDATACOPY PUSH0 DUP2 DUP5 ADD MSTORE PUSH1 0x1F NOT PUSH1 0x1F DUP3 ADD AND SWAP1 POP DUP1 DUP4 ADD SWAP3 POP POP POP POP POP POP POP DUP2 MSTORE PUSH1 0x20 ADD PUSH0 ISZERO ISZERO DUP2 MSTORE PUSH1 0x20 ADD PUSH1 0x1 ISZERO ISZERO DUP2 MSTORE POP SWAP1 DUP1 PUSH1 0x1 DUP2 SLOAD ADD DUP1 DUP3 SSTORE DUP1 SWAP2 POP POP PUSH1 0x1 SWAP1 SUB SWAP1 PUSH0 MSTORE PUSH1 0x20 PUSH0 KECCAK256 SWAP1 PUSH1 0x4 MUL ADD PUSH0 SWAP1 SWAP2 SWAP1 SWAP2 SWAP1 SWAP2 POP PUSH0 DUP3 ADD MLOAD DUP2 PUSH0 ADD SWAP1 DUP2 PUSH2 0x645 SWAP2 SWAP1 PUSH2 0x218B JUMP JUMPDEST POP PUSH1 0x20 DUP3 ADD MLOAD DUP2 PUSH1 0x1 ADD PUSH0 PUSH2 0x100 EXP DUP2 SLOAD DUP2 PUSH1 0xFF MUL NOT AND SWAP1 DUP4 PUSH1 0xFF AND MUL OR SWAP1 SSTORE POP PUSH1 0x40 DUP3 ADD MLOAD DUP2 PUSH1 0x2 ADD SWAP1 DUP2 PUSH2 0x67B SWAP2 SWAP1 PUSH2 0x218B JUMP JUMPDEST POP PUSH1 0x60 DUP3 ADD MLOAD DUP2 PUSH1 0x3 ADD PUSH0 PUSH2 0x100 EXP DUP2 SLOAD DUP2 PUSH1 0xFF MUL NOT AND SWAP1 DUP4 ISZERO ISZERO MUL OR SWAP1 SSTORE POP PUSH1 0x80 DUP3 ADD MLOAD DUP2 PUSH1 0x3 ADD PUSH1 0x1 PUSH2 0x100 EXP DUP2 SLOAD DUP2 PUSH1 0xFF MUL NOT AND SWAP1 DUP4 ISZERO ISZERO MUL OR SWAP1 SSTORE POP POP POP PUSH1 0x1 PUSH1 0x7 DUP1 SLOAD SWAP1 POP PUSH2 0x6CF SWAP2 SWAP1 PUSH2 0x2287 JUMP JUMPDEST PUSH1 0x40 MLOAD PUSH1 0x20 ADD PUSH2 0x6DF SWAP2 SWAP1 PUSH2 0x232E JUMP JUMPDEST PUSH1 0x40 MLOAD PUSH1 0x20 DUP2 DUP4 SUB SUB DUP2 MSTORE SWAP1 PUSH1 0x40 MSTORE SWAP2 POP POP SWAP6 SWAP5 POP POP POP POP POP JUMP JUMPDEST PUSH1 0x3 PUSH0 SWAP1 SLOAD SWAP1 PUSH2 0x100 EXP SWAP1 DIV PUSH1 0xFF AND DUP2 JUMP JUMPDEST PUSH1 0x5 DUP1 DUP1 SLOAD SWAP1 POP LT PUSH2 0x753 JUMPI PUSH1 0x40 MLOAD PUSH32 0x8C379A000000000000000000000000000000000000000000000000000000000 DUP2 MSTORE PUSH1 0x4 ADD PUSH2 0x74A SWAP1 PUSH2 0x239D JUMP JUMPDEST PUSH1 0x40 MLOAD DUP1 SWAP2 SUB SWAP1 REVERT JUMPDEST PUSH0 PUSH0 SWAP1 POP JUMPDEST PUSH1 0x5 DUP1 SLOAD SWAP1 POP DUP2 LT ISZERO PUSH2 0x81B JUMPI CALLER PUSH20 0xFFFFFFFFFFFFFFFFFFFFFFFFFFFFFFFFFFFFFFFF AND PUSH1 0x5 DUP3 DUP2 SLOAD DUP2 LT PUSH2 0x790 JUMPI PUSH2 0x78F PUSH2 0x1E64 JUMP JUMPDEST JUMPDEST SWAP1 PUSH0 MSTORE PUSH1 0x20 PUSH0 KECCAK256 ADD PUSH0 SWAP1 SLOAD SWAP1 PUSH2 0x100 EXP SWAP1 DIV PUSH20 0xFFFFFFFFFFFFFFFFFFFFFFFFFFFFFFFFFFFFFFFF AND PUSH20 0xFFFFFFFFFFFFFFFFFFFFFFFFFFFFFFFFFFFFFFFF AND SUB PUSH2 0x80E JUMPI PUSH1 0x40 MLOAD PUSH32 0x8C379A000000000000000000000000000000000000000000000000000000000 DUP2 MSTORE PUSH1 0x4 ADD PUSH2 0x805 SWAP1 PUSH2 0x2405 JUMP JUMPDEST PUSH1 0x40 MLOAD DUP1 SWAP2 SUB SWAP1 REVERT JUMPDEST DUP1 DUP1 PUSH1 0x1 ADD SWAP2 POP POP PUSH2 0x758 JUMP JUMPDEST POP PUSH1 0x5 CALLER SWAP1 DUP1 PUSH1 0x1 DUP2 SLOAD ADD DUP1 DUP3 SSTORE DUP1 SWAP2 POP POP PUSH1 0x1 SWAP1 SUB SWAP1 PUSH0 MSTORE PUSH1 0x20 PUSH0 KECCAK256 ADD PUSH0 SWAP1 SWAP2 SWAP1 SWAP2 SWAP1 SWAP2 PUSH2 0x100 EXP DUP2 SLOAD DUP2 PUSH20 0xFFFFFFFFFFFFFFFFFFFFFFFFFFFFFFFFFFFFFFFF MUL NOT AND SWAP1 DUP4 PUSH20 0xFFFFFFFFFFFFFFFFFFFFFFFFFFFFFFFFFFFFFFFF AND MUL OR SWAP1 SSTORE POP JUMP JUMPDEST PUSH1 0x60 PUSH0 PUSH1 0x1 SLOAD EQ ISZERO DUP1 ISZERO PUSH2 0x893 JUMPI POP TIMESTAMP PUSH1 0x1 SLOAD LT JUMPDEST DUP1 ISZERO PUSH2 0x8A0 JUMPI POP TIMESTAMP PUSH1 0x2 SLOAD GT JUMPDEST ISZERO PUSH2 0x8C4 JUMPI PUSH1 0x1 PUSH1 0x3 PUSH0 PUSH2 0x100 EXP DUP2 SLOAD DUP2 PUSH1 0xFF MUL NOT AND SWAP1 DUP4 ISZERO ISZERO MUL OR SWAP1 SSTORE POP PUSH2 0x8DE JUMP JUMPDEST PUSH0 PUSH1 0x3 PUSH0 PUSH2 0x100 EXP DUP2 SLOAD DUP2 PUSH1 0xFF MUL NOT AND SWAP1 DUP4 ISZERO ISZERO MUL OR SWAP1 SSTORE POP JUMPDEST PUSH1 0x3 PUSH0 SWAP1 SLOAD SWAP1 PUSH2 0x100 EXP SWAP1 DIV PUSH1 0xFF AND ISZERO PUSH2 0x92D JUMPI PUSH1 0x40 MLOAD PUSH32 0x8C379A000000000000000000000000000000000000000000000000000000000 DUP2 MSTORE PUSH1 0x4 ADD PUSH2 0x924 SWAP1 PUSH2 0x2493 JUMP JUMPDEST PUSH1 0x40 MLOAD DUP1 SWAP2 SUB SWAP1 REVERT JUMPDEST PUSH1 0x3C DUP3 PUSH2 0x93A SWAP2 SWAP1 PUSH2 0x24B1 JUMP JUMPDEST TIMESTAMP PUSH2 0x945 SWAP2 SWAP1 PUSH2 0x24F2 JUMP JUMPDEST PUSH1 0x1 DUP2 SWAP1 SSTORE POP DUP2 PUSH1 0x40 MLOAD PUSH1 0x20 ADD PUSH2 0x95C SWAP2 SWAP1 PUSH2 0x25B9 JUMP JUMPDEST PUSH1 0x40 MLOAD PUSH1 0x20 DUP2 DUP4 SUB SUB DUP2 MSTORE SWAP1 PUSH1 0x40 MSTORE SWAP1 POP SWAP2 SWAP1 POP JUMP JUMPDEST PUSH0 PUSH0 SWAP1 POP PUSH0 PUSH0 SWAP1 POP JUMPDEST PUSH1 0x5 DUP1 SLOAD SWAP1 POP DUP2 LT ISZERO PUSH2 0xA0C JUMPI PUSH1 0x5 DUP2 DUP2 SLOAD DUP2 LT PUSH2 0x99C JUMPI PUSH2 0x99B PUSH2 0x1E64 JUMP JUMPDEST JUMPDEST SWAP1 PUSH0 MSTORE PUSH1 0x20 PUSH0 KECCAK256 ADD PUSH0 SWAP1 SLOAD SWAP1 PUSH2 0x100 EXP SWAP1 DIV PUSH20 0xFFFFFFFFFFFFFFFFFFFFFFFFFFFFFFFFFFFFFFFF AND PUSH20 0xFFFFFFFFFFFFFFFFFFFFFFFFFFFFFFFFFFFFFFFF AND CALLER PUSH20 0xFFFFFFFFFFFFFFFFFFFFFFFFFFFFFFFFFFFFFFFF AND SUB PUSH2 0x9FF JUMPI PUSH1 0x1 SWAP2 POP PUSH2 0xA0C JUMP JUMPDEST DUP1 DUP1 PUSH1 0x1 ADD SWAP2 POP POP PUSH2 0x97B JUMP JUMPDEST POP DUP1 PUSH2 0xA4D JUMPI PUSH1 0x40 MLOAD PUSH32 0x8C379A000000000000000000000000000000000000000000000000000000000 DUP2 MSTORE PUSH1 0x4 ADD PUSH2 0xA44 SWAP1 PUSH2 0x1EDB JUMP JUMPDEST PUSH1 0x40 MLOAD DUP1 SWAP2 SUB SWAP1 REVERT JUMPDEST PUSH0 PUSH1 0x1 SLOAD EQ ISZERO DUP1 ISZERO PUSH2 0xA60 JUMPI POP TIMESTAMP PUSH1 0x1 SLOAD LT JUMPDEST DUP1 ISZERO PUSH2 0xA6D JUMPI POP TIMESTAMP PUSH1 0x2 SLOAD GT JUMPDEST ISZERO PUSH2 0xA91 JUMPI PUSH1 0x1 PUSH1 0x3 PUSH0 PUSH2 0x100 EXP DUP2 SLOAD DUP2 PUSH1 0xFF MUL NOT AND SWAP1 DUP4 ISZERO ISZERO MUL OR SWAP1 SSTORE POP PUSH2 0xAAB JUMP JUMPDEST PUSH0 PUSH1 0x3 PUSH0 PUSH2 0x100 EXP DUP2 SLOAD DUP2 PUSH1 0xFF MUL NOT AND SWAP1 DUP4 ISZERO ISZERO MUL OR SWAP1 SSTORE POP JUMPDEST PUSH1 0x3 PUSH0 SWAP1 SLOAD SWAP1 PUSH2 0x100 EXP SWAP1 DIV PUSH1 0xFF AND PUSH2 0xAF9 JUMPI PUSH1 0x40 MLOAD PUSH32 0x8C379A000000000000000000000000000000000000000000000000000000000 DUP2 MSTORE PUSH1 0x4 ADD PUSH2 0xAF0 SWAP1 PUSH2 0x2633 JUMP JUMPDEST PUSH1 0x40 MLOAD DUP1 SWAP2 SUB SWAP1 REVERT JUMPDEST TIMESTAMP PUSH1 0x2 DUP2 SWAP1 SSTORE POP PUSH0 PUSH1 0x3 PUSH0 PUSH2 0x100 EXP DUP2 SLOAD DUP2 PUSH1 0xFF MUL NOT AND SWAP1 DUP4 ISZERO ISZERO MUL OR SWAP1 SSTORE POP PUSH0 PUSH0 SWAP1 POP PUSH0 PUSH0 SWAP1 POP PUSH0 PUSH0 SWAP1 POP PUSH0 PUSH0 SWAP1 POP JUMPDEST PUSH1 0x6 DUP1 SLOAD SWAP1 POP DUP2 LT ISZERO PUSH2 0xBB7 JUMPI DUP4 PUSH1 0x8 PUSH0 DUP4 DUP2 MSTORE PUSH1 0x20 ADD SWAP1 DUP2 MSTORE PUSH1 0x20 ADD PUSH0 KECCAK256 SLOAD GT ISZERO PUSH2 0xB6F JUMPI PUSH1 0x8 PUSH0 DUP3 DUP2 MSTORE PUSH1 0x20 ADD SWAP1 DUP2 MSTORE PUSH1 0x20 ADD PUSH0 KECCAK256 SLOAD SWAP4 POP DUP1 SWAP3 POP PUSH0 SWAP2 POP PUSH2 0xBAA JUMP JUMPDEST DUP4 PUSH1 0x8 PUSH0 DUP4 DUP2 MSTORE PUSH1 0x20 ADD SWAP1 DUP2 MSTORE PUSH1 0x20 ADD PUSH0 KECCAK256 SLOAD EQ DUP1 ISZERO PUSH2 0xB9F JUMPI POP PUSH0 PUSH1 0x8 PUSH0 DUP4 DUP2 MSTORE PUSH1 0x20 ADD SWAP1 DUP2 MSTORE PUSH1 0x20 ADD PUSH0 KECCAK256 SLOAD GT JUMPDEST ISZERO PUSH2 0xBA9 JUMPI PUSH1 0x1 SWAP2 POP JUMPDEST JUMPDEST DUP1 DUP1 PUSH1 0x1 ADD SWAP2 POP POP PUSH2 0xB2A JUMP JUMPDEST POP DUP1 ISZERO PUSH2 0xBF9 JUMPI PUSH1 0x40 MLOAD PUSH32 0x8C379A000000000000000000000000000000000000000000000000000000000 DUP2 MSTORE PUSH1 0x4 ADD PUSH2 0xBF0 SWAP1 PUSH2 0x26C1 JUMP JUMPDEST PUSH1 0x40 MLOAD DUP1 SWAP2 SUB SWAP1 REVERT JUMPDEST PUSH1 0x6 DUP3 DUP2 SLOAD DUP2 LT PUSH2 0xC0D JUMPI PUSH2 0xC0C PUSH2 0x1E64 JUMP JUMPDEST JUMPDEST SWAP1 PUSH0 MSTORE PUSH1 0x20 PUSH0 KECCAK256 SWAP1 PUSH1 0x4 MUL ADD PUSH0 ADD PUSH1 0x4 SWAP1 DUP2 PUSH2 0xC29 SWAP2 SWAP1 PUSH2 0x2706 JUMP JUMPDEST POP POP POP POP POP JUMP JUMPDEST PUSH1 0x8 PUSH1 0x20 MSTORE DUP1 PUSH0 MSTORE PUSH1 0x40 PUSH0 KECCAK256 PUSH0 SWAP2 POP SWAP1 POP SLOAD DUP2 JUMP JUMPDEST PUSH1 0x60 PUSH0 PUSH0 SWAP1 POP PUSH0 PUSH0 SWAP1 POP JUMPDEST PUSH1 0x5 DUP1 SLOAD SWAP1 POP DUP2 LT ISZERO PUSH2 0xCE1 JUMPI PUSH1 0x5 DUP2 DUP2 SLOAD DUP2 LT PUSH2 0xC71 JUMPI PUSH2 0xC70 PUSH2 0x1E64 JUMP JUMPDEST JUMPDEST SWAP1 PUSH0 MSTORE PUSH1 0x20 PUSH0 KECCAK256 ADD PUSH0 SWAP1 SLOAD SWAP1 PUSH2 0x100 EXP SWAP1 DIV PUSH20 0xFFFFFFFFFFFFFFFFFFFFFFFFFFFFFFFFFFFFFFFF AND PUSH20 0xFFFFFFFFFFFFFFFFFFFFFFFFFFFFFFFFFFFFFFFF AND CALLER PUSH20 0xFFFFFFFFFFFFFFFFFFFFFFFFFFFFFFFFFFFFFFFF AND SUB PUSH2 0xCD4 JUMPI PUSH1 0x1 SWAP2 POP PUSH2 0xCE1 JUMP JUMPDEST DUP1 DUP1 PUSH1 0x1 ADD SWAP2 POP POP PUSH2 0xC50 JUMP JUMPDEST POP DUP1 PUSH2 0xD22 JUMPI PUSH1 0x40 MLOAD PUSH32 0x8C379A000000000000000000000000000000000000000000000000000000000 DUP2 MSTORE PUSH1 0x4 ADD PUSH2 0xD19 SWAP1 PUSH2 0x1EDB JUMP JUMPDEST PUSH1 0x40 MLOAD DUP1 SWAP2 SUB SWAP1 REVERT JUMPDEST PUSH0 PUSH1 0x1 SLOAD EQ ISZERO DUP1 ISZERO PUSH2 0xD35 JUMPI POP TIMESTAMP PUSH1 0x1 SLOAD LT JUMPDEST DUP1 ISZERO PUSH2 0xD42 JUMPI POP TIMESTAMP PUSH1 0x2 SLOAD GT JUMPDEST ISZERO PUSH2 0xD66 JUMPI PUSH1 0x1 PUSH1 0x3 PUSH0 PUSH2 0x100 EXP DUP2 SLOAD DUP2 PUSH1 0xFF MUL NOT AND SWAP1 DUP4 ISZERO ISZERO MUL OR SWAP1 SSTORE POP PUSH2 0xD80 JUMP JUMPDEST PUSH0 PUSH1 0x3 PUSH0 PUSH2 0x100 EXP DUP2 SLOAD DUP2 PUSH1 0xFF MUL NOT AND SWAP1 DUP4 ISZERO ISZERO MUL OR SWAP1 SSTORE POP JUMPDEST PUSH1 0x3 PUSH0 SWAP1 SLOAD SWAP1 PUSH2 0x100 EXP SWAP1 DIV PUSH1 0xFF AND ISZERO PUSH2 0xDCF JUMPI PUSH1 0x40 MLOAD PUSH32 0x8C379A000000000000000000000000000000000000000000000000000000000 DUP2 MSTORE PUSH1 0x4 ADD PUSH2 0xDC6 SWAP1 PUSH2 0x285B JUMP JUMPDEST PUSH1 0x40 MLOAD DUP1 SWAP2 SUB SWAP1 REVERT JUMPDEST PUSH0 PUSH0 SWAP1 POP JUMPDEST PUSH1 0x6 DUP1 SLOAD SWAP1 POP DUP2 LT ISZERO PUSH2 0xF51 JUMPI DUP10 DUP10 PUSH1 0x40 MLOAD PUSH1 0x20 ADD PUSH2 0xDF4 SWAP3 SWAP2 SWAP1 PUSH2 0x28AB JUMP JUMPDEST PUSH1 0x40 MLOAD PUSH1 0x20 DUP2 DUP4 SUB SUB DUP2 MSTORE SWAP1 PUSH1 0x40 MSTORE DUP1 MLOAD SWAP1 PUSH1 0x20 ADD KECCAK256 PUSH1 0x6 DUP3 DUP2 SLOAD DUP2 LT PUSH2 0xE1E JUMPI PUSH2 0xE1D PUSH2 0x1E64 JUMP JUMPDEST JUMPDEST SWAP1 PUSH0 MSTORE PUSH1 0x20 PUSH0 KECCAK256 SWAP1 PUSH1 0x4 MUL ADD PUSH0 ADD PUSH1 0x40 MLOAD PUSH1 0x20 ADD PUSH2 0xE3C SWAP2 SWAP1 PUSH2 0x2943 JUMP JUMPDEST PUSH1 0x40 MLOAD PUSH1 0x20 DUP2 DUP4 SUB SUB DUP2 MSTORE SWAP1 PUSH1 0x40 MSTORE DUP1 MLOAD SWAP1 PUSH1 0x20 ADD KECCAK256 SUB PUSH2 0xE92 JUMPI PUSH1 0x40 MLOAD PUSH32 0x8C379A000000000000000000000000000000000000000000000000000000000 DUP2 MSTORE PUSH1 0x4 ADD PUSH2 0xE89 SWAP1 PUSH2 0x29A3 JUMP JUMPDEST PUSH1 0x40 MLOAD DUP1 SWAP2 SUB SWAP1 REVERT JUMPDEST DUP7 DUP7 PUSH1 0x40 MLOAD PUSH1 0x20 ADD PUSH2 0xEA5 SWAP3 SWAP2 SWAP1 PUSH2 0x28AB JUMP JUMPDEST PUSH1 0x40 MLOAD PUSH1 0x20 DUP2 DUP4 SUB SUB DUP2 MSTORE SWAP1 PUSH1 0x40 MSTORE DUP1 MLOAD SWAP1 PUSH1 0x20 ADD KECCAK256 PUSH1 0x6 DUP3 DUP2 SLOAD DUP2 LT PUSH2 0xECF JUMPI PUSH2 0xECE PUSH2 0x1E64 JUMP JUMPDEST JUMPDEST SWAP1 PUSH0 MSTORE PUSH1 0x20 PUSH0 KECCAK256 SWAP1 PUSH1 0x4 MUL ADD PUSH1 0x2 ADD PUSH1 0x40 MLOAD PUSH1 0x20 ADD PUSH2 0xEEE SWAP2 SWAP1 PUSH2 0x2943 JUMP JUMPDEST PUSH1 0x40 MLOAD PUSH1 0x20 DUP2 DUP4 SUB SUB DUP2 MSTORE SWAP1 PUSH1 0x40 MSTORE DUP1 MLOAD SWAP1 PUSH1 0x20 ADD KECCAK256 SUB PUSH2 0xF44 JUMPI PUSH1 0x40 MLOAD PUSH32 0x8C379A000000000000000000000000000000000000000000000000000000000 DUP2 MSTORE PUSH1 0x4 ADD PUSH2 0xF3B SWAP1 PUSH2 0x2A0B JUMP JUMPDEST PUSH1 0x40 MLOAD DUP1 SWAP2 SUB SWAP1 REVERT JUMPDEST DUP1 DUP1 PUSH1 0x1 ADD SWAP2 POP POP PUSH2 0xDD4 JUMP JUMPDEST POP PUSH1 0x6 PUSH1 0x40 MLOAD DUP1 PUSH1 0x80 ADD PUSH1 0x40 MSTORE DUP1 DUP12 DUP12 DUP1 DUP1 PUSH1 0x1F ADD PUSH1 0x20 DUP1 SWAP2 DIV MUL PUSH1 0x20 ADD PUSH1 0x40 MLOAD SWAP1 DUP2 ADD PUSH1 0x40 MSTORE DUP1 SWAP4 SWAP3 SWAP2 SWAP1 DUP2 DUP2 MSTORE PUSH1 0x20 ADD DUP4 DUP4 DUP1 DUP3 DUP5 CALLDATACOPY PUSH0 DUP2 DUP5 ADD MSTORE PUSH1 0x1F NOT PUSH1 0x1F DUP3 ADD AND SWAP1 POP DUP1 DUP4 ADD SWAP3 POP POP POP POP POP POP POP DUP2 MSTORE PUSH1 0x20 ADD DUP10 PUSH1 0xFF AND DUP2 MSTORE PUSH1 0x20 ADD DUP9 DUP9 DUP1 DUP1 PUSH1 0x1F ADD PUSH1 0x20 DUP1 SWAP2 DIV MUL PUSH1 0x20 ADD PUSH1 0x40 MLOAD SWAP1 DUP2 ADD PUSH1 0x40 MSTORE DUP1 SWAP4 SWAP3 SWAP2 SWAP1 DUP2 DUP2 MSTORE PUSH1 0x20 ADD DUP4 DUP4 DUP1 DUP3 DUP5 CALLDATACOPY PUSH0 DUP2 DUP5 ADD MSTORE PUSH1 0x1F NOT PUSH1 0x1F DUP3 ADD AND SWAP1 POP DUP1 DUP4 ADD SWAP3 POP POP POP POP POP POP POP DUP2 MSTORE PUSH1 0x20 ADD DUP7 DUP7 DUP1 DUP1 PUSH1 0x1F ADD PUSH1 0x20 DUP1 SWAP2 DIV MUL PUSH1 0x20 ADD PUSH1 0x40 MLOAD SWAP1 DUP2 ADD PUSH1 0x40 MSTORE DUP1 SWAP4 SWAP3 SWAP2 SWAP1 DUP2 DUP2 MSTORE PUSH1 0x20 ADD DUP4 DUP4 DUP1 DUP3 DUP5 CALLDATACOPY PUSH0 DUP2 DUP5 ADD MSTORE PUSH1 0x1F NOT PUSH1 0x1F DUP3 ADD AND SWAP1 POP DUP1 DUP4 ADD SWAP3 POP POP POP POP POP POP POP DUP2 MSTORE POP SWAP1 DUP1 PUSH1 0x1 DUP2 SLOAD ADD DUP1 DUP3 SSTORE DUP1 SWAP2 POP POP PUSH1 0x1 SWAP1 SUB SWAP1 PUSH0 MSTORE PUSH1 0x20 PUSH0 KECCAK256 SWAP1 PUSH1 0x4 MUL ADD PUSH0 SWAP1 SWAP2 SWAP1 SWAP2 SWAP1 SWAP2 POP PUSH0 DUP3 ADD MLOAD DUP2 PUSH0 ADD SWAP1 DUP2 PUSH2 0x107A SWAP2 SWAP1 PUSH2 0x218B JUMP JUMPDEST POP PUSH1 0x20 DUP3 ADD MLOAD DUP2 PUSH1 0x1 ADD PUSH0 PUSH2 0x100 EXP DUP2 SLOAD DUP2 PUSH1 0xFF MUL NOT AND SWAP1 DUP4 PUSH1 0xFF AND MUL OR SWAP1 SSTORE POP PUSH1 0x40 DUP3 ADD MLOAD DUP2 PUSH1 0x2 ADD SWAP1 DUP2 PUSH2 0x10B0 SWAP2 SWAP1 PUSH2 0x218B JUMP JUMPDEST POP PUSH1 0x60 DUP3 ADD MLOAD DUP2 PUSH1 0x3 ADD SWAP1 DUP2 PUSH2 0x10C6 SWAP2 SWAP1 PUSH2 0x218B JUMP JUMPDEST POP POP POP PUSH1 0x40 MLOAD DUP1 PUSH1 0x40 ADD PUSH1 0x40 MSTORE DUP1 PUSH1 0x7 DUP2 MSTORE PUSH1 0x20 ADD PUSH32 0x7375636365737300000000000000000000000000000000000000000000000000 DUP2 MSTORE POP SWAP2 POP POP SWAP8 SWAP7 POP POP POP POP POP POP POP JUMP JUMPDEST PUSH0 PUSH0 PUSH0 SWAP1 POP PUSH0 PUSH0 SWAP1 POP JUMPDEST PUSH1 0x5 DUP1 SLOAD SWAP1 POP DUP2 LT ISZERO PUSH2 0x11A8 JUMPI PUSH1 0x5 DUP2 DUP2 SLOAD DUP2 LT PUSH2 0x1138 JUMPI PUSH2 0x1137 PUSH2 0x1E64 JUMP JUMPDEST JUMPDEST SWAP1 PUSH0 MSTORE PUSH1 0x20 PUSH0 KECCAK256 ADD PUSH0 SWAP1 SLOAD SWAP1 PUSH2 0x100 EXP SWAP1 DIV PUSH20 0xFFFFFFFFFFFFFFFFFFFFFFFFFFFFFFFFFFFFFFFF AND PUSH20 0xFFFFFFFFFFFFFFFFFFFFFFFFFFFFFFFFFFFFFFFF AND CALLER PUSH20 0xFFFFFFFFFFFFFFFFFFFFFFFFFFFFFFFFFFFFFFFF AND SUB PUSH2 0x119B JUMPI PUSH1 0x1 SWAP2 POP PUSH2 0x11A8 JUMP JUMPDEST DUP1 DUP1 PUSH1 0x1 ADD SWAP2 POP POP PUSH2 0x1117 JUMP JUMPDEST POP DUP1 PUSH2 0x11E9 JUMPI PUSH1 0x40 MLOAD PUSH32 0x8C379A000000000000000000000000000000000000000000000000000000000 DUP2 MSTORE PUSH1 0x4 ADD PUSH2 0x11E0 SWAP1 PUSH2 0x1EDB JUMP JUMPDEST PUSH1 0x40 MLOAD DUP1 SWAP2 SUB SWAP1 REVERT JUMPDEST PUSH1 0x3 PUSH0 SWAP1 SLOAD SWAP1 PUSH2 0x100 EXP SWAP1 DIV PUSH1 0xFF AND ISZERO PUSH2 0x1238 JUMPI PUSH1 0x40 MLOAD PUSH32 0x8C379A000000000000000000000000000000000000000000000000000000000 DUP2 MSTORE PUSH1 0x4 ADD PUSH2 0x122F SWAP1 PUSH2 0x2A73 JUMP JUMPDEST PUSH1 0x40 MLOAD DUP1 SWAP2 SUB SWAP1 REVERT JUMPDEST TIMESTAMP PUSH1 0x1 DUP2 SWAP1 SSTORE POP PUSH1 0x1 PUSH1 0x3 PUSH0 PUSH2 0x100 EXP DUP2 SLOAD DUP2 PUSH1 0xFF MUL NOT AND SWAP1 DUP4 ISZERO ISZERO MUL OR SWAP1 SSTORE POP PUSH1 0x3 PUSH0 SWAP1 SLOAD SWAP1 PUSH2 0x100 EXP SWAP1 DIV PUSH1 0xFF AND SWAP2 POP POP SWAP1 JUMP JUMPDEST PUSH1 0x60 PUSH0 PUSH1 0x1 SLOAD SUB PUSH2 0x12B4 JUMPI PUSH1 0x40 MLOAD PUSH32 0x8C379A000000000000000000000000000000000000000000000000000000000 DUP2 MSTORE PUSH1 0x4 ADD PUSH2 0x12AB SWAP1 PUSH2 0x2ADB JUMP JUMPDEST PUSH1 0x40 MLOAD DUP1 SWAP2 SUB SWAP1 REVERT JUMPDEST PUSH1 0x3C DUP3 PUSH2 0x12C1 SWAP2 SWAP1 PUSH2 0x24B1 JUMP JUMPDEST PUSH1 0x1 SLOAD PUSH2 0x12CE SWAP2 SWAP1 PUSH2 0x24F2 JUMP JUMPDEST PUSH1 0x2 DUP2 SWAP1 SSTORE POP DUP2 PUSH1 0x40 MLOAD PUSH1 0x20 ADD PUSH2 0x12E5 SWAP2 SWAP1 PUSH2 0x2B8D JUMP JUMPDEST PUSH1 0x40 MLOAD PUSH1 0x20 DUP2 DUP4 SUB SUB DUP2 MSTORE SWAP1 PUSH1 0x40 MSTORE SWAP1 POP SWAP2 SWAP1 POP JUMP JUMPDEST PUSH0 PUSH1 0x1 SLOAD EQ ISZERO DUP1 ISZERO PUSH2 0x130E JUMPI POP TIMESTAMP PUSH1 0x1 SLOAD LT JUMPDEST DUP1 ISZERO PUSH2 0x131B JUMPI POP TIMESTAMP PUSH1 0x2 SLOAD GT JUMPDEST ISZERO PUSH2 0x133F JUMPI PUSH1 0x1 PUSH1 0x3 PUSH0 PUSH2 0x100 EXP DUP2 SLOAD DUP2 PUSH1 0xFF MUL NOT AND SWAP1 DUP4 ISZERO ISZERO MUL OR SWAP1 SSTORE POP PUSH2 0x1359 JUMP JUMPDEST PUSH0 PUSH1 0x3 PUSH0 PUSH2 0x100 EXP DUP2 SLOAD DUP2 PUSH1 0xFF MUL NOT AND SWAP1 DUP4 ISZERO ISZERO MUL OR SWAP1 SSTORE POP JUMPDEST PUSH1 0x3 PUSH0 SWAP1 SLOAD SWAP1 PUSH2 0x100 EXP SWAP1 DIV PUSH1 0xFF AND PUSH2 0x13A7 JUMPI PUSH1 0x40 MLOAD PUSH32 0x8C379A000000000000000000000000000000000000000000000000000000000 DUP2 MSTORE PUSH1 0x4 ADD PUSH2 0x139E SWAP1 PUSH2 0x2C07 JUMP JUMPDEST PUSH1 0x40 MLOAD DUP1 SWAP2 SUB SWAP1 REVERT JUMPDEST PUSH1 0x7 DUP1 SLOAD SWAP1 POP DUP3 LT PUSH2 0x13EE JUMPI PUSH1 0x40 MLOAD PUSH32 0x8C379A000000000000000000000000000000000000000000000000000000000 DUP2 MSTORE PUSH1 0x4 ADD PUSH2 0x13E5 SWAP1 PUSH2 0x2C6F JUMP JUMPDEST PUSH1 0x40 MLOAD DUP1 SWAP2 SUB SWAP1 REVERT JUMPDEST PUSH1 0x7 DUP3 DUP2 SLOAD DUP2 LT PUSH2 0x1402 JUMPI PUSH2 0x1401 PUSH2 0x1E64 JUMP JUMPDEST JUMPDEST SWAP1 PUSH0 MSTORE PUSH1 0x20 PUSH0 KECCAK256 SWAP1 PUSH1 0x4 MUL ADD PUSH1 0x3 ADD PUSH1 0x1 SWAP1 SLOAD SWAP1 PUSH2 0x100 EXP SWAP1 DIV PUSH1 0xFF AND PUSH2 0x145E JUMPI PUSH1 0x40 MLOAD PUSH32 0x8C379A000000000000000000000000000000000000000000000000000000000 DUP2 MSTORE PUSH1 0x4 ADD PUSH2 0x1455 SWAP1 PUSH2 0x2CD7 JUMP JUMPDEST PUSH1 0x40 MLOAD DUP1 SWAP2 SUB SWAP1 REVERT JUMPDEST PUSH1 0x7 DUP3 DUP2 SLOAD DUP2 LT PUSH2 0x1472 JUMPI PUSH2 0x1471 PUSH2 0x1E64 JUMP JUMPDEST JUMPDEST SWAP1 PUSH0 MSTORE PUSH1 0x20 PUSH0 KECCAK256 SWAP1 PUSH1 0x4 MUL ADD PUSH1 0x3 ADD PUSH0 SWAP1 SLOAD SWAP1 PUSH2 0x100 EXP SWAP1 DIV PUSH1 0xFF AND ISZERO PUSH2 0x14CE JUMPI PUSH1 0x40 MLOAD PUSH32 0x8C379A000000000000000000000000000000000000000000000000000000000 DUP2 MSTORE PUSH1 0x4 ADD PUSH2 0x14C5 SWAP1 PUSH2 0x2D3F JUMP JUMPDEST PUSH1 0x40 MLOAD DUP1 SWAP2 SUB SWAP1 REVERT JUMPDEST PUSH1 0x6 DUP1 SLOAD SWAP1 POP DUP2 LT PUSH2 0x1515 JUMPI PUSH1 0x40 MLOAD PUSH32 0x8C379A000000000000000000000000000000000000000000000000000000000 DUP2 MSTORE PUSH1 0x4 ADD PUSH2 0x150C SWAP1 PUSH2 0x2DA7 JUMP JUMPDEST PUSH1 0x40 MLOAD DUP1 SWAP2 SUB SWAP1 REVERT JUMPDEST PUSH1 0x1 PUSH1 0x7 DUP4 DUP2 SLOAD DUP2 LT PUSH2 0x152B JUMPI PUSH2 0x152A PUSH2 0x1E64 JUMP JUMPDEST JUMPDEST SWAP1 PUSH0 MSTORE PUSH1 0x20 PUSH0 KECCAK256 SWAP1 PUSH1 0x4 MUL ADD PUSH1 0x3 ADD PUSH0 PUSH2 0x100 EXP DUP2 SLOAD DUP2 PUSH1 0xFF MUL NOT AND SWAP1 DUP4 ISZERO ISZERO MUL OR SWAP1 SSTORE POP PUSH1 0x8 PUSH0 DUP3 DUP2 MSTORE PUSH1 0x20 ADD SWAP1 DUP2 MSTORE PUSH1 0x20 ADD PUSH0 KECCAK256 PUSH0 DUP2 SLOAD DUP1 SWAP3 SWAP2 SWAP1 PUSH2 0x1571 SWAP1 PUSH2 0x2DC5 JUMP JUMPDEST SWAP2 SWAP1 POP SSTORE POP PUSH0 PUSH0 DUP2 DUP2 SWAP1 SLOAD SWAP1 PUSH2 0x100 EXP SWAP1 DIV PUSH4 0xFFFFFFFF AND DUP1 SWAP3 SWAP2 SWAP1 PUSH2 0x1596 SWAP1 PUSH2 0x2E0C JUMP JUMPDEST SWAP2 SWAP1 PUSH2 0x100 EXP DUP2 SLOAD DUP2 PUSH4 0xFFFFFFFF MUL NOT AND SWAP1 DUP4 PUSH4 0xFFFFFFFF AND MUL OR SWAP1 SSTORE POP POP POP POP JUMP JUMPDEST PUSH1 0x60 PUSH1 0x4 DUP1 SLOAD PUSH2 0x15C8 SWAP1 PUSH2 0x1FBB JUMP JUMPDEST DUP1 PUSH1 0x1F ADD PUSH1 0x20 DUP1 SWAP2 DIV MUL PUSH1 0x20 ADD PUSH1 0x40 MLOAD SWAP1 DUP2 ADD PUSH1 0x40 MSTORE DUP1 SWAP3 SWAP2 SWAP1 DUP2 DUP2 MSTORE PUSH1 0x20 ADD DUP3 DUP1 SLOAD PUSH2 0x15F4 SWAP1 PUSH2 0x1FBB JUMP JUMPDEST DUP1 ISZERO PUSH2 0x163F JUMPI DUP1 PUSH1 0x1F LT PUSH2 0x1616 JUMPI PUSH2 0x100 DUP1 DUP4 SLOAD DIV MUL DUP4 MSTORE SWAP2 PUSH1 0x20 ADD SWAP2 PUSH2 0x163F JUMP JUMPDEST DUP3 ADD SWAP2 SWAP1 PUSH0 MSTORE PUSH1 0x20 PUSH0 KECCAK256 SWAP1 JUMPDEST DUP2 SLOAD DUP2 MSTORE SWAP1 PUSH1 0x1 ADD SWAP1 PUSH1 0x20 ADD DUP1 DUP4 GT PUSH2 0x1622 JUMPI DUP3 SWAP1 SUB PUSH1 0x1F AND DUP3 ADD SWAP2 JUMPDEST POP POP POP POP POP SWAP1 POP SWAP1 JUMP JUMPDEST PUSH1 0x7 DUP2 DUP2 SLOAD DUP2 LT PUSH2 0x1658 JUMPI PUSH0 DUP1 REVERT JUMPDEST SWAP1 PUSH0 MSTORE PUSH1 0x20 PUSH0 KECCAK256 SWAP1 PUSH1 0x4 MUL ADD PUSH0 SWAP2 POP SWAP1 POP DUP1 PUSH0 ADD DUP1 SLOAD PUSH2 0x1677 SWAP1 PUSH2 0x1FBB JUMP JUMPDEST DUP1 PUSH1 0x1F ADD PUSH1 0x20 DUP1 SWAP2 DIV MUL PUSH1 0x20 ADD PUSH1 0x40 MLOAD SWAP1 DUP2 ADD PUSH1 0x40 MSTORE DUP1 SWAP3 SWAP2 SWAP1 DUP2 DUP2 MSTORE PUSH1 0x20 ADD DUP3 DUP1 SLOAD PUSH2 0x16A3 SWAP1 PUSH2 0x1FBB JUMP JUMPDEST DUP1 ISZERO PUSH2 0x16EE JUMPI DUP1 PUSH1 0x1F LT PUSH2 0x16C5 JUMPI PUSH2 0x100 DUP1 DUP4 SLOAD DIV MUL DUP4 MSTORE SWAP2 PUSH1 0x20 ADD SWAP2 PUSH2 0x16EE JUMP JUMPDEST DUP3 ADD SWAP2 SWAP1 PUSH0 MSTORE PUSH1 0x20 PUSH0 KECCAK256 SWAP1 JUMPDEST DUP2 SLOAD DUP2 MSTORE SWAP1 PUSH1 0x1 ADD SWAP1 PUSH1 0x20 ADD DUP1 DUP4 GT PUSH2 0x16D1 JUMPI DUP3 SWAP1 SUB PUSH1 0x1F AND DUP3 ADD SWAP2 JUMPDEST POP POP POP POP POP SWAP1 DUP1 PUSH1 0x1 ADD PUSH0 SWAP1 SLOAD SWAP1 PUSH2 0x100 EXP SWAP1 DIV PUSH1 0xFF AND SWAP1 DUP1 PUSH1 0x2 ADD DUP1 SLOAD PUSH2 0x1715 SWAP1 PUSH2 0x1FBB JUMP JUMPDEST DUP1 PUSH1 0x1F ADD PUSH1 0x20 DUP1 SWAP2 DIV MUL PUSH1 0x20 ADD PUSH1 0x40 MLOAD SWAP1 DUP2 ADD PUSH1 0x40 MSTORE DUP1 SWAP3 SWAP2 SWAP1 DUP2 DUP2 MSTORE PUSH1 0x20 ADD DUP3 DUP1 SLOAD PUSH2 0x1741 SWAP1 PUSH2 0x1FBB JUMP JUMPDEST DUP1 ISZERO PUSH2 0x178C JUMPI DUP1 PUSH1 0x1F LT PUSH2 0x1763 JUMPI PUSH2 0x100 DUP1 DUP4 SLOAD DIV MUL DUP4 MSTORE SWAP2 PUSH1 0x20 ADD SWAP2 PUSH2 0x178C JUMP JUMPDEST DUP3 ADD SWAP2 SWAP1 PUSH0 MSTORE PUSH1 0x20 PUSH0 KECCAK256 SWAP1 JUMPDEST DUP2 SLOAD DUP2 MSTORE SWAP1 PUSH1 0x1 ADD SWAP1 PUSH1 0x20 ADD DUP1 DUP4 GT PUSH2 0x176F JUMPI DUP3 SWAP1 SUB PUSH1 0x1F AND DUP3 ADD SWAP2 JUMPDEST POP POP POP POP POP SWAP1 DUP1 PUSH1 0x3 ADD PUSH0 SWAP1 SLOAD SWAP1 PUSH2 0x100 EXP SWAP1 DIV PUSH1 0xFF AND SWAP1 DUP1 PUSH1 0x3 ADD PUSH1 0x1 SWAP1 SLOAD SWAP1 PUSH2 0x100 EXP SWAP1 DIV PUSH1 0xFF AND SWAP1 POP DUP6 JUMP JUMPDEST PUSH1 0x6 DUP2 DUP2 SLOAD DUP2 LT PUSH2 0x17CA JUMPI PUSH0 DUP1 REVERT JUMPDEST SWAP1 PUSH0 MSTORE PUSH1 0x20 PUSH0 KECCAK256 SWAP1 PUSH1 0x4 MUL ADD PUSH0 SWAP2 POP SWAP1 POP DUP1 PUSH0 ADD DUP1 SLOAD PUSH2 0x17E9 SWAP1 PUSH2 0x1FBB JUMP JUMPDEST DUP1 PUSH1 0x1F ADD PUSH1 0x20 DUP1 SWAP2 DIV MUL PUSH1 0x20 ADD PUSH1 0x40 MLOAD SWAP1 DUP2 ADD PUSH1 0x40 MSTORE DUP1 SWAP3 SWAP2 SWAP1 DUP2 DUP2 MSTORE PUSH1 0x20 ADD DUP3 DUP1 SLOAD PUSH2 0x1815 SWAP1 PUSH2 0x1FBB JUMP JUMPDEST DUP1 ISZERO PUSH2 0x1860 JUMPI DUP1 PUSH1 0x1F LT PUSH2 0x1837 JUMPI PUSH2 0x100 DUP1 DUP4 SLOAD DIV MUL DUP4 MSTORE SWAP2 PUSH1 0x20 ADD SWAP2 PUSH2 0x1860 JUMP JUMPDEST DUP3 ADD SWAP2 SWAP1 PUSH0 MSTORE PUSH1 0x20 PUSH0 KECCAK256 SWAP1 JUMPDEST DUP2 SLOAD DUP2 MSTORE SWAP1 PUSH1 0x1 ADD SWAP1 PUSH1 0x20 ADD DUP1 DUP4 GT PUSH2 0x1843 JUMPI DUP3 SWAP1 SUB PUSH1 0x1F AND DUP3 ADD SWAP2 JUMPDEST POP POP POP POP POP SWAP1 DUP1 PUSH1 0x1 ADD PUSH0 SWAP1 SLOAD SWAP1 PUSH2 0x100 EXP SWAP1 DIV PUSH1 0xFF AND SWAP1 DUP1 PUSH1 0x2 ADD DUP1 SLOAD PUSH2 0x1887 SWAP1 PUSH2 0x1FBB JUMP JUMPDEST DUP1 PUSH1 0x1F ADD PUSH1 0x20 DUP1 SWAP2 DIV MUL PUSH1 0x20 ADD PUSH1 0x40 MLOAD SWAP1 DUP2 ADD PUSH1 0x40 MSTORE DUP1 SWAP3 SWAP2 SWAP1 DUP2 DUP2 MSTORE PUSH1 0x20 ADD DUP3 DUP1 SLOAD PUSH2 0x18B3 SWAP1 PUSH2 0x1FBB JUMP JUMPDEST DUP1 ISZERO PUSH2 0x18FE JUMPI DUP1 PUSH1 0x1F LT PUSH2 0x18D5 JUMPI PUSH2 0x100 DUP1 DUP4 SLOAD DIV MUL DUP4 MSTORE SWAP2 PUSH1 0x20 ADD SWAP2 PUSH2 0x18FE JUMP JUMPDEST DUP3 ADD SWAP2 SWAP1 PUSH0 MSTORE PUSH1 0x20 PUSH0 KECCAK256 SWAP1 JUMPDEST DUP2 SLOAD DUP2 MSTORE SWAP1 PUSH1 0x1 ADD SWAP1 PUSH1 0x20 ADD DUP1 DUP4 GT PUSH2 0x18E1 JUMPI DUP3 SWAP1 SUB PUSH1 0x1F AND DUP3 ADD SWAP2 JUMPDEST POP POP POP POP POP SWAP1 DUP1 PUSH1 0x3 ADD DUP1 SLOAD PUSH2 0x1913 SWAP1 PUSH2 0x1FBB JUMP JUMPDEST DUP1 PUSH1 0x1F ADD PUSH1 0x20 DUP1 SWAP2 DIV MUL PUSH1 0x20 ADD PUSH1 0x40 MLOAD SWAP1 DUP2 ADD PUSH1 0x40 MSTORE DUP1 SWAP3 SWAP2 SWAP1 DUP2 DUP2 MSTORE PUSH1 0x20 ADD DUP3 DUP1 SLOAD PUSH2 0x193F SWAP1 PUSH2 0x1FBB JUMP JUMPDEST DUP1 ISZERO PUSH2 0x198A JUMPI DUP1 PUSH1 0x1F LT PUSH2 0x1961 JUMPI PUSH2 0x100 DUP1 DUP4 SLOAD DIV MUL DUP4 MSTORE SWAP2 PUSH1 0x20 ADD SWAP2 PUSH2 0x198A JUMP JUMPDEST DUP3 ADD SWAP2 SWAP1 PUSH0 MSTORE PUSH1 0x20 PUSH0 KECCAK256 SWAP1 JUMPDEST DUP2 SLOAD DUP2 MSTORE SWAP1 PUSH1 0x1 ADD SWAP1 PUSH1 0x20 ADD DUP1 DUP4 GT PUSH2 0x196D JUMPI DUP3 SWAP1 SUB PUSH1 0x1F AND DUP3 ADD SWAP2 JUMPDEST POP POP POP POP POP SWAP1 POP DUP5 JUMP JUMPDEST PUSH0 PUSH4 0xFFFFFFFF DUP3 AND SWAP1 POP SWAP2 SWAP1 POP JUMP JUMPDEST PUSH2 0x19AC DUP2 PUSH2 0x1994 JUMP JUMPDEST DUP3 MSTORE POP POP JUMP JUMPDEST PUSH0 PUSH1 0x20 DUP3 ADD SWAP1 POP PUSH2 0x19C5 PUSH0 DUP4 ADD DUP5 PUSH2 0x19A3 JUMP JUMPDEST SWAP3 SWAP2 POP POP JUMP JUMPDEST PUSH0 PUSH0 REVERT JUMPDEST PUSH0 PUSH0 REVERT JUMPDEST PUSH0 DUP2 SWAP1 POP SWAP2 SWAP1 POP JUMP JUMPDEST PUSH2 0x19E5 DUP2 PUSH2 0x19D3 JUMP JUMPDEST DUP2 EQ PUSH2 0x19EF JUMPI PUSH0 PUSH0 REVERT JUMPDEST POP JUMP JUMPDEST PUSH0 DUP2 CALLDATALOAD SWAP1 POP PUSH2 0x1A00 DUP2 PUSH2 0x19DC JUMP JUMPDEST SWAP3 SWAP2 POP POP JUMP JUMPDEST PUSH0 PUSH1 0x20 DUP3 DUP5 SUB SLT ISZERO PUSH2 0x1A1B JUMPI PUSH2 0x1A1A PUSH2 0x19CB JUMP JUMPDEST JUMPDEST PUSH0 PUSH2 0x1A28 DUP5 DUP3 DUP6 ADD PUSH2 0x19F2 JUMP JUMPDEST SWAP2 POP POP SWAP3 SWAP2 POP POP JUMP JUMPDEST PUSH0 PUSH20 0xFFFFFFFFFFFFFFFFFFFFFFFFFFFFFFFFFFFFFFFF DUP3 AND SWAP1 POP SWAP2 SWAP1 POP JUMP JUMPDEST PUSH0 PUSH2 0x1A5A DUP3 PUSH2 0x1A31 JUMP JUMPDEST SWAP1 POP SWAP2 SWAP1 POP JUMP JUMPDEST PUSH2 0x1A6A DUP2 PUSH2 0x1A50 JUMP JUMPDEST DUP3 MSTORE POP POP JUMP JUMPDEST PUSH0 PUSH1 0x20 DUP3 ADD SWAP1 POP PUSH2 0x1A83 PUSH0 DUP4 ADD DUP5 PUSH2 0x1A61 JUMP JUMPDEST SWAP3 SWAP2 POP POP JUMP JUMPDEST PUSH2 0x1A92 DUP2 PUSH2 0x19D3 JUMP JUMPDEST DUP3 MSTORE POP POP JUMP JUMPDEST PUSH0 PUSH1 0x20 DUP3 ADD SWAP1 POP PUSH2 0x1AAB PUSH0 DUP4 ADD DUP5 PUSH2 0x1A89 JUMP JUMPDEST SWAP3 SWAP2 POP POP JUMP JUMPDEST PUSH0 PUSH0 REVERT JUMPDEST PUSH0 PUSH0 REVERT JUMPDEST PUSH0 PUSH0 REVERT JUMPDEST PUSH0 PUSH0 DUP4 PUSH1 0x1F DUP5 ADD SLT PUSH2 0x1AD2 JUMPI PUSH2 0x1AD1 PUSH2 0x1AB1 JUMP JUMPDEST JUMPDEST DUP3 CALLDATALOAD SWAP1 POP PUSH8 0xFFFFFFFFFFFFFFFF DUP2 GT ISZERO PUSH2 0x1AEF JUMPI PUSH2 0x1AEE PUSH2 0x1AB5 JUMP JUMPDEST JUMPDEST PUSH1 0x20 DUP4 ADD SWAP2 POP DUP4 PUSH1 0x1 DUP3 MUL DUP4 ADD GT ISZERO PUSH2 0x1B0B JUMPI PUSH2 0x1B0A PUSH2 0x1AB9 JUMP JUMPDEST JUMPDEST SWAP3 POP SWAP3 SWAP1 POP JUMP JUMPDEST PUSH0 PUSH1 0xFF DUP3 AND SWAP1 POP SWAP2 SWAP1 POP JUMP JUMPDEST PUSH2 0x1B27 DUP2 PUSH2 0x1B12 JUMP JUMPDEST DUP2 EQ PUSH2 0x1B31 JUMPI PUSH0 PUSH0 REVERT JUMPDEST POP JUMP JUMPDEST PUSH0 DUP2 CALLDATALOAD SWAP1 POP PUSH2 0x1B42 DUP2 PUSH2 0x1B1E JUMP JUMPDEST SWAP3 SWAP2 POP POP JUMP JUMPDEST PUSH0 PUSH0 PUSH0 PUSH0 PUSH0 PUSH1 0x60 DUP7 DUP9 SUB SLT ISZERO PUSH2 0x1B61 JUMPI PUSH2 0x1B60 PUSH2 0x19CB JUMP JUMPDEST JUMPDEST PUSH0 DUP7 ADD CALLDATALOAD PUSH8 0xFFFFFFFFFFFFFFFF DUP2 GT ISZERO PUSH2 0x1B7E JUMPI PUSH2 0x1B7D PUSH2 0x19CF JUMP JUMPDEST JUMPDEST PUSH2 0x1B8A DUP9 DUP3 DUP10 ADD PUSH2 0x1ABD JUMP JUMPDEST SWAP6 POP SWAP6 POP POP PUSH1 0x20 PUSH2 0x1B9D DUP9 DUP3 DUP10 ADD PUSH2 0x1B34 JUMP JUMPDEST SWAP4 POP POP PUSH1 0x40 DUP7 ADD CALLDATALOAD PUSH8 0xFFFFFFFFFFFFFFFF DUP2 GT ISZERO PUSH2 0x1BBE JUMPI PUSH2 0x1BBD PUSH2 0x19CF JUMP JUMPDEST JUMPDEST PUSH2 0x1BCA DUP9 DUP3 DUP10 ADD PUSH2 0x1ABD JUMP JUMPDEST SWAP3 POP SWAP3 POP POP SWAP3 SWAP6 POP SWAP3 SWAP6 SWAP1 SWAP4 POP JUMP JUMPDEST PUSH0 DUP2 MLOAD SWAP1 POP SWAP2 SWAP1 POP JUMP JUMPDEST PUSH0 DUP3 DUP3 MSTORE PUSH1 0x20 DUP3 ADD SWAP1 POP SWAP3 SWAP2 POP POP JUMP JUMPDEST DUP3 DUP2 DUP4 MCOPY PUSH0 DUP4 DUP4 ADD MSTORE POP POP POP JUMP JUMPDEST PUSH0 PUSH1 0x1F NOT PUSH1 0x1F DUP4 ADD AND SWAP1 POP SWAP2 SWAP1 POP JUMP JUMPDEST PUSH0 PUSH2 0x1C1B DUP3 PUSH2 0x1BD9 JUMP JUMPDEST PUSH2 0x1C25 DUP2 DUP6 PUSH2 0x1BE3 JUMP JUMPDEST SWAP4 POP PUSH2 0x1C35 DUP2 DUP6 PUSH1 0x20 DUP7 ADD PUSH2 0x1BF3 JUMP JUMPDEST PUSH2 0x1C3E DUP2 PUSH2 0x1C01 JUMP JUMPDEST DUP5 ADD SWAP2 POP POP SWAP3 SWAP2 POP POP JUMP JUMPDEST PUSH0 PUSH1 0x20 DUP3 ADD SWAP1 POP DUP2 DUP2 SUB PUSH0 DUP4 ADD MSTORE PUSH2 0x1C61 DUP2 DUP5 PUSH2 0x1C11 JUMP JUMPDEST SWAP1 POP SWAP3 SWAP2 POP POP JUMP JUMPDEST PUSH0 DUP2 ISZERO ISZERO SWAP1 POP SWAP2 SWAP1 POP JUMP JUMPDEST PUSH2 0x1C7D DUP2 PUSH2 0x1C69 JUMP JUMPDEST DUP3 MSTORE POP POP JUMP JUMPDEST PUSH0 PUSH1 0x20 DUP3 ADD SWAP1 POP PUSH2 0x1C96 PUSH0 DUP4 ADD DUP5 PUSH2 0x1C74 JUMP JUMPDEST SWAP3 SWAP2 POP POP JUMP JUMPDEST PUSH0 PUSH0 PUSH0 PUSH0 PUSH0 PUSH0 PUSH0 PUSH1 0x80 DUP9 DUP11 SUB SLT ISZERO PUSH2 0x1CB7 JUMPI PUSH2 0x1CB6 PUSH2 0x19CB JUMP JUMPDEST JUMPDEST PUSH0 DUP9 ADD CALLDATALOAD PUSH8 0xFFFFFFFFFFFFFFFF DUP2 GT ISZERO PUSH2 0x1CD4 JUMPI PUSH2 0x1CD3 PUSH2 0x19CF JUMP JUMPDEST JUMPDEST PUSH2 0x1CE0 DUP11 DUP3 DUP12 ADD PUSH2 0x1ABD JUMP JUMPDEST SWAP8 POP SWAP8 POP POP PUSH1 0x20 PUSH2 0x1CF3 DUP11 DUP3 DUP12 ADD PUSH2 0x1B34 JUMP JUMPDEST SWAP6 POP POP PUSH1 0x40 DUP9 ADD CALLDATALOAD PUSH8 0xFFFFFFFFFFFFFFFF DUP2 GT ISZERO PUSH2 0x1D14 JUMPI PUSH2 0x1D13 PUSH2 0x19CF JUMP JUMPDEST JUMPDEST PUSH2 0x1D20 DUP11 DUP3 DUP12 ADD PUSH2 0x1ABD JUMP JUMPDEST SWAP5 POP SWAP5 POP POP PUSH1 0x60 DUP9 ADD CALLDATALOAD PUSH8 0xFFFFFFFFFFFFFFFF DUP2 GT ISZERO PUSH2 0x1D43 JUMPI PUSH2 0x1D42 PUSH2 0x19CF JUMP JUMPDEST JUMPDEST PUSH2 0x1D4F DUP11 DUP3 DUP12 ADD PUSH2 0x1ABD JUMP JUMPDEST SWAP3 POP SWAP3 POP POP SWAP3 SWAP6 SWAP9 SWAP2 SWAP5 SWAP8 POP SWAP3 SWAP6 POP JUMP JUMPDEST PUSH0 PUSH0 PUSH1 0x40 DUP4 DUP6 SUB SLT ISZERO PUSH2 0x1D76 JUMPI PUSH2 0x1D75 PUSH2 0x19CB JUMP JUMPDEST JUMPDEST PUSH0 PUSH2 0x1D83 DUP6 DUP3 DUP7 ADD PUSH2 0x19F2 JUMP JUMPDEST SWAP3 POP POP PUSH1 0x20 PUSH2 0x1D94 DUP6 DUP3 DUP7 ADD PUSH2 0x19F2 JUMP JUMPDEST SWAP2 POP POP SWAP3 POP SWAP3 SWAP1 POP JUMP JUMPDEST PUSH2 0x1DA7 DUP2 PUSH2 0x1B12 JUMP JUMPDEST DUP3 MSTORE POP POP JUMP JUMPDEST PUSH0 PUSH1 0xA0 DUP3 ADD SWAP1 POP DUP2 DUP2 SUB PUSH0 DUP4 ADD MSTORE PUSH2 0x1DC5 DUP2 DUP9 PUSH2 0x1C11 JUMP JUMPDEST SWAP1 POP PUSH2 0x1DD4 PUSH1 0x20 DUP4 ADD DUP8 PUSH2 0x1D9E JUMP JUMPDEST DUP2 DUP2 SUB PUSH1 0x40 DUP4 ADD MSTORE PUSH2 0x1DE6 DUP2 DUP7 PUSH2 0x1C11 JUMP JUMPDEST SWAP1 POP PUSH2 0x1DF5 PUSH1 0x60 DUP4 ADD DUP6 PUSH2 0x1C74 JUMP JUMPDEST PUSH2 0x1E02 PUSH1 0x80 DUP4 ADD DUP5 PUSH2 0x1C74 JUMP JUMPDEST SWAP7 SWAP6 POP POP POP POP POP POP JUMP JUMPDEST PUSH0 PUSH1 0x80 DUP3 ADD SWAP1 POP DUP2 DUP2 SUB PUSH0 DUP4 ADD MSTORE PUSH2 0x1E24 DUP2 DUP8 PUSH2 0x1C11 JUMP JUMPDEST SWAP1 POP PUSH2 0x1E33 PUSH1 0x20 DUP4 ADD DUP7 PUSH2 0x1D9E JUMP JUMPDEST DUP2 DUP2 SUB PUSH1 0x40 DUP4 ADD MSTORE PUSH2 0x1E45 DUP2 DUP6 PUSH2 0x1C11 JUMP JUMPDEST SWAP1 POP DUP2 DUP2 SUB PUSH1 0x60 DUP4 ADD MSTORE PUSH2 0x1E59 DUP2 DUP5 PUSH2 0x1C11 JUMP JUMPDEST SWAP1 POP SWAP6 SWAP5 POP POP POP POP POP JUMP JUMPDEST PUSH32 0x4E487B7100000000000000000000000000000000000000000000000000000000 PUSH0 MSTORE PUSH1 0x32 PUSH1 0x4 MSTORE PUSH1 0x24 PUSH0 REVERT JUMPDEST PUSH32 0x596F75277265206E6F7420616E2061646D696E00000000000000000000000000 PUSH0 DUP3 ADD MSTORE POP JUMP JUMPDEST PUSH0 PUSH2 0x1EC5 PUSH1 0x13 DUP4 PUSH2 0x1BE3 JUMP JUMPDEST SWAP2 POP PUSH2 0x1ED0 DUP3 PUSH2 0x1E91 JUMP JUMPDEST PUSH1 0x20 DUP3 ADD SWAP1 POP SWAP2 SWAP1 POP JUMP JUMPDEST PUSH0 PUSH1 0x20 DUP3 ADD SWAP1 POP DUP2 DUP2 SUB PUSH0 DUP4 ADD MSTORE PUSH2 0x1EF2 DUP2 PUSH2 0x1EB9 JUMP JUMPDEST SWAP1 POP SWAP2 SWAP1 POP JUMP JUMPDEST PUSH32 0x566F746572206D757374206265206174206C6561737420313800000000000000 PUSH0 DUP3 ADD MSTORE POP JUMP JUMPDEST PUSH0 PUSH2 0x1F2D PUSH1 0x19 DUP4 PUSH2 0x1BE3 JUMP JUMPDEST SWAP2 POP PUSH2 0x1F38 DUP3 PUSH2 0x1EF9 JUMP JUMPDEST PUSH1 0x20 DUP3 ADD SWAP1 POP SWAP2 SWAP1 POP JUMP JUMPDEST PUSH0 PUSH1 0x20 DUP3 ADD SWAP1 POP DUP2 DUP2 SUB PUSH0 DUP4 ADD MSTORE PUSH2 0x1F5A DUP2 PUSH2 0x1F21 JUMP JUMPDEST SWAP1 POP SWAP2 SWAP1 POP JUMP JUMPDEST PUSH32 0x4E487B7100000000000000000000000000000000000000000000000000000000 PUSH0 MSTORE PUSH1 0x41 PUSH1 0x4 MSTORE PUSH1 0x24 PUSH0 REVERT JUMPDEST PUSH32 0x4E487B7100000000000000000000000000000000000000000000000000000000 PUSH0 MSTORE PUSH1 0x22 PUSH1 0x4 MSTORE PUSH1 0x24 PUSH0 REVERT JUMPDEST PUSH0 PUSH1 0x2 DUP3 DIV SWAP1 POP PUSH1 0x1 DUP3 AND DUP1 PUSH2 0x1FD2 JUMPI PUSH1 0x7F DUP3 AND SWAP2 POP JUMPDEST PUSH1 0x20 DUP3 LT DUP2 SUB PUSH2 0x1FE5 JUMPI PUSH2 0x1FE4 PUSH2 0x1F8E JUMP JUMPDEST JUMPDEST POP SWAP2 SWAP1 POP JUMP JUMPDEST PUSH0 DUP2 SWAP1 POP DUP2 PUSH0 MSTORE PUSH1 0x20 PUSH0 KECCAK256 SWAP1 POP SWAP2 SWAP1 POP JUMP JUMPDEST PUSH0 PUSH1 0x20 PUSH1 0x1F DUP4 ADD DIV SWAP1 POP SWAP2 SWAP1 POP JUMP JUMPDEST PUSH0 DUP3 DUP3 SHL SWAP1 POP SWAP3 SWAP2 POP POP JUMP JUMPDEST PUSH0 PUSH1 0x8 DUP4 MUL PUSH2 0x2047 PUSH32 0xFFFFFFFFFFFFFFFFFFFFFFFFFFFFFFFFFFFFFFFFFFFFFFFFFFFFFFFFFFFFFFFF DUP3 PUSH2 0x200C JUMP JUMPDEST PUSH2 0x2051 DUP7 DUP4 PUSH2 0x200C JUMP JUMPDEST SWAP6 POP DUP1 NOT DUP5 AND SWAP4 POP DUP1 DUP7 AND DUP5 OR SWAP3 POP POP POP SWAP4 SWAP3 POP POP POP JUMP JUMPDEST PUSH0 DUP2 SWAP1 POP SWAP2 SWAP1 POP JUMP JUMPDEST PUSH0 PUSH2 0x208C PUSH2 0x2087 PUSH2 0x2082 DUP5 PUSH2 0x19D3 JUMP JUMPDEST PUSH2 0x2069 JUMP JUMPDEST PUSH2 0x19D3 JUMP JUMPDEST SWAP1 POP SWAP2 SWAP1 POP JUMP JUMPDEST PUSH0 DUP2 SWAP1 POP SWAP2 SWAP1 POP JUMP JUMPDEST PUSH2 0x20A5 DUP4 PUSH2 0x2072 JUMP JUMPDEST PUSH2 0x20B9 PUSH2 0x20B1 DUP3 PUSH2 0x2093 JUMP JUMPDEST DUP5 DUP5 SLOAD PUSH2 0x2018 JUMP JUMPDEST DUP3 SSTORE POP POP POP POP JUMP JUMPDEST PUSH0 PUSH0 SWAP1 POP SWAP1 JUMP JUMPDEST PUSH2 0x20D0 PUSH2 0x20C1 JUMP JUMPDEST PUSH2 0x20DB DUP2 DUP5 DUP5 PUSH2 0x209C JUMP JUMPDEST POP POP POP JUMP JUMPDEST JUMPDEST DUP2 DUP2 LT ISZERO PUSH2 0x20FE JUMPI PUSH2 0x20F3 PUSH0 DUP3 PUSH2 0x20C8 JUMP JUMPDEST PUSH1 0x1 DUP2 ADD SWAP1 POP PUSH2 0x20E1 JUMP JUMPDEST POP POP JUMP JUMPDEST PUSH1 0x1F DUP3 GT ISZERO PUSH2 0x2143 JUMPI PUSH2 0x2114 DUP2 PUSH2 0x1FEB JUMP JUMPDEST PUSH2 0x211D DUP5 PUSH2 0x1FFD JUMP JUMPDEST DUP2 ADD PUSH1 0x20 DUP6 LT ISZERO PUSH2 0x212C JUMPI DUP2 SWAP1 POP JUMPDEST PUSH2 0x2140 PUSH2 0x2138 DUP6 PUSH2 0x1FFD JUMP JUMPDEST DUP4 ADD DUP3 PUSH2 0x20E0 JUMP JUMPDEST POP POP JUMPDEST POP POP POP JUMP JUMPDEST PUSH0 DUP3 DUP3 SHR SWAP1 POP SWAP3 SWAP2 POP POP JUMP JUMPDEST PUSH0 PUSH2 0x2163 PUSH0 NOT DUP5 PUSH1 0x8 MUL PUSH2 0x2148 JUMP JUMPDEST NOT DUP1 DUP4 AND SWAP2 POP POP SWAP3 SWAP2 POP POP JUMP JUMPDEST PUSH0 PUSH2 0x217B DUP4 DUP4 PUSH2 0x2154 JUMP JUMPDEST SWAP2 POP DUP3 PUSH1 0x2 MUL DUP3 OR SWAP1 POP SWAP3 SWAP2 POP POP JUMP JUMPDEST PUSH2 0x2194 DUP3 PUSH2 0x1BD9 JUMP JUMPDEST PUSH8 0xFFFFFFFFFFFFFFFF DUP2 GT ISZERO PUSH2 0x21AD JUMPI PUSH2 0x21AC PUSH2 0x1F61 JUMP JUMPDEST JUMPDEST PUSH2 0x21B7 DUP3 SLOAD PUSH2 0x1FBB JUMP JUMPDEST PUSH2 0x21C2 DUP3 DUP3 DUP6 PUSH2 0x2102 JUMP JUMPDEST PUSH0 PUSH1 0x20 SWAP1 POP PUSH1 0x1F DUP4 GT PUSH1 0x1 DUP2 EQ PUSH2 0x21F3 JUMPI PUSH0 DUP5 ISZERO PUSH2 0x21E1 JUMPI DUP3 DUP8 ADD MLOAD SWAP1 POP JUMPDEST PUSH2 0x21EB DUP6 DUP3 PUSH2 0x2170 JUMP JUMPDEST DUP7 SSTORE POP PUSH2 0x2252 JUMP JUMPDEST PUSH1 0x1F NOT DUP5 AND PUSH2 0x2201 DUP7 PUSH2 0x1FEB JUMP JUMPDEST PUSH0 JUMPDEST DUP3 DUP2 LT ISZERO PUSH2 0x2228 JUMPI DUP5 DUP10 ADD MLOAD DUP3 SSTORE PUSH1 0x1 DUP3 ADD SWAP2 POP PUSH1 0x20 DUP6 ADD SWAP5 POP PUSH1 0x20 DUP2 ADD SWAP1 POP PUSH2 0x2203 JUMP JUMPDEST DUP7 DUP4 LT ISZERO PUSH2 0x2245 JUMPI DUP5 DUP10 ADD MLOAD PUSH2 0x2241 PUSH1 0x1F DUP10 AND DUP3 PUSH2 0x2154 JUMP JUMPDEST DUP4 SSTORE POP JUMPDEST PUSH1 0x1 PUSH1 0x2 DUP9 MUL ADD DUP9 SSTORE POP POP POP JUMPDEST POP POP POP POP POP POP JUMP JUMPDEST PUSH32 0x4E487B7100000000000000000000000000000000000000000000000000000000 PUSH0 MSTORE PUSH1 0x11 PUSH1 0x4 MSTORE PUSH1 0x24 PUSH0 REVERT JUMPDEST PUSH0 PUSH2 0x2291 DUP3 PUSH2 0x19D3 JUMP JUMPDEST SWAP2 POP PUSH2 0x229C DUP4 PUSH2 0x19D3 JUMP JUMPDEST SWAP3 POP DUP3 DUP3 SUB SWAP1 POP DUP2 DUP2 GT ISZERO PUSH2 0x22B4 JUMPI PUSH2 0x22B3 PUSH2 0x225A JUMP JUMPDEST JUMPDEST SWAP3 SWAP2 POP POP JUMP JUMPDEST PUSH0 DUP2 SWAP1 POP SWAP3 SWAP2 POP POP JUMP JUMPDEST PUSH32 0x537563636573732120596F757220494420697320000000000000000000000000 PUSH0 DUP3 ADD MSTORE POP JUMP JUMPDEST PUSH0 PUSH2 0x22F8 PUSH1 0x14 DUP4 PUSH2 0x22BA JUMP JUMPDEST SWAP2 POP PUSH2 0x2303 DUP3 PUSH2 0x22C4 JUMP JUMPDEST PUSH1 0x14 DUP3 ADD SWAP1 POP SWAP2 SWAP1 POP JUMP JUMPDEST PUSH0 DUP2 SWAP1 POP SWAP2 SWAP1 POP JUMP JUMPDEST PUSH2 0x2328 PUSH2 0x2323 DUP3 PUSH2 0x19D3 JUMP JUMPDEST PUSH2 0x230E JUMP JUMPDEST DUP3 MSTORE POP POP JUMP JUMPDEST PUSH0 PUSH2 0x2338 DUP3 PUSH2 0x22EC JUMP JUMPDEST SWAP2 POP PUSH2 0x2344 DUP3 DUP5 PUSH2 0x2317 JUMP JUMPDEST PUSH1 0x20 DUP3 ADD SWAP2 POP DUP2 SWAP1 POP SWAP3 SWAP2 POP POP JUMP JUMPDEST PUSH32 0x41646D696E206C696D6974207265616368656400000000000000000000000000 PUSH0 DUP3 ADD MSTORE POP JUMP JUMPDEST PUSH0 PUSH2 0x2387 PUSH1 0x13 DUP4 PUSH2 0x1BE3 JUMP JUMPDEST SWAP2 POP PUSH2 0x2392 DUP3 PUSH2 0x2353 JUMP JUMPDEST PUSH1 0x20 DUP3 ADD SWAP1 POP SWAP2 SWAP1 POP JUMP JUMPDEST PUSH0 PUSH1 0x20 DUP3 ADD SWAP1 POP DUP2 DUP2 SUB PUSH0 DUP4 ADD MSTORE PUSH2 0x23B4 DUP2 PUSH2 0x237B JUMP JUMPDEST SWAP1 POP SWAP2 SWAP1 POP JUMP JUMPDEST PUSH32 0x41646D696E20616C726561647920726567697374657265640000000000000000 PUSH0 DUP3 ADD MSTORE POP JUMP JUMPDEST PUSH0 PUSH2 0x23EF PUSH1 0x18 DUP4 PUSH2 0x1BE3 JUMP JUMPDEST SWAP2 POP PUSH2 0x23FA DUP3 PUSH2 0x23BB JUMP JUMPDEST PUSH1 0x20 DUP3 ADD SWAP1 POP SWAP2 SWAP1 POP JUMP JUMPDEST PUSH0 PUSH1 0x20 DUP3 ADD SWAP1 POP DUP2 DUP2 SUB PUSH0 DUP4 ADD MSTORE PUSH2 0x241C DUP2 PUSH2 0x23E3 JUMP JUMPDEST SWAP1 POP SWAP2 SWAP1 POP JUMP JUMPDEST PUSH32 0x43616E2774206368616E67652073746172742074696D6520647572696E672065 PUSH0 DUP3 ADD MSTORE PUSH32 0x6C656374696F6E00000000000000000000000000000000000000000000000000 PUSH1 0x20 DUP3 ADD MSTORE POP JUMP JUMPDEST PUSH0 PUSH2 0x247D PUSH1 0x27 DUP4 PUSH2 0x1BE3 JUMP JUMPDEST SWAP2 POP PUSH2 0x2488 DUP3 PUSH2 0x2423 JUMP JUMPDEST PUSH1 0x40 DUP3 ADD SWAP1 POP SWAP2 SWAP1 POP JUMP JUMPDEST PUSH0 PUSH1 0x20 DUP3 ADD SWAP1 POP DUP2 DUP2 SUB PUSH0 DUP4 ADD MSTORE PUSH2 0x24AA DUP2 PUSH2 0x2471 JUMP JUMPDEST SWAP1 POP SWAP2 SWAP1 POP JUMP JUMPDEST PUSH0 PUSH2 0x24BB DUP3 PUSH2 0x19D3 JUMP JUMPDEST SWAP2 POP PUSH2 0x24C6 DUP4 PUSH2 0x19D3 JUMP JUMPDEST SWAP3 POP DUP3 DUP3 MUL PUSH2 0x24D4 DUP2 PUSH2 0x19D3 JUMP JUMPDEST SWAP2 POP DUP3 DUP3 DIV DUP5 EQ DUP4 ISZERO OR PUSH2 0x24EB JUMPI PUSH2 0x24EA PUSH2 0x225A JUMP JUMPDEST JUMPDEST POP SWAP3 SWAP2 POP POP JUMP JUMPDEST PUSH0 PUSH2 0x24FC DUP3 PUSH2 0x19D3 JUMP JUMPDEST SWAP2 POP PUSH2 0x2507 DUP4 PUSH2 0x19D3 JUMP JUMPDEST SWAP3 POP DUP3 DUP3 ADD SWAP1 POP DUP1 DUP3 GT ISZERO PUSH2 0x251F JUMPI PUSH2 0x251E PUSH2 0x225A JUMP JUMPDEST JUMPDEST SWAP3 SWAP2 POP POP JUMP JUMPDEST PUSH32 0x456C656374696F6E207374617274696E6720696E200000000000000000000000 PUSH0 DUP3 ADD MSTORE POP JUMP JUMPDEST PUSH0 PUSH2 0x2559 PUSH1 0x15 DUP4 PUSH2 0x22BA JUMP JUMPDEST SWAP2 POP PUSH2 0x2564 DUP3 PUSH2 0x2525 JUMP JUMPDEST PUSH1 0x15 DUP3 ADD SWAP1 POP SWAP2 SWAP1 POP JUMP JUMPDEST PUSH32 0x206D696E757465732E0000000000000000000000000000000000000000000000 PUSH0 DUP3 ADD MSTORE POP JUMP JUMPDEST PUSH0 PUSH2 0x25A3 PUSH1 0x9 DUP4 PUSH2 0x22BA JUMP JUMPDEST SWAP2 POP PUSH2 0x25AE DUP3 PUSH2 0x256F JUMP JUMPDEST PUSH1 0x9 DUP3 ADD SWAP1 POP SWAP2 SWAP1 POP JUMP JUMPDEST PUSH0 PUSH2 0x25C3 DUP3 PUSH2 0x254D JUMP JUMPDEST SWAP2 POP PUSH2 0x25CF DUP3 DUP5 PUSH2 0x2317 JUMP JUMPDEST PUSH1 0x20 DUP3 ADD SWAP2 POP PUSH2 0x25DE DUP3 PUSH2 0x2597 JUMP JUMPDEST SWAP2 POP DUP2 SWAP1 POP SWAP3 SWAP2 POP POP JUMP JUMPDEST PUSH32 0x4E6F20456C656374696F6E000000000000000000000000000000000000000000 PUSH0 DUP3 ADD MSTORE POP JUMP JUMPDEST PUSH0 PUSH2 0x261D PUSH1 0xB DUP4 PUSH2 0x1BE3 JUMP JUMPDEST SWAP2 POP PUSH2 0x2628 DUP3 PUSH2 0x25E9 JUMP JUMPDEST PUSH1 0x20 DUP3 ADD SWAP1 POP SWAP2 SWAP1 POP JUMP JUMPDEST PUSH0 PUSH1 0x20 DUP3 ADD SWAP1 POP DUP2 DUP2 SUB PUSH0 DUP4 ADD MSTORE PUSH2 0x264A DUP2 PUSH2 0x2611 JUMP JUMPDEST SWAP1 POP SWAP2 SWAP1 POP JUMP JUMPDEST PUSH32 0x456C656374696F6E20656E64656420696E2061207469652C206D616E75616C20 PUSH0 DUP3 ADD MSTORE PUSH32 0x6465636973696F6E206E65656465640000000000000000000000000000000000 PUSH1 0x20 DUP3 ADD MSTORE POP JUMP JUMPDEST PUSH0 PUSH2 0x26AB PUSH1 0x2F DUP4 PUSH2 0x1BE3 JUMP JUMPDEST SWAP2 POP PUSH2 0x26B6 DUP3 PUSH2 0x2651 JUMP JUMPDEST PUSH1 0x40 DUP3 ADD SWAP1 POP SWAP2 SWAP1 POP JUMP JUMPDEST PUSH0 PUSH1 0x20 DUP3 ADD SWAP1 POP DUP2 DUP2 SUB PUSH0 DUP4 ADD MSTORE PUSH2 0x26D8 DUP2 PUSH2 0x269F JUMP JUMPDEST SWAP1 POP SWAP2 SWAP1 POP JUMP JUMPDEST PUSH0 DUP2 SLOAD SWAP1 POP PUSH2 0x26ED DUP2 PUSH2 0x1FBB JUMP JUMPDEST SWAP1 POP SWAP2 SWAP1 POP JUMP JUMPDEST PUSH0 DUP2 SWAP1 POP DUP2 PUSH0 MSTORE PUSH1 0x20 PUSH0 KECCAK256 SWAP1 POP SWAP2 SWAP1 POP JUMP JUMPDEST DUP2 DUP2 SUB PUSH2 0x2714 JUMPI POP POP PUSH2 0x27E9 JUMP JUMPDEST PUSH2 0x271D DUP3 PUSH2 0x26DF JUMP JUMPDEST PUSH8 0xFFFFFFFFFFFFFFFF DUP2 GT ISZERO PUSH2 0x2736 JUMPI PUSH2 0x2735 PUSH2 0x1F61 JUMP JUMPDEST JUMPDEST PUSH2 0x2740 DUP3 SLOAD PUSH2 0x1FBB JUMP JUMPDEST PUSH2 0x274B DUP3 DUP3 DUP6 PUSH2 0x2102 JUMP JUMPDEST PUSH0 PUSH1 0x1F DUP4 GT PUSH1 0x1 DUP2 EQ PUSH2 0x2778 JUMPI PUSH0 DUP5 ISZERO PUSH2 0x2766 JUMPI DUP3 DUP8 ADD SLOAD SWAP1 POP JUMPDEST PUSH2 0x2770 DUP6 DUP3 PUSH2 0x2170 JUMP JUMPDEST DUP7 SSTORE POP PUSH2 0x27E2 JUMP JUMPDEST PUSH1 0x1F NOT DUP5 AND PUSH2 0x2786 DUP8 PUSH2 0x26F4 JUMP JUMPDEST SWAP7 POP PUSH2 0x2791 DUP7 PUSH2 0x1FEB JUMP JUMPDEST PUSH0 JUMPDEST DUP3 DUP2 LT ISZERO PUSH2 0x27B8 JUMPI DUP5 DUP10 ADD SLOAD DUP3 SSTORE PUSH1 0x1 DUP3 ADD SWAP2 POP PUSH1 0x1 DUP6 ADD SWAP5 POP PUSH1 0x20 DUP2 ADD SWAP1 POP PUSH2 0x2793 JUMP JUMPDEST DUP7 DUP4 LT ISZERO PUSH2 0x27D5 JUMPI DUP5 DUP10 ADD SLOAD PUSH2 0x27D1 PUSH1 0x1F DUP10 AND DUP3 PUSH2 0x2154 JUMP JUMPDEST DUP4 SSTORE POP JUMPDEST PUSH1 0x1 PUSH1 0x2 DUP9 MUL ADD DUP9 SSTORE POP POP POP JUMPDEST POP POP POP POP POP POP JUMPDEST JUMP JUMPDEST PUSH32 0x43616E27742061646420636F6E74657374616E747320647572696E6720656C65 PUSH0 DUP3 ADD MSTORE PUSH32 0x6374696F6E000000000000000000000000000000000000000000000000000000 PUSH1 0x20 DUP3 ADD MSTORE POP JUMP JUMPDEST PUSH0 PUSH2 0x2845 PUSH1 0x25 DUP4 PUSH2 0x1BE3 JUMP JUMPDEST SWAP2 POP PUSH2 0x2850 DUP3 PUSH2 0x27EB JUMP JUMPDEST PUSH1 0x40 DUP3 ADD SWAP1 POP SWAP2 SWAP1 POP JUMP JUMPDEST PUSH0 PUSH1 0x20 DUP3 ADD SWAP1 POP DUP2 DUP2 SUB PUSH0 DUP4 ADD MSTORE PUSH2 0x2872 DUP2 PUSH2 0x2839 JUMP JUMPDEST SWAP1 POP SWAP2 SWAP1 POP JUMP JUMPDEST DUP3 DUP2 DUP4 CALLDATACOPY PUSH0 DUP4 DUP4 ADD MSTORE POP POP POP JUMP JUMPDEST PUSH0 PUSH2 0x2892 DUP4 DUP6 PUSH2 0x22BA JUMP JUMPDEST SWAP4 POP PUSH2 0x289F DUP4 DUP6 DUP5 PUSH2 0x2879 JUMP JUMPDEST DUP3 DUP5 ADD SWAP1 POP SWAP4 SWAP3 POP POP POP JUMP JUMPDEST PUSH0 PUSH2 0x28B7 DUP3 DUP5 DUP7 PUSH2 0x2887 JUMP JUMPDEST SWAP2 POP DUP2 SWAP1 POP SWAP4 SWAP3 POP POP POP JUMP JUMPDEST PUSH0 DUP2 SLOAD PUSH2 0x28CF DUP2 PUSH2 0x1FBB JUMP JUMPDEST PUSH2 0x28D9 DUP2 DUP7 PUSH2 0x22BA JUMP JUMPDEST SWAP5 POP PUSH1 0x1 DUP3 AND PUSH0 DUP2 EQ PUSH2 0x28F3 JUMPI PUSH1 0x1 DUP2 EQ PUSH2 0x2908 JUMPI PUSH2 0x293A JUMP JUMPDEST PUSH1 0xFF NOT DUP4 AND DUP7 MSTORE DUP2 ISZERO ISZERO DUP3 MUL DUP7 ADD SWAP4 POP PUSH2 0x293A JUMP JUMPDEST PUSH2 0x2911 DUP6 PUSH2 0x1FEB JUMP JUMPDEST PUSH0 JUMPDEST DUP4 DUP2 LT ISZERO PUSH2 0x2932 JUMPI DUP2 SLOAD DUP2 DUP10 ADD MSTORE PUSH1 0x1 DUP3 ADD SWAP2 POP PUSH1 0x20 DUP2 ADD SWAP1 POP PUSH2 0x2913 JUMP JUMPDEST DUP4 DUP9 ADD SWAP6 POP POP POP JUMPDEST POP POP POP SWAP3 SWAP2 POP POP JUMP JUMPDEST PUSH0 PUSH2 0x294E DUP3 DUP5 PUSH2 0x28C3 JUMP JUMPDEST SWAP2 POP DUP2 SWAP1 POP SWAP3 SWAP2 POP POP JUMP JUMPDEST PUSH32 0x436F6E74657374616E7420776974682073616D65206E616D6520657869737473 PUSH0 DUP3 ADD MSTORE POP JUMP JUMPDEST PUSH0 PUSH2 0x298D PUSH1 0x20 DUP4 PUSH2 0x1BE3 JUMP JUMPDEST SWAP2 POP PUSH2 0x2998 DUP3 PUSH2 0x2959 JUMP JUMPDEST PUSH1 0x20 DUP3 ADD SWAP1 POP SWAP2 SWAP1 POP JUMP JUMPDEST PUSH0 PUSH1 0x20 DUP3 ADD SWAP1 POP DUP2 DUP2 SUB PUSH0 DUP4 ADD MSTORE PUSH2 0x29BA DUP2 PUSH2 0x2981 JUMP JUMPDEST SWAP1 POP SWAP2 SWAP1 POP JUMP JUMPDEST PUSH32 0x4F6E6520636F6E74657374616E74207065722070617274790000000000000000 PUSH0 DUP3 ADD MSTORE POP JUMP JUMPDEST PUSH0 PUSH2 0x29F5 PUSH1 0x18 DUP4 PUSH2 0x1BE3 JUMP JUMPDEST SWAP2 POP PUSH2 0x2A00 DUP3 PUSH2 0x29C1 JUMP JUMPDEST PUSH1 0x20 DUP3 ADD SWAP1 POP SWAP2 SWAP1 POP JUMP JUMPDEST PUSH0 PUSH1 0x20 DUP3 ADD SWAP1 POP DUP2 DUP2 SUB PUSH0 DUP4 ADD MSTORE PUSH2 0x2A22 DUP2 PUSH2 0x29E9 JUMP JUMPDEST SWAP1 POP SWAP2 SWAP1 POP JUMP JUMPDEST PUSH32 0x456C656374696F6E20616C726561647920737461727465640000000000000000 PUSH0 DUP3 ADD MSTORE POP JUMP JUMPDEST PUSH0 PUSH2 0x2A5D PUSH1 0x18 DUP4 PUSH2 0x1BE3 JUMP JUMPDEST SWAP2 POP PUSH2 0x2A68 DUP3 PUSH2 0x2A29 JUMP JUMPDEST PUSH1 0x20 DUP3 ADD SWAP1 POP SWAP2 SWAP1 POP JUMP JUMPDEST PUSH0 PUSH1 0x20 DUP3 ADD SWAP1 POP DUP2 DUP2 SUB PUSH0 DUP4 ADD MSTORE PUSH2 0x2A8A DUP2 PUSH2 0x2A51 JUMP JUMPDEST SWAP1 POP SWAP2 SWAP1 POP JUMP JUMPDEST PUSH32 0x5365742073746172742074696D65206669727374000000000000000000000000 PUSH0 DUP3 ADD MSTORE POP JUMP JUMPDEST PUSH0 PUSH2 0x2AC5 PUSH1 0x14 DUP4 PUSH2 0x1BE3 JUMP JUMPDEST SWAP2 POP PUSH2 0x2AD0 DUP3 PUSH2 0x2A91 JUMP JUMPDEST PUSH1 0x20 DUP3 ADD SWAP1 POP SWAP2 SWAP1 POP JUMP JUMPDEST PUSH0 PUSH1 0x20 DUP3 ADD SWAP1 POP DUP2 DUP2 SUB PUSH0 DUP4 ADD MSTORE PUSH2 0x2AF2 DUP2 PUSH2 0x2AB9 JUMP JUMPDEST SWAP1 POP SWAP2 SWAP1 POP JUMP JUMPDEST PUSH32 0x456C656374696F6E2077696C6C206C6173742000000000000000000000000000 PUSH0 DUP3 ADD MSTORE POP JUMP JUMPDEST PUSH0 PUSH2 0x2B2D PUSH1 0x13 DUP4 PUSH2 0x22BA JUMP JUMPDEST SWAP2 POP PUSH2 0x2B38 DUP3 PUSH2 0x2AF9 JUMP JUMPDEST PUSH1 0x13 DUP3 ADD SWAP1 POP SWAP2 SWAP1 POP JUMP JUMPDEST PUSH32 0x6D696E757465732E000000000000000000000000000000000000000000000000 PUSH0 DUP3 ADD MSTORE POP JUMP JUMPDEST PUSH0 PUSH2 0x2B77 PUSH1 0x8 DUP4 PUSH2 0x22BA JUMP JUMPDEST SWAP2 POP PUSH2 0x2B82 DUP3 PUSH2 0x2B43 JUMP JUMPDEST PUSH1 0x8 DUP3 ADD SWAP1 POP SWAP2 SWAP1 POP JUMP JUMPDEST PUSH0 PUSH2 0x2B97 DUP3 PUSH2 0x2B21 JUMP JUMPDEST SWAP2 POP PUSH2 0x2BA3 DUP3 DUP5 PUSH2 0x2317 JUMP JUMPDEST PUSH1 0x20 DUP3 ADD SWAP2 POP PUSH2 0x2BB2 DUP3 PUSH2 0x2B6B JUMP JUMPDEST SWAP2 POP DUP2 SWAP1 POP SWAP3 SWAP2 POP POP JUMP JUMPDEST PUSH32 0x4E6F20656C656374696F6E206F6E676F696E6700000000000000000000000000 PUSH0 DUP3 ADD MSTORE POP JUMP JUMPDEST PUSH0 PUSH2 0x2BF1 PUSH1 0x13 DUP4 PUSH2 0x1BE3 JUMP JUMPDEST SWAP2 POP PUSH2 0x2BFC DUP3 PUSH2 0x2BBD JUMP JUMPDEST PUSH1 0x20 DUP3 ADD SWAP1 POP SWAP2 SWAP1 POP JUMP JUMPDEST PUSH0 PUSH1 0x20 DUP3 ADD SWAP1 POP DUP2 DUP2 SUB PUSH0 DUP4 ADD MSTORE PUSH2 0x2C1E DUP2 PUSH2 0x2BE5 JUMP JUMPDEST SWAP1 POP SWAP2 SWAP1 POP JUMP JUMPDEST PUSH32 0x496E76616C696420766F74657220696E64657800000000000000000000000000 PUSH0 DUP3 ADD MSTORE POP JUMP JUMPDEST PUSH0 PUSH2 0x2C59 PUSH1 0x13 DUP4 PUSH2 0x1BE3 JUMP JUMPDEST SWAP2 POP PUSH2 0x2C64 DUP3 PUSH2 0x2C25 JUMP JUMPDEST PUSH1 0x20 DUP3 ADD SWAP1 POP SWAP2 SWAP1 POP JUMP JUMPDEST PUSH0 PUSH1 0x20 DUP3 ADD SWAP1 POP DUP2 DUP2 SUB PUSH0 DUP4 ADD MSTORE PUSH2 0x2C86 DUP2 PUSH2 0x2C4D JUMP JUMPDEST SWAP1 POP SWAP2 SWAP1 POP JUMP JUMPDEST PUSH32 0x566F746572206973206E6F7420656C696769626C650000000000000000000000 PUSH0 DUP3 ADD MSTORE POP JUMP JUMPDEST PUSH0 PUSH2 0x2CC1 PUSH1 0x15 DUP4 PUSH2 0x1BE3 JUMP JUMPDEST SWAP2 POP PUSH2 0x2CCC DUP3 PUSH2 0x2C8D JUMP JUMPDEST PUSH1 0x20 DUP3 ADD SWAP1 POP SWAP2 SWAP1 POP JUMP JUMPDEST PUSH0 PUSH1 0x20 DUP3 ADD SWAP1 POP DUP2 DUP2 SUB PUSH0 DUP4 ADD MSTORE PUSH2 0x2CEE DUP2 PUSH2 0x2CB5 JUMP JUMPDEST SWAP1 POP SWAP2 SWAP1 POP JUMP JUMPDEST PUSH32 0x566F7465722068617320616C726561647920766F746564000000000000000000 PUSH0 DUP3 ADD MSTORE POP JUMP JUMPDEST PUSH0 PUSH2 0x2D29 PUSH1 0x17 DUP4 PUSH2 0x1BE3 JUMP JUMPDEST SWAP2 POP PUSH2 0x2D34 DUP3 PUSH2 0x2CF5 JUMP JUMPDEST PUSH1 0x20 DUP3 ADD SWAP1 POP SWAP2 SWAP1 POP JUMP JUMPDEST PUSH0 PUSH1 0x20 DUP3 ADD SWAP1 POP DUP2 DUP2 SUB PUSH0 DUP4 ADD MSTORE PUSH2 0x2D56 DUP2 PUSH2 0x2D1D JUMP JUMPDEST SWAP1 POP SWAP2 SWAP1 POP JUMP JUMPDEST PUSH32 0x496E76616C696420636F6E74657374616E7420696E6465780000000000000000 PUSH0 DUP3 ADD MSTORE POP JUMP JUMPDEST PUSH0 PUSH2 0x2D91 PUSH1 0x18 DUP4 PUSH2 0x1BE3 JUMP JUMPDEST SWAP2 POP PUSH2 0x2D9C DUP3 PUSH2 0x2D5D JUMP JUMPDEST PUSH1 0x20 DUP3 ADD SWAP1 POP SWAP2 SWAP1 POP JUMP JUMPDEST PUSH0 PUSH1 0x20 DUP3 ADD SWAP1 POP DUP2 DUP2 SUB PUSH0 DUP4 ADD MSTORE PUSH2 0x2DBE DUP2 PUSH2 0x2D85 JUMP JUMPDEST SWAP1 POP SWAP2 SWAP1 POP JUMP JUMPDEST PUSH0 PUSH2 0x2DCF DUP3 PUSH2 0x19D3 JUMP JUMPDEST SWAP2 POP PUSH32 0xFFFFFFFFFFFFFFFFFFFFFFFFFFFFFFFFFFFFFFFFFFFFFFFFFFFFFFFFFFFFFFFF DUP3 SUB PUSH2 0x2E01 JUMPI PUSH2 0x2E00 PUSH2 0x225A JUMP JUMPDEST JUMPDEST PUSH1 0x1 DUP3 ADD SWAP1 POP SWAP2 SWAP1 POP JUMP JUMPDEST PUSH0 PUSH2 0x2E16 DUP3 PUSH2 0x1994 JUMP JUMPDEST SWAP2 POP PUSH4 0xFFFFFFFF DUP3 SUB PUSH2 0x2E2C JUMPI PUSH2 0x2E2B PUSH2 0x225A JUMP JUMPDEST JUMPDEST PUSH1 0x1 DUP3 ADD SWAP1 POP SWAP2 SWAP1 POP JUMP INVALID LOG2 PUSH5 0x6970667358 0x22 SLT KECCAK256 0xD7 NUMBER 0xEA PUSH20 0xB2D5D29BBF3820633BE0077C7A88C02759CC0B27 XOR PUSH0 PUSH32 0x51B511D05D64736F6C634300081C003300000000000000000000000000000000 "
				},
				"gasEstimates": {
					"creation": {
						"codeDepositCost": "2377000",
						"executionCost": "infinite",
						"totalCost": "infinite"
					},
					"external": {
						"addContestant(string,uint8,string,string)": "infinite",
						"admins(uint256)": "4990",
						"contestants(uint256)": "infinite",
						"endElection()": "infinite",
						"numOfVotes()": "2489",
						"registerAsAdmin()": "infinite",
						"registerVoter(string,uint8,string)": "infinite",
						"showWinner()": "infinite",
						"startElectionNow()": "infinite",
						"vote(uint256,uint256)": "infinite",
						"voters(uint256)": "infinite",
						"votes(uint256)": "infinite",
						"votingActive()": "2511",
						"votingEndInMinutes(uint256)": "infinite",
						"votingEndTime()": "2493",
						"votingStartInMinutes(uint256)": "infinite",
						"votingStartTime()": "2515"
					}
				},
				"methodIdentifiers": {
					"addContestant(string,uint8,string,string)": "86d39d07",
					"admins(uint256)": "14bfd6d0",
					"contestants(uint256)": "dfd50f52",
					"endElection()": "59f78468",
					"numOfVotes()": "1400649e",
					"registerAsAdmin()": "498d55b8",
					"registerVoter(string,uint8,string)": "27c5b5cc",
					"showWinner()": "b7e03264",
					"startElectionNow()": "87608aad",
					"vote(uint256,uint256)": "b384abef",
					"voters(uint256)": "da58c7d9",
					"votes(uint256)": "5df81330",
					"votingActive()": "408e2727",
					"votingEndInMinutes(uint256)": "8bd23ebc",
					"votingEndTime()": "1ea736e0",
					"votingStartInMinutes(uint256)": "4b8e3a26",
					"votingStartTime()": "2019a608"
				}
			},
			"storageLayout": {
				"storage": [
					{
						"astId": 23,
						"contract": "contracts/VotingContract.sol:VotingContract",
						"label": "numOfVotes",
						"offset": 0,
						"slot": "0",
						"type": "t_uint32"
					},
					{
						"astId": 25,
						"contract": "contracts/VotingContract.sol:VotingContract",
						"label": "votingStartTime",
						"offset": 0,
						"slot": "1",
						"type": "t_uint256"
					},
					{
						"astId": 27,
						"contract": "contracts/VotingContract.sol:VotingContract",
						"label": "votingEndTime",
						"offset": 0,
						"slot": "2",
						"type": "t_uint256"
					},
					{
						"astId": 29,
						"contract": "contracts/VotingContract.sol:VotingContract",
						"label": "votingActive",
						"offset": 0,
						"slot": "3",
						"type": "t_bool"
					},
					{
						"astId": 31,
						"contract": "contracts/VotingContract.sol:VotingContract",
						"label": "presidentElect",
						"offset": 0,
						"slot": "4",
						"type": "t_string_storage"
					},
					{
						"astId": 34,
						"contract": "contracts/VotingContract.sol:VotingContract",
						"label": "admins",
						"offset": 0,
						"slot": "5",
						"type": "t_array(t_address)dyn_storage"
					},
					{
						"astId": 38,
						"contract": "contracts/VotingContract.sol:VotingContract",
						"label": "contestants",
						"offset": 0,
						"slot": "6",
						"type": "t_array(t_struct(Contestant)21_storage)dyn_storage"
					},
					{
						"astId": 42,
						"contract": "contracts/VotingContract.sol:VotingContract",
						"label": "voters",
						"offset": 0,
						"slot": "7",
						"type": "t_array(t_struct(Voter)12_storage)dyn_storage"
					},
					{
						"astId": 46,
						"contract": "contracts/VotingContract.sol:VotingContract",
						"label": "votes",
						"offset": 0,
						"slot": "8",
						"type": "t_mapping(t_uint256,t_uint256)"
					}
				],
				"types": {
					"t_address": {
						"encoding": "inplace",
						"label": "address",
						"numberOfBytes": "20"
					},
					"t_array(t_address)dyn_storage": {
						"base": "t_address",
						"encoding": "dynamic_array",
						"label": "address[]",
						"numberOfBytes": "32"
					},
					"t_array(t_struct(Contestant)21_storage)dyn_storage": {
						"base": "t_struct(Contestant)21_storage",
						"encoding": "dynamic_array",
						"label": "struct VotingContract.Contestant[]",
						"numberOfBytes": "32"
					},
					"t_array(t_struct(Voter)12_storage)dyn_storage": {
						"base": "t_struct(Voter)12_storage",
						"encoding": "dynamic_array",
						"label": "struct VotingContract.Voter[]",
						"numberOfBytes": "32"
					},
					"t_bool": {
						"encoding": "inplace",
						"label": "bool",
						"numberOfBytes": "1"
					},
					"t_mapping(t_uint256,t_uint256)": {
						"encoding": "mapping",
						"key": "t_uint256",
						"label": "mapping(uint256 => uint256)",
						"numberOfBytes": "32",
						"value": "t_uint256"
					},
					"t_string_storage": {
						"encoding": "bytes",
						"label": "string",
						"numberOfBytes": "32"
					},
					"t_struct(Contestant)21_storage": {
						"encoding": "inplace",
						"label": "struct VotingContract.Contestant",
						"members": [
							{
								"astId": 14,
								"contract": "contracts/VotingContract.sol:VotingContract",
								"label": "name",
								"offset": 0,
								"slot": "0",
								"type": "t_string_storage"
							},
							{
								"astId": 16,
								"contract": "contracts/VotingContract.sol:VotingContract",
								"label": "age",
								"offset": 0,
								"slot": "1",
								"type": "t_uint8"
							},
							{
								"astId": 18,
								"contract": "contracts/VotingContract.sol:VotingContract",
								"label": "party",
								"offset": 0,
								"slot": "2",
								"type": "t_string_storage"
							},
							{
								"astId": 20,
								"contract": "contracts/VotingContract.sol:VotingContract",
								"label": "manifesto",
								"offset": 0,
								"slot": "3",
								"type": "t_string_storage"
							}
						],
						"numberOfBytes": "128"
					},
					"t_struct(Voter)12_storage": {
						"encoding": "inplace",
						"label": "struct VotingContract.Voter",
						"members": [
							{
								"astId": 3,
								"contract": "contracts/VotingContract.sol:VotingContract",
								"label": "name",
								"offset": 0,
								"slot": "0",
								"type": "t_string_storage"
							},
							{
								"astId": 5,
								"contract": "contracts/VotingContract.sol:VotingContract",
								"label": "age",
								"offset": 0,
								"slot": "1",
								"type": "t_uint8"
							},
							{
								"astId": 7,
								"contract": "contracts/VotingContract.sol:VotingContract",
								"label": "nationality",
								"offset": 0,
								"slot": "2",
								"type": "t_string_storage"
							},
							{
								"astId": 9,
								"contract": "contracts/VotingContract.sol:VotingContract",
								"label": "voted",
								"offset": 0,
								"slot": "3",
								"type": "t_bool"
							},
							{
								"astId": 11,
								"contract": "contracts/VotingContract.sol:VotingContract",
								"label": "isEligible",
								"offset": 1,
								"slot": "3",
								"type": "t_bool"
							}
						],
						"numberOfBytes": "128"
					},
					"t_uint256": {
						"encoding": "inplace",
						"label": "uint256",
						"numberOfBytes": "32"
					},
					"t_uint32": {
						"encoding": "inplace",
						"label": "uint32",
						"numberOfBytes": "4"
					},
					"t_uint8": {
						"encoding": "inplace",
						"label": "uint8",
						"numberOfBytes": "1"
					}
				}
			},
			"userdoc": {
				"kind": "user",
				"methods": {},
				"version": 1
			}
		}
	}
}